S00E00005465737465722E737265639F
S113000039C2000056C2000054C2000052C20000AF
S113001050C200000C94E71A0C941F1B0C94571B3D
S11300200C948F1B46C2000044C2000042C2000070
S113003040C200003EC200003CC200003AC20000C0
S113004038C2000036C2000034C2000032C20000D0
S113005030C200002EC200002CC200002AC20000E0
S113006028C2000026C2000024C2000022C20000F0
S113007020C200001EC200001CC200001AC2000000
S113008018C2000016C2000014C2000012C2000010
S113009010C2000067E6096A85AE67BB72F36E3C66
S11300A03AF54FA57F520E518C68059BABD9831F3F
S11300B019CDE05B22AE28D7982F8A42CD65EF2375
S11300C0914437712F3B4DECCFFBC0B5BCDB89812C
S11300D0A5DBB5E938B548F35BC2563919D005B686
S11300E0F111F1599B4F19AFA4823F9218816DDA37
S11300F0D55E1CAB420203A398AA07D8BE6F704515
S1130100015B83128CB2E44EBE853124E2B4FFD588
S1130110C37D0C556F897BF2745DBE72B196163B3C
S1130120FEB1DE803512C725A706DC9B942669CF75
S113013074F19BC1D24AF19EC1699BE4E3254F3817
S11301408647BEEFB5D58C8BC69DC10F659CAC7739
S1130150CCA10C2475022B596F2CE92D83E4A66ED7
S1130160AA84744AD4FB41BDDCA9B05CB5531183A5
S1130170DA88F976ABDF66EE52513E981032B42D30
S11301806DC631A83F21FB98C82703B0E40EEFBE2B
S1130190C77F59BFC28FA83DF30BE0C625A70A93BA
S11301A04791A7D56F8203E05163CA06706E0E0AA9
S11301B067292914FC2FD246850AB72726C9265C4D
S11301C038211B2EED2AC45AFC6D2C4DDFB3959DAE
S11301D0130D3853DE63AF8B54730A65A8B2773CB2
S11301E0BB0A6A76E6AEED472EC9C2813B3582145E
S11301F0852C72926403F14CA1E8BFA2013042BC89
S11302004B661AA89197F8D0708B4BC230BE540637
S1130210A3516CC71852EFD619E892D110A96555AD
S1130220240699D62A20715785350EF4B8D1BB32ED
S113023070A06A10C8D0D2B816C1A41953AB4151EA
S1130240086C371E99EB8EDF4C774827A8489BE152
S1130250B5BCB034635AC9C5B30C1C39CB8A41E36D
S11302604AAAD84E73E363774FCA9C5BA3B8B2D64D
S1130270F36F2E68FCB2EF5DEE828F74602F17432C
S11302806F63A57872ABF0A11478C884EC39641A52
S11302900802C78C281E6323FAFFBE90E9BD82DEE4
S11302A0EB6C50A41579C6B2F7A3F9BE2B5372E3D5
S11302B0F27871C69C6126EACE3E27CA07C2C021E5
S11302C0C7B886D11EEBE0CDD67DDAEA78D16EEEE2
S11302D07F4F7DF5BA6F1772AA67F006A698C8A279
S11302E0C57D630AAE0DF9BE04983F111B471C136C
S11302F0350B711B847D0423F577DB289324C740D9
S11303007BABCA32BCBEC9150ABE9E3C4C0D109CC8
S1130310C4671D43B6423ECBBED4C54C2A7E65FCA1
S11303209C297F59ECFAD63AAB6FCB5F1758474AF2
S11303308C19446C982F8A4291443771CFFBC0B515
S1130340A5DBB5E95BC25639F111F159A4823F929C
S1130350D55E1CAB98AA07D8015B8312BE853124F5
S1130360C37D0C55745DBE72FEB1DE80A706DC9BB6
S113037074F19BC1C1699BE48647BEEFC69DC10F62
S1130380CCA10C246F2CE92DAA84744ADCA9B05C9E
S1130390DA88F97652513E986DC631A8C82703B061
S11303A0C77F59BFF30BE0C64791A7D55163CA066F
S11303B067292914850AB72738211B2EFC6D2C4D7B
S11303C0130D385354730A65BB0A6A762EC9C28169
S11303D0852C7292A1E8BFA24B661AA8708B4BC2FF
S11303E0A3516CC719E892D1240699D685350EF429
S11303F070A06A1016C1A419086C371E4C774827E0
S1130400B5BCB034B30C1C394AAAD84E4FCA9C5B55
S1130410F36F2E68EE828F746F63A5781478C884A6
S11304200802C78CFAFFBE90EB6C50A4F7A3F9BE88
S1130430F27871C608C9BCF367E6096A3BA7CA84A7
S113044085AE67BB2BF894FE72F36E3CF1361D5FEC
S11304503AF54FA5D182E6AD7F520E511F6C3E2B6B
S11304608C68059B6BBD41FBABD9831F79217E133F
S113047019CDE05B11241FBECFEFD0E1DEBFCDBFAD
S113048013E0A0E0B1E0ECE5FEE500E00BBF02C044
S113049007900D92AE3BB107D9F723E0AEEBB3E082
S11304A001C01D92A13CB207E1F70E94C01C0C944C
S11304B02C2FA6CDF89481E08093D80084E3809318
S11304C0DB001092DA0020E0822F8295807F8093F7
S11304D0ED001092EF001092EE0088E090E0109290
S11304E0FA000197E1F72F5F2F3071F788E08093CE
S11304F0ED0086E08093E2008CE08093E30087E3E4
S11305008093E4001092E50082E08093D800789410
S11305100895BC0140E050E09A0122953295307F65
S11305203227207F3227322F38603093ED00FB01D1
S113053090E0292F232B2093ED002091FA002193A2
S11305409F5F9830B1F73093ED00685F7F4F4F5F46
S11305505F4F4830510501F70895DB01FA0120E1AE
S1130560829FC001112488608093ED009C91929534
S1130570990F907E9093F2002C91422F46954695C8
S1130580469511969C9150E2959F90011124242B3D
S11305902093F3001092F0008093ED0090E0282F58
S11305A0292B2093ED0021912093FA009F5F98302E
S11305B0B1F78093ED0088E48093EF008091EE0022
S11305C08034E1F71092EE001092EF0080E090E0AA
S11305D00895CF93DF93EB01DA01F90140E1849FA1
S11305E090011124922F98609093ED0021E030E067
S11305F001C0220F8A95EAF72093DE008881829554
S1130600880F807E8093F2002881422F469546957C
S11306104695898150E2859F90011124242B2093D3
S1130620F3001092F0008C918295880F807E809365
S1130630F6002C91522F56955695569511968C91FD
S113064040E2849F90011124252B2093F7001092FF
S1130650F40088E88093EF008091DA0087FFFCCFF4
S11306608091EE0085FF1EC01092EE001092EF0004
S11306701092DE008091DA008093DA009093ED000E
S113068080E0292F282B2093ED002091FA0021935C
S11306908F5F8830B1F79093ED0080E090E0DF91B8
S11306A0CF91089581E090E0DF91CF910895EF928A
S11306B0FF920F931F93CF93DF9300D0CDB7DEB794
S11306C07C01062F662379F010E019831A82A701B2
S11306D0BE016F5F7F4F812F40DF88E0E80EF11C81
S11306E01F5F0113F2CF80E090E00F900F90DF9135
S11306F0CF911F910F91FF90EF900895FC0180918D
S1130700DB0084608093DB00662349F120E030E065
S1130710A0EE7FEF88ECA90142955295507F5427B3
S1130720407F542748604093ED00922F9295990F93
S1130730907E9093F200922F96959695969590932D
S1130740F3001092F000A093F6007093F70010925B
S1130750F4008093EF002F5F3F4F2617E0F2909153
S1130760DA0097FFFCCF8091DA0084FF1FC0662374
S1130770A1F020E030E0A90142955295507F542722
S1130780407F542748604093ED001092EF00109290
S1130790EE002F5F3F4F261770F3CF012091DA0050
S11307A02093DA00B6DE80E090E0089581E090E0E6
S11307B00895DC01EFEFF3E0E61BF10909941D92C3
S11307C01D921D921D921D921D921D921D921D92AD
S11307D01D921D921D921D921D921D921D921D929D
S11307E01D921D921D921D921D921D921D921D928D
S11307F01D921D921D921D921D921D921D9208958F
S1130800CF93DF93440FEB01DC01EAE4F4E0E41B53
S1130810F109099409900D9209900D9209900D9295
S113082009900D9209900D9209900D9209900D92E4
S113083009900D9209900D9209900D9209900D92D4
S113084009900D9209900D9209900D9209900D92C4
S113085009900D9209900D9209900D9209900D92B4
S113086009900D9209900D9209900D9209900D92A4
S113087009900D9209900D9209900D9209900D9294
S113088009900D9209900D9209900D9209900D9284
S113089009900D92DF91CF910895262F32E0639F46
S11308A0200D11242350DC01EBEBF4E0E21BF109F1
S11308B0A60FB11D0E9006940C9209940E90079405
S11308C00C920E9007940C920E9007940C920E903A
S11308D007940C920E9007940C920E9007940C922D
S11308E00E9007940C920E9007940C920E9007941D
S11308F00C920E9007940C920E9007940C920E900A
S113090007940C920E9007940C920E9007940C92FC
S11309100E9007940C920E9007940C920E900794EC
S11309200C920E9007940C920E9007940C920E90D9
S113093007940C920E9007940C920E9007940C92CC
S11309400E9007940C920E9007940C920E900794BC
S11309500C920E9007940C920E9007940C920E90A9
S113096007940C920E9007940C920E9007940C929C
S11309700E9007940C920895CF93DF93220FDB011E
S1130980EA01AC01E8E0F5E0E21BF109889409947E
S1130990FA013EC0FA0140C0FA0142C0FA0144C063
S11309A0FA0146C0FA0148C0FA014AC0FA014CC033
S11309B0FA014EC0FA0150C0FA0152C0FA0154C003
S11309C0FA0156C0FA0158C0FA015AC0FA015CC0D3
S11309D0FA015EC0FA0160C0FA0162C0FA0164C0A3
S11309E0FA0166C0FA0168C0FA016AC0FA016CC073
S11309F0FA016EC0FA0170C0FA0172C0FA0174C043
S1130A00FA0176C0FA0178C0FA017AC0FA017CC012
S1130A108D919991891F81938D919991891F8193CA
S1130A208D919991891F81938D919991891F8193BA
S1130A308D919991891F81938D919991891F8193AA
S1130A408D919991891F81938D919991891F81939A
S1130A508D919991891F81938D919991891F81938A
S1130A608D919991891F81938D919991891F81937A
S1130A708D919991891F81938D919991891F81936A
S1130A808D919991891F81938D919991891F81935A
S1130A908D919991891F81938D919991891F81934A
S1130AA08D919991891F81938D919991891F81933A
S1130AB08D919991891F81938D919991891F81932A
S1130AC08D919991891F81938D919991891F81931A
S1130AD08D919991891F81938D919991891F81930A
S1130AE08D919991891F81938D919991891F8193FA
S1130AF08D919991891F81938D919991891F8193EA
S1130B008D919991891F81938D919991891F8193D9
S1130B10812D881FDF91CF910895CF93DF93220F0A
S1130B20DB01EA01AC01E9EDF5E0E21BF10988948F
S1130B300994FA013EC0FA0140C0FA0142C0FA0128
S1130B4044C0FA0146C0FA0148C0FA014AC0FA0199
S1130B504CC0FA014EC0FA0150C0FA0152C0FA0169
S1130B6054C0FA0156C0FA0158C0FA015AC0FA0139
S1130B705CC0FA015EC0FA0160C0FA0162C0FA0109
S1130B8064C0FA0166C0FA0168C0FA016AC0FA01D9
S1130B906CC0FA016EC0FA0170C0FA0172C0FA01A9
S1130BA074C0FA0176C0FA0178C0FA017AC0FA0179
S1130BB07CC08D919991890B81938D919991890B29
S1130BC081938D919991890B81938D919991890B41
S1130BD081938D919991890B81938D919991890B31
S1130BE081938D919991890B81938D919991890B21
S1130BF081938D919991890B81938D919991890B11
S1130C0081938D919991890B81938D919991890B00
S1130C1081938D919991890B81938D919991890BF0
S1130C2081938D919991890B81938D919991890BE0
S1130C3081938D919991890B81938D919991890BD0
S1130C4081938D919991890B81938D919991890BC0
S1130C5081938D919991890B81938D919991890BB0
S1130C6081938D919991890B81938D919991890BA0
S1130C7081938D919991890B81938D919991890B90
S1130C8081938D919991890B81938D919991890B80
S1130C9081938D919991890B81938D919991890B70
S1130CA081938D919991890B81938D919991890B60
S1130CB08193812D881FDF91CF910895CF93DF9386
S1130CC0FC01DB01EA0190E0892F392F492F51E023
S1130CD060E0C50FD41F0D901A90019C900D811DEA
S1130CE0341F63956517B8F3A51BB40B9193982F24
S1130CF0832F342F5395521758F3522FC20FD41FFA
S1130D0060E00D901A90019C900D811D341F639535
S1130D106517B8F3C50FD41F9193982F832F342FE1
S1130D205A95A51BB40B541759F791931124DF91CD
S1130D30CF9108959C01615067FD16C0FC01E60F38
S1130D40F11D67FDFA958081882349F00DC0F901F2
S1130D50E60FF11D67FDFA959081911105C0615070
S1130D60B0F780E090E008956F5FD9F3062E000C91
S1130D70770B260F371FF90131978081882391F073
S1130D8090E086959F5F8111FCCF892F90E06150A0
S1130D907109660F771F660F771F660F771F860F1F
S1130DA0971F089580E090E0F2CF1F93CF93DF93D5
S1130DB0CDB7DEB7A0970FB6F894DEBF0FBECDBF98
S1130DC0142F242FAB01BC01CE010196A6DE41E015
S1130DD0811101C040E01116F4F4FE013196115066
S1130DE0212F30E02F5F3F4F2E0F3F1F90E0819166
S1130DF0982B2E173F07D9F781E0992361F0440F10
S1130E00841BA0960FB6F894DEBF0FBECDBFDF9152
S1130E10CF911F91089580E0F2CFEF92FF920F934C
S1130E20CF93DF93EC017901202FA6DD81111DC042
S1130E302FEF200F27FD19C004C03817B0F0215040
S1130E40A0F0822F022E000C990BF701E80FF91F76
S1130E503081FE01E80FF91F8081831770F7DF915D
S1130E60CF910F91FF90EF900895202FA701BE011D
S1130E70CE01DF91CF910F91FF90EF904ECEEF9284
S1130E80FF920F93CF93DF93EC017901202F45DE7E
S1130E90811106C0DF91CF910F91FF90EF900895DB
S1130EA0202FA701BE01CE01DF91CF910F91FF90BA
S1130EB0EF9062CD2F923F924F925F926F927F920A
S1130EC08F929F92AF92BF92CF92DF92EF92FF9256
S1130ED00F931F93CF93DF93CDB7DEB7C758D109D4
S1130EE00FB6F894DEBF0FBECDBFCB57DF4F99834B
S1130EF08883C558D040B62EA72E942E552E822E08
S1130F00CE010196CF57DF4F99838883C158D040D3
S1130F10CD57DF4F6883C358D040CC57DF4F788319
S1130F20C458D040022F022E000C110B622F842FC4
S1130F30952F00DF7801E294F29420EFF222FE2450
S1130F40E222FE24E81AF90AB701F7FC00C13B01CA
S1130F50759467947594679475946794A701477022
S1130F60507857FDF7C0D42E662DCE018F5B9F4F6E
S1130F7020DC1D140CF0F5C08820A9F14D2DDD0CEA
S1130F80550B88E090E06C01C41AD50AA92DB52D43
S1130F90662D660C770BE1E4F0E0EC0FFD1FE60F25
S1130FA0F71F8FEF880D90E00196680F791F81E499
S1130FB0282E312C2C0E3D1E620D731D912C8D910B
S1130FC090E09C01042E01C0220F0A94EAF729291B
S1130FD021930C2C02C0959587950A94E2F7982EDC
S1130FE06E177F0761F7F7FCCAC0380121E0621A67
S1130FF0710861E4C62ED12CCC0EDD1EC00ED11EAC
S1131000000F111F99249394AA24A394B12C81E472
S113101090E08C0F9D1F680E791E26011016110694
S11310200CF093C0892D90E0FC01EE0FFF1F31E816
S1131030232E312C2C0E3D1EE20DF31D6081718197
S1131040F501E81BF90BEE0FFF1FE20DF31D4081C4
S1131050518120E030E0A0E0B0E080E090E0FB01CE
S1131060E80FF91F2080C957DF4F2882C758D040A6
S1131070E1E4F0E0EC0FFD1F2E0F3F1FF90120818A
S1131080221A222D2B1BC957DF4FF881C758D04095
S1131090F21721F0B1E0F21708F0B0E0FA01E80F1E
S11310A0F91F2083AF5F8A2F0A2E000C990B9C0135
S11310B080179107A4F2332433949B12312C932C80
S11310C0682DCE018F5B9F4FE8DBF2018081F0E851
S11310D08F9FC0011124F3019081892B8083682D97
S11310E0C601DBDBF1E0EF1AF10808F097CFE32D3E
S11310F0F0E0EE0FFF1F81E890E08C0F9D1FE80FDA
S1131100F91F60817181482DCB57DF4F8881998108
S1131110C558D04075DBC957DF4F0FB6F894DEBF12
S11311200FBECDBFDF91CF911F910F91FF90EF9034
S1131130DF90CF90BF90AF909F908F907F906F90F3
S11311405F904F903F902F900895B0E0B4CF695FC7
S11311507F4FFDCE41505109486F5F6F4F5F5F4F26
S113116002CF482D692D752D81E490E08C0F9D1FD1
S1131170860D911D67FC9A9543DBF7FE36CF6B2DE8
S11311807A2DC1CF4F925F926F927F928F929F92EE
S1131190AF92BF92CF92DF92EF92FF920F931F9381
S11311A0CF93DF93CDB7DEB7C058D1090FB6F8940B
S11311B0DEBF0FBECDBF6C015901D9011C911116C0
S11311C07CF4FA01AFEFA10FB0E01196A40FB51FA4
S11311D090E03191932BEA17FB07D9F7911118C0CE
S11311E0C058DF4F0FB6F894DEBF0FBECDBFDF91FE
S11311F0CF911F910F91FF90EF90DF90CF90BF9010
S1131200AF909F908F907F906F905F904F900895D4
S11312107A014B01212FAB01CE0101964FDD25014F
S1131220BAEA4B0E511CD201ED91FC91BE016F5FE5
S11312307F4FCE018F599F4F0995F5012081AE0153
S11312404F595F4FB601CE01019638DDD201ED91C1
S1131250FC91BE016F5F7F4FCE018F5B9F4F09955D
S1131260F5012081AE014F595F4FBA01CE010196BD
S113127025DDD201ED91FC91BE016F5F7F4FCE0160
S11312808F599F4F0995F5012081A701B401CE0123
S1131290019614DDD201ED91FC91BE016F5F7F4F89
S11312A0C4010995F5012081A701B701CE0101967A
S11312B005DDD201ED91FC91BE016F5F7F4FC70147
S11312C009953501B4E06B0E711C012F9301A70140
S11312D0B601C601A2DD9301A701B701C7019DDDD7
S11312E09301A701B601C701CADDF5012081A70159
S11312F0B601CE010196E2DCD201ED91FC91BE0172
S11313006F5F7F4FC60109959301A601B601C7011E
S113131084DD9301A701B601C6017FDDF60180815A
S113132080FD4FC0612FC601B8DAD5012C91A6010A
S1131330B601CE010196C2DCD201ED91FC91BE0151
S11313406F5F7F4FC7010995012F9301AE014F5B7A
S11313505F4FB701C70193DD9301AE014F5B5F4F50
S1131360B701C7018CDD9301A701BE016F5B7F4FFD
S1131370CB0185DDF5012081AE014F5B5F4FB601E6
S1131380CE0101969BDCD201ED91FC91BE016F5F11
S11313907F4FC60109959301AE014F595F4FB601C6
S11313A0CA016DDD412FB701C6012ADA412FB4010C
S11313B0C70126DA412FBE016F597F4FC40120DADD
S11313C00FCF212FA301B601C601D6DA082F612F52
S11313D0C60163DAE12F012E000CFF0B3197EC0DEF
S11313E0FD1D20E8029FC00111240081082B008309
S11313F09CCF4F925F926F927F928F929F92AF9207
S1131400BF92CF92DF92EF92FF920F931F93CF93ED
S1131410DF93CDB7DEB7C056D1090FB6F894DEBF5F
S11314200FBECDBF7C015B016A014E0181E4880ED1
S1131430911C80E2D4011D928A95E9F783E0F401BE
S11314408083DA011C91212FAB01CE01019636DC99
S11314502601BAEA4B0E511CD201ED91FC91BE015A
S11314606F5F7F4FC70109953601B4E06B0E711CA5
S1131470012F9301A401B701C70101DDF601208109
S1131480A501B701CE01019619DCD201ED91FC91C1
S1131490BE016F5F7F4FC7010995A6014C575F4F8F
S11314A09301B701C701B9DCC05ADF4F0FB6F894F6
S11314B0DEBF0FBECDBFDF91CF911F910F91FF9083
S11314C0EF90DF90CF90BF90AF909F908F907F90E0
S11314D06F905F904F9008953F924F925F926F92FA
S11314E07F928F929F92AF92BF92CF92DF92EF92B0
S11314F0FF920F931F93CF93DF93CDB7DEB7C058FE
S1131500D1090FB6F894DEBF0FBECDBF2C016B011D
S11315105E0121E6A20EB11C90E2D501E92F1D92D5
S1131520EA95E9F781E0D5018C937E01B1E4EB0EF5
S1131530F11CF70111929A95E9F7D7018C93FB01FD
S113154030806C5F7F4F232DA501C50115DA632D13
S1131550C501F0DB8C0101501109023011050CF4B6
S113156046C0960126553F4F390188248394912C17
S113157005C00150110901301105C9F1D6012C91A2
S1131580A701B701CE01019699DBD301ED91FC913E
S1131590BE016F5F7F4FC7010995F801F595E79587
S11315A0F595E795F595E795EA0DFB1DC80187705C
S11315B09927940102C0220F331F8A95E2F7C901CB
S11315C090818923B1F2D6012C91A201B701CE01F9
S11315D0019674DBD301ED91FC91BE016F5F7F4FE7
S11315E0C7010995015011090130110539F6432D40
S11315F0B701C20105D9C058DF4F0FB6F894DEBF5A
S11316000FBECDBFDF91CF911F910F91FF90EF904F
S1131610DF90CF90BF90AF909F908F907F906F900E
S11316205F904F903F900895DF92EF92FF920F9357
S11316301F93CF93DF93CDB7DEB7A0970FB6F8947F
S1131640DEBF0FBECDBF7C018B0140E2D9D81C8226
S11316501B821A82198218861F821E821D821C8692
S11316601B861A861986F80184A58D8785A58E8721
S113167086A58F8787A5888B80A9898B81A98A8B6A
S113168082A98B8B83A98C8B84A98D8B85A98E8B46
S113169086A98F8B87A9888F80AD898F81AD8A8F2A
S11316A082AD8B8F83AD8C8F84AD8D8F85AD8E8F06
S11316B086AD8F8F87AD88A320E2AE014F5F5F4F69
S11316C0BA01CA0159D9D82E20E2AE014F5F5F4F4B
S11316D0B701C70151D9D80EF80180A98D8781A916
S11316E08E8782A98F8783A9888B84A9898B85A9F2
S11316F08A8B86A98B8B87A98C8B80AD8D8B81ADD2
S11317008E8B82AD8F8B83AD888F84AD898F85ADB1
S11317108A8F86AD8B8F87AD8C8F18A21F8E1E8EFD
S11317201D8E20E2AE014F5F5F4FBA01CA0124D97A
S1131730D80E20E2AE014F5F5F4FB701C7011CD93D
S1131740D80EF80180A1898381A18A8382A18B8329
S113175083A18C8384A18D8385A18E8386A18F83AD
S113176087A1888780A5898781A58A8782A58B8799
S113177083A58C87188A1F861E861D861C8A1B8A51
S11317801A8A198A188E1F8A1E8A1D8A80AD898F2B
S113179081AD8A8F82AD8B8F83AD8C8F84AD8D8F1D
S11317A085AD8E8F86AD8F8F87AD88A320E2AE0185
S11317B04F5F5F4FB701C701DFD8D80EF80184A18E
S11317C0898385A18A8386A18B8387A18C8380A545
S11317D08D8381A58E8382A58F8383A5888784A525
S11317E0898785A58A8786A58B8787A58C8734A951
S11317F03D8725A92E8796A99F8787A9888B40AD09
S1131800498B41AD4A8B42AD4B8B43AD4C8B44ADC0
S11318104D8B45AD4E8B46AD4F8B47AD488F398FC1
S11318202A8F9B8F8C8F80A18D8F81A18E8F82A117
S11318308F8F83A188A320E2AE014F5F5F4FB70172
S1131840C7019AD8D80EF80184A5898385A58A830F
S113185086A58B8387A58C8380A98D8381A98E839C
S113186082A98F8383A9888784A9898785A98A8780
S113187086A98B8787A98C87188A1F861E861D8652
S11318801C8A1B8A1A8A198A188E1F8A1E8A1D8A24
S113189080A1898F81A18A8F82A18B8F83A18C8F54
S11318A080A58D8F81A58E8F82A58F8F83A588A318
S11318B020E2AE014F5F5F4FB701C7012ED9D81A9E
S11318C0F80180A9898381A98A8382A98B8383A94A
S11318D08C8384A98D8385A98E8386A98F8387A908
S11318E0888780AD898781AD8A8782AD8B8783ADF8
S11318F08C8784AD8D8785AD8E8786AD8F8787ADC8
S1131900888B1C8A1B8A1A8A198A188E1F8A1E8A37
S11319101D8A84A1898F85A18A8F86A18B8F87A137
S11319208C8F84A58D8F85A58E8F86A58F8F87A597
S113193088A320E2AE014F5F5F4FB701C701EDD826
S1131940D81AF80184A9898385A98A8386A98B83F7
S113195087A98C8380AD8D8381AD8E8382AD8F8387
S113196083AD888784AD898785AD8A8786AD8B876B
S113197087AD8C8780A18D8781A18E8782A18F8777
S113198083A1888B84A1898B85A18A8B86A18B8B6B
S113199087A18C8B80A58D8B81A58E8B82A58F8B47
S11319A083A5888F1C8E1B8E1A8E198E80A98D8F0D
S11319B081A98E8F82A98F8F83A988A320E2AE018B
S11319C04F5F5F4FB701C701A8D8D81AF80180AD9F
S11319D0898381AD8A8382AD8B8383AD8C8384AD0F
S11319E08D8385AD8E8386AD8F8387AD88871C8676
S11319F01B861A86198684A18D8785A18E8786A168
S1131A008F8787A1888B80A5898B81A58A8B82A5E6
S1131A108B8B83A58C8B84A58D8B85A58E8B86A5BE
S1131A208F8B87A5888F1C8E1B8E1A8E198E84A986
S1131A308D8F85A98E8F86A98F8F87A988A320E291
S1131A40AE014F5F5F4FB701C70167D8D81AD7FC03
S1131A5019C08701005E1F4FD1100CC0AEE2B1E087
S1131A60F8019E9182918917B8F0981718F0EE1535
S1131A70FF05B9F720E24EE051E0B701C7014DD8A8
S1131A80D81AEACF20E24EE051E0B701C7010E9424
S1131A90BC04D80ED7FCF6CFA0960FB6F894DEBFE0
S1131AA00FBECDBFDF91CF911F910F91FF90EF90AB
S1131AB0DF9008958F929F92AF92BF92CF92DF9260
S1131AC0EF92FF920F931F93CF93DF93CDB7DEB7BF
S1131AD0C056D1090FB6F894DEBF0FBECDBF4C017E
S1131AE05B016A018901D9012C91BA01CE010196E9
S1131AF0E5D87801BAEAEB0EF11CD701ED91FC911F
S1131B00BE016F5F7F4FCE018F5B9F4F0995F80138
S1131B102081AE014F5B5F4FB401CE010196CED858
S1131B20D701ED91FC91BE016F5F7F4FC401099510
S1131B30F8012081A601BE016F5B7F4FCE010196A3
S1131B40BDD8D701ED91FC91BE016F5F7F4FCE01EF
S1131B508F5B9F4F0995F8012081AE014F5B5F4F6A
S1131B60B501CE010196AAD8D701ED91FC91BE0131
S1131B706F5F7F4FC5010995C05ADF4F0FB6F894C8
S1131B80DEBF0FBECDBFDF91CF911F910F91FF90AC
S1131B90EF90DF90CF90BF90AF909F908F9008957B
S1131BA02F923F924F925F926F927F928F929F9269
S1131BB0AF92BF92CF92DF92EF92FF920F931F9357
S1131BC0CF93DF93CDB7DEB7C056D1090FB6F894E3
S1131BD0DEBF0FBECDBF3C012B017A015901680164
S1131BE0D8011C914601B4E08B0E911C012F940185
S1131BF0AC01B701CE018F5B9F4F41D9F601208123
S1131C00AE014F5B5F4FBA01CE01019657D8160162
S1131C10FAEA2F0E311CD101ED91FC91BE016F5FE8
S1131C207F4FCE018F5B9F4F0995F6012081AE0156
S1131C304F5B5F4FB301CE01019640D8D101ED91C6
S1131C40FC91BE016F5F7F4FC3010995F6012081AE
S1131C50AE014F5B5F4FB701CE0101962FD8D10182
S1131C60ED91FC91BE016F5F7F4FC701099594010F
S1131C70A201B501C50103D9F6012081A501B50171
S1131C80CE0101961BD8D101ED91FC91BE016F5F8D
S1131C907F4FCE018F5B9F4F09959401A301BE0135
S1131CA06F5B7F4FCB01EBD89401A701BE016F5B43
S1131CB07F4FCB01E4D89401A301B701C701DFD85A
S1131CC0F6012081A701B201CE0101960E945E06B1
S1131CD0D101ED91FC91BE016F5F7F4FC201099567
S1131CE09401AE014F5B5F4FB301C701C8D8F60141
S1131CF02081A701B501CE0101960E945E06D101A3
S1131D00ED91FC91BE016F5F7F4FC5010995940170
S1131D10A201B501C501B3D8412FBE016F5B7F4F4E
S1131D20C7010E940004C05ADF4F0FB6F894DEBF0B
S1131D300FBECDBFDF91CF911F910F91FF90EF9018
S1131D40DF90CF90BF90AF909F908F907F906F90D7
S1131D505F904F903F902F9008952F923F924F9213
S1131D605F926F927F928F929F92AF92BF92CF9227
S1131D70DF92EF92FF920F931F93CF93DF93CDB730
S1131D80DEB7C05AD1090FB6F894DEBF0FBECDBF7F
S1131D904C013B015A0169012801D8011C917201CF
S1131DA0B4E0EB0EF11C012F9701AC01B501CE019B
S1131DB08F579F4F64D8F2012081AE014F575F4F78
S1131DC0BA01CE0101960E945E061201FAEA2F0EB4
S1131DD0311CD101ED91FC91BE016F5F7F4FCE01AB
S1131DE08F579F4F0995F2012081AE014F575F4FE6
S1131DF0B401CE0101960E945E06D101ED91FC91E1
S1131E00BE016F5F7F4FC4010995F2012081AE01CD
S1131E104F575F4FB501CE0101960E945E06D10176
S1131E20ED91FC91BE016F5F7F4FC501099597014C
S1131E30A301B601CE018F579F4F0E940D07970152
S1131E40A301B601C6011BD89701A401B501CE01B7
S1131E508F599F4F14D8F2012081AE014F595F4F23
S1131E60B301CE0101960E945E06D101ED91FC9171
S1131E70BE016F5F7F4FC30109959701A501B401AE
S1131E80CE018F599F4F0E940D07F2012081A601B8
S1131E90B601CE0101960E945E06D101ED91FC913E
S1131EA0BE016F5F7F4FC50109959701AE014F5980
S1131EB05F4FB501C5010E943F079701A501B40119
S1131EC0CE018F5B9F4F0E943F07F2012081AE013C
S1131ED04F5B5F4FB601CE0101960E945E06D101B1
S1131EE0ED91FC91BE016F5F7F4FC601099597018B
S1131EF0A301B601C6010E943F07F2012081AE0191
S1131F004F575F4FBA01CE0101960E945E06D10180
S1131F10ED91FC91BE016F5F7F4FCE018F5B9F4FB0
S1131F2009959701AE014F595F4FBE016F5B7F4F1B
S1131F30CB010E943F079701A401BE016F5B7F4F55
S1131F40CE018F599F4F0E943F07F2012081AE01BD
S1131F504F575F4FBE016F597F4FCE0101960E94CC
S1131F605E06D101ED91FC91BE016F5F7F4FCE0102
S1131F708F599F4F09959701A301BE016F597F4F58
S1131F80C3010E943F07412FBE016F5B7F4FC40115
S1131F900E940004C056DF4F0FB6F894DEBF0FBE98
S1131FA0CDBFDF91CF911F910F91FF90EF90DF9004
S1131FB0CF90BF90AF909F908F907F906F905F90E5
S1131FC04F903F902F9008959F92AF92BF92CF92DF
S1131FD0DF92EF92FF920F931F93CF93DF936B01E6
S1131FE05A01F901E280F380E7012796D7FD47C043
S1131FF0D595C795D595C795D595C79589010C5D98
S11320001F4F2C2FA801BC01C6010E94BC04982EAE
S1132010811132C028E0C202C0011124E816F90679
S1132020C4F4F701F595E795F595E795F595E795EA
S1132030EC0DFD1D37E0E322FF2481E090E001C0B8
S1132040880FEA94EAF7908189239924939488234A
S1132050C1F02C2FA801B601C5010E94BC04892D32
S1132060DF91CF911F910F91FF90EF90DF90CF9070
S1132070BF90AF909F90089599249394EACF2796A8
S1132080B7CF912CE6CF7F928F929F92AF92BF925F
S1132090CF92DF92EF92FF920F931F93CF93DF9330
S11320A08C015B01842E642FC5010E949A06E09185
S11320B0BE03F091BF03309709F443C0C82C082C29
S11320C0000CDD089601220F331F220F331F220F4D
S11320D0331F281B390B8FEF90E002C0959587952D
S11320E02A95E2F7782E50E4952E760181E0E81ADD
S11320F0F108E00EF11ECFEFC80DD0E02196C00F1D
S1132100D11FB601C8010995892BD9F0F701808147
S11321108721808318144CF4F80180E09191892B75
S1132120EC17FD07D9F781111CC09A94992049F046
S1132130E091BE03F091BF03B601C8010995892B54
S113214029F780E090E0DF91CF911F910F91FF90EC
S1132150EF90DF90CF90BF90AF909F908F907F9043
S11321600895482DB801C5010E94D5068130E9F6CD
S113217081E090E0E8CF8F929F92AF92BF92CF928E
S1132180DF92EF92FF920F931F93CF93DF938C0113
S11321904B016901F901828193815C01F7E0AF0E83
S11321A0B11CB7FCA5C0B594A794B594A794B594F5
S11321B0A794CA2DDB2D7E014C175D0708F47A0124
S11321C06A2DC8010E94D9031E141F04DCF4970170
S11321D02150310960E070E040E080E090E0F901D6
S11321E0E61BF70BE80DF91D5081F801E80FF91F04
S11321F050834F5F842F042E000C990BBC018E1565
S11322009F056CF3EE0CFF1CEE0CFF1CEE0CFF1C88
S1132210F601828193818E159F0508F05CC0E81A4F
S1132220F90AC00FD11F0C171D07D0F448E050E085
S11322304E195F0960E09A91892F90E09C010E2C61
S113224002C0359527950A94E2F7262B2883042E9D
S113225001C0880F0A94EAF7682FC017D10759F70D
S1132260A6014C5D5F4F2FEF2A0D27FD23C0822F5F
S1132270022E000C990BFA01E80FF91F3081F801C6
S1132280E80FF91F8081831730F1381788F412C0E2
S1132290822F022E000C990BFA01E80FF91F3081EE
S11322A0F801E80FF91F80818317A8F0381710F0A0
S11322B0215070F72A2DB801C801DF91CF911F91E9
S11322C00F91FF90EF90DF90CF90BF90AF909F90D1
S11322D08F900C948D05DF91CF911F910F91FF90FA
S11322E0EF90DF90CF90BF90AF909F908F90089524
S11322F05C012EE0A20EB11C56CF0F931F93CF9317
S1132300DF93FC01208120FD07C0642FDF91CF9172
S11323101F910F910C944D04C42FAB018C012C2FF1
S1132320BC010E94BC04D82F6C2FC8010E944D042C
S1132330DD2349F0EC2FCC0FFF0B3197E00FF11F99
S1132340808180688083DF91CF911F910F910895E0
S11323504F925F926F927F928F929F92AF92BF92B1
S1132360CF92DF92EF92FF920F931F93CF93DF935D
S1132370CDB7DEB7C058D1090FB6F894DEBF0FBE93
S1132380CDBF5C018A01522E12160CF03DC1FB0137
S113239044244A94420E242D30E02F5F3F4F260FF1
S11323A0371F80E09191892B2E173F07D9F7882397
S11323B009F42AC1452DCE018F599F4F0E94000474
S11323C0452DB801CE018F5B9F4F0E940004652DFF
S11323D0CE0181960E94D90381E089A3652DCE01A7
S11323E001960E94D903642C042C000C770881E622
S11323F0C82ED12CCC0EDD1EC60CD71C91E4E92EC0
S1132400F12CEC0EFD1EE60CF71C88248394912C11
S11324108C0E9D1E860C971C81E290E08C0F9D1FF4
S1132420680E791EF6019081F70180818917E8F121
S1132430981708F48CC0242D17C0822F022E000C8C
S1132440990BE1E6F0E0EC0FFD1FE80FF91F308176
S1132450E1E4F0E0EC0FFD1FE80FF91F8081831722
S113246020F1381708F473C0215038F7452DBE0108
S11324706F5D7F4FC5010E940004C058DF4F0FB647
S1132480F894DEBF0FBECDBFDF91CF911F910F91A6
S1132490FF90EF90DF90CF90BF90AF909F908F9080
S11324A07F906F905F904F90089591E0A2968FADCA
S11324B0A29780FF52C022968FAD229780FF54C00E
S11324C0252DAE01913009F05BC04F5B5F4FBE011B
S11324D06F597F4FCB010E948D05652DCE018F5919
S11324E09F4F0E944D04F3019081F401808189176C
S11324F0F0F0981708F47FC0242D17C0822F022E05
S1132500000C990BE1E2F0E0EC0FFD1FE80FF91F5E
S11325103081E1E0F0E0EC0FFD1FE80FF91F80814E
S1132520831728F0381708F466C0215038F7252D92
S1132530AE014F5F5F4FBE016F5D7F4FCB010E94C5
S11325408D05452DB801CE018196D7DE6BCF9FEF67
S1132550A2968FADA29780FDAECF652DCE018F5987
S11325609F4F0E944D04EDCF652DCE018F5B9F4F91
S11325700E944D04452DB801CE010196BEDE52CF16
S11325804F595F4FBE016F5B7F4FCB010E948D059A
S1132590652DCE018F5B9F4F0E944D04F401808115
S11325A0F30190819817E0F0891798F1242D16C053
S11325B0822F022E000C990BE1E0F0E0EC0FFD1FDE
S11325C0E80FF91F3081E1E2F0E0EC0FFD1FE80FA6
S11325D0F91F8081831720F03817D8F0215040F775
S11325E0252DAE014F5D5F4FBE016F5F7F4FCB0165
S11325F00E948D05BFCF252DA801BE016F5D7F4FC1
S1132600CB010E94BC0493CF652DC5010E94D90360
S113261034CF252DA801BE016F5F7F4FCB010E94EF
S1132620BC04DECF2F923F924F925F926F927F92C3
S11326308F929F92AF92BF92CF92DF92EF92FF92CE
S11326400F931F93CF93DF93CDB7DEB7CF5ED1093E
S11326500FB6F894DEBF0FBECDBFC251DF4F9983D2
S11326608883CE5ED040C851DF4F79836883C85ECB
S1132670D040CD51DF4F59834883C35ED0406901B8
S11326801701D701BC91CB51DF4FB883C55ED04051
S11326904B2F81E890E08C0F9D1F80960E940004D0
S11326A0CB51DF4FE881C55ED0400E2E000CFF0BEE
S11326B0C651DF4FF983E883CA5ED040C851DF4F6B
S11326C028813981C85ED0402E0F3F1FC451DF4F8F
S11326D039832883CC5ED040CB51DF4F4881C55E1F
S11326E0D040B90181E490E08C0F9D1F80960E9438
S11326F00004D701BC90C114D10409F4FCC14B2DD2
S1132700B601FE013196CF51DF4FF983E883C15EF4
S1132710D040CF010E9400044B2D81E8E82EF12C1B
S1132720EC0EFD1E30E2E30EF11CB701CE018F5713
S11327309F4F0E9400044B2D91E4C92ED12CCC0E46
S1132740DD1E80E2C80ED11CB601CE018F5B9F4F07
S11327500E9400049101CF51DF4F48815981C15E2D
S1132760D040B601C701A6D9F101EC55FF4F019045
S1132770F081E02D9101CF51DF4F48815981C15E35
S1132780D040B601C70109959101CF51DF4F48816F
S11327905981C15ED040BE016F5B7F4FCE018F5720
S11327A09F4F88D9580192E0A91AB1081A141B0442
S11327B00CF05FC044244394512CF501F595E79542
S11327C0F595E795F595E795CD51DF4F288139814A
S11327D0C35ED040E20FF31FC50187709927D20171
S11327E002C0AA0FBB1F8A95E2F7CD01908189230D
S11327F021E030E011F020E030E03901660C771C74
S11328006294729480EF782276246822762491E48C
S1132810C92ED12CCC0EDD1EC60CD71CE1E8F0E08D
S1132820EC0FFD1F6E0E7F1E7201E21AF30AEE0C0E
S1132830FF1CE294F29420EFF222FE24E222FE2412
S113284031E4832E912C8C0E9D1E8E0C9F1CEE0E5B
S1132850FF1E81019601A301B401C7017EDA940130
S1132860A701B601C3019CD9F1E0AF1AB10809F080
S1132870A4CFCD51DF4FA881B981C35ED0408C91E4
S113288080958170CA51DF4F8883C65ED040C9519C
S1132890DF4F1882C75ED040CA51DF4F488059804D
S11328A0C65ED040440C551C4294529460EF5622AC
S11328B054244622542471E4672E712C6C0E7D1E20
S11328C0640C751CE1E8F0E0EC0FFD1F4E0E5F1E7A
S11328D081E090E07C01CA51DF4F28813981C65ED6
S11328E0D040E21AF30AEE0CFF1CE294F294A0EF3B
S11328F0FA22FE24EA22FE24B1E4CB2ED12CCC0E03
S1132900DD1ECE0CDF1CEE0EFF1E81019301A20121
S1132910B601C70122DA510134E0A30EB11C61E80B
S113292070E06C0F7D1F605E7F4FCB51DF4F0881DD
S1132930C55ED0409501AE014F575F4FCE018F5316
S11329409F4F0E943F07D1012C91A601BE016F53F6
S11329507F4FCF51DF4F88819981C15ED0400E9463
S11329605E064101BAEA8B0E911CD401ED91FC91F3
S1132970CF51DF4F68817981C15ED040CE018F5342
S11329809F4F0995F1012081C851DF4F488159813A
S1132990C85ED040BE016F537F4FCF51DF4F888157
S11329A09981C15ED0400E945E06D401ED91FC91F4
S11329B0CF51DF4F68817981C15ED040CE018F5302
S11329C09F4F0995CB51DF4F2881C55ED040A501AB
S11329D0BE016F537F4FCB01BBDCF1012081C45199
S11329E0DF4F48815981CC5ED040BE016F537F4F89
S11329F0CF51DF4F88819981C15ED0400E945E062D
S1132A00D401ED91FC91CF51DF4F68817981C15E92
S1132A10D040CE018F539F4F0995F1012081A7012A
S1132A20BE016F537F4FCF51DF4F88819981C15EC3
S1132A30D0400E945E06D401ED91FC91CF51DF4F4E
S1132A4068817981C15ED040CE018F539F4F099533
S1132A5081019601A701B301C201A2D89101AE017F
S1132A604F535F4FBE016F5B7F4FCE018F579F4F18
S1132A7021D8CB51DF4F4881C55ED040BE016F578E
S1132A807F4FC251DF4F88819981CE5ED0400E9432
S1132A900004CB51DF4F4881C55ED040BE016F5B5F
S1132AA07F4FC251DF4F88819981CE5ED040C6519D
S1132AB0DF4FE881F981CA5ED0408E0F9F1F0E94CC
S1132AC00004C151DF4F0FB6F894DEBF0FBECDBF77
S1132AD0DF91CF911F910F91FF90EF90DF90CF90F6
S1132AE0BF90AF909F908F907F906F905F904F902A
S1132AF03F902F9008956B2D9E012F5F3F4FCF5134
S1132B00DF4F39832883C15ED040C9010E94D903B5
S1132B1081E0898301CE2F923F924F925F926F9210
S1132B207F928F929F92AF92BF92DF92EF92FF9229
S1132B300F931F93CF93DF93CDB7DEB7C25DD10957
S1132B400FB6F894DEBF0FBECDBF5E01E1EAAE0E54
S1132B50B11CCF53DF4FB982A882C15CD0403E0183
S1132B60F1E86F0E711CCD53DF4F79826882C35C2C
S1132B70D040F701D0801D149CF4AFEFAD0DB0E050
S1132B802D01FFEF4F1A5F0AD901A40DB51D912C39
S1132B90F90181909828EA17FB07D9F791101BC017
S1132BA080E090E0CE52DF4F0FB6F894DEBF0FBE48
S1132BB0CDBFDF91CF911F910F91FF90EF90DF90E8
S1132BC0BF90AF909F908F907F906F905F904F9049
S1132BD03F902F900895F7010280F381E02DC953AF
S1132BE0DF4FF983E883C75CD0403796F7FDD6C141
S1132BF01701C553DF4F19830883CB5CD0404901CB
S1132C00CF52DF4F59834883C15DD040C153DF4F5A
S1132C1079836883CF5CD040C353DF4F9983888323
S1132C20CD5CD0408F0115950795159507951595A1
S1132C300795CB53DF4F19830883C55CD040C70188
S1132C408496C753DF4F99838883C95CD040CB53A4
S1132C50DF4F4881C55CD040B9010E94D506813060
S1132C6009F09ECF9701A301B501C401ADD9C953A1
S1132C70DF4F08811981C75CD0400F5F1F4F21E0EF
S1132C8030E0811193C1220F331FE1ECF0E0EC0F2F
S1132C90FD1FE20FF31F40815181710120E030E0FC
S1132CA0B1016C5B7F4FCE018F5B9F4FBBDCFE019C
S1132CB0EF5BFF4FDF01A40DB51D80E09191892BDF
S1132CC0EA17FB07D9F7882309F46ACF8091BE037A
S1132CD09091BF03892B09F46FC1CB53DF4F488117
S1132CE0C55CD040C753DF4F68817981C95CD0404F
S1132CF0C501C9D9892B09F453CFCB53DF4F2881A0
S1132D00C55CD040A501B401CE0101960E945E06C7
S1132D10CB53DF4F2881C55CD040C753DF4F488178
S1132D205981C95CD040BE016F5F7F4FC4010E94CE
S1132D305A07CB53DF4F2881C55CD040C753DF4FC0
S1132D4048815981C95CD040B401C40101DBCB5333
S1132D50DF4F2881C55CD040A501B401CE010196A6
S1132D600E945E06CB53DF4F2881C55CD040C75319
S1132D70DF4F48815981C95CD040BE016F5F7F4FEE
S1132D80C4010E945A07F1012181022E000C330B69
S1132D901216130634F5A90141505109E0E0F0E0A0
S1132DA060E080E090E0C553DF4FA881B981CB5C3F
S1132DB0D0408A0F9B1F8A010E1B1F0BF80101E4F0
S1132DC010E00C0F1D1FE00FF11F7081FC017083D8
S1132DD06F5F862F062E000C990BFC018217930758
S1132DE044F3F101828193819C01295F3F4F37FDB8
S1132DF0E0C0359527953595279535952795121675
S1132E00130614F5A90141505109E0E0F0E060E037
S1132E1080E090E0C353DF4FA881B981CD5CD040FE
S1132E208A0D9B1D8A010E1B1F0BF801EA0FFB1F65
S1132E307081FC0170836F5F862F062E000C990B46
S1132E40FC018217930764F3F301CB53DF4F08812E
S1132E50C55CD040E00FF11D07FDFA953197108253
S1132E604D2DBE016F5B7F4FC3010E940004CB5305
S1132E70DF4F2881C55CD040A301B501CE01019686
S1132E800E945E06CB53DF4F2881C55CD040C753F8
S1132E90DF4F48815981C95CD040BE016F5F7F4FCD
S1132EA0C3010E945A079101CF52DF4F48815981D3
S1132EB0C15DD040C153DF4F68817981CF5CD04080
S1132EC0C50159D9CB53DF4F0881C55CD040C753E6
S1132ED0DF4F28813981C95CD040A301B501C3010A
S1132EE00E940D07CB53DF4F2881C55CD040A4015D
S1132EF0B301CE0101960E945E06CB53DF4F2881B9
S1132F00C55CD040C753DF4F48815981C95CD0406C
S1132F10BE016F5F7F4FC3010E945A07CB53DF4F3F
S1132F206881C55CD040C3010E949A06F1016181A9
S1132F30062E000C770B9B01220F331F220F331F29
S1132F40220F331F281739070CF42ACE161617063A
S1132F5014F5DB01119740E050E020E080E090E0C0
S1132F60C553DF4F08811981CB5CD040060F171F72
S1132F70800F911FFD01E41BF50BE60DF71D308159
S1132F80FC0130832F5F822F022E000C990BAC01C1
S1132F90861797076CF381E090E004CEC953DF4FA6
S1132FA0E881F981C75CD0403E9622CE20E030E033
S1132FB06ACE295F3F4F1DCFCB53DF4F6881C55C7D
S1132FC0D040C5010E94D90381E0F501808395CEEC
S1132FD09093BF038093BE0308958AE091E008951F
S1132FE02F923F924F925F926F927F928F929F9215
S1132FF0AF92BF92CF92DF92EF92FF920F931F9303
S1133000CF93DF93CDB7DEB7C458D1090FB6F89488
S1133010DEBF0FBECDBF3A014901FE01EF59FF4F9C
S1133020CF57DF4FF983E883C158D0407E0121E4B4
S1133030E20EF11CCD57DF4FF982E882C358D0402D
S1133040D4010C911196AC90119712962D913C914C
S11330501397D9011796B7FD02C11D013594279422
S1133060359427943594279412141304F4F46101CD
S1133070B1E0CB1AD10840E050E010E020E030E0AD
S11330802E0F3F1F2601441A550AA201460F571F4F
S1133090DA014C91D9014C931F5F212F012E000CB2
S11330A0330BA901221533055CF30A2C000CBB0871
S11330B01A141B04E4F5A5014150510960E070E0C5
S11330C010E020E030E0DE0111966D012C0D3D1D75
S11330D0DA01A61BB70BA80FB91F6C91D9016C9329
S11330E01F5F212F012E000C330BB9012A153B055C
S11330F06CF360E070E010E020E030E08A0D9B1D8E
S1133100C00ED11C07FDDA942C0D3D1DDA01A61B5F
S1133110B70BA80FB91F6C91D9016C931F5F212FB6
S1133120012E000C330BB9012A153B056CF39401F5
S1133130A701BF01CF010E94E40F182F8091BE03A5
S11331409091BF03892B09F48CC0E12FF0E0EE0FBE
S1133150FF1F61E8462E512C4C0E5D1EE40DF51D3B
S1133160C080D180402FB4016C5F7F4FC6010E94A4
S11331704310009709F454C0D40112962D913C9148
S113318013972F5F3F4F81E090E0111163C0880FC8
S1133190991FE1E8F0E0EC0FFD1FE80FF91F4081F3
S11331A05181740189019601FE0131966F01BF01BD
S11331B0CF0138DA1A141B04DCF4A501415051097B
S11331C060E070E020E080E090E0D301A80FB91F38
S11331D0FA01E61BF70BEC0DFD1D30813C932F5FCC
S11331E0822F022E000C990BBC018A159B056CF3EF
S11331F0D4012C91220F1216BCF5F601215030E0B7
S11332002F5F3F4F2C0D3D1D80E09191892BE217DC
S1133210F307D9F731E020E08823F9F0832F922FC8
S1133220CC57DF4F0FB6F894DEBF0FBECDBFDF9192
S1133230CF911F910F91FF90EF90DF90CF90BF90AF
S1133240AF909F908F907F906F905F904F903F9042
S11332502F90089580E090E09ACF30E0DFCF17966A
S1133260FCCEC12CD12C88CF80E090E0D9CF3F9206
S11332704F925F926F927F928F929F92AF92BF9282
S1133280CF92DF92EF92FF920F931F93CF93DF932E
S1133290CDB7DEB7A2970FB6F894DEBF0FBECDBF91
S11332A03C014B015AA349A329016801580184E256
S11332B0A80EB11C90E4392E1CC055954795559520
S11332C0479555954795B501CE0101960E94431047
S11332D0892BD1F0760182019E012F5F3F4F49A1D6
S11332E05AA1B401C30117DC892B41F53A94332068
S11332F059F0F60182819381AC01495F5F4F57FF1A
S1133300DCCF495F5F4FD9CF80E090E0A2960FB643
S1133310F894DEBF0FBECDBFDF91CF911F910F9107
S1133320FF90EF90DF90CF90BF90AF909F908F90E1
S11333307F906F905F904F903F90089581E090E070
S1133340E5CFFF920F931F93CF93DF93F82E092FAE
S1133350162FEA01462F469550E060E070E0CE015A
S11333600E94C82E112309F44BC0EF2DF02F20E04A
S113337030E017C090E0C097B90161707727660FFD
S1133380771F660F771F01C0880F6A95EAF7942F9D
S11333909695DE01A90FB11D9C91890F8C9321177D
S11333A078F5422F81912F5F3F4F90ED980F9A301F
S11333B008F39FEB980F963070F490E0C797B9012B
S11333C061707727660F771F660F771F01C0880F1C
S11333D06A95EAF7DCCF9FE9980F963078F490E08D
S11333E087559109B90161707727660F771F660FBA
S11333F0771F01C0880F6A95EAF7C9CF80E0C7CF6D
S1133400DF91CF911F910F91FF9008950F931F9318
S1133410CF93DF938C01EB01209739F00E94972E14
S1133420F80181938F012197C9F781E090E0DF9142
S1133430CF911F910F9108958230B1F070F08430D4
S113344039F08830B1F4AB0160E480EE91E079CFDB
S1133450AB0160E480E292E074CF813059F4AB01B7
S113346060E480EA92E06DCFAB0160E480E692E034
S113347068CF08950895AF92BF92DF92EF92FF92C2
S11334800F931F93CF93DF93CDB7DEB7C056D10907
S11334900FB6F894DEBF0FBECDBF5C017B01D42E06
S11334A086E09AE195DD99DD8C0120E032E040E090
S11334B050E0B501CE0101960E94272DBE016F5B3D
S11334C07F4F8D2DB9DF970140E450E0BE016F5F5F
S11334D07F4FCE018F5B9F4FCADE892B99F080E02E
S11334E090E0C05ADF4F0FB6F894DEBF0FBECDBFD9
S11334F0DF91CF911F910F91FF90EF90DF90BF90DC
S1133500AF90089586EB91E00E94C72D81E090E092
S1133510E8CFFC0190E4DB0101900D929A95E1F76C
S113352080E090E00895AF92BF92DF92EF92FF9215
S11335300F931F93CF93DF93CDB7DEB7C054D10958
S11335400FB6F894DEBF0FBECDBF8C01D62E5A0144
S113355044DD7C01BE016F5F7F4F8D2D6DDF9701D0
S1133560AE014F5D5F4FBE016F5F7F4FC80138DD15
S1133570892BE1F020E031E040E050E0BE016F5DD6
S11335807F4FC50131D380E090E0C05CDF4F0FB6C0
S1133590F894DEBF0FBECDBFDF91CF911F910F9185
S11335A0FF90EF90DF90BF90AF90089582EC91E090
S11335B00E94C72D81E090E0E8CFFC0190E2DA019F
S11335C001900D929A95E1F780E090E008951F92A2
S11335D00F920FB60F9211240BB60F922F933F93B5
S11335E04F935F936F937F938F939F93AF93BF9307
S11335F0EF93FF93EC982FEF84E39CE021508040FD
S11336009040E1F700C0000080EE92E00E94C72DD8
S113361081E08093C003EC9AFF91EF91BF91AF9149
S11336209F918F917F916F915F914F913F912F91D6
S11336300F900BBE0F900FBE0F901F9018951F9206
S11336400F920FB60F9211240BB60F922F933F9344
S11336504F935F936F937F938F939F93AF93BF9396
S1133660EF93FF93ED982FEF84E39CE0215080408B
S11336709040E1F700C0000083EF92E00E94C72D64
S113368082E08093C003ED9AFF91EF91BF91AF91D7
S11336909F918F917F916F915F914F913F912F9166
S11336A00F900BBE0F900FBE0F901F9018951F9296
S11336B00F920FB60F9211240BB60F922F933F93D4
S11336C04F935F936F937F938F939F93AF93BF9326
S11336D0EF93FF93EE982FEF84E39CE0215080401A
S11336E09040E1F700C0000086E093E00E94C72DFF
S11336F083E08093C003EE9AFF91EF91BF91AF9165
S11337009F918F917F916F915F914F913F912F91F5
S11337100F900BBE0F900FBE0F901F9018951F9225
S11337200F920FB60F9211242F938F939F93EF98BC
S11337302FEF84E39CE0215080409040E1F700C0EB
S11337400000EF9A9F918F912F910F900FBE0F90D1
S11337501F9018956F927F928F929F92AF92BF9213
S1133760DF92EF92FF920F931F93CF93DF93CDB726
S1133770DEB7C85ED1090FB6F894DEBF0FBECDBF69
S11337805C014B01142FD22E89E193E00E94C72DD6
S1133790CF51DF4F1883C15ED040AE014F515F4F10
S11337A06BEB73E080E00E94AD0268E0CE018F5BBA
S11337B09F4F0E947E038091C0033E01813009F433
S11337C0CCC081EA680E711CA301612FCE018F5B0E
S11337D09F4FA9DE8091C003412F8E010F5F1F4FC1
S11337E0B801813009F4ABC0CE018F5B9F4F43DE3B
S11337F068E0C8010E94570381E393E00E94C72D4B
S11338009E0127523F4F40E050E06BEB73E080E0B5
S11338100E94E902C752DF4F8881C95DD0408111FF
S113382089C080E493E00E94C72DD11049C066C0CE
S113383082E793E00E94C72D10E4E12EF12C00E012
S113384010E0950140E051E0B301CE018F579F4F46
S1133850E3D080E1FE01EF57FF4FDE01AF53BF4FCE
S113386001900D928A95E1F762E0CE018F539F4F4C
S11338700E9457039E012F523F4F40E050E06BEBF4
S113388073E080E00E94E902CF52DF4F8881C15D7E
S1133890D04081114AC089E993E00E94C72D9FEF6F
S11338A024E38CE0915020408040E1F700C0000008
S11338B092E0890E911C28E0A20EB11CDD20F1F0EB
S11338C0DA94A501B40180E00E94AD029E012F525A
S11338D03F4F40E050E06BEB73E080E00E94E90270
S11338E0CF52DF4F8881C15DD040882309F4A0CF37
S11338F086E893E00E94C72DD110E2CF80E090E0EB
S1133900C851DF4F0FB6F894DEBF0FBECDBFDF91B5
S1133910CF911F910F91FF90EF90DF90BF90AF90E8
S11339209F908F907F906F9008958BEA93E00E9410
S1133930C72DC4CF8BE593E00E94C72DDFCFCE0106
S11339408F5B9F4FE6DD9FEF29E688E19150204091
S11339508040E1F700C000004BCF21EA620E711CE9
S1133960A301612FCE018F5B9F4F27DE8FEF99E676
S113397028E1815090402040E1F700C000002ACFA8
S11339800F931F93CF93DF93CDB7DEB76E970FB628
S1133990F894DEBF0FBECDBF0E94BB2D1DB880EFD3
S11339A08EB910926A008DBB0E945A028E010F5F7D
S11339B01F4F88E19091C003F801282F11922A9596
S11339C0E9F726E0E4E0F1E0DE01599601900D927A
S11339D02A95E1F7923021F09330B1F0913051F70C
S11339E023E041E0BE01675E7F4FC801B3DE80E0A3
S11339F090E06E960FB6F894DEBF0FBECDBFDF9198
S1133A00CF911F910F91089523E048E0BE01675EB6
S1133A107F4FC8019FDEEBCF2F923F924F925F9270
S1133A206F927F928F929F92AF92BF92CF92DF92CA
S1133A30EF92FF920F931F93CF93DF93CDB7DEB72F
S1133A40C856D1090FB6F894DEBF0FBECDBF4C01E6
S1133A501901A996ECAEFDAE0EAF1FAFA997CE012A
S1133A6001967C0180E4D7011D928A95E9F74130E3
S1133A70B2E05B0708F49DC09A0140E050E0C70142
S1133A80B3D087016E01E1E4CE0ED11CF70196E3B9
S1133A90808189278193EC15FD05D1F7C60195D066
S1133AA0B701C6019DD0A9968CAD9DADAEADBFAD9D
S1133AB0A9978115E2E09E07A105B10508F43EC06F
S1133AC02C013D015101B501C6018AD0F0E4AF0ECD
S1133AD0B11C22E0521A61087108411482E05806B0
S1133AE06104710480F7A9968CAD9DADAEADBFADF8
S1133AF0A9979250A109B10929E0B695A795979580
S1133B0087952A95D1F70196002496958795079471
S1133B10969587950794982F802D280E391EA9967F
S1133B208CAD9DADAEADBFADA9979170AA27BB2753
S1133B30A9968CAF9DAFAEAFBFAFA997A7964EAD78
S1133B405FADA797B101C6014DD09AE6D8018C911B
S1133B508927F80181938F01EC15FD05B9F7BF01A1
S1133B60C401D4D0C80131D0B701C80139D040E074
S1133B7051E0B401C80136D0B801C401C7D0C85956
S1133B80DF4F0FB6F894DEBF0FBECDBFDF91CF91EC
S1133B901F910F91FF90EF90DF90CF90BF90AF9067
S1133BA09F908F907F906F905F904F903F902F9059
S1133BB00895495F5F4F5695479556954795569595
S1133BC04795C7010E94AE2E5CCFFC0110A211A242
S1133BD012A213A240E250E064E970E00C94A52E16
S1133BE00C9443290C945A2C4F925F926F927F92BB
S1133BF08F929F92AF92BF92CF92DF92EF92FF92F9
S1133C000F931F93CF93DF93CDB7DEB7A4970FB66F
S1133C10F894DEBF0FBECDBF8C016B0129013A01C0
S1133C2019A21AA21BA21CA240E250E064E970E0AF
S1133C30CE0101960E94A52E411482E0580661042B
S1133C40710488F1530142017601B701CE01019656
S1133C500E94432980E4E80EF11C82E0981AA1082E
S1133C60B108811482E09806A104B10470F7D3016D
S1133C70C2019250A109B10929E0B695A79597957B
S1133C8087952A95D1F701960024969587950794F0
S1133C90969587950794982F802DC80ED91E81E09C
S1133CA0582266247724A201B601CE0101960E940F
S1133CB05A2C9E012F5F3F4FAE014F5D5F4FF801BD
S1133CC083E0D901A80FB11D9C9191938150C8F74D
S1133CD00C5F1F4F2C5F3F4F2417350781F7A496C5
S1133CE00FB6F894DEBF0FBECDBFDF91CF911F9109
S1133CF00F91FF90EF90DF90CF90BF90AF909F9087
S1133D008F907F906F905F904F900895CF93DF9343
S1133D10AC01EC01A096FA0193E0DB01A90FB11DFF
S1133D202C9121939150C8F74C5F5F4F6C5F7F4F8C
S1133D30C417D50781F7DF91CF9108952F923F9251
S1133D404F925F926F927F928F929F92AF92BF92A7
S1133D50CF92DF92EF92FF920F931F93CF93DF9353
S1133D60CDB7DEB7C25FD1090FB6F894DEBF0FBE80
S1133D70CDBFCF50DF4F99838883C15FD040C553F7
S1133D80DF4F79836883CB5CD040CE010196CB5161
S1133D90DF4F99838883C55ED0402E0191E8490E98
S1133DA0511CDE011196C753DF4FB983A883C95C48
S1133DB0D040C553DF4FA881B981CB5CD040EC9192
S1133DC011969C9011971296AC9012971396BC90F2
S1133DD013971496CC9014971596DC901597169615
S1133DE02C90169717963C9017971896C553DF4F4B
S1133DF0B983A883CB5CD04028E0822EE12CF12C3F
S1133E0010E0B0E0A0E0C353DF4F1882CD5CD04097
S1133E10612C712C9701412F5B2F6A2FC353DF4F05
S1133E207881CD5CD040C30108E00E94F52DEE2ED0
S1133E30E22AF32E142FB52FA62FC353DF4F788316
S1133E40CD5CD0403C012E2F392DA501B601C10116
S1133E500E94102EE22F932E5A016B011C018A94AA
S1133E608110D8CFC753DF4FE881F981C95CD040B6
S1133E70E082F1821283B383A483C353DF4F18819A
S1133E80CD5CD0401583668277823896C753DF4F66
S1133E90F983E883C95CD040E415F50509F089CFBE
S1133EA080E4CF50DF4FE881F981C15FD040D20177
S1133EB001900D928A95E1F7D2019096BC91C75377
S1133EC0DF4FB883C95CD040F201F1A1C553DF4F85
S1133ED0F883CB5CD040D2019296BC91C353DF4FA0
S1133EE0B883CD5CD040F201F3A1C253DF4FF88315
S1133EF0CE5CD040D2019496BC91C153DF4FB883BD
S1133F00CF5CD040F20125A036A067A0F081C35257
S1133F10DF4FF883CD5DD040D2011196BC91C252DF
S1133F20DF4FB883CE5DD040F201F281C152DF4F42
S1133F30F883CF5DD040D2011396BC91C052DF4FBD
S1133F40B883C05ED040F201F481CF51DF4FF883D3
S1133F50C15ED040D2011596BC91CE51DF4FB883DB
S1133F60C25ED040F201F681CD51DF4FF883C35ECB
S1133F70D040D2011796BC91CC51DF4FB883C45EB8
S1133F80D040E4EBF0E0C851DF4FF983E883C85E2A
S1133F90D040C951DF4F1882C75ED040C201089695
S1133FA0C151DF4F99838883CF5ED040C053DF4F28
S1133FB03882C05DD040CF52DF4F6882C15DD040AF
S1133FC0FAC6E2963FACE297E3966FACE397E496C9
S1133FD07FACE497E5968FACE597E6969FACE697C1
S1133FE0E796BFADE797E896AFADE897E996FFADE2
S1133FF0E997E985CE52DF4FE883C25DD040EA8578
S1134000CD52DF4FE883C35DD040EB85CC52DF4F08
S1134010E883C45DD040EC85CB52DF4FE883C55DB7
S1134020D040ED85CA52DF4FE883C65DD040EE85AF
S1134030C952DF4FE883C75DD040EF85C852DF4FD8
S1134040E883C85DD040E889C752DF4FE883C95D83
S1134050D0402A962FAD2A972B963FAD2B972C96BE
S11340604FAD2C972D965FAD2D972E966FAD2E9755
S11340702F967FAD2F9760968FAD609761969FAD19
S11340806197A980BA80CB80DC80ED80FE800F81AF
S113409018850E94472EC652DF4F2883CA5DD04040
S11340A0C552DF4F3883CB5DD040C452DF4F4883C5
S11340B0CC5DD040C651DF4F5883CA5ED040C55155
S11340C0DF4F6883CB5ED040C451DF4F7883CC5E32
S11340D0D040C351DF4F8883CD5ED040C251DF4F03
S11340E09883CE5ED040232D362D472D582D692D33
S11340F07B2F8A2F9F2F03E00E942C2E59016A01E7
S11341007B01E82F192F232D362D472D582D692D8E
S11341107B2F8A2F9F2F0DE20E942C2EA226B326DE
S1134120C426D526E626F726E8271927232D362D7B
S1134130472D582D692D7B2F8A2F9F2F06E00E9433
S1134140102EA226B326C426D526E626F7260E2F41
S113415008271927C652DF4F2881CA5DD040C552AF
S1134160DF4F3881CB5DD040C452DF4F4881CC5DF6
S1134170D040C651DF4F5881CA5ED040C551DF4F91
S11341806881CB5ED040C451DF4F7881CC5ED04093
S1134190C351DF4F8881CD5ED040C251DF4F98813B
S11341A0CE5ED0400E94472E39014A01B62FA72F78
S11341B0F82FE92FCE52DF4F2881C25DD040CD5277
S11341C0DF4F3881C35DD040CC52DF4F4881C45D9E
S11341D0D040CB52DF4F5881C55DD040CA52DF4F2B
S11341E06881C65DD040C952DF4F7881C75DD04039
S11341F0C852DF4F8881C85DD040C752DF4F9881D5
S1134200C95DD04008E30E942C2E59016A017B014C
S1134210382E192FCE52DF4F2881C25DD040CD52A7
S1134220DF4F3881C35DD040CC52DF4F4881C45D3D
S1134230D040CB52DF4F5881C55DD040CA52DF4FCA
S11342406881C65DD040C952DF4F7881C75DD040D8
S1134250C852DF4F8881C85DD040C752DF4F988174
S1134260C95DD0400FE30E942C2EA226B326C4269B
S1134270D526E626F72638261927CE52DF4F288181
S1134280C25DD040CD52DF4F3881C35DD040CC52A7
S1134290DF4F4881C45DD040CB52DF4F5881C55DAC
S11342A0D040CA52DF4F6881C65DD040C952DF4F4B
S11342B07881C75DD040C852DF4F8881C85DD04047
S11342C0C752DF4F9881C95DD04007E00E94102E8D
S11342D0A226B326C426D526E626F726032D0827CC
S11342E019279301A4016B2F7A2F8F2F9E2F0E94E1
S11342F0472ECE52DF4F2883C25DD040CD52DF4FD0
S11343003883C35DD040CC52DF4F4883C45DD04076
S1134310CB52DF4F5883C55DD040CA52DF4F68830C
S1134320C65DD040C952DF4F7883C75DD040C852C4
S1134330DF4F8883C85DD040C752DF4F9883C95D83
S1134340D04048E750E0BE01675F7F4FCE01019641
S11343500E94B72ECE52DF4FF881C25DD040EA965C
S1134360FFAFEA97CD52DF4F1881C35DD040EB9683
S11343701FAFEB97CC52DF4F8881C45DD040EC96E1
S11343808FAFEC97CB52DF4F9881C55DD040ED964F
S11343909FAFED97CA52DF4FA881C65DD040EE961D
S11343A0AFAFEE97C952DF4FB881C75DD040EF96EB
S11343B0BFAFEF97C852DF4FE881C85DD040C15806
S11343C0DF4FE883CF57D040C752DF4FF881C95D34
S11343D0D040C058DF4FF883C058D040D201D8969F
S11343E02C91D897D9963C91D997DA964C91DA9733
S11343F0DB965C91DB97DC966C91DC97DD967C9187
S1134400DD97DE968C91DE97DF969C91C753DF4F44
S1134410E880C95CD040E094C553DF4FF880CB5CA2
S1134420D040F094C353DF4F0881CD5CD040009559
S1134430C253DF4F1881CE5CD0401095C153DF4F7B
S1134440B881CF5CD040B095A22DA095C053DF4F6A
S1134450D880C05DD040D094CF52DF4FB880C15DCA
S1134460D040B094F20160A86E2081A88F20A2A849
S1134470A022C3A8C122E4A8EB2205A90A23B6A955
S11344803B2E3D20F7A9FB21C251DF4FF883CE5EBE
S1134490D040D20198967C90C753DF4FB881C95C55
S11344A0D0407B22F20191A4C553DF4FF881CB5C4D
S11344B0D0409F22D2019A96BC90C353DF4FB8815B
S11344C0CD5CD040BB22F201D3A4C253DF4FF881AC
S11344D0CE5CD040DF22D2019C96FC90C153DF4FCA
S11344E0B881CF5CD040FB22F20115A51221A6A50C
S11344F0C053DF4FF881C05DD040FA23D2019F96AC
S1134500EC91CF52DF4FB881C15DD040EB236724DB
S1134510C652DF4F6882CA5DD0408924C552DF4F3E
S11345208882CB5DD040AB24C452DF4FA882CC5DDF
S1134530D040CD24C651DF4FC882CA5ED040EF249C
S1134540C551DF4FE882CB5ED0400127C451DF4F15
S11345500883CC5ED040F325C351DF4FF883CD5E92
S1134560D040C251DF4FA881CE5ED040AE27C251A9
S1134570DF4FA883CE5ED040C851DF4FE881F98178
S1134580C85ED040C590D590E590F490AC2CCF5344
S1134590DF4FC882D982EA82FB82C15CD040C85115
S11345A0DF4FE881F981C85ED040349665907590FC
S11345B085909490E62CCB53DF4F688279828A826F
S11345C09B82C55CD040CE53DF4FB880C25CD040E4
S11345D0CD53DF4FC880C35CD040CC53DF4FD8806D
S11345E0C45CD040CA53DF4FF880C65CD040C95386
S11345F0DF4F0881C75CD040C853DF4F1881C85CC7
S1134600D0400E94472E39014A01B62FA72FF82F18
S1134610E92FC753DF4F2881C95CD040C553DF4F12
S11346203881CB5CD040C353DF4F4881CD5CD04050
S1134630C253DF4F5881CE5CD040C153DF4F6881F5
S1134640CF5CD040722DC053DF4F8881C05DD04015
S1134650CF52DF4F9881C15DD0400EE20E942C2ED4
S113466059016A017B01382E192FC753DF4F288166
S1134670C95CD040C553DF4F3881CB5CD040C353B5
S1134680DF4F4881CD5CD040C253DF4F5881CE5CB0
S1134690D040C153DF4F6881CF5CD040722DC053EE
S11346A0DF4F8881C05DD040CF52DF4F9881C15D1C
S11346B0D04002E30E942C2EA226B326C426D5267F
S11346C0E626F72638261927C753DF4F2881C95C09
S11346D0D040C553DF4F3881CB5CD040C353DF4F4C
S11346E04881CD5CD040C253DF4F5881CE5CD0406E
S11346F0C153DF4F6881CF5CD040722DC053DF4F70
S11347008881C05DD040CF52DF4F9881C15DD040D9
S113471007E10E942C2EA226B326C426D526E6261F
S1134720F726032D082719279301A4016B2F7A2F4D
S11347308F2F9E2F0E94472E59016A017B018C0105
S1134740C652DF4F2881CA5DD040C552DF4F388141
S1134750CB5DD040C452DF4F4881CC5DD040C651C0
S1134760DF4F5881CA5ED040C551DF4F6881CB5EB0
S1134770D040C451DF4F7881CC5ED040C351DF4F6D
S11347808881CD5ED040C251DF4F9881CE5ED0404B
S11347900E94472ECE52DF4FA880C25DD040CD523A
S11347A0DF4FB880C35DD040CC52DF4FC880C45DBA
S11347B0D040CB52DF4FD880C55DD040CA52DF4FC6
S11347C0E880C65DD040C952DF4FF880C75DD04055
S11347D0C852DF4F0881C85DD040C752DF4F1881EF
S11347E0C95DD0400E94472E922EC553DF4F3883B7
S11347F0CB5CD040C353DF4F4883CD5CD040C25321
S1134800DF4F5883CE5CD040C153DF4F6883CF5C09
S1134810D040C053DF4F7883C05DD040CF52DF4FCC
S11348208883C15DD040CE52DF4F9883C25DD040B3
S1134830F201F085CD52DF4FF883C35DD040D20141
S11348401996BC91C753DF4FB883C95CD040F201BD
S1134850F285CC52DF4FF883C45DD040D2011B9661
S1134860BC91CB52DF4FB883C55DD040F201F485D3
S1134870CA52DF4FF883C65DD040D2011D96BC9169
S1134880C952DF4FB883C75DD040F201F685C852E4
S1134890DF4FF883C85DD040D2011F96BC91C75248
S11348A0DF4FB883C95DD040F201808871882288C7
S11348B0338864881589C652DF4F1883CA5DD04097
S11348C01689C552DF4F1883CB5DD0401789C45277
S11348D0DF4F1883CC5DD04048E350E0B201C151B2
S11348E0DF4F88819981CF5ED0400E94B72EC3529A
S11348F0DF4F2881CD5DD040C252DF4F3881CE5D7D
S1134900D040C152DF4F4881CF5DD040C052DF4F0D
S11349105881C05ED040CF51DF4F6881C15ED04026
S1134920CE51DF4F7881C25ED040CD51DF4F8881B8
S1134930C35ED040CC51DF4F9881C45ED0400EE1BD
S11349400E942C2ED22EE32EF42E152FB62FE72FF5
S1134950A82FF92FC352DF4F2881CD5DD040C2521A
S1134960DF4F3881CE5DD040C152DF4F4881CF5DEB
S1134970D040C052DF4F5881C05ED040CF51DF4F8E
S11349806881C15ED040CE51DF4F7881C25ED04095
S1134990CD51DF4F8881C35ED040CC51DF4F988129
S11349A0C45ED04004E20E942C2ED226E326F426D4
S11349B01527B627E727A827F927C352DF4F2881F1
S11349C0CD5DD040C252DF4F3881CE5DD040C15260
S11349D0DF4F4881CF5DD040C052DF4F5881C05E69
S11349E0D040CF51DF4F6881C15ED040CE51DF4F00
S11349F07881C25ED040CD51DF4F8881C35ED04004
S1134A00CC51DF4F9881C45ED04009E10E942C2E26
S1134A102D253E254F2551276B277E27CD52DF4F6D
S1134A20A880C35DD040A824C753DF4FB880C95CB9
S1134A30D040B724CC52DF4FC880C45DD040C224DC
S1134A40CB52DF4FD880C55DD040D324CA52DF4F4C
S1134A50E880C65DD040E624C952DF4FF880C75DC8
S1134A60D040C652DF4F1881CA5DD040F126C852EB
S1134A70DF4F0881C85DD040C552DF4F1881CB5D40
S1134A80D0400127C752DF4F1881C95DD040C452BE
S1134A90DF4FB881CC5DD0401B27C352DF4FE88184
S1134AA0CD5DD040AE22C252DF4FB881CE5DD04042
S1134AB0BB22C152DF4FE881CF5DD040CE22C0522D
S1134AC0DF4FB881C05ED040DB22CF51DF4FE88199
S1134AD0C15ED040EE22CE51DF4FB881C25ED040DD
S1134AE0FB22CD51DF4FE881C35ED0400E23CC5171
S1134AF0DF4FB881C45ED040B123C352DF4FB883C7
S1134B00CD5DD040CD52DF4FE881C35DD040E82178
S1134B10C753DF4F1881C95CD0401721C753DF4FFB
S1134B201883C95CD040CC52DF4F1881C45DD0409B
S1134B302122CB52DF4F1881C55DD0403122CA52A9
S1134B40DF4F1881C65DD0406122C952DF4F7880A3
S1134B50C75DD040C652DF4F1881CA5DD040712274
S1134B60C852DF4F8880C85DD040C552DF4F1881DE
S1134B70CB5DD0408122C752DF4FB881C95DD040A0
S1134B80C452DF4F1881CC5DD040B123AE26C75349
S1134B90DF4FE881C95CD040BE26C224D324E6247A
S1134BA0F7240825C352DF4F1881CD5DD0401B2761
S1134BB08A279F270E94472EA92CC553DF4FB88010
S1134BC0CB5CD040C353DF4FC880CD5CD040C253D0
S1134BD0DF4FD880CE5CD040C153DF4FE880CF5C3C
S1134BE0D040C053DF4FF880C05DD040CF52DF4F7C
S1134BF00881C15DD040CE52DF4F1881C25DD040E4
S1134C000E94472EC352DF4F2883CD5DD040C2524D
S1134C10DF4F3883CE5DD040C152DF4F4883CF5D34
S1134C20D040C052DF4F5883C05ED040CF51DF4FD9
S1134C306883C15ED040CE51DF4F7883C25ED040DE
S1134C40CD51DF4F8883C35ED040CC51DF4F988372
S1134C50C45ED040D2012C9311963C9311971296C6
S1134C604C93129713965C93139714966C93149722
S1134C7015967C931597CD51DF4FF881C35ED040D4
S1134C801696FC931697CC51DF4F1881C45ED04022
S1134C9017961C931797292D3B2DA601B701802F3A
S1134CA0CE52DF4F9881C25DD0409096AC909097E1
S1134CB09196BC9091979296CC9092979396DC9013
S1134CC093979496EC9094979596FC9095979696D6
S1134CD00C91969797961C919797D9D7C753DF4F06
S1134CE02883C95CD040C553DF4F3883CB5CD040A8
S1134CF0C353DF4F4883CD5CD040C253DF4F58834A
S1134D00CE5CD040C153DF4F6883CF5CD040272EA8
S1134D10C053DF4F8883C05DD040CF52DF4F9883AC
S1134D20C15DD04090962C93909791963C93919727
S1134D3092964C93929793965C93939794966C93D4
S1134D40949795962C929597C053DF4F8881C05DB8
S1134D50D04096968C939697CF52DF4F9881C15D41
S1134D60D04097969C93C951DF4FA881C75ED0402D
S1134D70AF5FC951DF4FA883C75ED040CB51DF4F2F
S1134D80E881F981C55ED0403896CB51DF4FF98375
S1134D90E883C55ED040C851DF4F88819981C85EE1
S1134DA0D0400896C851DF4F99838883C85ED040AD
S1134DB0A03509F46CC0C951DF4F9881C75ED0405B
S1134DC0903108F0FEC8CB51DF4FA881B981C55E90
S1134DD0D040BC91CE52DF4FB883C25DD040CB519E
S1134DE0DF4FE881F981C55ED040F181CD52DF4FBC
S1134DF0F883C35DD040CB51DF4FA881B981C55E34
S1134E00D0401296BC91CC52DF4FB883C45DD040E1
S1134E10CB51DF4FE881F981C55ED040F381CB529D
S1134E20DF4FF883C55DD040CB51DF4FA881B981F6
S1134E30C55ED0401496BC91CA52DF4FB883C65D9C
S1134E40D040CB51DF4FE881F981C55ED040F58178
S1134E50C952DF4FF883C75DD040CB51DF4FA881E3
S1134E60B981C55ED0401696BC91C852DF4FB88355
S1134E70C85DD040CB51DF4FE881F981C55ED04099
S1134E80F781C752DF4FF883C95DD040A7CA97E0C6
S1134E90992E792CCF50DF4F88809980C15FD04004
S1134EA0A72DB0E0AA0FBB1FAA0FBB1FAA0FBB1FE1
S1134EB0F401EA0FFB1FA40DB51D2081318142814D
S1134EC053816481758186819781AC901196BC90E1
S1134ED011971296CC9012971396DC901397149610
S1134EE0EC9014971596FC90159716960C911697BE
S1134EF017961C91CCD620833183428353836483D9
S1134F007583868397837A949FEF7912C9CFCF50A4
S1134F10DF4FE881F981C15FD040E05CFF4F8081C1
S1134F209181A281B3810196A11DB11D80839183DA
S1134F30A283B383CE50DF4F0FB6F894DEBF0FBE0B
S1134F40CDBFDF91CF911F910F91FF90EF90DF9034
S1134F50CF90BF90AF909F908F907F906F905F9015
S1134F604F903F902F9008952F923F924F925F92CF
S1134F706F927F928F929F92AF92BF92CF92DF9265
S1134F80EF92FF920F931F93CF93DF93CDB7DEB7CA
S1134F90CB58D1090FB6F894DEBF0FBECDBFC657AC
S1134FA0DF4F99838883CA58D040C857DF4F79832D
S1134FB06883C858D040CA57DF4F59834883C658BE
S1134FC0D040411524E05207D8F17A018B016C01DD
S1134FD0B801C6010E949E1E00581F4F34E0F31A08
S1134FE0E11484E0F806A0F7CA57DF4F888199815D
S1134FF0C658D0409450892F992786958695019656
S11350009695982F882797958795C857DF4FE881FD
S1135010F981C858D040E80FF91FC857DF4FF9830A
S1135020E883C858D040CA57DF4F28813981C65811
S1135030D0403370CA57DF4F39832883C658D040D5
S1135040C657DF4FE881F981CA58D040E05CFF4F72
S113505080809180A280B3809401A50160E070E01B
S113506080E090E00AE0C1D5CA57DF4FE881F981BA
S1135070C658D0405F01C12CD12CE12CF12C00E0AA
S113508010E005D6E22FCC57DF4F3883C458D04008
S1135090142FB52FA62FCB57DF4F7883C558D04098
S11350A01C01F8E0412C512C612C712C812C912C89
S11350B0A12C2F2D342D452D562D672D782D892D7E
S11350C09A2D08E092D5CF57DF4F3883C158D0408E
S11350D0B42EC52ED62EE72ECE57DF4F8883C25866
S11350E0D040CD57DF4F9883C358D040F22EFE2ACC
S11350F0432E542E3601872E982EA92E2E2FCC57B0
S1135100DF4F3881C458D040412F5B2F6A2FCB57D3
S1135110DF4F7881C558D040C10182D5E22FCC57EA
S1135120DF4F3883C458D040142FB52FA62FCB5748
S1135130DF4F7883C558D0401C01F15009F0B9CF36
S11351408E010F5F1F4F80E8F80111928A95E9F7ED
S1135150CA57DF4F48815981C658D040495F5F4FD5
S1135160569547955695479556954795C857DF4F99
S113517068817981C858D040C801F0D5CA57DF4F3B
S1135180E881F981C658D040F695E795F695E795FC
S1135190F695E795E00FF11FCA57DF4F2881398153
S11351A0C658D0402770332780E890E002C0959518
S11351B087952A95E2F79081892B8083CA57DF4F20
S11351C028813981C658D0402038334070F0B80166
S11351D0C657DF4F88819981CA58D0400E949E1ECD
S11351E088E7F80111928A95E9F7EA96FFAEEA9703
S11351F0CF57DF4FF881C158D040EB96FFAFEB9704
S1135200EC96BFAEEC97ED96CFAEED97EE96DFAE93
S1135210EE97EF96EFAEEF97CE57DF4F2881C25847
S1135220D040C158DF4F2883CF57D040CD57DF4FF0
S11352303881C358D040C058DF4F3883C058D0405D
S1135240B801C657DF4F88819981CA58D0400E945F
S11352509E1EC557DF4F0FB6F894DEBF0FBECDBFFD
S1135260DF91CF911F910F91FF90EF90DF90CF903E
S1135270BF90AF909F908F907F906F905F904F9072
S11352803F902F9008952F923F924F925F926F928A
S11352907F928F929F92AF92BF92CF92DF92EF92C2
S11352A0FF920F931F93CF93DF93CDB7DEB7C2570F
S11352B0D1090FB6F894DEBF0FBECDBFE3969FAF02
S11352C08EAFE397DB018E010F5F1F4FAF961FAFC9
S11352D00EAFAF971E0111E4210E311CFE01319671
S11352E06D917D918D919D9179D461937193819309
S11352F09193E215F305A1F780E2E396EEADFFADDD
S1135300E397DE01AF5BBF4F01900D928A95E1F701
S1135310D10150964D905D906D907C905397F10122
S113532081909190A190B190E196FFAFEEAFE1979B
S113533004E313E0AD961FAF0EAFAD97AB961FAE6F
S11353401EAEAB9753C249AD5AAD6BAD7CAD8D81EA
S11353509E81AF81B8856A017B01FDE0CC0CDD1C28
S1135360EE1CFF1CFA95D1F78A019B01E3E1369507
S1135370279517950795EA95D1F7C02AD12AE22AED
S1135380F32AA996CCAEDDAEEEAEFFAEA9977A01B4
S11353908B01FFE0EE0CFF1C001F111FFA95D1F7E3
S11353A0A596ECAEFDAE0EAF1FAFA5978A019B018B
S11353B0E1E13695279517950795EA95D1F7A596D6
S11353C0CCACDDACEEACFFACA5970C291D292E2985
S11353D03F29A996CCACDDACEEACFFACA9970C256B
S11353E01D252E253F25FAE0769567955795479517
S11353F0FA95D1F74027512762277327CDA0DEA065
S1135400EFA0F8A409811A812B813C81C00ED11E22
S1135410E21EF31EC40ED51EE61EF71E8C019D016E
S11354204EE0000F111F221F331F4A95D1F7AC0124
S1135430BD01E2E17695679557954795EA95D1F7D1
S1135440042B152B262B372BA5960CAF1DAF2EAF97
S11354503FAFA597AC01BD01F7E0769567955795E9
S11354604795FA95D1F78C019D01E9E1000F111FD1
S1135470221F331FEA95D1F7042B152B262B372B2C
S1135480A5964CAD5DAD6EAD7FADA59704271527F0
S113549026273727F3E0B695A79597958795FA952C
S11354A0D1F7082719272A273B27C701B601600F20
S11354B0711F821F931FA9966CAF7DAF8EAF9FAFF4
S11354C0A9974CE350E0BE016B5F7F4FCE0101967C
S11354D04ED4A996CCACDDACEEACFFACA99721962A
S11354E0CCAEDDAEEEAEFFAE2197AD96EEADFFAD28
S11354F0AD97E590F59005911491A596ECAEFDAEAF
S11355000EAF1FAFA597B301A201409550956095CA
S11355107095F101808D918DA28DB38D6A017B010F
S1135520C822D922EA22FB224489558966897789CF
S1135530D301C20184239523A623B723B701A6016F
S1135540482759276A277B27930182018BE03695E8
S11355502795179507958A95D1F7D301C201072E90
S113556075E1880F991FAA1FBB1F7A95D1F7702D7B
S1135570082B192B2A2B3B2B7301620186E0F6942E
S1135580E794D794C7948A95D1F7D301C201072E23
S11355907AE1880F991FAA1FBB1F7A95D1F7702D46
S11355A08C299D29AE29BF2980279127A227B327BB
S11355B093018201000F111F221F331F000F111FBF
S11355C0221F331F000F111F221F331F000F111F33
S11355D0221F331F000F111F221F331F000F111F23
S11355E0221F331F000F111F221F331F032E39E107
S11355F076946794579447943A95D1F7302D0429BB
S113560015292629372980279127A227B327480F50
S1135610591F6A1F7B1F848D958DA68DB78D480FEA
S1135620591F6A1F7B1FA996CCACDDACEEACFFAC56
S1135630A997C40ED51EE61EF71EA5960CAD1DAD8A
S11356402EAD3FADA5970C0D1D1D2E1D3F1DA5961E
S11356500CAF1DAF2EAF3FAFA597C480D580E680B9
S1135660F780A996CCAEDDAEEEAEFFAEA997C084AE
S1135670D184E284F3844CE150E0B101E1968EAD33
S11356809FADE19774D3F101408851886288738893
S1135690A5960CAD1DAD2EAD3FADA597400E511E88
S11356A0621E731E408A518A628A738AB501A401FC
S11356B08DE076956795579547958A95D1F7D501ED
S11356C0C40123E1880F991FAA1FBB1F2A95D1F794
S11356D0842B952BA62BB72BB501A4017695679542
S11356E05795479576956795579547959501840104
S11356F0EEE1000F111F221F331FEA95D1F7402B53
S1135700512B622B732B482759276A277B27950136
S11357108401FAE0000F111F221F331FFA95D1F7FD
S1135720D501C401E6E1B695A79597958795EA95C5
S1135730D1F7802B912BA22BB32B482759276A270B
S11357407B27A9968CAD9DADAEADBFADA9978C2539
S11357509D25AE25BF2588219921AA21BB21A99683
S11357600CAD1DAD2EAD3FADA997C022D122E222D2
S1135770F322C826D926EA26FB264C0D5D1D6E1D94
S11357807F1DA5968CAC9DACAEACBFACA597840E2A
S1135790951EA61EB71ED1018D929D92AD92BC920C
S11357A01397AB960EAD1FADAB970F5F1F4FAB9624
S11357B01FAF0EAFAB97AD960EAD1FADAD970C5F9F
S11357C01F4FAD961FAF0EAFAD97AF960EAD1FAD89
S11357D0AF970C5F1F4FAF961FAF0EAFAF97AB964F
S11357E00EAD1FADAB9700341105A9F0AA961FADFD
S11357F0AA97103108F0A7CDAF96AEADBFADAF9765
S1135800CD90DD90ED90FC90A996CCAEDDAEEEAEE1
S1135810FFAEA9976ACEE396EEADFFADE397E196AE
S11358202EAD3FADE19710E2210E311C8F01D50161
S1135830C40106C0F90181919191A191B1919F0197
S1135840F8014081518162817381840F951FA61FE5
S1135850B71F81939193A193B1938F0122163306BD
S113586049F7E396EEADFFADE39780A191A1A2A124
S1135870B3A10196A11DB11D80A391A3A2A3B3A3BB
S1135880CE58DF4F0FB6F894DEBF0FBECDBFDF9109
S1135890CF911F910F91FF90EF90DF90CF90BF9029
S11358A0AF909F908F907F906F905F904F903F90BC
S11358B02F9008958F929F92AF92BF92CF92DF92D2
S11358C0EF92FF920F931F93CF93DF93CDB7DEB781
S11358D0C854D1090FB6F894DEBF0FBECDBF8C01FA
S11358E05B014A016A014115524018F17B01B7017D
S11358F0C801C9DC92E0D91AE0E4EE0EF11CC1142F
S1135900F2E0DF06A0F7640181E0D82292E0991A60
S1135910892C99248694EFEF8E1A9E0A002496947B
S113592087940794969487940794982C802CA80CB9
S1135930B91CF80180A191A1A2A1B3A129E0880F0B
S1135940991FAA1FBB1F2A95D1F78C0D9D1DA11D60
S1135950B11D9C01AD0122968FAF229723963FAFD4
S1135960239724964FAF249725965FAF25972696C5
S11359701FAE269727961FAE279728961FAE289707
S113598029961FAE299730E4932ECE0101967C010F
S1135990FC01892D11928A95E9F7A601495F5F4FB1
S11359A0569547955695479556954795B501C70120
S11359B0D5D1F601F695E795F695E795F695E79531
S11359C0EE0DFF1D96012770332780E890E002C09A
S11359D0959587952A95E2F79081892B808390ECA1
S11359E0C91691E0D90658F527E04FE350E0822F1D
S11359F090E0FA01E81BF90BEE0DFF1DA1E4B0E005
S1135A00AC0FBD1FA80FB91F8C918083215078F76C
S1135A10B701C80138DCC85BDF4F0FB6F894DEBFAE
S1135A200FBECDBFDF91CF911F910F91FF90EF90EB
S1135A30DF90CF90BF90AF909F908F900895B70163
S1135A40C80121DCF70111929A94E9F7CDCF2F9286
S1135A503F924F925F926F927F928F929F92AF92FA
S1135A60BF92CF92DF92EF92FF920F931F93CF9347
S1135A70DF93CDB7DEB7C454D1090FB6F894DEBFB7
S1135A800FBECDBF4C011B0129013A015E0181E427
S1135A90A80EB11CF501108211821282138240E417
S1135AA050E064E374E0CE0101964FD14114F4E078
S1135AB05F066104710460F1730162018101B80140
S1135AC0CE0101960E949E1E00581F4F84E0D81AF2
S1135AD0E108F108C114E4E0DE06E104F10478F71A
S1135AE0D301C2019450A109B1092AE0B695A79542
S1135AF0979587952A95D1F701969695982F88279B
S1135B0097958795280E391EF3E05F226624772443
S1135B10A201B101CE01019627DA9E012F5F3F4F0A
S1135B20F40187E0D901A80FB11D9C919193815094
S1135B30C8F788E0880E911C285F3F4F2A153B0563
S1135B4079F7CC5BDF4F0FB6F894DEBF0FBECDBF45
S1135B50DF91CF911F910F91FF90EF90DF90CF9045
S1135B60BF90AF909F908F907F906F905F904F9079
S1135B703F902F9008951092C50083E38093C40052
S1135B808EE08093C20088E18093C1000895FC01F7
S1135B9001900020E9F731979F01281B390B121659
S1135BA013066CF4FC01280F391F9091C00095FF77
S1135BB0FCCF81918093C600E217F307B1F780917F
S1135BC0C00085FFFCCF8DE08093C6008091C000AB
S1135BD085FFFCCF8AE08093C60008956927962745
S1135BE0692778278727782708950F93083090F03E
S1135BF0982F872F762F652F542F432F322F22274C
S1135C000850F4CF220F331F441F551F661F771F00
S1135C10881F991F0A95B2F70F91089597FB10F802
S1135C20169400080F93083098F00850232F342F4F
S1135C30452F562F672F782F892F902DF4CF059459
S1135C4097958795779567955795479537952795B0
S1135C500A95AAF70F9108950F930830A0F0085001
S1135C60092E982F872F762F652F542F432F322FED
S1135C70202DF3CF220F331F441F551F661F771F9C
S1135C80881F991F211D0A95AAF70F9108952A0DBF
S1135C903B1D4C1D5D1D6E1D7F1D801F911F0895B2
S1135CA08F929F92AF92BF92CF92DF92EF92FF9228
S1135CB0CF93DF93EC01688179818A819B8161159F
S1135CC071058105910521F464E279ED8BE597E096
S1135CD02DE133EF41E050E062D049015A019B01CC
S1135CE0AC01A7EAB1E477D06B017C01ACEEB4EF70
