S00F0000476174657761792E7372656343
S113000049C0000066C0000064C0000062C0000077
S113001060C000005EC000005CC000005AC0000068
S113002058C0000056C0000054C0000052C0000078
S113003050C000004EC000004CC000004AC0000088
S113004048C0000046C0000044C0000042C0000098
S113005040C000003EC000003CC000003AC00000A8
S113006038C0000036C0000034C0000032C00000B8
S113007030C000002EC000002CC000002AC00000C8
S113008028C0000026C0000024C0000022C00000D8
S113009020C0000011241FBECFEFD0E1DEBFCDBFD2
S11300A012E0A0E0B1E0E2EAF5E200E00BBF02C03A
S11300B007900D92A03DB107D9F722E0A0EDB2E080
S11300C001C01D92A83DB207E1F70E94270F0C94CE
S11300D0CF1296CFCF93DF93F89481E08093D8002A
S11300E084E38093DB001092DA0020E04DEE50E0D0
S11300F0CFEED0E06EEE70E0EAEFF0E0822F829572
S1130100807FDA018C931882DB011C9288E090E0F6
S113011010820197E9F72F5F2F3081F788E08093F1
S1130120ED0086E08093E2008CE08093E30087E3B7
S11301308093E4001092E50082E08093D8007894E4
S1130140DF91CF910895DC01E9ECF0E0E61BF109C1
S113015009941D921D921D921D921D921D921D9235
S11301601D921D921D921D921D921D921D921D9213
S11301701D921D921D921D921D921D921D921D9203
S11301801D921D921D921D921D921D921D921D92F3
S11301901D920895CF93DF93440FEB01DC01E4E15A
S11301A0F1E0E41BF109099409900D9209900D9274
S11301B009900D9209900D9209900D9209900D925B
S11301C009900D9209900D9209900D9209900D924B
S11301D009900D9209900D9209900D9209900D923B
S11301E009900D9209900D9209900D9209900D922B
S11301F009900D9209900D9209900D9209900D921B
S113020009900D9209900D9209900D9209900D920A
S113021009900D9209900D9209900D9209900D92FA
S113022009900D9209900D92DF91CF910895262F98
S1130230062E000C330B21503109322F330F230FBC
S1130240DC01E8E8F1E0E21BF109A60FB11D0E9014
S113025006940C9209940E9007940C920E900794B5
S11302600C920E9007940C920E9007940C920E90A0
S113027007940C920E9007940C920E9007940C9293
S11302800E9007940C920E9007940C920E90079483
S11302900C920E9007940C920E9007940C920E9070
S11302A007940C920E9007940C920E9007940C9263
S11302B00E9007940C920E9007940C920E90079453
S11302C00C920E9007940C920E9007940C920E9040
S11302D007940C920E9007940C920E9007940C9233
S11302E00E9007940C920E9007940C920E90079423
S11302F00C920E9007940C920E9007940C920E9010
S113030007940C920E9007940C920E9007940C9202
S11303100895CF93DF93220FDB01EA01AC01E5EDF1
S1130320F1E0E21BF10988940994FA013EC0FA0154
S113033040C0FA0142C0FA0144C0FA0146C0FA01C1
S113034048C0FA014AC0FA014CC0FA014EC0FA0191
S113035050C0FA0152C0FA0154C0FA0156C0FA0161
S113036058C0FA015AC0FA015CC0FA015EC0FA0131
S113037060C0FA0162C0FA0164C0FA0166C0FA0101
S113038068C0FA016AC0FA016CC0FA016EC0FA01D1
S113039070C0FA0172C0FA0174C0FA0176C0FA01A1
S11303A078C0FA017AC0FA017CC08D919991891FB5
S11303B081938D919991891F81938D919991891F31
S11303C081938D919991891F81938D919991891F21
S11303D081938D919991891F81938D919991891F11
S11303E081938D919991891F81938D919991891F01
S11303F081938D919991891F81938D919991891FF1
S113040081938D919991891F81938D919991891FE0
S113041081938D919991891F81938D919991891FD0
S113042081938D919991891F81938D919991891FC0
S113043081938D919991891F81938D919991891FB0
S113044081938D919991891F81938D919991891FA0
S113045081938D919991891F81938D919991891F90
S113046081938D919991891F81938D919991891F80
S113047081938D919991891F81938D919991891F70
S113048081938D919991891F81938D919991891F60
S113049081938D919991891F81938D919991891F50
S11304A081938D919991891F8193812D881FDF916B
S11304B0CF910895CF93DF93220FDB01EA01AC01C2
S11304C0E6EAF2E0E21BF10988940994FA013EC0DD
S11304D0FA0140C0FA0142C0FA0144C0FA0146C020
S11304E0FA0148C0FA014AC0FA014CC0FA014EC0F0
S11304F0FA0150C0FA0152C0FA0154C0FA0156C0C0
S1130500FA0158C0FA015AC0FA015CC0FA015EC08F
S1130510FA0160C0FA0162C0FA0164C0FA0166C05F
S1130520FA0168C0FA016AC0FA016CC0FA016EC02F
S1130530FA0170C0FA0172C0FA0174C0FA0176C0FF
S1130540FA0178C0FA017AC0FA017CC08D919991C0
S1130550890B81938D919991890B81938D919991B7
S1130560890B81938D919991890B81938D919991A7
S1130570890B81938D919991890B81938D91999197
S1130580890B81938D919991890B81938D91999187
S1130590890B81938D919991890B81938D91999177
S11305A0890B81938D919991890B81938D91999167
S11305B0890B81938D919991890B81938D91999157
S11305C0890B81938D919991890B81938D91999147
S11305D0890B81938D919991890B81938D91999137
S11305E0890B81938D919991890B81938D91999127
S11305F0890B81938D919991890B81938D91999117
S1130600890B81938D919991890B81938D91999106
S1130610890B81938D919991890B81938D919991F6
S1130620890B81938D919991890B81938D919991E6
S1130630890B81938D919991890B81938D919991D6
S1130640890B81938D919991890B8193812D881FB9
S1130650DF91CF910895CF93DF93FC01DB01EA0191
S113066090E0892F392F492F51E060E0C50FD41F46
S11306700D901A90019C900D811D341F6395651790
S1130680B8F3A51BB40B9193982F832F342F539554
S1130690521758F3522FC20FD41F60E00D901A90D6
S11306A0019C900D811D341F63956517B8F3C50F28
S11306B0D41F9193982F832F342F5A95A51BB40BD5
S11306C0541759F791931124DF91CF910895161679
S11306D07CF4FC016150462F50E04F5F5F4F480FA0
S11306E0591F90E02191922BE417F507D9F701C027
S11306F090E081E0911180E008959B013595279564
S11307003595279535952795820F931F6770772721
S113071021E030E002C0220F331F6A95E2F7FC01AA
S11307208081822308959C01615092F0FC01E60FC0
S1130730F11D67FDFA95808181110AC0615042F074
S1130740F901E60FF11D67FDFA9590819923B1F344
S11307506F5FE9F0260F311D67FD3A95F901319776
S11307608081882331F020E086952F5F8111FCCFB2
S113077001C020E0862F660F990B0197880F991FFF
S1130780880F991F880F991F820F911D089580E08B
S113079090E00895DC0141502AF1842F042E000CCE
S11307A0990BFD01E80FF91F2081FB01E80FF91FE8
S11307B080818217C8F0281788F418C0242F042ECB
S11307C0000C330BFD01E20FF31F5081FB01E20F1C
S11307D0F31F9081951760F0591760F0415072F73C
S11307E080E0089580E0089581E008958FEF0895F2
S11307F081E008958FEF08950F931F93CF93DF93B4
S1130800CDB7DEB7A0970FB6F894DEBF0FBECDBF4D
S1130810142F242FAB01BC01CE0101964BDE082F0F
S1130820612FCE01019653DF91E0811190E081E0C8
S1130830011101C080E0880F981B892FA0960FB684
S1130840F894DEBF0FBECDBFDF91CF911F910F9102
S11308500895EF92FF920F93CF93DF93EC01790108
S1130860202F57DD811106C0402FBE01C70192DF42
S1130870813029F0202FA701BE01CE011BDEDF91BC
S1130880CF910F91FF90EF900895EF92FF920F9305
S1130890CF93DF93EC017901202F0CDE882329F01C
S11308A0202FA701BE01CE0134DDDF91CF910F913E
S11308B0FF90EF900895EF92FF920F931F93CF93C1
S11308C0DF93CDB7DEB7C054D1090FB6F894DEBFBD
S11308D00FBECDBF7C018901F9012081CE010196B3
S11308E0BADEF801E655FF4F0190F081E02DBE011C
S11308F06F5F7F4FC7010995C05CDF4F0FB6F89457
S1130900DEBF0FBECDBFDF91CF911F910F91FF903E
S1130910EF9008959A01AB01CECF08950F931F93E2
S1130920CF93DF938C01C42FFC01808180FF15C01D
S1130930242FAB01B801C801ECDCD82F6C2FC801FF
S113094076DCDD2369F0EC2FCC0FFF0B3197E00F41
S1130950F11F80818068808303C0642FC80167DC35
S1130960DF91CF911F910F910895AF92BF92CF92D3
S1130970DF92EF92FF921F93CF93DF93CDB7DEB751
S1130980C058D1090FB6F894DEBF0FBECDBF5C01CD
S11309906B017A01122F622FC60199DE882321F0A0
S11309A0612FC501D0DBA1C0412FB601CE01019654
S11309B0F1DB412FB701CE018196ECDB612FCE0133
S11309C08F5B9F4FC0DB81E022968FAF2297612F10
S11309D0CE018F599F4FB7DB79C0998190FD0BC031
S11309E0612FCE01019623DC412FB701CE018F5B2D
S11309F09F4F94DF6BC099A190FD0BC0612FCE0176
S1130A00819615DC412FB701CE018F599F4F86DFA8
S1130A105DC0181674F5212FAE014F5D5F4FBE0106
S1130A206F5F7F4FCB0146DD612FCE010196FFDB67
S1130A30412FBE016F597F4FCE018F5B9F4FAADEBE
S1130A4088233CF4212FA701BE016F5B7F4FCB01AC
S1130A5060DC212FAE014F595F4FBE016F5B7F4FAA
S1130A60CB0128DD412FB701CE018F5B9F4F56DFAD
S1130A702DC0212FAE014F5F5F4FBE016F5D7F4FD1
S1130A80CB0118DD612FCE018196D1DB412FBE0150
S1130A906F5B7F4FCE018F599F4F7CDE88233CF4E0
S1130AA0212FA701BE016F597F4FCB0132DC212FCB
S1130AB0AE014F5B5F4FBE016F597F4FCB01FADC34
S1130AC0412FB701CE018F599F4F28DF412FBE011F
S1130AD06F5D7F4FCE0101965DDE81117ECF412F88
S1130AE0BE016F5B7F4FC50155DBC058DF4F0FB6AA
S1130AF0F894DEBF0FBECDBFDF91CF911F91FF9061
S1130B00EF90DF90CF90BF90AF9008956F927F9257
S1130B108F929F92AF92BF92CF92DF92EF92FF9209
S1130B200F931F93CF93DF93CDB7DEB7C054D10992
S1130B300FB6F894DEBF0FBECDBF6C013B017A0146
S1130B405901F9011081612FCA01C1DD811196C0DB
S1130B50A501B301CE010196DDDE9501AE014F5F23
S1130B605F4FB601CE018196A6DEA501BE016F5F7F
S1130B707F4FCB01CFDE9501A701B301C3019BDEFB
S1130B80A501B701C701C6DE4501F4E08F0E911C33
S1130B90012F9401A701B601C6015BDE9401A701F0
S1130BA0B701C70156DE9401A701B601C7016DDE86
S1130BB09501A701B601C6017EDE9401A601B60126
S1130BC0C70147DE9401A701B601C60142DE60E019
S1130BD070E0C60192DD8823C1F0212FA401B60183
S1130BE0C60197DB082F612FC60121DBE12F012EFF
S1130BF0000CFF0B3197EC0DFD1D20E8029FC00196
S1130C0011240081082B008303C0612FC6010FDB70
S1130C10A501B601C7017EDE012F9401AE014F5D2F
S1130C205F4FB701C70131DE9401AE014F5D5F4FE5
S1130C30B701C7012ADE9401A701BE016F5D7F4F92
S1130C40CB0123DE9501AE014F5D5F4FB601C601B6
S1130C5032DE9401AE014F5F5F4FB601CA0115DE6B
S1130C60412FB701C60196DA412FB301C70192DAC9
S1130C70412FBE016F5F7F4FC3018CDAC05CDF4F31
S1130C800FB6F894DEBF0FBECDBFDF91CF911F9199
S1130C900F91FF90EF90DF90CF90BF90AF909F9017
S1130CA08F907F906F9008956F927F928F929F9212
S1130CB0AF92BF92CF92DF92EF92FF920F931F9366
S1130CC0CF93DF93CDB7DEB7A0970FB6F894DEBF0E
S1130CD00FBECDBF7C014B016A01CE0101963C01E0
S1130CE080E2F30111928A95E9F783E08983FA019E
S1130CF01081C7010FDE5601F4E0AF0EB11C012FC5
S1130D009501A301B701C701C0DD9601A401B70194
S1130D10C701D1DDA6014C575F4F9501B701C7014B
S1130D2098DDA0960FB6F894DEBF0FBECDBFDF915D
S1130D30CF911F910F91FF90EF90DF90CF90BF90D4
S1130D40AF909F908F907F906F900895BF92CF92B5
S1130D50DF92EF92FF920F931F93CF93DF93CDB760
S1130D60DEB7C054D1090FB6F894DEBF0FBECDBFB5
S1130D706C017B0190E28E010F5F1F4FD801E92FB8
S1130D801D92EA95E9F781E08983FE01B196DF01BE
S1130D901D929A95E9F789A3FB01B0806C5F7F4FA0
S1130DA02B2DA801C801B5DA6B2DC801BCDC8C0160
S1130DB00150110902301105C4F0A701BE016F5D95
S1130DC07F4FCB01A7DDB801CE01019696DC8823C5
S1130DD039F09701A601BE016F5D7F4FCB016BDD3A
S1130DE0015011090130110541F74B2DBE016F5D12
S1130DF07F4FC601CFD9C05CDF4F0FB6F894DEBF7A
S1130E000FBECDBFDF91CF911F910F91FF90EF9057
S1130E10DF90CF90BF900895CF92DF92FF920F930F
S1130E201F93CF93DF93CDB7DEB7A0970FB6F89497
S1130E30DEBF0FBECDBF6C018B0140E2ABD91C827B
S1130E401B821A82198218861F821E821D821C86AA
S1130E501B861A861986F80184A58D8785A58E8739
S1130E6086A58F8787A5888B80A9898B81A98A8B82
S1130E7082A98B8B83A98C8B84A98D8B85A98E8B5E
S1130E8086A98F8B87A9888F80AD898F81AD8A8F42
S1130E9082AD8B8F83AD8C8F84AD8D8F85AD8E8F1E
S1130EA086AD8F8F87AD88A320E2AE014F5F5F4F81
S1130EB0BA01CA012EDAF82E20E2AE014F5F5F4F6D
S1130EC0B601C60126DAF80EF80180A98D8781A93A
S1130ED08E8782A98F8783A9888B84A9898B85A90A
S1130EE08A8B86A98B8B87A98C8B80AD8D8B81ADEA
S1130EF08E8B82AD8F8B83AD888F84AD898F85ADCA
S1130F008A8F86AD8B8F87AD8C8F18A21F8E1E8E15
S1130F101D8E20E2AE014F5F5F4FBA01CA01F9D9BD
S1130F20F80E20E2AE014F5F5F4FB601C601F1D962
S1130F30F80EF80180A1898381A18A8382A18B8321
S1130F4083A18C8384A18D8385A18E8386A18F83C5
S1130F5087A1888780A5898781A58A8782A58B87B1
S1130F6083A58C87188A1F861E861D861C8A1B8A69
S1130F701A8A198A188E1F8A1E8A1D8A80AD898F43
S1130F8081AD8A8F82AD8B8F83AD8C8F84AD8D8F35
S1130F9085AD8E8F86AD8F8F87AD88A320E2AE019D
S1130FA04F5F5F4FB601C601B4D9F80EF80184A1B2
S1130FB0898385A18A8386A18B8387A18C8380A55D
S1130FC08D8381A58E8382A58F8383A5888784A53D
S1130FD0898785A58A8786A58B8787A58C8734A969
S1130FE03D8725A92E8796A99F8787A9888B40AD21
S1130FF0498B41AD4A8B42AD4B8B43AD4C8B44ADD9
S11310004D8B45AD4E8B46AD4F8B47AD488F398FD9
S11310102A8F9B8F8C8F80A18D8F81A18E8F82A12F
S11310208F8F83A188A320E2AE014F5F5F4FB6018B
S1131030C6016FD9F80EF80184A5898385A58A8332
S113104086A58B8387A58C8380A98D8381A98E83B4
S113105082A98F8383A9888784A9898785A98A8798
S113106086A98B8787A98C87188A1F861E861D866A
S11310701C8A1B8A1A8A198A188E1F8A1E8A1D8A3C
S113108080A1898F81A18A8F82A18B8F83A18C8F6C
S113109080A58D8F81A58E8F82A58F8F83A588A330
S11310A020E2AE014F5F5F4FB601C60103DAF81AC2
S11310B0F80180A9898381A98A8382A98B8383A962
S11310C08C8384A98D8385A98E8386A98F8387A920
S11310D0888780AD898781AD8A8782AD8B8783AD10
S11310E08C8784AD8D8785AD8E8786AD8F8787ADE0
S11310F0888B1C8A1B8A1A8A198A188E1F8A1E8A50
S11311001D8A84A1898F85A18A8F86A18B8F87A14F
S11311108C8F84A58D8F85A58E8F86A58F8F87A5AF
S113112088A320E2AE014F5F5F4FB601C601C2D96A
S1131130F81AF80184A9898385A98A8386A98B83EF
S113114087A98C8380AD8D8381AD8E8382AD8F839F
S113115083AD888784AD898785AD8A8786AD8B8783
S113116087AD8C8780A18D8781A18E8782A18F878F
S113117083A1888B84A1898B85A18A8B86A18B8B83
S113118087A18C8B80A58D8B81A58E8B82A58F8B5F
S113119083A5888F1C8E1B8E1A8E198E80A98D8F25
S11311A081A98E8F82A98F8F83A988A320E2AE01A3
S11311B04F5F5F4FB601C6017DD9F81AF80180ADC3
S11311C0898381AD8A8382AD8B8383AD8C8384AD27
S11311D08D8385AD8E8386AD8F8387AD88871C868E
S11311E01B861A86198684A18D8785A18E8786A180
S11311F08F8787A1888B80A5898B81A58A8B82A5FF
S11312008B8B83A58C8B84A58D8B85A58E8B86A5D6
S11312108F8B87A5888F1C8E1B8E1A8E198E84A99E
S11312208D8F85A98E8F86A98F8F87A988A320E2A9
S1131230AE014F5F5F4FB601C6013CD91F2D181B8D
S113124082F420E24EE051E0B601C60162D8180FE4
S1131250C2F310C020E24EE051E0B601C6012AD923
S1131260181B1111F7CF40E2B6018EE091E092DA3B
S1131270813081F7A0960FB6F894DEBF0FBECDBFC4
S1131280DF91CF911F910F91FF90DF90CF90089540
S1131290AF92BF92CF92DF92EF92FF920F931F9380
S11312A0CF93DF93CDB7DEB7A0970FB6F894DEBF28
S11312B00FBECDBF5C017B016A018901A901B601A2
S11312C0CE01019627DB9801AE014F5F5F4FB50158
S11312D0C501F1DA9801A601BE016F5F7F4FCB0112
S11312E0EADA9801AE014F5F5F4FB701C701E3DA55
S11312F0A0960FB6F894DEBF0FBECDBFDF91CF919D
S11313001F910F91FF90EF90DF90CF90BF90AF901F
S113131008954F925F926F927F928F929F92AF92B5
S1131320BF92CF92DF92EF92FF920F931F93CF93CE
S1131330DF93CDB7DEB7A0970FB6F894DEBF0FBE2C
S1131340CDBF3C012B017A0159016801F8011081DC
S11313504601F4E08F0E911C012F9401AC01B701FA
S1131360CE01019692DAA601BE016F5F7F4FCB01D9
S1131370D1DA9601AE014F5F5F4FB301C3019BDA2F
S11313809601AE014F5F5F4FB701C70194DA940134
S1131390A201B501C50179DAA601B501CE01019614
S11313A0B9DA9401A301BE016F5F7F4FCB016DDAFF
S11313B09401A701BE016F5F7F4FCB0166DA9401F0
S11313C0A301B701C70161DA9601A701B201C20105
S11313D072DA9401AE014F5F5F4FB301C70155DA72
S11313E09601A701B501C50166DA9401A201B50110
S11313F0C5014BDA412FBE016F5F7F4FC7010E94C9
S1131400CA00A0960FB6F894DEBF0FBECDBFDF9121
S1131410CF911F910F91FF90EF90DF90CF90BF90ED
S1131420AF909F908F907F906F905F904F900895B2
S11314304F925F926F927F928F929F92AF92BF92E0
S1131440CF92DF92EF92FF920F931F93CF93DF938C
S1131450CDB7DEB7C056D1090FB6F894DEBF0FBEC4
S1131460CDBF4C012B015A0139016801F8011081EB
S11314707601F4E0EF0EF11C012F9701AC01B501E8
S1131480CE01019602DAA601BE016F5F7F4FCB0148
S113149041DA9601AE014F5F5F4FB401C4010BDA2C
S11314A09601AE014F5F5F4FB501C50104DA9701A4
S11314B0A201B301CE010196CCD99701A201B301D7
S11314C0C301E3D99701A401B501CE018196DDD909
S11314D09601AE014F5D5F4FB201C201ECD9970195
S11314E0A501B401CE018196B4D9A601B301C50109
S11314F011DA9701AE014F5D5F4FB501C501C5D942
S11315009701A501B401CE018F5B9F4FBED996010F
S1131510AE014F5B5F4FB301C301CDD99701A20167
S1131520B301C301B2D9A601BE016F5F7F4FCE01E3
S11315308F5B9F4FEFD99701AE014F5D5F4FBE01A7
S11315406F5B7F4FCB01A1D99701A401BE016F5BF3
S11315507F4FCE01819699D99601AE014F5F5F4FBF
S1131560BE016F5D7F4FCB01A6D99701A201BE01D9
S11315706F5D7F4FC20189D9412FBE016F5B7F4FE1
S1131580C4010E94CA00C05ADF4F0FB6F894DEBFF0
S11315900FBECDBFDF91CF911F910F91FF90EF90C0
S11315A0DF90CF90BF90AF909F908F907F906F907F
S11315B05F904F9008952F923F924F925F926F9257
S11315C07F928F929F92AF92BF92CF92DF92EF92CF
S11315D0FF920F931F93CF93DF93CDB7DEB7CB5C0E
S11315E0D1090FB6F894DEBF0FBECDBFC653DF4F8F
S11315F099838883CA5CD040CC53DF4F7983688356
S1131600C45CD040CF53DF4F59834883C15CD04082
S113161069011701F701F081CD53DF4FF883C35CF3
S1131620D0404F2FCE0181960E94CA00CD53DF4F88
S11316302881C35CD040022E000C330BCA53DF4F09
S113164039832883C65CD040CC53DF4F888199818D
S1131650C45CD040820F931FC853DF4F99838883A3
S1131660C85CD040CD53DF4F4881C35CD040BC013F
S1131670CE018F599F4F0E94CA00F701B080C11458
S1131680D10441F04B2DB601CE018F559F4F0E94DE
S1131690CA000CC06B2DCE018F559F4F0E94A30032
S11316A081E0CF55DF4F8883C15AD0404B2DBE0116
S11316B06F5D7F4FCE0101960E94CA000F2EF1E4A8
S11316C0EF2EF12CF02DEC0EFD1EF0E2EF0EF11CCE
S11316D04B2DB701CE018F5B9F4F0E94CA00910131
S11316E0AE014F555F4FB701CE018196D1DDF101B7
S11316F0EC55FF4F0190F081E02D9101AE014F5563
S11317005F4FB701CE01819609959101AE014F5506
S11317105F4FBE016F5B7F4FCE010196B9DD58016B
S113172022E0A21AB1081A141B040CF053C044247A
S11317304394512CB501CF53DF4F88819981C15C0B
S1131740D0400E947D039201882311F020E030E014
S11317503901660C771C660C771C660C771C660CCA
S1131760771C660C771C0F2EF1E4CF2ED12CF02DB4
S1131770CC0EDD1EC60CD71C81E090E08C0F9D1FA3
S1131780680E791E7201E21AF30AEE0CFF1CEE0CCD
S1131790FF1CEE0CFF1CEE0CFF1CEE0CFF1C0F2EAE
S11317A0F1E48F2E912CF02D8C0E9D1E8E0C9F1C1F
S11317B0E80EF91E81019601A301B401C70138DEC8
S11317C09401A701B601C301A4DD91E0A91AB108EF
S11317D009F0B0CF60E070E0CF53DF4F888199818A
S11317E0C15CD0400E947D0321E030E0882311F0E9
S11317F020E030E06901CC0CDD1CCC0CDD1CCC0CF1
S1131800DD1CCC0CDD1CCC0CDD1C0F2EF1E48F2E6A
S1131810912CF02D8C0E9D1E8C0C9D1CE1E0F0E0B3
S1131820EC0FFD1FCE0EDF1E81E090E07C01E21A7A
S1131830F30AEE0CFF1CEE0CFF1CEE0CFF1CEE0C6E
S1131840FF1CEE0CFF1C0F2EF1E4AF2EB12CF02D7B
S1131850AC0EBD1EAE0CBF1CEE0EFF1E810194012A
S1131860A601B501C701E4DD3101F4E06F0E711C7E
S1131870CD53DF4F0881C35CD0409301AE014F5F6D
S11318805F4FBE016F5D7F4FCE018F579F4F0E9408
S113189045049101A501BE016F577F4FCB010BD8C1
S11318A09101CC53DF4F48815981C45CD040BE01C3
S11318B06F577F4FCB010E945B04CD53DF4F2881CC
S11318C0C35CD040A301BE016F577F4FCB014DD8FD
S11318D09101C853DF4F48815981C85CD040BE0193
S11318E06F577F4FCB010E945B049101A701BE019A
S11318F06F577F4FCB010E945B0481019501A701C3
S1131900B401C60106DD9101AE014F575F4FBE0120
S11319106F5B7F4FCE010196BBDCCD53DF4F488117
S1131920C35CD040BE016F5F7F4FC653DF4F8881D9
S11319309981CA5CD0400E94CA00CD53DF4F4881D0
S1131940C35CD040BE016F5B7F4FC653DF4F8881BD
S11319509981CA5CD040CA53DF4F28813981C65C63
S1131960D040820F931F0E94CA00C553DF4F0FB6A9
S1131970F894DEBF0FBECDBFDF91CF911F910F91C1
S1131980FF90EF90DF90CF90BF90AF909F908F909B
S11319907F906F905F904F903F902F900895AF92FB
S11319A0BF92CF92DF92EF92FF920F931F93CF9348
S11319B0DF937B015A01F901C280D380A601495FFC
S11319C05F4FEA01DD230CF42796D595C795D5958D
S11319D0C795D595C79589010C5D1F4F2C2FA8017C
S11319E0BC01C7010E948901811111C028E0C20213
S11319F0C0011124C816D9066CF4B601C7010E94AF
S1131A007D0391E0811101C090E0D92E04C0DD2452
S1131A10D39401C0D12C2C2FA801B701C5010E9479
S1131A2089018D2DDF91CF911F910F91FF90EF9040
S1131A30DF90CF90BF90AF900895AF92BF92CF92B6
S1131A40DF92EF92FF920F931F93CF93DF93CDB763
S1131A50DEB7C454D1090FB6F894DEBF0FBECDBFB4
S1131A605C01CB016A017E0121E4E20EF11CBE019E
S1131A706F5F7F4FF70171836083AE014F5D5F4FEE
S1131A805383428396018BDFF601028113810F5F3A
S1131A901F4FF70121E030E0882311F020E030E00F
S1131AA0220F331FE20FF31F40815181B6016C5B9B
S1131AB07F4F760120E030E0C5017DDDF6016081D5
S1131AC0660FC5010E94670391E0811190E0892FA0
S1131AD0CC5BDF4F0FB6F894DEBF0FBECDBFDF91F6
S1131AE0CF911F910F91FF90EF90DF90CF90BF9017
S1131AF0AF900895CF93DF93DC0116161706CCF44C
S1131B0020E030E090E0EB012197FE01E21BF30BB3
S1131B10E40FF51F2081FD01E90FF11D97FDFA95F2
S1131B2020839F5F292F092E000C330B26173707BC
S1131B3064F3DF91CF9108959F92AF92BF92CF92B9
S1131B40DF92EF92FF920F931F93CF93DF938C0159
S1131B505B01D42F642FC5010E9493032091D0020E
S1131B603091D102232BC1F148E0D4029001112419
S1131B70281B390B8FEF90E002C0959587952A9525
S1131B80E2F7982EC0E4CD2E0D2E000CDD08760170
S1131B9081E0E81AF108E00EF11EE091D002F09124
S1131BA0D102B601C80109950097D9F0F7018081E7
S1131BB0892180836D2FC8010E946703811107C0AA
S1131BC04D2FB801C5010E94FC03813041F0C15082
S1131BD021F780E090E005C080E090E002C081E061
S1131BE090E0DF91CF911F910F91FF90EF90DF90E4
S1131BF0CF90BF90AF909F9008959093D10280931F
S1131C00D00208958AE091E008959F92AF92BF9226
S1131C10CF92DF92EF92FF920F931F93CF93DF93B4
S1131C20CDB7DEB7C056D1090FB6F894DEBF0FBEEC
S1131C30CDBF6C015B018A016894992496F87A01FE
S1131C4084E2E80EF11CF801828193810796AC01CD
S1131C5012F4495F5F4F55954795559547955595AE
S1131C604795B701CE01019667DF009709F440C09C
S1131C70A801BE016F5F7F4FCE018196DEDE88230F
S1131C8091F1F801828193810796BC0112F4695F96
S1131C907F4F759567957595679575956795AE01B1
S1131CA04F5F5F4FC50126DFF8016181062E000CEE
S1131CB0770BAE014F5D5F4FC6011CDFF8018181D8
S1131CC0908141E250E04C0F5D1F490F511D97FD7B
S1131CD05A95082E000C990BBC018C0D9D1D0ADF32
S1131CE081E090E005C09A949110ADCF80E090E03F
S1131CF0C05ADF4F0FB6F894DEBF0FBECDBFDF91E1
S1131D00CF911F910F91FF90EF90DF90CF90BF90F4
S1131D10AF909F900895CF93DF936623C9F0C42FAB
S1131D20D52F282F392FD901ED919D01AE2FA295E2
S1131D30AF70B0E0AA54BE4F8C918883EF70F0E08E
S1131D40EA54FE4F80818983615022966111EBCF62
S1131D50DF91CF910895FF920F931F93CF93DF9359
S1131D60F82E092F162FEA01462F469550E060E021
S1131D7070E0CE01B0D3112309F43FC0EF2DF02F52
S1131D8020E030E070E060E0422F81912F5F3F4F10
S1131D9090ED980F9A3018F490E0C09711C09FEB23
S1131DA0980F963018F490E0C7970AC09FE9980FEF
S1131DB0963020F490E08755910902C0872F962F22
S1131DC04695DE01A40FB11DA90141705078552339
S1131DD034F4415051094E6F5F6F4F5F5F4F440FB2
S1131DE0551F440F551F02C0880F991F4A95E2F7EB
S1131DF09C91890F8C93211738F2DF91CF911F9119
S1131E000F91FF900895EF92FF920F931F93CF933A
S1131E107C018B01672B61F043D3C82F41D3C80FDA
S1131E203FD38C0FF70181937F0101501109A1F772
S1131E3081E090E0CF911F910F91FF90EF90089572
S1131E401DB880EF8EB910926A008DBB0895CF93B0
S1131E50DF93CDB7DEB7C052D1400FB6F894DEBFE2
S1131E600FBECDBF67D1ECDF0E946A0027D18BEB98
S1131E7092E06CD183E09FE0C0DEC4DEAC01BE0121
S1131E806F5F7F4FCE018196C0DEAE014F595F4F29
S1131E9060E2CE0101963FDFAE014F555F4F60E433
S1131EA0CE01819638DFCE018F599F4F4FD1CE019D
S1131EB08F559F4F4BD180E090E0C05EDE4F0FB650
S1131EC0F894DEBF0FBECDBFDF91CF910895CF93BD
S1131ED0DF931F92CDB7DEB742E050E0EFD28983A3
S1131EE0898190E00F90DF91CF910895EF92FF9256
S1131EF00F931F93CF93DF938C0186E090E068D11A
S1131F007C01FC011382128215821482F801808103
S1131F109181F70191838083E091D202F091D30201
S1131F20C081D1812097D1F08C819D81892B61F072
S1131F30B801CE01CCDF892BB1F00C80DD81C02D3E
S1131F408C819D81892BA1F7B801CE01C0DF892B3B
S1131F5069F0FD82EC8280E090E00AC0F182E082C8
S1131F6080E090E005C081E090E002C081E090E074
S1131F70DF91CF911F910F91FF90EF900895CF9330
S1131F80DF9300D0CDB7DEB7AE014F5F5F4F64E0A3
S1131F90E2DECE010196AADF80E090E00F900F9080
S1131FA0DF91CF910895EF92FF920F931F93CF93F8
S1131FB0DF938C017B01E091D202F091D302C081C6
S1131FC0D181209789F0B801CE0181DF009721F4F7
S1131FD0F701D183C0830AC00C80DD81C02D209716
S1131FE091F781E090E002C081E090E0DF91CF9131
S1131FF01F910F91FF90EF900895CF92DF92EF928F
S1132000FF921F93CF93DF9300D0CDB7DEB76C015F
S1132010162F83E090E0DCD07C01FC011282118257
S11320201083BE016F5F7F4FC601BDDFAC01892BFA
S1132030E1F4A981BA811296ED91FC91139730973E
S113204049F41396FC92EE92129717C09081F9010D
S1132050191771F02181328121153105B9F7808179
S1132060181749F0F282E18208C041E050E005C04F
S113207041E050E002C041E050E0CA010F900F90EF
S1132080DF91CF911F91FF90EF90DF90CF90089553
S11320901F93CF93DF9300D0CDB7DEB7162FAE01D9
S11320A04F5F5F4F64E057DE612FCE010196A5DFDD
S11320B00F900F90DF91CF911F91089582E090E0EF
S11320C087D09093D3028093D202FC0111821082B4
S11320D080EC92E054DF60E080EC92E0D9DF61E0D4
S11320E080EC92E0D5DF62E080EC92E0D1DF63E047
S11320F080EC92E0CDDF64E080EC92E0C9DF85EC17
S113210092E03DDF60E085EC92E0C2DF61E085ECC7
S113211092E0BEDF63E085EC92E0BADF8AEC92E005
S11321202EDF60E08AEC92E0B3DF61E08AEC92E0BB
S1132130AFCF08951092C50083E38093C4008EE06E
S11321408093C20088E18093C10008950F931F9388
S1132150CF93DF931F92CDB7DEB7BC01FC01019092
S11321600020E9F73197AF01481B590B1982898187
S113217090E084179507B4F4E0ECF0E006EC10E08E
S1132180908195FFFDCF8981DB01A80FB11D9C9142
S1132190D8019C9399819F5F9983298130E024170A
S11321A0350774F3E0ECF0E0808185FFFDCF8DE02E
S11321B08093C600E0ECF0E0808185FFFDCF8AE0EB
S11321C08093C6000F90DF91CF911F910F910895D6
S11321D00F931F93CF93DF938230910510F482E025
S11321E090E0E091D602F091D70220E030E0A0E048
S11321F0B0E0309719F14081518102811381481771
S11322005907C8F08417950769F4109731F01296AE
S11322100C93129713961C9327C00093D602109325
S1132220D70222C02115310519F04217530718F4BB
S11322309A01BD01EF01DF01F801DBCF2115310562
S1132240F9F0281B390B2430310580F48A819B81F5
S11322506115710521F0FB019383828304C090937F
S1132260D7028093D602FE01329644C0FE01E20FEB
S1132270F31F8193919322503109398328833AC003
S11322802091D4023091D502232B41F420910201F4
S1132290309103013093D5022093D40220910001A0
S11322A0309101012115310541F42DB73EB740911C
S11322B0040150910501241B350BE091D402F091E7
S11322C0D502E217F307A0F42E1B3F0B281739079A
S11322D078F0AC014E5F5F4F2417350748F04E0F7E
S11322E05F1F5093D5024093D4028193919302C00F
S11322F0E0E0F0E0CF01DF91CF911F910F910895BD
S1132300CF93DF93009709F481C0FC0132971382C5
S11323101282A091D602B091D702109781F4208145
S11323203181820F931F2091D4023091D502281756
S1132330390751F5F093D502E093D40267C0ED015B
S113234020E030E0CE17DF0740F44A815B819E0134
S113235041155105F1F0EA01F5CFD383C2834081E1
S11323605181840F951FC817D90759F48881998121
S1132370840F951F0296918380838A819B81938326
S113238082832115310529F4F093D702E093D60214
S11323903DC0E901FB83EA8349915991C40FD51FDC
S11323A0EC17FD0761F480819181840F951F0296DB
S11323B0E90199838883828193819B838A83E0E006
S11323C0F0E012968D919C911397009719F0FD01FE
S11323D0DC01F7CF8D919C9111979D012E5F3F4FAA
S11323E0820F931F2091D4023091D5022817390708
S11323F069F4309729F41092D7021092D60202C0E1
S113240013821282B093D502A093D402DF91CF91AC
S113241008958F929F92AF92BF92CF92DF92EF92E4
S1132420FF92CF93DF93EC01688179818A819B814C
S1132430611571058105910521F464E279ED8BE55F
S113244097E02DE133EF41E050E04CD049015A01CF
S11324509B01AC01A7EAB1E461D06B017C01ACEE55
S1132460B4EFA501940166D0DC01CB018C0D9D1D58
S1132470AE1DBF1DB7FF03C00197A109B0488883F3
S11324809983AA83BB839F77DF91CF91FF90EF90CD
S1132490DF90CF90BF90AF909F908F900895B9CF69
S11324A086E091E0B6CFA0E0B0E08093060190937F
S11324B00701A0930801B09309010895FB01DC0111
S11324C004C08D910190801921F441505040C8F707
S11324D0881B990B0895DC0101C06D934150504055
S11324E0E0F70895052E97FB16F400940FD057FDDE
S11324F005D024D007FC02D046F408C0509540957E
S1132500309521953F4F4F4F5F4F0895909580959B
S1132510709561957F4F8F4F9F4F089531D0A59F40
S1132520900DB49F900DA49F800D911D11240895CA
S1132530B7FFF4CFF3DF821B930B0895A1E21A2EA9
S1132540AA1BBB1BFD010DC0AA1FBB1FEE1FFF1F53
S1132550A217B307E407F50720F0A21BB30BE40BA3
S1132560F50B661F771F881F991F1A9469F76095EA
S11325707095809590959B01AC01BD01CF010895A4
S1132580A29FB001B39FC001A39F700D811D1124B0
S1132590911DB29F700D811D1124911D0895F89411
S10525A0FFCF67
S11325A20000D80220000100000020200001FFFFEB
S11325B2FFFFFFFFFFFFFFFFFFFF0000000000001F
S11325C200000000000001000000FFFFFFFF512592
S11325D263FCC2CAB9F3849E17A7ADFAE6BCFFFF37
S11325E2FFFFFFFFFFFF00000000FFFFFFFF96C297
S11325F298D84539A1F4A033EB2D817D0377F240BD
S1132602A463E5E6BCF847422CE1F2D1176BF5511D
S1132612BF376840B6CBCE5E316B5733CE2B169E96
S11326220F7C4AEBE78E9B7F1AFEE242E34F4B603C
S1132632D2273E3CCE3BF6B053CCB0061D65BC86D9
S1132642987655BDEBB3E7933AAAD835C65A8605B0
S1132652A60654060C07303132333435363738394E
S11326626162636465660061757468656E7469634A
S11326726174696F6E20737461727465640070753D
S1132682626C6963206B65792073656E740073698B
S1132692676E61747572652069732076616C696412
S11326A221007369676E61747572652069732066AF
S11326B2616C736521002D2D2D4D455353414745C2
S11326C220464F52574152444544204F4E544F20C6
S11326D24E4554574F524B2D2D2D0049444C3A0030
S11326E24944483A004D4553534147453A002D2D3C
S11326F22D2D2D2D2D2D2D2D2D2D2D2D2D2D2D2D04
S11327022D2D2D2D2D2D2D2D2D2D2D2D2D2D2D2DF3
S11327122D2D005065726D697373696F6E204F6B56
S1132722005065726D697373696F6E204661696CDE
S113273265640041757468656E7469636174696F78
S11327426E204F6B0041757468656E7469636174C1
S1132752696F6E204661696C65640069646C65002A
S1132762303230310030343032003030303000001A
S9030000FC
