S00F0000476174657761792E7372656343
S113000049C0000064C0000062C0000060C000007D
S11300105EC000005CC000005AC0000058C0000070
S113002056C0000054C0000052C0000050C0000080
S11300304EC000004CC000004AC0000048C0000090
S11300407BC1000044C0000042C0000040C000006A
S11300503EC000003CC000003AC0000038C00000B0
S113006036C0000034C0000032C0000030C00000C0
S11300702EC000002CC000002AC0000028C00000D0
S113008026C0000024C0000022C0000020C00000E0
S11300901EC0000011241FBECFEFD0E1DEBFCDBFD4
S11300A012E0A0E0B1E0EAEFFEE000E00BBF02C026
S11300B007900D92AC3FB107D9F724E0ACEFB2E062
S11300C001C01D92A733B207E1F7E1D314C798CF5B
S11300D020E1829FC001112488608093ED0008957F
S11300E0CF93DF93F89481E08093D80084E38093E6
S11300F0DB001092DA0020E04DEE50E0CFEED0E0CD
S11301006EEE70E0EAEFF0E0822F8295807FDA01F4
S11301108C931882DB011C9288E090E01082019796
S1130120E9F72F5F2F3081F788E08093ED0086E0B8
S11301308093E2008CE08093E30087E38093E40003
S11301401092E50082E08093D8007894DF91CF91FB
S11301500895FF920F931F93CF93DF93F82EEB0133
S11301608A01B6DF20E1F29EC0011124886090E08C
S1130170ADEEB0E0EAEFF0E0292F282B2C9320819C
S113018029939F5F9830C1F79091EF009F70F80119
S113019090838093ED00DF91CF911F910F91FF9099
S11301A00895FC0180818295880F807E8093F200FF
S11301B02081269526952695918130E2939FC00152
S11301C01124822B8093F3001092F0000895FC0117
S11301D080818295880F807E8093F6002081269509
S11301E026952695918130E2939FC0011124822B9C
S11301F08093F7001092F40008950F931F93CF9308
S1130200DF93EC01062F142F493008F018E0802FFB
S11302105FDF112399F020E1029FC0011124282FF0
S1130220286080E0ADEEB0E0EAEFF0E0922F982B8A
S11302309C93999190838F5F8113F8CF80E1089FFD
S1130240B001112468606093ED00EFEEF0E080816E
S1130250182B1083DF91CF911F910F910895EF9286
S1130260FF920F931F93CF93DF93C82F7B018A01D3
S1130270D22F2EDFC70195DF4D2F6C2FC801BDDFB4
S1130280EFEEF0E0808180648083EEEEF0E0808128
S11302908034E9F71092EE001092EF0080E090E0D5
S11302A0DF91CF911F910F91FF90EF900895BF922E
S11302B0CF92DF92EF92FF920F931F93CF93DF932E
S11302C0B82E6B01EA01790103DF81E090E00B2C89
S11302D002C0880F991F0A94E2F78093DE00C601DA
S11302E060DFCE0174DF88E88093EF00EAEDF0E090
S11302F080818823ECF78091EE0085FF11C0A8016E
S1130300B7018B2D26DF1092EE001092EF001092B1
S1130310DE00EAEDF0E08081808380E090E002C0BE
S113032081E090E0DF91CF911F910F91FF90EF90CA
S1130330DF90CF90BF9008951F920F920FB60F9247
S113034011248F939F93AF93BF938091FC0290915C
S1130350FD02A091FE02B091FF020196A11DB11D04
S11303608093FC029093FD02A093FE02B093FF02DF
S1130370BF91AF919F918F910F900FBE0F901F90DF
S113038018956091FC027091FD028091FE0290919B
S1130390FF0208958DE387BD82E080936E008BE4B5
S11303A084BD0895FF920F931F93CF93DF93F82E8C
S11303B0092F162FEA01462F469550E060E070E0C1
S11303C0CE0192D5112309F43FC0EF2DF02F20E088
S11303D030E070E060E0422F81912F5F3F4F90ED5D
S11303E0980F9A3018F490E0C09711C09FEB980FC3
S11303F0963018F490E0C7970AC09FE9980F96309A
S113040020F490E08755910902C0872F962F4695D6
S1130410DE01A40FB11DA90141705078552334F4B5
S1130420415051094E6F5F6F4F5F5F4F440F551F2F
S1130430440F551F02C0880F991F4A95E2F79C91FB
S1130440890F8C93211738F2DF91CF911F910F916F
S1130450FF900895CF93DF93CDB7DEB728970FB6FB
S1130460F894DEBF0FBECDBF6295607F6360698381
S11304704A8322230CF42FE72B83FE01349625E0D4
S1130480DF011D922A95E9F7FC0160817181828167
S1130490938128E0AE014F5F5F4FDAD128960FB603
S11304A0F894DEBF0FBECDBFDF91CF910895CF92F8
S11304B0DF92EF92FF920F931F93CF93DF93CDB709
S11304C0DEB72A970FB6F894DEBF0FBECDBF7C010E
S11304D09EEF940F973008F062C1142FC42ED12CD4
S11304E0A601CE010196F7D448E050E04C195D090D
S11304F060E070E081E090E08C0F9D1F8C0D9D1DED
S1130500F3D489818F70813009F43FC038F0823090
S113051009F489C0833009F4CCC041C1F70180A932
S1130520813029F48AEF9FEF97A786A703C0F701CC
S113053017A616A68981807F69F04981842F829548
S11305408F70282F30E0412F50E04150510942175D
S1130550530744F485E891E09F938F9377D10F90EC
S11305600F901DC1482F50E0BE016E5F7F4FF70111
S113057080A191A1B0D4898182958F7090E0F70118
S113058095A384A382E080AB0AC1F70180A98130DE
S113059029F48AEF9FEF97A786A703C0F70117A650
S11305A016A6183041F084EA91E09F938F934ED1C0
S11305B00F900F90F4C0898182958F7090E09A8794
S11305C0898789859A85982F88272A81820F911D8A
S11305D09A878987F701A0A1B1A186E0FE0133962D
S11305E001900D928A95E1F789859A85F70195A383
S11305F084A386E090E097A386A381E080A780ABE4
S113060081A720E041E060E0C70124DF37D1DC01AD
S1130610CB018C599F4FAF4FBF4FF70182A793A7D0
S1130620A4A7B5A7BCC0F70180A9813029F08AEF3F
S11306309FEF97A786A7B3C0898182958F70F70132
S113064090A5981393C086A197A104A115A1081B96
S1130650190B0830110510F007E010E0F70120A194
S113066031A1A801BE016E5F7F4F820F931F33D467
S1130670F70186A197A1080F191F17A306A380A548
S11306808F5F803108F45BC010A65BC082E0F70185
S113069080AB85C0F70181A5815011F081A77FC08F
S11306A081E0F70181A720E041E060E0C701D2DEEC
S11306B076C0F701838D813009F071C0133008F0E2
S11306C05CC089EC91E09F938F93C0D00F900F9002
S11306D066C088EF9FEFF701928F818F82E0838F4E
S11306E05EC0803171F4F70180898F5F808B823026
S11306F008F455C089EF9FEF928F818F82E0838F3A
S11307004EC081114CC08A81811106C08FEF9FEFCA
S1130710F7019687858704C090E0F701968785875F
S11307208B819FE0980F993018F0882324F402C03D
S113073081E001C080E0F7018787108A30C0F701AB
S113074080A79CD0DC01CB018C599F4FAF4FBF4F8A
S1130750F70182A793A7A4A7B5A726A137A184A1CF
S113076095A12817390708F495CF90CF8CEF9FEF08
S1130770F70197A786A710AA12C080D0DC01CB018D
S11307808C599F4FAF4FBF4FF701858B968BA78B2B
S1130790B08F8981807F803209F0A3CF9ACF2A96C7
S11307A00FB6F894DEBF0FBECDBFDF91CF911F917E
S11307B00F91FF90EF90DF90CF900895EF92FF920A
S11307C00F931F93CF93DF93FC0180A98230A1F490
S11307D004A115A14017510708F48A017901CB013E
S11307E0EF0160A171A1A80176D3F7011183008301
S11307F018AA80E090E002C08BEF9FEFDF91CF91C9
S11308001F910F91FF90EF900895CF92DF92EF9296
S1130810FF920F931F93FC0181E3DF011D928A95E0
S1130820E9F710AA138E408351836283738335835F
S1130830248317830683F1A2E0A2D3A2C2A21F914C
S11308400F91FF90EF90DF90CF900895D4C1089559
S1130850CF93DF9300D0CDB7DEB7FB0180819181C8
S11308609A838983BE016F5F7F4F80E0F8DC80E06C
S113087090E00F900F90DF91CF91089582CD08956D
S11308801DB880EF8EB910926A008DBB0895CF9386
S1130890DF93CDB7DEB7A6970FB6F894DEBF0FBED1
S11308A0CDBF9DD1EDDF1CDC5ED18BED92E0A3D1F9
S11308B071DD6894CC24C7F8D12C0F2EF0E8EF2E0C
S11308C0F3E0FF2EF02D00E810E020E033E040E0FC
S11308D050E0BA0180E094E098DF8E010A5D1F4F7A
S11308E09E01235E3F4F49EE52E06BEE72E080E0E2
S11308F0DEDC2FE788E391E0215080409040E1F76F
S113090000C000004EA1BE01635E7F4F80E094E012
S1130910CEDD80913004813001F58E010A5D1F4FD8
S11309209E01235E3F4F49EE52E06BEE72E080E0A1
S1130930BEDC2FE788E391E0215080409040E1F74E
S113094000C000004EA1BE01635E7F4F80E094E0D2
S1130950AEDD80913004813001F39E012B5D3F4F69
S11309604CE150E0BE016F5F7F4F80E094E026DFF2
S113097080EE92E040D1FFCFCF93DF931F92CDB7AB
S1130980DEB742E050E09AD28983898190E00F90EB
S1130990DF91CF910895EF92FF920F931F93CF931E
S11309A0DF938C0186E090E068D17C01FC01138226
S11309B0128215821482F80180819181F70191835A
S11309C08083E0913104F0913204C081D181209779
S11309D0D1F08C819D81892B61F0B801CE01CCDFEF
S11309E0892BB1F00C80DD81C02D8C819D81892BF8
S11309F0A1F7B801CE01C0DF892B69F0FD82EC823A
S1130A0080E090E00AC0F182E08280E090E005C0DE
S1130A1081E090E002C081E090E0DF91CF911F91EE
S1130A200F91FF90EF900895CF93DF9300D0CDB74F
S1130A30DEB7AE014F5F5F4F64E0B4DCCE010196D8
S1130A40AADF80E090E00F900F90DF91CF9108959E
S1130A50EF92FF920F931F93CF93DF938C017B014F
S1130A60E0913104F0913204C081D181209789F062
S1130A70B801CE0181DF009721F4F701D183C0834F
S1130A800AC00C80DD81C02D209791F781E090E0B1
S1130A9002C081E090E0DF91CF911F910F91FF9010
S1130AA0EF900895CF92DF92EF92FF921F93CF932E
S1130AB0DF9300D0CDB7DEB76C01162F83E090E052
S1130AC0DCD07C01FC01128211821083BE016F5FB5
S1130AD07F4FC601BDDFAC01892BE1F4A981BA8146
S1130AE01296ED91FC911397309749F41396FC926A
S1130AF0EE92129717C09081F901191771F02181B4
S1130B00328121153105B9F78081181749F0F28235
S1130B10E18208C041E050E005C042E050E002C07C
S1130B2042E050E0CA010F900F90DF91CF911F91E6
S1130B30FF90EF90DF90CF9008951F93CF93DF93B2
S1130B4000D0CDB7DEB7162FAE014F5F5F4F64E024
S1130B5029DC612FCE010196A5DF0F900F90DF9164
S1130B60CF911F91089582E090E087D09093320452
S1130B7080933104FC01118210828DEE92E054DFE7
S1130B8060E08DEE92E0D9DF61E08DEE92E0D5DF9A
S1130B9062E08DEE92E0D1DF63E08DEE92E0CDDF96
S1130BA064E08DEE92E0C9DF82EF92E03DDF60E029
S1130BB082EF92E0C2DF61E082EF92E0BEDF63E0A9
S1130BC082EF92E0BADF87EF92E02EDF60E087EFFA
S1130BD092E0B3DF61E087EF92E0AFCF0895109227
S1130BE0C50083E38093C4008EE08093C20088E153
S1130BF08093C10008950F931F93CF93DF931F92A7
S1130C00CDB7DEB7BC01FC0101900020E9F73197B4
S1130C10AF01481B590B1982898190E0841795070D
S1130C20B4F4E0ECF0E006EC10E0908195FFFDCF29
S1130C308981DB01A80FB11D9C91D8019C939981F6
S1130C409F5F9983298130E02417350774F3E0EC22
S1130C50F0E0808185FFFDCF8DE08093C600E0EC5D
S1130C60F0E0808185FFFDCF8AE08093C6000F907D
S1130C70DF91CF911F910F9108950F931F93CF93FD
S1130C80DF938230910510F482E090E0E091350426
S1130C90F091360420E030E0A0E0B0E0309719F1A4
S1130CA0408151810281138148175907C8F0841784
S1130CB0950769F4109731F012960C9312971396D6
S1130CC01C9327C0009335041093360422C02115C9
S1130CD0310519F04217530718F49A01BD01EF01C9
S1130CE0DF01F801DBCF21153105F9F0281B390BA1
S1130CF02430310580F48A819B816115710521F0CE
S1130D00FB019383828304C090933604809335045B
S1130D10FE01329644C0FE01E20FF31F81939193CA
S1130D2022503109398328833AC020913304309109
S1130D303404232B41F420910201309103013093B8
S1130D4034042093330420910001309101012115D2
S1130D50310541F42DB73EB740910401509105018E
S1130D60241B350BE0913304F0913404E217F307AC
S1130D70A0F42E1B3F0B2817390778F0AC014E5F07
S1130D805F4F2417350748F04E0F5F1F509334040C
S1130D90409333048193919302C0E0E0F0E0CF01EB
S1130DA0DF91CF911F910F910895CF93DF93009717
S1130DB009F481C0FC01329713821282A091350498
S1130DC0B0913604109781F420813181820F931FF2
S1130DD020913304309134042817390751F5F093E6
S1130DE03404E093330467C0ED0120E030E0CE1713
S1130DF0DF0740F44A815B819E0141155105F1F002
S1130E00EA01F5CFD383C28340815181840F951FBA
S1130E10C817D90759F488819981840F951F0296C0
S1130E20918380838A819B819383828321153105F9
S1130E3029F4F0933604E09335043DC0E901FB83C3
S1130E40EA8349915991C40FD51FEC17FD0761F44A
S1130E5080819181840F951F0296E901998388838B
S1130E60828193819B838A83E0E0F0E012968D91E6
S1130E709C911397009719F0FD01DC01F7CF8D9138
S1130E809C9111979D012E5F3F4F820F931F2091DC
S1130E903304309134042817390769F4309729F45E
S1130EA0109236041092350402C013821282B09359
S1130EB03404A0933304DF91CF910895FB01DC0146
S1130EC004C08D910190801921F441505040C8F71D
S1130ED0881B990B0895FB01DC0102C001900D925F
S1130EE041505040D8F70895DC0101C06D93415042
S10D0EF05040E0F70895F894FFCF96
S1130EFA0000370420004D65737361676520746FC1
S1130F0A206269672C20696E637265617365204982
S1130F1A534F5F54505F4D41585F4D4553534147BA
S1130F2A455F53495A4520746F20736574206120C4
S1130F3A626967676572206275666665720A00414E
S1130F4A626F72642070726576696F7573206D655D
S1130F5A73736167652C20776869636820697320F5
S1130F6A73656E64696E6720696E20707265677254
S1130F7A6573730A0053696E676C652D6672616DD9
S1130F8A65206C656E67746820746F6F20736D6179
S1130F9A6C6C2E004669727374206672616D6520EA
S1130FAA73686F756C642062652038206279746591
S1130FBA206C656E6768742E00466C6F7720636FC9
S1130FCA6E74726F6C206672616D6520746F6F2027
S1130FDA73686F72742E0061757468656E746963E0
S1130FEA6174696F6E2073746172746564007075DC
S1130FFA626C6963206B65792073656E740073692A
S113100A676E61747572652069732076616C6964B0
S113101A21007369676E617475726520697320664D
S113102A616C736521002D2D2D4D45535341474560
S113103A20464F52574152444544204F4E544F2064
S113104A4E4554574F524B2D2D2D0049444C3A00CE
S113105A4944483A004D4553534147453A002D2DDA
S113106A2D2D2D2D2D2D2D2D2D2D2D2D2D2D2D2DA2
S113107A2D2D2D2D2D2D2D2D2D2D2D2D2D2D2D2D92
S113108A2D2D005065726D697373696F6E204F6BF5
S113109A005065726D697373696F6E204661696C7D
S11310AA65640041757468656E7469636174696F17
S11310BA6E204F6B0041757468656E746963617460
S11310CA696F6E204661696C65640069646C6500C9
S11310DA636F6D706C657465000000000030323017
S10F10EA3100303430320030303030003F
S9030000FC
