S00F0000476174657761792E7372656343
S113000039C2000056C2000054C2000052C20000AF
S113001050C200004EC200004CC200004AC20000A0
S113002048C2000046C2000044C2000042C20000B0
S113003040C200003EC200003CC200003AC20000C0
S113004025C4000036C2000034C2000032C20000E1
S113005030C200002EC200002CC200002AC20000E0
S113006028C2000026C2000024C2000022C20000F0
S113007020C200001EC200001CC200001AC2000000
S113008018C2000016C2000014C2000012C2000010
S113009010C2000067E6096A85AE67BB72F36E3C66
S11300A03AF54FA57F520E518C68059BABD9831F3F
S11300B019CDE05B22AE28D7982F8A42CD65EF2375
S11300C0914437712F3B4DECCFFBC0B5BCDB89812C
S11300D0A5DBB5E938B548F35BC2563919D005B686
S11300E0F111F1599B4F19AFA4823F9218816DDA37
S11300F0D55E1CAB420203A398AA07D8BE6F704515
S1130100015B83128CB2E44EBE853124E2B4FFD588
S1130110C37D0C556F897BF2745DBE72B196163B3C
S1130120FEB1DE803512C725A706DC9B942669CF75
S113013074F19BC1D24AF19EC1699BE4E3254F3817
S11301408647BEEFB5D58C8BC69DC10F659CAC7739
S1130150CCA10C2475022B596F2CE92D83E4A66ED7
S1130160AA84744AD4FB41BDDCA9B05CB5531183A5
S1130170DA88F976ABDF66EE52513E981032B42D30
S11301806DC631A83F21FB98C82703B0E40EEFBE2B
S1130190C77F59BFC28FA83DF30BE0C625A70A93BA
S11301A04791A7D56F8203E05163CA06706E0E0AA9
S11301B067292914FC2FD246850AB72726C9265C4D
S11301C038211B2EED2AC45AFC6D2C4DDFB3959DAE
S11301D0130D3853DE63AF8B54730A65A8B2773CB2
S11301E0BB0A6A76E6AEED472EC9C2813B3582145E
S11301F0852C72926403F14CA1E8BFA2013042BC89
S11302004B661AA89197F8D0708B4BC230BE540637
S1130210A3516CC71852EFD619E892D110A96555AD
S1130220240699D62A20715785350EF4B8D1BB32ED
S113023070A06A10C8D0D2B816C1A41953AB4151EA
S1130240086C371E99EB8EDF4C774827A8489BE152
S1130250B5BCB034635AC9C5B30C1C39CB8A41E36D
S11302604AAAD84E73E363774FCA9C5BA3B8B2D64D
S1130270F36F2E68FCB2EF5DEE828F74602F17432C
S11302806F63A57872ABF0A11478C884EC39641A52
S11302900802C78C281E6323FAFFBE90E9BD82DEE4
S11302A0EB6C50A41579C6B2F7A3F9BE2B5372E3D5
S11302B0F27871C69C6126EACE3E27CA07C2C021E5
S11302C0C7B886D11EEBE0CDD67DDAEA78D16EEEE2
S11302D07F4F7DF5BA6F1772AA67F006A698C8A279
S11302E0C57D630AAE0DF9BE04983F111B471C136C
S11302F0350B711B847D0423F577DB289324C740D9
S11303007BABCA32BCBEC9150ABE9E3C4C0D109CC8
S1130310C4671D43B6423ECBBED4C54C2A7E65FCA1
S11303209C297F59ECFAD63AAB6FCB5F1758474AF2
S11303308C19446C982F8A4291443771CFFBC0B515
S1130340A5DBB5E95BC25639F111F159A4823F929C
S1130350D55E1CAB98AA07D8015B8312BE853124F5
S1130360C37D0C55745DBE72FEB1DE80A706DC9BB6
S113037074F19BC1C1699BE48647BEEFC69DC10F62
S1130380CCA10C246F2CE92DAA84744ADCA9B05C9E
S1130390DA88F97652513E986DC631A8C82703B061
S11303A0C77F59BFF30BE0C64791A7D55163CA066F
S11303B067292914850AB72738211B2EFC6D2C4D7B
S11303C0130D385354730A65BB0A6A762EC9C28169
S11303D0852C7292A1E8BFA24B661AA8708B4BC2FF
S11303E0A3516CC719E892D1240699D685350EF429
S11303F070A06A1016C1A419086C371E4C774827E0
S1130400B5BCB034B30C1C394AAAD84E4FCA9C5B55
S1130410F36F2E68EE828F746F63A5781478C884A6
S11304200802C78CFAFFBE90EB6C50A4F7A3F9BE88
S1130430F27871C608C9BCF367E6096A3BA7CA84A7
S113044085AE67BB2BF894FE72F36E3CF1361D5FEC
S11304503AF54FA5D182E6AD7F520E511F6C3E2B6B
S11304608C68059B6BBD41FBABD9831F79217E133F
S113047019CDE05B11241FBECFEFD0E1DEBFCDBFAD
S113048016E0A0E0B1E0E8E1F8E600E00BBF02C04E
S113049007900D92AC35B107D9F727E0ACE5B6E08B
S11304A001C01D92A939B207E1F70E94A51F0C945F
S11304B00A34A6CD20E1829FC00111248860809374
S11304C0ED0008951F93CF93DF93182FEB01F2DF14
S11304D020E1129FC0011124886090E0ADEEB0E0ED
S11304E0EAEFF0E0292F282B2C93208129939F5F9A
S11304F09830C1F78093ED00DF91CF911F9108955B
S1130500CF93DF93EB01D6DF9091F200E3EFF0E0BD
S11305108081929596959770880F880F880F892B04
S1130520888380818295869587708983DF91CF91B6
S11305300895FC0180818295880F807E8093F2006B
S11305402081269526952695918130E2939FC001BE
S11305501124822B8093F3001092F00008958830C8
S113056080F0EFEDF0E04081885021E030E0B90107
S113057002C0660F771F8A95E2F7CB01842B808334
S11305800895EEEDF0E0408121E030E0B90102C0D1
S1130590660F771F8A95E2F7CB01842B8083089539
S11305A0883088F0EFEDF0E04081885021E030E0C1
S11305B0B90102C0660F771F8A95E2F7CB018095D7
S11305C0842380830895EEEDF0E0408121E030E063
S11305D0B90102C0660F771F8A95E2F7CB018095B7
S11305E0842380830895FC0180818295880F807E16
S11305F08093F6002081269526952695918130E2F8
S1130600939FC0011124822B8093F7001092F40071
S11306100895CF93DF93EB014DDF8091EF008F704E
S11306208883DF91CF9108950F931F93CF93DF9326
S1130630EC01062F142F493008F018E0802F3ADF20
S1130640112399F020E1029FC0011124282F286072
S113065080E0ADEEB0E0EAEFF0E0922F982B9C93AF
S1130660999190838F5F8113F8CF80E1089FB00147
S1130670112468606093ED00EFEEF0E08081182BA8
S11306801083DF91CF911F910F910895CF93DF9342
S1130690F89481E08093D80084E38093DB00109287
S11306A0DA0020E04DEE50E0CFEED0E06EEE70E0E8
S11306B0EAEFF0E0822F8295807FDA018C93188232
S11306C0DB011C9288E090E010820197E9F72F5F2C
S11306D02F3081F788E08093ED0086E08093E2007C
S11306E08CE08093E30087E38093E4001092E500BC
S11306F082E08093D8007894DF91CF910895EF92AF
S1130700FF920F931F93CF93DF93C82F7B018A012E
S1130710D22FD0DEC7010DDF4D2F6C2FC80184DF2F
S1130720EFEEF0E0808180648083EEEEF0E0808183
S11307308034E9F71092EE001092EF0080E090E030
S1130740DF91CF911F910F91FF90EF9008950F9338
S11307501F93CF93C82F8B0102DF8C2FABDEC80110
S113076042DFEFEEF0E0808188688083CF911F91B3
S11307700F910895EAEDF0E080818823ECF78091F1
S1130780EC0082958F7090E00895BF92CF92DF9233
S1130790EF92FF920F931F93CF93DF93B82E6B01C9
S11307A0EA01790187DE81E090E00B2C02C0880F1A
S11307B0991F0A94E2F78093DE00C601BADECE01E7
S11307C012DF88E88093EF00EAEDF0E0808188236F
S11307D0ECF78091EE0085FF13C0B7018B2D72DE1C
S11307E0B8018B2D16DF1092EE001092EF001092DC
S11307F0DE00EAEDF0E08081808380E090E002C0DA
S113080081E090E0DF91CF911F910F91FF90EF90E5
S1130810DF90CF90BF900895CF93C82F4BDE8C2FDD
S1130820BFDE1092EE001092EF00CF910895CF92A8
S1130830DF92EF92FF920F931F93CF93C82F8B01F8
S11308406A01790137DE8091DA00882394F480917B
S1130850EE0085FF11C0B6018C2F34DEB7018C2F5A
S1130860D8DEB8018C2F4CDE8C2FD6DF80E090E0F0
S113087005C081E090E002C082E090E0CF911F913A
S11308800F91FF90EF90DF90CF9008951F920F92F9
S11308900FB60F9211248F939F93AF93BF938091C0
S11308A05C0690915D06A0915E06B0915F0601968C
S11308B0A11DB11D80935C0690935D06A0935E0616
S11308C0B0935F06BF91AF919F918F910F900FBE30
S11308D00F901F90189560915C0670915D06809151
S11308E05E0690915F0608958DE387BD82E0809354
S11308F06E008BE484BD0895DC01E2EAF4E0E61BBB
S1130900F10909941D921D921D921D921D921D9232
S11309101D921D921D921D921D921D921D921D925B
S11309201D921D921D921D921D921D921D921D924B
S11309301D921D921D921D921D921D921D921D923B
S11309401D921D920895CF93DF93440FEB01DC01B8
S1130950EDEEF4E0E41BF109099409900D9209907D
S11309600D9209900D9209900D9209900D920990A3
S11309700D9209900D9209900D9209900D92099093
S11309800D9209900D9209900D9209900D92099083
S11309900D9209900D9209900D9209900D92099073
S11309A00D9209900D9209900D9209900D92099063
S11309B00D9209900D9209900D9209900D92099053
S11309C00D9209900D9209900D9209900D92099043
S11309D00D9209900D9209900D92DF91CF91089597
S11309E0262F062E000C330B21503109322F330FE2
S11309F0230FDC01E1E6F5E0E21BF109A60FB11DCE
S1130A000E9006940C9209940E9007940C920E90FA
S1130A1007940C920E9007940C920E9007940C92EB
S1130A200E9007940C920E9007940C920E900794DB
S1130A300C920E9007940C920E9007940C920E90C8
S1130A4007940C920E9007940C920E9007940C92BB
S1130A500E9007940C920E9007940C920E900794AB
S1130A600C920E9007940C920E9007940C920E9098
S1130A7007940C920E9007940C920E9007940C928B
S1130A800E9007940C920E9007940C920E9007947B
S1130A900C920E9007940C920E9007940C920E9068
S1130AA007940C920E9007940C920E9007940C925B
S1130AB00E9007940C920E9007940C920E9007944B
S1130AC00C920895CF93DF93220FDB01EA01AC016E
S1130AD0EEEAF5E0E21BF10988940994FA013EC0BC
S1130AE0FA0140C0FA0142C0FA0144C0FA0146C00A
S1130AF0FA0148C0FA014AC0FA014CC0FA014EC0DA
S1130B00FA0150C0FA0152C0FA0154C0FA0156C0A9
S1130B10FA0158C0FA015AC0FA015CC0FA015EC079
S1130B20FA0160C0FA0162C0FA0164C0FA0166C049
S1130B30FA0168C0FA016AC0FA016CC0FA016EC019
S1130B40FA0170C0FA0172C0FA0174C0FA0176C0E9
S1130B50FA0178C0FA017AC0FA017CC08D919991AA
S1130B60891F81938D919991891F81938D91999179
S1130B70891F81938D919991891F81938D91999169
S1130B80891F81938D919991891F81938D91999159
S1130B90891F81938D919991891F81938D91999149
S1130BA0891F81938D919991891F81938D91999139
S1130BB0891F81938D919991891F81938D91999129
S1130BC0891F81938D919991891F81938D91999119
S1130BD0891F81938D919991891F81938D91999109
S1130BE0891F81938D919991891F81938D919991F9
S1130BF0891F81938D919991891F81938D919991E9
S1130C00891F81938D919991891F81938D919991D8
S1130C10891F81938D919991891F81938D919991C8
S1130C20891F81938D919991891F81938D919991B8
S1130C30891F81938D919991891F81938D919991A8
S1130C40891F81938D919991891F81938D91999198
S1130C50891F81938D919991891F8193812D881F7B
S1130C60DF91CF910895CF93DF93220FDB01EA0147
S1130C70AC01EFE7F6E0E21BF10988940994FA016C
S1130C803EC0FA0140C0FA0142C0FA0144C0FA0170
S1130C9046C0FA0148C0FA014AC0FA014CC0FA0140
S1130CA04EC0FA0150C0FA0152C0FA0154C0FA0110
S1130CB056C0FA0158C0FA015AC0FA015CC0FA01E0
S1130CC05EC0FA0160C0FA0162C0FA0164C0FA01B0
S1130CD066C0FA0168C0FA016AC0FA016CC0FA0180
S1130CE06EC0FA0170C0FA0172C0FA0174C0FA0150
S1130CF076C0FA0178C0FA017AC0FA017CC08D91FD
S1130D009991890B81938D919991890B81938D91FF
S1130D109991890B81938D919991890B81938D91EF
S1130D209991890B81938D919991890B81938D91DF
S1130D309991890B81938D919991890B81938D91CF
S1130D409991890B81938D919991890B81938D91BF
S1130D509991890B81938D919991890B81938D91AF
S1130D609991890B81938D919991890B81938D919F
S1130D709991890B81938D919991890B81938D918F
S1130D809991890B81938D919991890B81938D917F
S1130D909991890B81938D919991890B81938D916F
S1130DA09991890B81938D919991890B81938D915F
S1130DB09991890B81938D919991890B81938D914F
S1130DC09991890B81938D919991890B81938D913F
S1130DD09991890B81938D919991890B81938D912F
S1130DE09991890B81938D919991890B81938D911F
S1130DF09991890B81938D919991890B8193812D7F
S1130E00881FDF91CF910895CF93DF93FC01DB011D
S1130E10EA0190E0892F392F492F51E060E0C50F96
S1130E20D41F0D901A90019C900D811D341F639561
S1130E306517B8F3A51BB40B9193982F832F342F08
S1130E405395521758F3522FC20FD41F60E00D90E0
S1130E501A90019C900D811D341F63956517B8F39A
S1130E60C50FD41F9193982F832F342F5A95A51B08
S1130E70B40B541759F791931124DF91CF9108952E
S1130E8016167CF4FC016150462F50E04F5F5F4F13
S1130E90480F591F90E02191922BE417F507D9F7D9
S1130EA001C090E081E0911180E008959B013595A7
S1130EB027953595279535952795820F931F67704C
S1130EC0772721E030E002C0220F331F6A95E2F752
S1130ED0FC018081822308959C01615092F0FC0101
S1130EE0E60FF11D67FDFA95808181110AC06150FA
S1130EF042F0F901E60FF11D67FDFA9590819923FF
S1130F00B1F36F5FE9F0260F311D67FD3A95F901E2
S1130F1031978081882331F020E086952F5F8111FD
S1130F20FCCF01C020E0862F660F990B0197880F34
S1130F30991F880F991F880F991F820F911D08957B
S1130F4080E090E00895DC0141502AF1842F042EC2
S1130F50000C990BFD01E80FF91F2081FB01E80F3C
S1130F60F91F80818217C8F0281788F418C0242F2D
S1130F70042E000C330BFD01E20FF31F5081FB0123
S1130F80E20FF31F9081951760F0591760F04150FC
S1130F9072F780E0089580E0089581E008958FEF6E
S1130FA0089581E008958FEF08950F931F93CF93D1
S1130FB0DF93CDB7DEB7A0970FB6F894DEBF0FBEB0
S1130FC0CDBF142F242FAB01BC01CE0101964BDE03
S1130FD0082F612FCE01019653DF91E0811190E03B
S1130FE081E0011101C080E0880F981B892FA09631
S1130FF00FB6F894DEBF0FBECDBFDF91CF911F9126
S11310000F910895EF92FF920F93CF93DF93EC012A
S11310107901202F57DD811106C0402FBE01C70181
S113102092DF813029F0202FA701BE01CE011BDE03
S1131030DF91CF910F91FF90EF900895EF92FF927F
S11310400F93CF93DF93EC017901202F0CDE8823DB
S113105029F0202FA701BE01CE0134DDDF91CF910D
S11310600F91FF90EF9008952F923F924F925F92CD
S11310706F927F928F929F92AF92BF92CF92DF92A4
S1131080EF92FF920F931F93CF93DF93CDB7DEB709
S1131090CC5CD1090FB6F894DEBF0FBECDBFC753E9
S11310A0DF4F99838883C95CD040C22ED32EA02EF3
S11310B0202F8E010F5F1F4FC801A6DECE018F5B6C
S11310C09F4FCF53DF4F99838883C15CD040CD536A
S11310D0DF4F19830883C35CD0408A2C0A2C000C90
S11310E099086A2D8C2D9D2DF7DE3401660C771C32
S11310F0660C771C660C771C660C771C681A790AD8
S113110073011AF427E0E20EF11CF594E794F594C8
S1131110E794F594E794C30187709078992324F4B5
S11311200197886F9F6F0196182F6E2DCE018F57F0
S11311309F4FE2DB1116C4F5AA2009F441C0AC2D7F
S1131140BD2D0E2C000CFF08E1E8F0E0EC0FFD1FB4
S1131150EE0DFF1D8FEF8A0D90E00196E80EF91E4B
S113116041E850E04C0F5D1F4E0D5F1D00E068E04C
S113117070E0611B710917FD73959D91892F90E0B3
S11311809C01012E02C0220F331F0A94E2F7202B88
S11311902193062E02C0959587950A94E2F7082FAD
S11311A0E417F50751F70CC04A2D6C2D7D2D81E80D
S11311B090E08C0F9D1F8E0D911DE7FC9A95C3DB6B
S11311C077200CF4A6C08401000F111FBB24B39434
S11311D044244394512C7E0131E8E30EF11CC9539D
S11311E0DF4FE882C75CD040C853DF4FF882C85C49
S11311F0D040DD24D394C12CC40101971701280EDB
S1131200391E8E0C9F1CC7018A0D911DA7FC9A954F
S1131210CB53DF4F99838883C55CD04057C0E62FFA
S1131220062E000CFF0BDA01AE0FBF1FBC90C55396
S1131230DF4FB882CB5CD0408E0D9F1DDC018C91BA
S1131240B81A8B2D871BC553DF4FB881CB5CD040B8
S1131250B81721F07D2DB81708F07C2DE20FF31F8D
S113126080836F5F862F062E000C990B80179107E1
S1131270B4F2C453DF4FB880CC5CD04001C070E0FE
S113128081E0B71280E0B82E6A2DC953DF4F888100
S1131290C75CD040C853DF4F9881C85CD040A0DB06
S11312A0F4018081F0E88F9FC0011124D1019C9149
S11312B0892B8C936A2DCB53DF4F88819981C55C30
S11312C0D0408EDBB1E06B1A710828F110161106BC
S11312D0B4F68B2D90E0FC01EE0FFF1F21EC30E003
S11312E02C0F3D1FE20FF31F40815181F201E81BD7
S11312F0F90BEE0FFF1FE20FF31F2081318170E025
S113130080E090E060E0C453DF4FB882CC5CD04012
S113131086CFBB24B394EB2DF0E0EE0FFF1F81ECDE
S113132090E08C0F9D1FE80FF91F608171814A2D99
S1131330C753DF4F88819981C95CD04004DBC45313
S1131340DF4F0FB6F894DEBF0FBECDBFDF91CF9154
S11313501F910F91FF90EF90DF90CF90BF90AF90CF
S11313609F908F907F906F905F904F903F902F90C1
S11313700895EF92FF920F931F93CF93DF93CDB70E
S1131380DEB7C054D1090FB6F894DEBF0FBECDBF8F
S11313907C018901F9012081CE01019635DDF80136
S11313A0E655FF4F0190F081E02DBE016F5F7F4F46
S11313B0C7010995C05CDF4F0FB6F894DEBF0FBEBE
S11313C0CDBFDF91CF911F910F91FF90EF900895C2
S11313D09A01AB01CECF08950F931F93CF93DF9360
S11313E08C01C42FFC01808180FF15C0242FAB0128
S11313F0B801C80167DBD82F6C2FC801F1DADD23EF
S113140069F0EC2FCC0FFF0B3197E00FF11F8081B7
S11314108068808303C0642FC801E2DADF91CF9132
S11314201F910F910895AF92BF92CF92DF92EF92E6
S1131430FF921F93CF93DF93CDB7DEB7C058D10986
S11314400FB6F894DEBF0FBECDBF5C016B017A010D
S1131450122F622FC60114DD882321F0612FC501EC
S11314604BDAA1C0412FB601CE0101966CDA412FAF
S1131470B701CE01819667DA612FCE018F5B9F4F52
S11314803BDA81E022968FAF2297612FCE018F59EC
S11314909F4F32DA79C0998190FD0BC0612FCE0144
S11314A001969EDA412FB701CE018F5B9F4F94DFE7
S11314B06BC099A190FD0BC0612FCE01819690DA8B
S11314C0412FB701CE018F599F4F86DF5DC018169B
S11314D074F5212FAE014F5D5F4FBE016F5F7F4FEB
S11314E0CB01C1DB612FCE0101967ADA412FBE0117
S11314F06F597F4FCE018F5B9F4F25DD88233CF4CE
S1131500212FA701BE016F5B7F4FCB01DBDA212FB7
S1131510AE014F595F4FBE016F5B7F4FCB01A3DB21
S1131520412FB701CE018F5B9F4F56DF2DC0212F76
S1131530AE014F5F5F4FBE016F5D7F4FCB0193DB09
S1131540612FCE0181964CDA412FBE016F5B7F4F34
S1131550CE018F599F4FF7DC88233CF4212FA7013C
S1131560BE016F597F4FCB01ADDA212FAE014F5B26
S11315705F4FBE016F597F4FCB0175DB412FB70120
S1131580CE018F599F4F28DF412FBE016F5D7F4FE2
S1131590CE010196D8DC81117ECF412FBE016F5B55
S11315A07F4FC501D0D9C058DF4F0FB6F894DEBFC6
S11315B00FBECDBFDF91CF911F91FF90EF90DF90D1
S11315C0CF90BF90AF9008956F927F928F929F9229
S11315D0AF92BF92CF92DF92EF92FF920F931F933D
S11315E0CF93DF93CDB7DEB7C054D1090FB6F894CB
S11315F0DEBF0FBECDBF6C013B017A015901F90179
S11316001081612FCA013CDC811196C0A501B30190
S1131610CE010196DDDE9501AE014F5F5F4FB6014D
S1131620CE018196A6DEA501BE016F5F7F4FCB017F
S1131630CFDE9501A701B301C3019BDEA501B7016C
S1131640C701C6DE4501F4E08F0E911C012F940101
S1131650A701B601C601D6DC9401A701B701C701F1
S1131660D1DC9401A701B601C701E8DC9501A7010B
S1131670B601C6017EDE9401A601B601C701C2DC33
S11316809401A701B601C601BDDC60E070E0C601AB
S11316900DDC8823C1F0212FA401B601C60112DAA2
S11316A0082F612FC6019CD9E12F012E000CFF0BDE
S11316B03197EC0DFD1D20E8029FC001112400812B
S11316C0082B008303C0612FC6018AD9A501B60186
S11316D0C7017EDE012F9401AE014F5D5F4FB7015C
S11316E0C701ACDC9401AE014F5D5F4FB701C70188
S11316F0A5DC9401A701BE016F5D7F4FCB019EDC89
S11317009501AE014F5D5F4FB601C60132DE940113
S1131710AE014F5F5F4FB601CA0190DC412FB701A4
S1131720C60111D9412FB301C7010DD9412FBE0103
S11317306F5F7F4FC30107D9C05CDF4F0FB6F894CA
S1131740DEBF0FBECDBFDF91CF911F910F91FF90F0
S1131750EF90DF90CF90BF90AF909F908F907F904D
S11317606F9008956F927F928F929F92AF92BF92E3
S1131770CF92DF92EF92FF920F931F93CF93DF9359
S1131780CDB7DEB7A0970FB6F894DEBF0FBECDBFBE
S11317907C014B016A01CE0101963C0180E2F30118
S11317A011928A95E9F783E08983FA011081C701D0
S11317B00FDE5601F4E0AF0EB11C012F9501A30119
S11317C0B701C7013BDC9601A401B701C701D1DD14
S11317D0A6014C575F4F9501B701C70113DCA096D2
S11317E00FB6F894DEBF0FBECDBFDF91CF911F912E
S11317F00F91FF90EF90DF90CF90BF90AF909F90AC
S11318008F907F906F900895BF92CF92DF92EF9266
S1131810FF920F931F93CF93DF93CDB7DEB7C054DE
S1131820D1090FB6F894DEBF0FBECDBF6C017B01AA
S113183090E28E010F5F1F4FD801E92F1D92EA95A8
S1131840E9F781E08983FE01B196DF011D929A9543
S1131850E9F789A3FB01B0806C5F7F4F2B2DA801B2
S1131860C80130D96B2DC80137DB8C010150110937
S113187002301105C4F0A701BE016F5D7F4FCB019B
S1131880A7DDB801CE01019611DB882339F0970159
S1131890A601BE016F5D7F4FCB016BDD01501109C5
S11318A00130110541F74B2DBE016F5D7F4FC6011D
S11318B04AD8C05CDF4F0FB6F894DEBF0FBECDBF71
S11318C0DF91CF911F910F91FF90EF90DF90CF9018
S11318D0BF900895CF92DF92FF920F931F93CF93FF
S11318E0DF93CDB7DEB7A0970FB6F894DEBF0FBE77
S11318F0CDBF6C018B0140E226D81C821B821A8268
S1131900198218861F821E821D821C861B861A86D7
S11319101986F80184A58D8785A58E8786A58F876E
S113192087A5888B80A9898B81A98A8B82A98B8BB7
S113193083A98C8B84A98D8B85A98E8B86A98F8B8B
S113194087A9888F80AD898F81AD8A8F82AD8B8F77
S113195083AD8C8F84AD8D8F85AD8E8F86AD8F8F4B
S113196087AD88A320E2AE014F5F5F4FBA01CA0181
S1131970A9D8F82E20E2AE014F5F5F4FB601C60131
S1131980A1D8F80EF80180A98D8781A98E8782A934
S11319908F8783A9888B84A9898B85A98A8B86A93B
S11319A08B8B87A98C8B80AD8D8B81AD8E8B82AD1B
S11319B08F8B83AD888F84AD898F85AD8A8F86ADFB
S11319C08B8F87AD8C8F18A21F8E1E8E1D8E20E2EA
S11319D0AE014F5F5F4FBA01CA0174D8F80E20E21E
S11319E0AE014F5F5F4FB601C6016CD8F80EF80127
S11319F080A1898381A18A8382A18B8383A18C8323
S1131A0084A18D8385A18E8386A18F8387A18887F6
S1131A1080A5898781A58A8782A58B8783A58C87E2
S1131A20188A1F861E861D861C8A1B8A1A8A198A92
S1131A30188E1F8A1E8A1D8A80AD898F81AD8A8F78
S1131A4082AD8B8F83AD8C8F84AD8D8F85AD8E8F62
S1131A5086AD8F8F87AD88A320E2AE014F5F5F4FC5
S1131A60B601C6012FD8F80EF80184A1898385A197
S1131A708A8386A18B8387A18C8380A58D8381A58E
S1131A808E8382A58F8383A5888784A5898785A56E
S1131A908A8786A58B8787A58C8734A93D8725A946
S1131AA02E8796A99F8787A9888B40AD498B41AD26
S1131AB04A8B42AD4B8B43AD4C8B44AD4D8B45AD06
S1131AC04E8B46AD4F8B47AD488F398F2A8F9B8FF6
S1131AD08C8F80A18D8F81A18E8F82A18F8F83A106
S1131AE088A320E2AE014F5F5F4FB601C6010E949A
S1131AF06205F80EF80184A5898385A58A8386A5E5
S1131B008B8387A58C8380A98D8381A98E8382A9E9
S1131B108F8383A9888784A9898785A98A8786A9C9
S1131B208B8787A98C87188A1F861E861D861C8A28
S1131B301B8A1A8A198A188E1F8A1E8A1D8A80A1F6
S1131B40898F81A18A8F82A18B8F83A18C8F80A59D
S1131B508D8F81A58E8F82A58F8F83A588A320E288
S1131B60AE014F5F5F4FB601C6017DD8F81AF80188
S1131B7080A9898381A98A8382A98B8383A98C8381
S1131B8084A98D8385A98E8386A98F8387A9888755
S1131B9080AD898781AD8A8782AD8B8783AD8C8741
S1131BA084AD8D8785AD8E8786AD8F8787AD888B15
S1131BB01C8A1B8A1A8A198A188E1F8A1E8A1D8AF1
S1131BC084A1898F85A18A8F86A18B8F87A18C8F11
S1131BD084A58D8F85A58E8F86A58F8F87A588A3D5
S1131BE020E2AE014F5F5F4FB601C6013CD8F81A40
S1131BF0F80184A9898385A98A8386A98B8387A907
S1131C008C8380AD8D8381AD8E8382AD8F8383ADD4
S1131C10888784AD898785AD8A8786AD8B8787ADB4
S1131C208C8780A18D8781A18E8782A18F8783A1D4
S1131C30888B84A1898B85A18A8B86A18B8B87A1B4
S1131C408C8B80A58D8B81A58E8B82A58F8B83A594
S1131C50888F1C8E1B8E1A8E198E80A98D8F81A958
S1131C608E8F82A98F8F83A988A320E2AE014F5F54
S1131C705F4FB601C6010E943306F81AF80180AD21
S1131C80898381AD8A8382AD8B8383AD8C8384AD5C
S1131C908D8385AD8E8386AD8F8387AD88871C86C3
S1131CA01B861A86198684A18D8785A18E8786A1B5
S1131CB08F8787A1888B80A5898B81A58A8B82A534
S1131CC08B8B83A58C8B84A58D8B85A58E8B86A50C
S1131CD08F8B87A5888F1C8E1B8E1A8E198E84A9D4
S1131CE08D8F85A98E8F86A98F8F87A988A320E2DF
S1131CF0AE014F5F5F4FB601C6010E9433061F2D30
S1131D00181B92F420E24EE051E0B601C6010E9495
S1131D106205180FBAF311C020E24EE051E0B6019B
S1131D20C6010E943306181B1111F6CF40E2B6011A
S1131D308EE091E008D9813079F7A0960FB6F89437
S1131D40DEBF0FBECDBFDF91CF911F910F91FF90EA
S1131D50DF90CF900895AF92BF92CF92DF92EF922F
S1131D60FF920F931F93CF93DF93CDB7DEB7A09766
S1131D700FB6F894DEBF0FBECDBF5C017B016A01D4
S1131D808901A901B601CE01019622DB9801AE01B9
S1131D904F5F5F4FB501C501ECDA9801A601BE01A2
S1131DA06F5F7F4FCB01E5DA9801AE014F5F5F4F64
S1131DB0B701C701DEDAA0960FB6F894DEBF0FBEF6
S1131DC0CDBFDF91CF911F910F91FF90EF90DF90E6
S1131DD0CF90BF90AF9008954F925F926F927F9291
S1131DE08F929F92AF92BF92CF92DF92EF92FF9227
S1131DF00F931F93CF93DF93CDB7DEB7A0970FB6A2
S1131E00F894DEBF0FBECDBF3C012B017A0159010E
S1131E106801F80110814601F4E08F0E911C012F36
S1131E209401AC01B701CE01019608D9A601BE0107
S1131E306F5F7F4FCB01CCDA9601AE014F5F5F4FEE
S1131E40B301C30196DA9601AE014F5F5F4FB7014C
S1131E50C7018FDA9401A201B501C501EFD8A6012B
S1131E60B501CE010196B4DA9401A301BE016F5FFE
S1131E707F4FCB01E3D89401A701BE016F5F7F4F71
S1131E80CB01DCD89401A301B701C701D7D89601CF
S1131E90A701B201C2016DDA9401AE014F5F5F4F39
S1131EA0B301C701CBD89601A701B501C50161DA19
S1131EB09401A201B501C501C1D8412FBE016F5FD4
S1131EC07F4FC7010E94A304A0960FB6F894DEBF0B
S1131ED00FBECDBFDF91CF911F910F91FF90EF9077
S1131EE0DF90CF90BF90AF909F908F907F906F9036
S1131EF05F904F9008954F925F926F927F928F926E
S1131F009F92AF92BF92CF92DF92EF92FF920F9384
S1131F101F93CF93DF93CDB7DEB7C056D1090FB669
S1131F20F894DEBF0FBECDBF4C012B015A0139011D
S1131F306801F80110817601F4E0EF0EF11C012F25
S1131F409701AC01B501CE01019678D8A601BE0176
S1131F506F5F7F4FCB013CDA9601AE014F5F5F4F5D
S1131F60B401C40106DA9601AE014F5F5F4FB501BB
S1131F70C501FFD99701A201B301CE01019642D850
S1131F809701A201B301C30159D89701A401B50176
S1131F90CE01819653D89601AE014F5D5F4FB201D9
S1131FA0C201E7D99701A501B401CE0181962AD8CF
S1131FB0A601B301C5010CDA9701AE014F5D5F4F75
S1131FC0B501C5013BD89701A501B401CE018F5BD2
S1131FD09F4F34D89601AE014F5B5F4FB301C301ED
S1131FE0C8D99701A201B301C30128D8A601BE0133
S1131FF06F5F7F4FCE018F5B9F4FEAD99701AE0190
S11320004F5D5F4FBE016F5B7F4FCB0117D89701C8
S1132010A401BE016F5B7F4FCE0181960FD896015C
S1132020AE014F5F5F4FBE016F5D7F4FCB01A1D902
S11320309701A201BE016F5D7F4FC2010E941E087D
S1132040412FBE016F5B7F4FC4010E94A304C05A9D
S1132050DF4F0FB6F894DEBF0FBECDBFDF91CF9137
S11320601F910F91FF90EF90DF90CF90BF90AF90B2
S11320709F908F907F906F905F904F9008952F92D4
S11320803F924F925F926F927F928F929F92AF9204
S1132090BF92CF92DF92EF92FF920F931F93CF9351
S11320A0DF93CDB7DEB7CB5CD1090FB6F894DEBFB2
S11320B00FBECDBFC653DF4F99838883CA5CD0401F
S11320C0CC53DF4F79836883C45CD040CF53DF4F58
S11320D059834883C15CD04069011701F701F0813D
S11320E0CD53DF4FF883C35CD0404F2FCE01819690
S11320F00E94A304CD53DF4F2881C35CD040022E3D
S1132100000C330BCA53DF4F39832883C65CD0409D
S1132110CC53DF4F88819981C45CD040820F931FD8
S1132120C853DF4F99838883C85CD040CD53DF4FB9
S11321304881C35CD040BC01CE018F599F4F0E949F
S1132140A304F701B080C114D10441F04B2DB601B2
S1132150CE018F559F4F0E94A3040CC06B2DCE015E
S11321608F559F4F0E947C0481E0CF55DF4F8883B9
S1132170C15AD0404B2DBE016F5D7F4FCE010196F9
S11321800E94A3040F2EF1E4EF2EF12CF02DEC0E9F
S1132190FD1EF0E2EF0EF11C4B2DB701CE018F5B5B
S11321A09F4F0E94A3049101AE014F555F4FB701A9
S11321B0CE018196D0DDF101EC55FF4F0190F08105
S11321C0E02D9101AE014F555F4FB701CE018196CD
S11321D009959101AE014F555F4FBE016F5B7F4F73
S11321E0CE010196B8DD580122E0A21AB1081A14F2
S11321F01B040CF053C044244394512CB501CF5319
S1132200DF4F88819981C15CD0400E9456079201BA
S1132210882311F020E030E03901660C771C660C4D
S1132220771C660C771C660C771C660C771C0F2ECB
S1132230F1E4CF2ED12CF02DCC0EDD1EC60CD71C14
S113224081E090E08C0F9D1F680E791E7201E21AE6
S1132250F30AEE0CFF1CEE0CFF1CEE0CFF1CEE0C44
S1132260FF1CEE0CFF1C0F2EF1E48F2E912CF02D91
S11322708C0E9D1E8E0C9F1CE80EF91E810196018A
S1132280A301B401C70137DE9401A701B601C3015C
S1132290A3DD91E0A91AB10809F0B0CF60E070E0C5
S11322A0CF53DF4F88819981C15CD0400E9456078B
S11322B021E030E0882311F020E030E06901CC0C0B
S11322C0DD1CCC0CDD1CCC0CDD1CCC0CDD1CCC0CC6
S11322D0DD1C0F2EF1E48F2E912CF02D8C0E9D1E03
S11322E08C0C9D1CE1E0F0E0EC0FFD1FCE0EDF1E18
S11322F081E090E07C01E21AF30AEE0CFF1CEE0C84
S1132300FF1CEE0CFF1CEE0CFF1CEE0CFF1C0F2E32
S1132310F1E4AF2EB12CF02DAC0EBD1EAE0CBF1CE3
S1132320EE0EFF1E81019401A601B501C701E3DD94
S11323303101F4E06F0E711CCD53DF4F0881C35C93
S1132340D0409301AE014F5F5F4FBE016F5D7F4F81
S1132350CE018F579F4F0E941E089101A501BE0117
S11323606F577F4FCB0105D89101CC53DF4F488184
S11323705981C45CD040BE016F577F4FCB010E948E
S1132380B909CD53DF4F2881C35CD040A301BE01FE
S11323906F577F4FCB0147D89101C853DF4F488116
S11323A05981C85CD040BE016F577F4FCB010E945A
S11323B0B9099101A701BE016F577F4FCB010E945C
S11323C0B90981019501A701B401C60105DD910197
S11323D0AE014F575F4FBE016F5B7F4FCE01019639
S11323E0BADCCD53DF4F4881C35CD040BE016F5F80
S11323F07F4FC653DF4F88819981CA5CD0400E94C9
S1132400A304CD53DF4F4881C35CD040BE016F5B52
S11324107F4FC653DF4F88819981CA5CD040CA532D
S1132420DF4F28813981C65CD040820F931F0E9400
S1132430A304C553DF4F0FB6F894DEBF0FBECDBF64
S1132440DF91CF911F910F91FF90EF90DF90CF908C
S1132450BF90AF909F908F907F906F905F904F90C0
S11324603F902F900895AF92BF92CF92DF92EF9258
S1132470FF920F931F93CF93DF937B015A01F901CE
S1132480C280D380A601495F5F4FEA01DD230CF4CB
S11324902796D595C795D595C795D595C79589019F
S11324A00C5D1F4F2C2FA801BC01C7010E946205BF
S11324B0811111C028E0C202C0011124C816D90636
S11324C06CF4B601C7010E94560791E0811101C066
S11324D090E0D92E04C0DD24D39401C0D12C2C2F3C
S11324E0A801B701C5010E9462058D2DDF91CF912E
S11324F01F910F91FF90EF90DF90CF90BF90AF901E
S11325000895AF92BF92CF92DF92EF92FF920F9312
S11325101F93CF93DF93CDB7DEB7C454D1090FB661
S1132520F894DEBF0FBECDBF5C01CB016A017E0112
S113253021E4E20EF11CBE016F5F7F4FF70171834E
S11325406083AE014F5D5F4F5383428396018BDFFF
S1132550F601028113810F5F1F4FF70121E030E084
S1132560882311F020E030E0220F331FE20FF31F25
S113257040815181B6016C5B7F4F760120E030E0F1
S1132580C5017DDDF6016081660FC5010E9440072B
S113259091E0811190E0892FCC5BDF4F0FB6F89466
S11325A0DEBF0FBECDBFDF91CF911F910F91FF9082
S11325B0EF90DF90CF90BF90AF900895CF93DF93CB
S11325C0DC0116161706CCF420E030E090E0EB01B5
S11325D02197FE01E21BF30BE40FF51F2081FD019F
S11325E0E90FF11D97FDFA9520839F5F292F092E8E
S11325F0000C330B2617370764F3DF91CF9108954E
S11326009F92AF92BF92CF92DF92EF92FF920F937D
S11326101F93CF93DF938C015B01D42F642FC501EB
S11326200E946C072091600630916106232BC1F152
S113263048E0D40290011124281B390B8FEF90E05D
S113264002C0959587952A95E2F7982EC0E4CD2E81
S11326500D2E000CDD08760181E0E81AF108E00E89
S1132660F11EE0916006F0916106B601C80109957A
S11326700097D9F0F7018081892180836D2FC801EB
S11326800E944007811107C04D2FB801C5010E9467
S1132690D507813041F0C15021F780E090E005C0BA
S11326A080E090E002C081E090E0DF91CF911F9143
S11326B00F91FF90EF90DF90CF90BF90AF909F90DD
S11326C008958F929F92AF92BF92CF92DF92EF9232
S11326D0FF920F931F93CF93DF938C014B017901EA
S11326E0F901828193810796EC010AF42796D59526
S11326F0C795D595C795D595C795CC2EDD2E560192
S11327004C155D0508F45A016C2FC8010E947C0425
S1132710A401B501C80152DFAA0CBB1CAA0CBB1C46
S1132720AA0CBB1CF701828193818A159B05A0F535
S1132730B501681B790BF801EC0DFD1D0E171F0781
S1132740D8F4D801D12C48E050E0461B570B9291A5
S1132750292F30E0C901062E02C0959587950A9469
S1132760E2F78D298083042E01C0220F0A94EAF730
S1132770D22EAE17BF0759F7F4E2EF0EF11C4C2F1F
S1132780B801C7010E94A307813031F02C2FA701A3
S1132790B801C8010E943306DF91CF911F910F91B8
S11327A0FF90EF90DF90CF90BF90AF909F908F906D
S11327B00895909361068093600608958AE091E0FD
S11327C008959F92AF92BF92CF92DF92EF92FF92C1
S11327D00F931F93CF93DF93CDB7DEB7C056D109C4
S11327E00FB6F894DEBF0FBECDBF6C015B018A014A
S11327F06894992496F87A0184E2E80EF11CF801B1
S1132800828193810796AC0112F4495F5F4F55951D
S113281047955595479555954795B701CE0101962E
S1132820EFDE009709F440C0A801BE016F5F7F4F3F
S1132830CE01819666DE882391F1F801828193812D
S11328400796BC0112F4695F7F4F7595679575957E
S1132850679575956795AE014F5F5F4FC501AEDE15
S1132860F8016181062E000C770BAE014F5D5F4FBE
S1132870C601A4DEF8018181908141E250E04C0F51
S11328805D1F490F511D97FD5A95082E000C990B99
S1132890BC018C0D9D1D92DE81E090E005C09A94F0
S11328A09110ADCF80E090E0C05ADF4F0FB6F8949E
S11328B0DEBF0FBECDBFDF91CF911F910F91FF906F
S11328C0EF90DF90CF90BF90AF909F9008956F925C
S11328D07F928F929F92AF92BF92CF92DF92EF92AC
S11328E0FF920F931F93CF93DF93CDB7DEB7C458F6
S11328F0D1090FB6F894DEBF0FBECDBF8C014A01DB
S11329006901CE018F5B9F4FCF57DF4F9983888337
S1132910C158D0408096CD57DF4F99838883C358E0
S1132920D040F901F080A18022813381295F3F4F9B
S1132930C90199230CF407969595879595958795E4
S113294095958795AB01BC01CE018F5B9F4F36DE19
S11329500A2C000CBB08A801B501CE0101962EDE9D
S1132960A8014A0D5B1DB50181E090E08C0F9D1F0D
S11329708F0D911DF7FC9A9521DE9601AE014F59FA
S11329805F4FBE016F5B7F4FCB016DDD182F8091D0
S1132990600690916106892BA9F0E12FF0E0EE0F1B
S11329A0FF1F81E890E08C0F9D1FE80FF91F6080E6
S11329B071804F2DB6016C5F7F4FC30121DE0097FC
S11329C019F432C0612C712CF601228133812F5FFE
S11329D03F4F81E090E0112311F080E090E0880FF8
S11329E0991FE1E8F0E0EC0FFD1FE80FF91F4081AB
S11329F05181760189019301BE016F5F7F4FCB0145
S1132A003EDBAE014F5F5F4FB501C401D7DDF60178
S1132A106081660FCE0101960E94400731E020E0FC
S1132A20811130E0832F922FCC57DF4F0FB6F894EB
S1132A30DEBF0FBECDBFDF91CF911F910F91FF90ED
S1132A40EF90DF90CF90BF90AF909F908F907F904A
S1132A506F9008952F923F924F925F926F927F9260
S1132A608F929F92AF92BF92CF92DF92EF92FF929A
S1132A700F931F93CF93DF93CDB7DEB7CC5CD140D8
S1132A800FB6F894DEBF0FBECDBF4C01C753DE4F67
S1132A9079836883C95CD140C553DE4F5983488329
S1132AA0CB5CD14059017801D8013C9012968D91AC
S1132AB09C91139707966C011AF4B7E0CB0ED11CC6
S1132AC0D594C794D594C794D594C7940C2D0C2C45
S1132AD0000C110B01501109E1EAF0E0EC0FFD1FAD
S1132AE0E00FF11F1082E9E8F1E0EC0FFD1FE00FA9
S1132AF0F11F1082E9EAF1E0EC0FFD1FE00FF11F76
S1132B001082F7016181062E000C770BA401CE011F
S1132B10875B9E4F53DDD70111966C91632C032C78
S1132B20000C77080F2EF9E44F2E55245394F02D02
S1132B304C0E5D1E460C571C062E000C770BA40190
S1132B40460F571FC2013ADDF7016181062E000CC2
S1132B50770BA501CE0187579E4F30DDD701119623
S1132B606C91062E000C770BA501460F571FCE0162
S1132B7087559E4F23DD632DCE0187579E4F0E94BC
S1132B804007811102C2632DCE0187559E4F0E94DA
S1132B9040078111FDC14701B4E28B0E911C4C2DFD
S1132BA0BE0167577E4FC4010E94A307813009F01C
S1132BB0F2C14C2DBE0167557E4FC4010E94A3078C
S1132BC0813009F0EBC12C2DA401BE0167557E4F65
S1132BD0CE018F5B9F4F0E94130AE1E0F0E0EC0FFF
S1132BE0FD1FE00FF11F10829701C553DE4F48818E
S1132BF05981CB5CD140C753DE4F68817981C95C70
S1132C00D140CE0101965DDD0C2D9401AE014F5BE8
S1132C105F4FBE016F5F7F4FCB010E943408940168
S1132C20AE014F5B5F4FBE0167577E4FCE01819669
S1132C300E9434085E01E1E6AE0EB11C432DBE01D4
S1132C40675B7E4FC5010E94A304C501860D971DD5
S1132C50C553DE4F99838883CB5CD140432DB201A9
S1132C600E94A304432D270194E4490E511CB20190
S1132C70CE018F519F4F0E94A304B201660D771DB0
S1132C80432DCE018F5F9E4F0E94A304D70114965B
S1132C90C753DE4FB983A883C95CD140032D9D017E
S1132CA0AE014F515F4FB501CE018F5B9F4F0E9424
S1132CB01E088701C553DE4F28813981CB5CD14082
S1132CC0A501BE016F5F7E4FCE018F519F4F84D807
S1132CD0232DC753DE4F48815981C95CD140BE01C1
S1132CE06F5B7F4FCB010E94130A9701AE014F5BCC
S1132CF05F4FC553DE4F68817981CB5CD140C501FC
S1132D002AD8CF5BDE4F19821882C154D140CD5BE3
S1132D10DE4F59824882C354D140E9E4F1E0EC0F1C
S1132D20FD1FCB5BDE4FF983E883C554D140C95BFB
S1132D30DE4FB982A882C754D1406C2DCE01819652
S1132D400E946C07082F192F6C2DCE0101960E944A
S1132D506C07A02EB12EA816B9060CF45C018501EF
S1132D6001501109B801CE0101960E94560721E0D5
S1132D7090E0811101C020E0422E592EB801CE010D
S1132D8081960E945607811103C0E0E0F0E002C082
S1132D90E2E0F0E0E429F529EE0FFF1F81E491E081
S1132DA08C0F9D1FE80FF91F00811181432DB8017D
S1132DB0CE018F559F4F0E94A304B801660D771D65
S1132DC0432DCE018F539F4F0E94A304632DCE0148
S1132DD08F5B9F4F0E947C0481E022968FAF2297E5
S1132DE092E0A91AB1080AF483C02701A4EA4A0EA2
S1132DF0511C212CD201ED91FC919701AE014F5B46
S1132E005F4FBE016F537F4FCE018F559F4F099582
S1132E10B501CE0101960E94560711E0811101C04F
S1132E20122DB501CE0181960E945607811102C070
S1132E30E22D01C0E2E01E2BE12FF0E0EE0FFF1FB8
S1132E4081E491E08C0F9D1FE80FF91F008111812F
S1132E500115110509F447C0432DB801CE018F5166
S1132E609F4F0E94A304B801660D771D432DCE0128
S1132E708F5F9E4F0E94A3049701AE014F5B5F4F8B
S1132E80BE016F5F7E4FCE018F519F4F0E94AB0EEC
S1132E90032DC753DE4F28813981C95CD140AE016F
S1132EA04F515F4FBE016F557F4FCE018F5D9E4FD7
S1132EB00E941E0887019E012F533F4FAE014F55BC
S1132EC05F4FBE016F5F7E4FCE018F519F4F0E94B7
S1132ED0EC0E9701AE014F5D5E4FBE016F5B7F4FFD
S1132EE0CB010E94B90991E0A91AB10808F082CF78
S1132EF0232DC753DE4F48815981C95CD140BE019F
S1132F006F5B7F4FCB010E94130A9701AE014F5BA9
S1132F105F4FBE016F537F4FCE018F559F4F0E946D
S1132F20AB0E4C2DBE016F557F4FC4010E94A30709
S1132F30813041F02C2DA401BE016F557F4FCB0190
S1132F400E9433063A943320CCF020E0832D032CE6
S1132F50000C990BE1EAF0E0EC0FFD1FE80FF91FFC
S1132F60A9E8B1E0AC0FBD1FA80FB91F30818C9147
S1132F708327282B3A9433204CF701C020E081E0CA
S1132F8090E0222369F080E00BC080E090E008C06C
S1132F9080E090E005C080E090E002C080E090E036
S1132FA0C453DE4F0FB6F894DEBF0FBECDBFDF9122
S1132FB0CF911F910F91FF90EF90DF90CF90BF9032
S1132FC0AF909F908F907F906F905F904F903F90C5
S1132FD02F900895CF93DF936623C9F0C42FD52F84
S1132FE0282F392FD901ED919D01AE2FA295AF70F5
S1132FF0B0E0AA54BE4F8C918883EF70F0E0EA549D
S1133000FE4F80818983615022966111EBCFDF915D
S1133010CF910895FF920F931F93CF93DF93F82ED0
S1133020092F162FEA01462F469550E060E070E024
S1133030CE010E94A633112309F43FC0EF2DF02FD7
S113304020E030E070E060E0422F81912F5F3F4F3D
S113305090ED980F9A3018F490E0C09711C09FEB50
S1133060980F963018F490E0C7970AC09FE9980F1C
S1133070963020F490E08755910902C0872F962F4F
S11330804695DE01A40FB11DA90141705078552366
S113309034F4415051094E6F5F6F4F5F5F4F440FDF
S11330A0551F440F551F02C0880F991F4A95E2F718
S11330B09C91890F8C93211738F2DF91CF911F9146
S11330C00F91FF900895CF93DF93CDB7DEB7289784
S11330D00FB6F894DEBF0FBECDBF6295607F63600C
S11330E069834A8322230CF42FE72B83FE01349651
S11330F025E0DF011D922A95E9F7FC0160817181C9
S11331008281938128E0AE014F5F5F4F83D328967D
S11331100FB6F894DEBF0FBECDBFDF91CF910895F7
S11331208F929F92AF92BF92EF92FF920F931F9351
S1133130CF93DF93CDB7DEB728970FB6F894DEBFF1
S11331400FBECDBF7C014A015B01DC0116968D9157
S11331509C9117978017910750F487EC91E09F9307
S11331608F9355D30F900F908DEF9FEF7FC0F70192
S1133170838D813051F480E192E09F938F9347D304
S11331800F900F908EEF9FEF71C011870087138609
S11331901286A801B901848195810E948C33F701BC
S11331A0008511850830110508F5802F8295807FF0
S11331B0898364817581A801CE0102960E948C33B3
S11331C047E050E0401B510B60E070E082E090E08B
S11331D08C0F9D1F800F911F0E94A63328E0AE0123
S11331E04F5F5F4FC501B40115D340C00A83812FDF
S11331F08295807F816089830480F581E02D86E05B
S1133200DE01139601900D928A95E1F728E0AE0154
S11332104F5F5F4FC501B401FDD2009739F5F70147
S11332208285938506969387828711E0148785E0CB
S113323090E0968785871786108A0AD3D70151961E
S11332406D937D938D939C93549702D3DC01CB01B2
S11332508C599F4FAF4FBF4FF701858B968BA78B30
S1133260B08F128E118E138F80E090E028960FB6E7
S1133270F894DEBF0FBECDBFDF91CF911F910F91A8
S1133280FF90EF90BF90AF909F908F9008950F9311
S11332901F939B018A01FC014081518162817381EA
S11332A03FDF1F910F910895CF92DF92EF92FF922B
S11332B00F931F93CF93DF93CDB7DEB72A970FB643
S11332C0F894DEBF0FBECDBF7C019EEF940F973004
S11332D008F067C1142FC42ED12CA601CE0101968B
S11332E00E948C3348E050E04C195D0960E070E0C6
S11332F081E090E08C0F9D1F8C0D9D1D0E94A633D4
S113330089818F70813009F440C038F0823009F42B
S11333108BC0833009F4CFC044C1F70180A9813048
S113332029F48AEF9FEF97A786A703C0F70117A692
S113333016A68981807F69F04981842F82958F70D8
S1133340282F30E0412F50E04150510942175307D4
S113335044F486E492E09F938F9359D20F900F9098
S113336020C1482F50E0BE016E5F7F4FF70180A15E
S113337091A10E948C33898182958F7090E0F7012E
S113338095A384A382E080AB0CC1F70180A98130AE
S113339029F48AEF9FEF97A786A703C0F70117A622
S11333A016A6183041F085E692E09F938F932FD2B2
S11333B00F900F90F6C0898182958F7090E09A8764
S11333C0898789859A85982F88272A81820F911D5C
S11333D09A878987F701A0A1B1A186E0FE013396FF
S11333E001900D928A95E1F789859A85F70195A355
S11333F084A386E090E097A386A381E080A780ABB6
S11334008EE081A720E04EE060E0C7015CDE20D2C0
S1133410DC01CB018C599F4FAF4FBF4FF70182A7FF
S113342093A7A4A7B5A7BDC0F70180A9813029F04F
S11334308AEF9FEF97A786A7B4C0898182958F7082
S1133440F70190A5981394C086A197A104A115A192
S1133450081B190B0830110510F007E010E0F70104
S113346020A131A1A801BE016E5F7F4F820F931F7F
S11334700E948C33F70186A197A1080F191F17A387
S113348006A380A58F5F803108F45BC010A65BC0E3
S113349082E0F70180AB85C0F70181A5815011F06E
S11334A081A77FC08EE0F70181A720E04EE060E0B5
S11334B0C70109DE76C0F701838D813009F071C040
S11334C0133008F05CC08AE892E09F938F939FD1F9
S11334D00F900F9066C088EF9FEFF701928F818F56
S11334E082E0838F5EC0803171F4F70180898F5F41
S11334F0808B823008F455C089EF9FEF928F818FC3
S113350082E0838F4EC081114CC08A81811106C034
S11335108FEF9FEFF7019687858704C090E0F7014E
S1133520968785878B819FE0980F993018F08823C0
S113353024F402C081E001C080E0F7018787108A8B
S113354030C0F70180A784D1DC01CB018C599F4F97
S1133550AF4FBF4FF70182A793A7A4A7B5A726A192
S113356037A184A195A12817390708F495CF90CFE6
S11335708CEF9FEFF70197A786A710AA12C068D116
S1133580DC01CB018C599F4FAF4FBF4FF701858BA7
S1133590968BA78BB08F8981807F803209F0A3CF6F
S11335A09ACF2A960FB6F894DEBF0FBECDBFDF9137
S11335B0CF911F910F91FF90EF90DF90CF900895DE
S11335C0EF92FF920F931F93CF93DF93FC0180A997
S11335D08230A9F404A115A14017510708F48A0107
S11335E07901CB01EF0160A171A1A8010E948C3384
S11335F0F7011183008318AA80E090E002C08BEFEA
S11336009FEFDF91CF911F910F91FF90EF9008955D
S1133610CF92DF92EF92FF920F931F93FC0181E30D
S1133620DF011D928A95E9F710AA138E4083518316
S1133630628373833583248317830683F1A2E0A214
S1133640D3A2C2A21F910F91FF90EF90DF90CF9071
S11336500895CF92DF92EF92FF920F931F93CF932F
S1133660DF93CDB7DEB728970FB6F894DEBF0FBE51
S1133670CDBF8C01FC01838D813009F095C0858517
S11336809685892B09F47EC08785882359F0C188E3
S1133690D288E388F488DCD0C61AD70AE80AF90A83
S11336A00AF070C0F801E084F184F8E0EF16F10448
S11336B010F40E947233F80184858295807F8260C1
S11336C08983228533858E2D821B883008F087E01C
S11336D0E82EF12CF80164817581620F731FA70134
S11336E0CE0102960E948C3347E050E04E195F09E8
S11336F060E070E082E090E08C0F9D1F8E0D9F1DB6
S11337000E94A633F801608171818281938128E04F
S1133710AE014F5F5F4F7ED0892B09F05AC0F8018C
S113372082859385E80EF91EF386E28684858F5F91
S1133730803108F452C0148652C00197F80196876C
S1133740858786D0DC01CB018C599F4FAF4FBF4F8B
S1133750F801858B968BA78BB08F7AD0F8012785DB
S1133760DC01CB01820F911DA11DB11D818B928BB8
S1133770A38BB48B228533858085918528173907DF
S113378008F0138EF801C588D688E788F08C60D0DD
S1133790C61AD70AE80AF90A3AF48EEF9FEFF8013D
S11337A0928F818F82E0838FF80180A9813001F5A7
S11337B0C2A4D3A4E4A4F5A44BD0C61AD70AE80A39
S11337C0F90AB2F48DEF9FEFF80197A786A710AA24
S11337D00FC082E0F801838FD5CFF8018487F80108
S11337E0858596858F3FFFEF9F0709F0A6CFA9CF68
S11337F028960FB6F894DEBF0FBECDBFDF91CF91F0
S11338001F910F91FF90EF90DF90CF9008950C944B
S113381038310895CF93DF9300D000D000D0CDB7D6
S1133820DEB76B837C838D839E837A836983BE0139
S11338306F5F7F4F80E00E947F0380E090E02696D8
S11338400FB6F894DEBF0FBECDBFDF91CF910895C0
S11338500C946B0408958F929F92BF92CF92DF9243
S1133860EF92FF920F931F93CF93DF9300D000D07A
S1133870CDB7DEB7B62E4A0119821A821B821C828A
S1133880FC01808191819A83898349815A816B816A
S11338907C816894CC24C7F8D12C0F2EF2EEEF2E45
S11338A0F6E0FF2EF02D00E810E022E636E082E696
S11338B097E0AEDE4B2D50E0B40182E697E0E7DC02
S11338C00F900F900F900F90DF91CF911F910F9158
S11338D0FF90EF90DF90CF90BF909F908F900895CE
S11338E06F927F928F929F92BF92CF92DF92EF92CC
S11338F0FF920F931F93CF93DF93CDB7DEB72E972D
S11339000FB6F894DEBF0FBECDBF4C01B62E3A0100
S113391019821A821B821C82FC01808191819A8304
S1133920898349815A816B817C816894CC24C7F84E
S1133930D12C0F2EF2EEEF2EF6E0FF2EF02D00E844
S113394010E022E636E082E697E062DE08E010E06E
S11339509E012B5F3F4F48EA52E0B40180E00E9491
S1133960C50348E0BE016B5F7F4F82E697E09CDCB5
S11339704B2D50E09E01235F3F4FB30182E697E059
S11339801FDE2E960FB6F894DEBF0FBECDBFDF91BB
S1133990CF911F910F91FF90EF90DF90CF90BF9048
S11339A09F908F907F906F9008958F929F92BF9277
S11339B0CF92DF92EF92FF920F931F93CF93DF93F7
S11339C0CDB7DEB72F970FB6F894DEBF0FBECDBFCD
S11339D0B62E4A0119821A821B821C82FC01808144
S11339E091819A83898349815A816B817C8168940E
S11339F0CC24C7F8D12C0F2EF2EEEF2EF6E0FF2EDA
S1133A00F02D00E810E022E636E082E697E000DEE2
S1133A1068EA72E081E00E94A7034B2D50E0B401F4
S1133A2082E697E034DC0E94BA039E01215F3F4F97
S1133A30AE014B5F5F4FBE01635F7F4F0E9417046F
S1133A404F85BE016B5F7F4F82E697E02DDC82E6F7
S1133A5097E0FFDD80917D07811106C081E00E941F
S1133A600C0480E090E007C0823089F781E00E9476
S1133A700C0481E090E02F960FB6F894DEBF0FBEE1
S1133A80CDBFDF91CF911F910F91FF90EF90DF9009
S1133A90CF90BF909F908F9008957F928F929F9226
S1133AA0AF92BF92CF92DF92EF92FF920F931F9348
S1133AB0CF93DF93CDB7DEB72F970FB6F894DEBF61
S1133AC00FBECDBF4B01742E590119821A821B827D
S1133AD01C82FC01808191819A83898349815A8166
S1133AE06B817C816894CC24C7F8D12C0F2EF2EE24
S1133AF0EF2EF6E0FF2EF02D00E810E022E636E08F
S1133B0082E697E085DD10E068EA72E0812F0E948A
S1133B10A7031F5F1E30C1F70E94BA039E01215FF5
S1133B203F4FAE014B5F5F4FB4010E9417044F85B6
S1133B30BE016B5F7F4F82E697E0B6DB8091920710
S1133B40813051F3823041F710E0812F0E940C0440
S1133B501F5F1E30D1F7472D50E09E01235F3F4F7A
S1133B60B50182E697E02CDD2F960FB6F894DEBF00
S1133B700FBECDBFDF91CF911F910F91FF90EF90BA
S1133B80DF90CF90BF90AF909F908F907F900895DB
S1133B908230B9F028F4882341F0813061F008952F
S1133BA08330A9F08430C9F00895AB0160E88CEC4F
S1133BB095E030CA0895AB0160E88CE495E02ACA28
S1133BC00895AB0160E88CEC94E024CA0895AB013D
S1133BD060E88CE494E01ECA0895AB0160E88CECC4
S1133BE093E018CA0895FF920F931F93CF93DF9326
S1133BF0EC018B01672B51F00E946433F82E0E9474
S1133C0064338F0D899301501109B1F781E090E07D
S1133C10DF91CF911F910F91FF900895AF92BF92C2
S1133C20DF92EF92FF920F931F93CF93DF93CDB761
S1133C30DEB7C058D1090FB6F894DEBF0FBECDBFB2
S1133C405C017B01D42E0E94DE138C0120E032E063
S1133C5040E050E0B501CE0101960E94B630BE01AD
S1133C606F5B7F4F8D2D94DF970140E450E0BE01E0
S1133C706F5F7F4FCE018F5B9F4F0E942A15C05804
S1133C80DF4F0FB6F894DEBF0FBECDBFDF91CF91EB
S1133C901F910F91FF90EF90DF90BF90AF90089528
S1133CA0CF92DF92EF92FF921F93CF93DF93CDB722
S1133CB0DEB7C350D1400FB6F894DEBF0FBECDBF00
S1133CC0182F6B018AEA92E00E94383183EF9DE15C
S1133CD00E94D9130E94DE137C01AC01BE016E5F09
S1133CE07F4FCE0182960E94E1138983BE016E57F5
S1133CF07F4F812F4DDFAE014E5D5F4F60E470E07A
S1133D008AEC93E052DE81EC92E00E9438319E010D
S1133D102E533F4F40E4BE016E5F7E4F8AEC93E02A
S1133D20BCDE81ED92E00E943831412FBE016E531A
S1133D307F4FCE01829672DF89838981813019F5A4
S1133D4084EE92E00E9438319701AE014E595F4FE4
S1133D50BE016E5F7F4FCE018E579F4F0E94671446
S1133D60898320E031E040E050E0BE016E597F4F8E
S1133D70C601AED342EC53E067E08AEC93E06BDD1E
S1133D8080E090E00CC087EF92E00E9438314AEB6B
S1133D9053E067E08AEC93E05EDD81E090E0CD5F84
S1133DA0DE4F0FB6F894DEBF0FBECDBFDF91CF91CB
S1133DB01F91FF90EF90DF90CF900895EF92FF92C4
S1133DC00F931F93CF93DF93CDB7DEB764970FB6EE
S1133DD0F894DEBF0FBECDBF7C018B01AE014F5FF7
S1133DE05F4F61E0C801F6D8AE014D5F5F4F61E0FF
S1133DF0C8010196EFD88BE093E00E94383180E34C
S1133E0093E00E94383162E0CE0101960E947A313B
S1133E1085E393E00E94383162E0CE0103960E946C
S1133E207A31AE014B5F5F4F68E0C701D3D88AE3B4
S1133E3093E00E94383160E1CE0105960E947A3108
S1133E4083E493E00E94383164960FB6F894DEBFA1
S1133E500FBECDBFDF91CF911F910F91FF90EF90D7
S1133E600895CF93DF93CDB7DEB7CC54D1090FB605
S1133E70F894DEBF0FBECDBFD82E5B019E012F5B31
S1133E803F4F48E0BE01655B7F4F8AEC93E005DE5F
S1133E906D2DCE01855B9F4FA6D1892B71F588E6E8
S1133EA093E00E94383142EC53E067E08AEC93E0FF
S1133EB0D2DC9E012F5D3F4F40E2BE01675B7F4F26
S1133EC08AEC93E0EADD10E4E12EF12C00E010E04E
S1133ED09E012F5B3F4F40E051E0B501CE010196BA
S1133EE0DFD140E250E0BE016F5F7F4FCE0181968B
S1133EF00E947F33892B61F01DC08BE793E00E9401
S1133F0038314AEB53E067E08AEC93E0A4DCB6CFA7
S1133F108DE893E00E94383142EC53E067E08AEC8C
S1133F2093E099DCBE01655B7F4FCE018F5B9F4FB1
S1133F3045DFA4CF8FE993E00E9438314AEB53E088
S1133F4067E08AEC93E087DC99CFCF93DF93CDB71A
S1133F50DEB7A8970FB6F894DEBF0FBECDBF0E94A0
S1133F602C310E9446035FD185EB93E00E943831E7
S1133F700E947404AE014F5F5F4F67E08AEC93E0E8
S1133F80AFDCBE01675F7F4F89818ADE892B29F40C
S1133F90BE01675F7F4F898164DF80E090E0A8966F
S1133FA00FB6F894DEBF0FBECDBFDF91CF91089559
S1133FB0CF93DF931F92CDB7DEB742E050E00E946B
S1133FC07F338983898190E00F90DF91CF910895A9
S1133FD0EF92FF920F931F93CF93DF938C0186E0B0
S1133FE090E00E94FC317C01FC0113821282158254
S1133FF01482F80180819181F70191838083E0919B
S11340009307F0919407C081D1812097D1F08C81DE
S11340109D81892B61F0B801CE01CADF892BB1F0F3
S11340200C80DD81C02D8C819D81892BA1F7B80185
S1134030CE01BEDF892B69F0FD82EC8280E090E046
S11340400AC0F182E08280E090E005C081E090E067
S113405002C081E090E0DF91CF911F910F91FF901A
S1134060EF900895CF93DF9300D0CDB7DEB7AE01C4
S11340704F5F5F4F64E00E940A18CE010196A8DFEB
S113408080E090E00F900F90DF91CF910895EF9230
S1134090FF920F931F93CF93DF938C017B01E091E9
S11340A09307F0919407C081D181209789F0B801DA
S11340B0CE017EDF009721F4F701D183C0830AC0CB
S11340C00C80DD81C02D209791F781E090E002C043
S11340D081E090E0DF91CF911F910F91FF90EF90DD
S11340E00895CF92DF92EF92FF921F93CF93DF93C5
S11340F000D0CDB7DEB76C01162F83E090E00E94AC
S1134100FC317C01FC01128211821083BE016F5FBD
S11341107F4FC601BCDFAC01892BE1F4A981BA81D0
S11341201296ED91FC911397309749F41396FC92F3
S1134130EE92129717C09081F901191771F021813D
S1134140328121153105B9F78081181749F0F282BF
S1134150E18208C041E050E005C042E050E002C006
S113416042E050E0CA010F900F90DF91CF911F9170
S1134170FF90EF90DF90CF9008951F93CF93DF933C
S113418000D0CDB7DEB7162FAE014F5F5F4F64E0AE
S11341900E940A18612FCE010196A3DF0F900F90A1
S11341A0DF91CF911F910895DC011296ED91FC915E
S11341B013973097A9F0808168130AC003C08081E7
S11341C0861306C0DA01ED93FC9380E090E0089535
S11341D00180F281E02D309791F781E090E008951D
S11341E081E090E008951F93CF93DF9300D000D037
S11341F0CDB7DEB7162FBE016F5F7F4F48DF892B27
S113420041F4AE014D5F5F4F612F89819A81CCDF0C
S113421002C082E090E00F900F900F900F90DF911A
S1134220CF911F91089582E090E00E94FC31909319
S1134230940780939307FC01118210828CE496E02A
S113424011DF60E08CE496E098DF61E08CE496E0B6
S113425094DF62E08CE496E090DF63E08CE496E027
S11342608CDF64E08CE496E088DF81E596E0FADE9A
S113427060E081E596E081DF61E081E596E07DDF45
S113428063E081E596E079DF86E596E0EBDE60E0C9
S113429086E596E072DF61E086E596E06ECF0895EC
S11342A02F923F924F925F926F927F928F929F9242
S11342B0AF92BF92CF92DF92EF92FF920F931F9330
S11342C0CF93DF93CDB7DEB7C856D1090FB6F894B4
S11342D0DEBF0FBECDBF1C014901A996ECAEFDAEF9
S11342E00EAF1FAFA997FE01B59680E4DF011D92C2
S11342F08A95E9F74130B2E05B0730F09A0140E07B
S113430050E0CF01E5D096C0495F5F4F5695479581
S11343105695479556954795CE0185960E948C33C0
S113432089C0808189278193EC15FD05D1F7CE01E1
S11343300196A4D0BE016B5D7F4FCE010196AAD039
S1134340A9968CAD9DADAEADBFADA9978115E2E048
S11343509E07A105B10508F441C02C013D0154019B
S1134360B501CE01019696D0F0E4AF0EB11C22E067
S1134370521A61087108411482E0580661047104FC
S113438078F7A9968CAD9DADAEADBFADA99792500F
S1134390A109B109072E79E0B695A7959795879558
S11343A07A95D1F7702D01960024969587950794F8
S11343B0969587950794982F802D880E991EA99617
S11343C08CAD9DADAEADBFADA9979170AA27BB27AB
S11343D0A9968CAF9DAFAEAFBFAFA997A7964EADD0
S11343E05FADA797B401CE01019657D09AE6D801E4
S11343F08C918927F80181938F01EC15FD05B9F79C
S1134400BE016F5F7F4FC1014BD0CE01019636D004
S1134410BE016B5D7F4FCE0101963CD040E051E080
S1134420B101CE01019639D0BE016F5F7F4FC1014A
S113443037D00AC08E010B5D1F4F6E01F5E6CF0E1B
S1134440D11CF80196E36DCFC859DF4F0FB6F8942D
S1134450DEBF0FBECDBFDF91CF911F910F91FF90B3
S1134460EF90DF90CF90BF90AF909F908F907F9010
S11344706F905F904F903F902F900895FC0110A291
S113448011A212A213A240E250E064E970E00C947D
S1134490763308950C94A92C08950C94B92F08959B
S11344A0CF93DF93AC01EC01A096FA0193E0DB011A
S11344B0A90FB11D2C9121939150C8F74C5F5F4F08
S11344C06C5F7F4F4C175D0781F7DF91CF910895A3
S11344D04F925F926F927F928F929F92AF92BF9210
S11344E0CF92DF92EF92FF920F931F93CF93DF93BC
S11344F0CDB7DEB7A4970FB6F894DEBF0FBECDBF1D
S11345004C015B0169017A01CE010196B7DFC11448
S113451082E0D806E104F10490F126013701850117
S1134520B801CE0101960E94A92C005C1F4F82E0C5
S1134530581A61087108411482E058066104710434
S113454078F7D701C6019250A109B109072E79E085
S1134550B695A795979587957A95D1F7702D01967D
S11345600024969587950794969587950794982F98
S1134570802DA80EB91E81E0D822EE24FF24A601C6
S1134580B501CE0101960E94B92FBE016F5F7F4F26
S1134590C40186DFA4960FB6F894DEBF0FBECDBF6C
S11345A0DF91CF911F910F91FF90EF90DF90CF900B
S11345B0BF90AF909F908F907F906F905F904F903F
S11345C008952F923F924F925F926F927F928F92B3
S11345D09F92AF92BF92CF92DF92EF92FF920F938E
S11345E01F93CF93DF93CDB7DEB7CA5ED1090FB661
S11345F0F894DEBF0FBECDBFC751DF4F99838883C8
S1134600C95ED040CE010196C552DF4F998388839D
S1134610CB5DD040FE01EF57FF4FC753DF4FF98307
S1134620E883C95CD0402C01C951DF4F798368838A
S1134630C75ED040C951DF4FA881B981C75ED04061
S1134640BC91C553DF4FB883CB5CD040C951DF4F19
S1134650E881F981C75ED040718082809380A48014
S1134660B580A681B7813896C951DF4FF983E883B5
S1134670C75ED0406894662463F8C12CD12CE12C29
S1134680F12C10E0F0E0212C312C2C2D3D2D4E2D61
S11346905F2D612F7F2F822D932D08E00E94A13181
S11346A0C553DF4FC880CB5CD040C22AD32EE42E42
S11346B0F52E162FF72F282E392EC553DF4F2881BC
S11346C0CB5CD040372D482D592D6A2D7B2D8A2F58
S11346D09B2F0E94BC31C553DF4F2883CB5CD04055
S11346E0732E842E952EA62EB72EA82FB92F6A943A
S11346F06110CBCFD201CC921196DC921197129615
S1134700EC9212971396FC92139714961C93149799
S11347101596FC93159716962C92169717963C921D
S1134720B8E04B0E511CC753DF4FE881F981C95CD7
S1134730D040E415F50509F07DCF80E4C751DF4F83
S1134740E881F981C95ED040DE01AF57BF4F0190C7
S11347500D928A95E1F784EB90E0CF52DF4F998375
S11347608883C15DD040C053DF4F1882C05DD04004
S1134770A1E8B0E0AC0FBD1F1896C951DF4FB98353
S1134780A883C75ED040C053DF4FB881C05DD0401E
S1134790B03108F060C0C552DF4FE881F981CB5DCC
S11347A0D040F081C553DF4FF883CB5CD040C55275
S11347B0DF4FA881B981CB5DD0401196BC91C45321
S11347C0DF4FB883CC5CD040C552DF4FE881F9811C
S11347D0CB5DD040F281C353DF4FF883CD5CD04032
S11347E0C552DF4FA881B981CB5DD0401396BC91EF
S11347F0C253DF4FB883CE5CD040C552DF4FE8814F
S1134800F981CB5DD040F481C153DF4FF883CF5C95
S1134810D040C552DF4FA881B981CB5DD0401596F9
S1134820BC91CD52DF4FB883C35DD040C552DF4F3A
S1134830E881F981CB5DD040F681CC52DF4FF8831B
S1134840C45DD040C552DF4FA881B981CB5DD04053
S113485017964C90DBC1E2965FACE297E3966FAC9F
S1134860E397E4967FACE497E5968FACE597E696FC
S11348709FACE697E796BFADE797E896AFADE897AC
S1134880E996FFADE997E985C553DF4FE883CB5C33
S1134890D040EA85C453DF4FE883CC5CD040EB853D
S11348A0C353DF4FE883CD5CD040EC85C253DF4F68
S11348B0E883CE5CD040ED85C153DF4FE883CF5C05
S11348C0D0402E843F8448882A962FAD2A972B9671
S11348D03FAD2B972C964FAD2C972D965FAD2D9712
S11348E02E966FAD2E972F967FAD2F9760968FAD36
S11348F0609761969FAD6197A980BA80CB80DC8078
S1134900ED80FE800F8118850E94F331CD52DF4F78
S11349102883C35DD040CC52DF4F3883C45DD04080
S1134920CB52DF4F4883C55DD040CA52DF4F588316
S1134930C65DD040C952DF4F6883C75DD040C852BE
S1134940DF4F7883C85DD040C752DF4F8883C95D8D
S1134950D040C652DF4F9883CA5DD040252D362DF6
S1134960472D582D692D7B2F8A2F9F2F03E00E94FE
S1134970D831A22EB32EC42ED52EE62EF72EE82F34
S1134980192F252D362D472D582D692D7B2F8A2F34
S11349909F2F0DE20E94D831A226B326C426D52625
S11349A0E626F726E8271927252D362D472D582DDD
S11349B0692D7B2F8A2F9F2F06E00E94BC31A226EF
S11349C0B326C426D526E626F7260E2F0827192750
S11349D0CD52DF4F2881C35DD040CC52DF4F3881A8
S11349E0C45DD040CB52DF4F4881C55DD040CA5230
S11349F0DF4F5881C65DD040C952DF4F6881C75D23
S1134A00D040C852DF4F7881C85DD040C752DF4FD5
S1134A108881C95DD040C652DF4F9881CA5DD040BD
S1134A200E94F331622E732E842E952EB62FA72F5B
S1134A30F82FE92FC553DF4F2881CB5CD040C453F6
S1134A40DF4F3881CC5CD040C353DF4F4881CD5C0D
S1134A50D040C253DF4F5881CE5CD040C153DF4FAA
S1134A606881CF5CD040722D832D942D08E30E9481
S1134A70D831A22EB32EC42ED52EE62EF72E582EC4
S1134A80192FC553DF4F2881CB5CD040C453DF4F6F
S1134A903881CC5CD040C353DF4F4881CD5CD040DB
S1134AA0C253DF4F5881CE5CD040C153DF4F688181
S1134AB0CF5CD040722D832D942D0FE30E94D8310A
S1134AC0A226B326C426D526E626F7265826192775
S1134AD0C553DF4F2881CB5CD040C453DF4F3881AE
S1134AE0CC5CD040C353DF4F4881CD5CD040C2532F
S1134AF0DF4F5881CE5CD040C153DF4F6881CF5C1B
S1134B00D040722D832D942D07E00E94BC31A22643
S1134B10B326C426D526E626F726052D0827192709
S1134B20262D372D482D592D6B2F7A2F8F2F9E2F01
S1134B300E94F331C553DF4F2883CB5CD040C4536C
S1134B40DF4F3883CC5CD040C353DF4F4883CD5C08
S1134B50D040C253DF4F5883CE5CD040C153DF4FA7
S1134B606883CF5CD040CD52DF4F7883C35DD040A3
S1134B70CC52DF4F8883C45DD040492E48E750E0D3
S1134B80BE01675F7F4FCE0101960E949533C553E6
S1134B90DF4FF881CB5CD040EA96FFAFEA97C4536D
S1134BA0DF4F1881CC5CD040EB961FAFEB97C3531B
S1134BB0DF4F8881CD5CD040EC968FAFEC97C25329
S1134BC0DF4F9881CE5CD040ED969FAFED97C153F7
S1134BD0DF4FA881CF5CD040EE96AFAFEE97CD52B9
S1134BE0DF4FB881C35DD040EF96BFAFEF97CC5293
S1134BF0DF4FE881C45DD040C158DF4FE883CF5711
S1134C00D040C058DF4F4882C058D040C754DF4F0F
S1134C101881C95BD040CB52DF4F1883C55DD040AB
S1134C20C654DF4FA881CA5BD040CA52DF4FA88365
S1134C30C65DD040C554DF4FB881CB5BD040C9526C
S1134C40DF4FB883C75DD040C454DF4F1881CC5BBD
S1134C50D040C852DF4F1883C85DD040C354DF4FE3
S1134C60A881CD5BD040C752DF4FA883C95DD04037
S1134C70C254DF4FB881CE5BD040C652DF4FB883F9
S1134C80CA5DD040C154DF4F1881CF5BD040C352BE
S1134C90DF4F1883CD5DD040C054DF4FA881C05C86
S1134CA0D040C252DF4FA883CE5DD040CF55DF4FF6
S1134CB09880C15AD040CE55DF4FB880C25AD040F8
S1134CC0CD55DF4FC880C35AD040CC55DF4FD88074
S1134CD0C45AD040CB55DF4FF880C55AD040CA558E
S1134CE0DF4F1881C65AD040C955DF4FB881C75A23
S1134CF0D040C855DF4FA881C85AD040792D70954F
S1134D006B2D60955C2D50954D2D40953F2D309524
S1134D10212F20959B2F90958A2F8095CF54DF4F7C
S1134D206880C15BD0406722CE54DF4F8880C25B6D
S1134D30D0408622CD54DF4FE880C35BD040E522CB
S1134D40CC54DF4FF881C45BD040F423CB54DF4F05
S1134D507881C55BD0407323CA54DF4F5881C65B4A
S1134D60D0405223C954DF4F3881C75BD040392328
S1134D70C854DF4F9881C85BD0409823C755DF4F94
S1134D807880C95AD0407920C655DF4FA880CA5AC6
S1134D90D040AB20C555DF4F0881CB5AD0400C2101
S1134DA0C455DF4FE881CC5AD040ED21C355DF4FC5
S1134DB06881CD5AD0406F21C255DF4F4881CE5A09
S1134DC0D0404123C155DF4F2881CF5AD0402B23F7
S1134DD0C055DF4F8881C05BD0408A236724C1520D
S1134DE0DF4F6882CF5DD0408A24C052DF4F888273
S1134DF0C05ED040E026CF51DF4FE882C15ED04094
S1134E00FE27CE51DF4FF883C25ED0407627CD51C6
S1134E10DF4F7883C35ED0405427CC51DF4F588393
S1134E20C45ED0403227CB51DF4F3883C55ED040BB
S1134E309827CA51DF4F9883C65ED040CF52DF4FC8
S1134E40E881F981C15DD040459155916591749196
S1134E50A42ECF53DF4F488359836A837B83C15C7D
S1134E60D040CF52DF4FE881F981C15DD040349604
S1134E704591559165917491E42ECB53DF4F48834E
S1134E8059836A837B83C55CD040292D3B2D4C2DEF
S1134E905D2D6F2D712F8B2F9A2F0EE20E94D8312A
S1134EA0222E332E542E652E762E872EF82FE92FA0
S1134EB0292D3B2D4C2D5D2D6F2D712F8B2F9A2F6E
S1134EC002E30E94D831222633265426652676260C
S1134ED08726F827E927292D3B2D4C2D5D2D6F2D95
S1134EE0712F8B2F9A2F07E10E94D8312226332667
S1134EF05426652676268726F827E927CB52DF4FE6
S1134F002881C55DD040CA52DF4F3881C65DD0408C
S1134F10C952DF4F4881C75DD040C852DF4F588126
S1134F20C85DD040C752DF4F6881C95DD040C652CA
S1134F30DF4F7881CA5DD040C352DF4F8881CD5D99
S1134F40D040C252DF4F9881CE5DD040CE53DF4F68
S1134F50B880C25CD040CD53DF4FC880C35CD04022
S1134F60CC53DF4FD880C45CD040CA53DF4FF880A5
S1134F70C65CD040C953DF4F0881C75CD040C853DA
S1134F80DF4F1881C85CD0400E94F331A22EB32EAB
S1134F90C42ED52EE62EF72E082F192F222D332DB1
S1134FA0452D562D672D782D8F2F9E2F0E94F3317E
S1134FB0C152DF4FA880CF5DD040C052DF4FB880D0
S1134FC0C05ED040CF51DF4FC880C15ED040CE51CB
S1134FD0DF4FD880C25ED040CD51DF4FE880C35E42
S1134FE0D040CC51DF4FF880C45ED040CB51DF4F6E
S1134FF00881C55ED040CA51DF4F1881C65ED040DB
S11350000E94F331C553DF4FA880CB5CD040C4531A
S1135010DF4FB880CC5CD040C353DF4FC880CD5C39
S1135020D040C253DF4FD880CE5CD040C153DF4F55
S1135030E880CF5CD040CD52DF4FF880C35DD040D4
S1135040CC52DF4F0881C45DD040142D0E94F3314F
S1135050C553DF4F2883CB5CD040C453DF4F388324
S1135060CC5CD040C353DF4F4883CD5CD040C253A7
S1135070DF4F5883CE5CD040C153DF4F6883CF5C91
S1135080D040CD52DF4F7883C35DD040CC52DF4F48
S11350908883C45DD040CB52DF4F9883C55DD04038
S11350A0CF57DF4FA880C158D040CE57DF4FB880CC
S11350B0C258D040CD57DF4F7880C358D040CC572A
S11350C0DF4F6880C458D040CB57DF4F5880C55855
S11350D0D040CA57DF4F4880C658D040C957DF4F29
S11350E03880C758D040C857DF4F2880C858D040B0
S11350F0C757DF4F1881C958D040CA52DF4F1883B1
S1135100C65DD040C657DF4F1881CA58D040C95237
S1135110DF4F1883C75DD040C557DF4F1881CB5888
S1135120D040C852DF4F1883C85DD040C457DF4F0A
S11351301881CC58D040C752DF4F1883C95DD04086
S1135140C357DF4F1881CD58D040C652DF4F188364
S1135150CA5DD040C257DF4F1881CE58D040C352E9
S1135160DF4F1883CD5DD040C157DF4F1881CF5832
S1135170D040C252DF4F1883CE5DD040C057DF4FBE
S11351808880C059D040CF56DF4F1881C159D040D4
S1135190C152DF4F1883CF5DD040CE56DF4F188108
S11351A0C259D040C052DF4F1883C05ED040CD56A4
S11351B0DF4F1881C359D040CF51DF4F1883C15EF0
S11351C0D040CC56DF4F1881C459D040CE51DF4F68
S11351D01883C25ED040CB56DF4F1881C559D040EA
S11351E0CD51DF4F1883C35ED040CA56DF4F1881BC
S11351F0C659D040CC51DF4F1883C45ED040C95645
S1135200DF4F1881C759D040CB51DF4F1883C55E9B
S1135210D040C856DF4F9880C859D04048E350E08A
S1135220BE016F577F4FC951DF4F88819981C75E97
S1135230D0400E9495332A2D3B2D472D562D652DA8
S1135240742D832D922D0EE10E94D831D22EE32E9F
S1135250F42E152FB62FE72FA82FF92F2A2D3B2D2B
S1135260472D562D652D742D832D922D04E20E9419
S1135270D831D226E326F4261527B627E727A82710
S1135280F9272A2D3B2D472D562D652D742D832D61
S1135290922D09E10E94D8312D253E254F25512715
S11352A06B277E27C152DF4FB881CF5DD040CA52F1
S11352B0DF4F1881C65DD040B127C052DF4FE8816F
S11352C0C05ED040C952DF4F1881C75DD040E1278E
S11352D0CF51DF4FC880C15ED040C852DF4F188124
S11352E0C85DD040C126CE51DF4FD880C25ED040C9
S11352F0C752DF4F1881C95DD040D126CD51DF4F51
S1135300E880C35ED040C652DF4F1881CA5DD040EA
S1135310E126CC51DF4FF880C45ED040C352DF4F4A
S11353201881CD5DD040F126CB51DF4F0881C55E99
S1135330D040C252DF4F1881CE5DD0400127192DD5
S11353401825AB22BE22C720D620E520F420032155
S11353501221CA52DF4FE881C65DD040C152DF4FEF
S1135360B881CF5DD040EB23C952DF4F2880C75DA1
S1135370D040C052DF4FB881C05ED0402B22C8520B
S1135380DF4F3880C85DD040CF51DF4FB881C15E58
S1135390D0403B22C752DF4F4880C95DD040CE5138
S11353A0DF4FB881C25ED0404B22C652DF4F5880D7
S11353B0CA5DD040CD51DF4FB881C35ED0405B227F
S11353C0C352DF4F6880CD5DD040CC51DF4FB881F0
S11353D0C45ED0406B22C252DF4F7880CE5DD04095
S11353E0CB51DF4FB881C55ED0407B22B82DB921A7
S11353F0AE26B224C324D424E524F62407251B278F
S11354008A279F27F0D7C553DF4FA880CB5CD040B5
S1135410C453DF4FB880CC5CD040C353DF4FC88047
S1135420CD5CD040C253DF4FD880CE5CD040C15356
S1135430DF4FE880CF5CD040CD52DF4FF880C35DB2
S1135440D040CC52DF4F0881C45DD040CB52DF4FF7
S11354501881C55DD040C7D7CF57DF4F2883C158C7
S1135460D040CE57DF4F3883C258D040CD57DF4F9E
S11354704883C358D040CC57DF4F5883C458D040DA
S1135480CB57DF4F6883C558D040CA57DF4F788366
S1135490C658D040C957DF4F8883C758D040C85733
S11354A0DF4F9883C858D0402A2D3B2D4C2D5D2DBD
S11354B06E2D7F2D802F912FCF55DF4FA880C15A9D
S11354C0D040CE55DF4FB880C25AD040CD55DF4FC3
S11354D0C880C35AD040CC55DF4FD880C45AD0407E
S11354E0CB55DF4FE880C55AD040CA55DF4FF8800E
S11354F0C65AD040C955DF4F0881C75AD040C85555
S1135500DF4F1881C85AD0406ED7CF55DF4F28835C
S1135510C15AD040CE55DF4F3883C25AD040CD5502
S1135520DF4F4883C35AD040CC55DF4F5883C45A09
S1135530D040CB55DF4F6883C55AD040CA55DF4FA2
S11355407883C65AD040C955DF4F8883C75AD040A4
S1135550C855DF4F9883C85AD040C053DF4FE88105
S1135560C05DD040EF5FC053DF4FE883C05DD040E3
S1135570C552DF4F88819981CB5DD0400896C552D2
S1135580DF4F99838883CB5DD040CF52DF4FA88112
S1135590B981C15DD0401896CF52DF4FB983A8833B
S11355A0C15DD040E03509F0EEC80F2EF7E09F2E24
S11355B0F02D792CC751DF4F88809980C95ED04087
S11355C0A72DB0E0AA0FBB1FAA0FBB1FAA0FBB1FBA
S11355D0F401EA0FFB1F81E890E08C0F9D1FA80FD8
S11355E0B91F208131814281538164817581868113
S11355F09781AC901196BC9011971296CC9012970B
S11356001396DC9013971496EC9014971596FC90CF
S1135610159716960C91169717961C91E4D620832D
S113562031834283538364837583868397837A9417
S11356309FEF7912C5CFC751DF4FE881F981C95E69
S1135640D040E05CFF4F80819181A281B3810196BB
S1135650A11DB11D80839183A283B383C651DF4F03
S11356600FB6F894DEBF0FBECDBFDF91CF911F916F
S11356700F91FF90EF90DF90CF90BF90AF909F90ED
S11356808F907F906F905F904F903F902F900895F0
S11356902F923F924F925F926F927F928F929F923E
S11356A0AF92BF92CF92DF92EF92FF920F931F932C
S11356B0CF93DF93CDB7DEB7CC58D1090FB6F894AA
S11356C0DEBF0FBECDBFCF57DF4F99838883C1584C
S11356D0D040C557DF4F79836883CB58D0404A0107
S11356E0411524E0520778F17A018B01B801CF57B4
S11356F0DF4F88819981C158D0400E94E12200582F
S11357001F4F34E0F31AE11484E0F80678F7C4017B
S11357109450892F99278695869501969695982F6A
S1135720882797958795C557DF4FE881F981CB582E
S1135730D040E80FF91FC557DF4FF983E883CB58F2
S1135740D040F3E09F22CF57DF4FE881F981C15861
S1135750D040E05CFF4F80819181A281B3815C01E4
S11357606D01282F3B2D4C2D5D2D60E070E080E015
S113577090E00AE0E6D55401C12CD12CE12CF12CA7
S11357808701CD57DF4F8882C358D040CC57DF4FB5
S1135790B882C458D040CB57DF4FC882C558D040D8
S11357A0CA57DF4FD882C658D040C957DF4FE88266
S11357B0C758D040C857DF4FF882C858D040C757A1
S11357C0DF4F0883C958D040C657DF4F1883CA58E3
S11357D0D040C12CD12CE12CF12C00E010E003D6F8
S11357E0E22FA32EB42EB52FA62FF72F282E392E55
S11357F06894442443F8712C512C612C272D3C2DA2
S11358004D2D5E2D6F2D712F852D962D08E099D588
S11358107E2E722AC32ED42EE52EF62E172F582E46
S1135820692E2E2F3A2D4B2D5B2F6A2F7F2F822D21
S1135830932DA2D5E22FA32EB42EB52FA62FF72F8A
S1135840282E392E4A944110D9CF9E012F5F3F4F05
S1135850590180E8F90111928A95E9F7A401495F99
S11358605F4F569547955695479556954795C55715
S1135870DF4F68817981CB58D040C9014DD7F401FD
S1135880F695E795F695E795F695E795EA0DFB1DF0
S113589094012770332780E890E002C0959587959E
S11358A02A95E2F79081892B8083F0E88F16F3E044
S11358B09F0670F0B501CF57DF4F88819981C15899
S11358C0D0400E94E12288E7F50111928A95E9F718
S11358D0EA967FAEEA97EB96CFAEEB97EC96DFAE07
S11358E0EC97ED96EFAEED97EE96FFAEEE97EF9652
S11358F01FAFEF97C158DF4F5882CF57D040C058E1
S1135900DF4F6882C058D040BE016F5F7F4FCF57D2
S1135910DF4F88819981C158D0400E94E122C45749
S1135920DF4F0FB6F894DEBF0FBECDBFDF91CF912E
S11359301F910F91FF90EF90DF90CF90BF90AF90A9
S11359409F908F907F906F905F904F903F902F909B
S113595008952F923F924F925F926F927F928F920F
S11359609F92AF92BF92CF92DF92EF92FF920F93EA
S11359701F93CF93DF93CDB7DEB7CB56D1090FB6C4
S1135980F894DEBF0FBECDBFAC969FAF8EAFAC9781
S11359909E012F5F3F4FA8963FAF2EAFA897205C84
S11359A03F4FA896EEADFFADA897AF01FB018191E3
S11359B09191A191B191BF01B82EAA249924882470
S11359C0CB2EDD24EE24FF24C828D928EA28FB287E
S11359D04C015D018824AA24BB24BA2CA92C982C40
S11359E08824C828D928EA28FB2888279927BB2790
S11359F0892F9A2FAB2FBB278C299D29AE29BF292C
S1135A00FA0181939193A193B193AF01E217F30744
S1135A1069F680E2AC96EEADFFADAC97DE01AF5B0C
S1135A20BF4F01900D928A95E1F70F2EF4E32F2ECC
S1135A30F3E03F2EF02DA6961FAEA69721E430E0AA
S1135A402C0F3D1F2C5F3F4FAA963FAF2EAFAA9756
S1135A50A6963FADA697303148F4A896AEADBFAD3B
S1135A60A897CD90DD90ED90FC90B8C089AD9AAD2B
S1135A70ABADBCAD8D809E80AF80B8846C017D01E0
S1135A800B2EBDE0CC0CDD1CEE1CFF1CBA95D1F72F
S1135A90B02DAC01BD01032E33E176956795579582
S1135AA047953A95D1F7302D97018601042B152B94
S1135AB0262B372B6C017D010B2EBFE0CC0CDD1C9B
S1135AC0EE1CFF1CBA95D1F7B02DAC01BD01032E1D
S1135AD031E176956795579547953A95D1F7302DED
S1135AE04C295D296E297F2968017901C426D526B0
S1135AF0E626F726072E7AE0B695A795979587951B
S1135B007A95D1F7702D8C259D25AE25BF25CDA086
S1135B10DEA0EFA0F8A449815A816B817C81C40E78
S1135B20D51EE61EF71E8C0D9D1DAE1DBF1D7501F5
S1135B3064010B2EBEE0CC0CDD1CEE1CFF1CBA95E0
S1135B40D1F7B02DB501A401032E32E17695679506
S1135B50579547953A95D1F7302DC42AD52AE62A88
S1135B60F72AB501A401689416F8769567955795B8
S1135B7047951694D1F7950184010F2EF9E1000F92
S1135B80111F221F331FFA95D1F7F02D402B512BF3
S1135B90622B732BC426D526E626F726689412F8C2
S1135BA0B694A794979487941694D1F78C249D2443
S1135BB0AE24BF246C017D01C80CD91CEA1CFB1C5B
S1135BC04CE350E0BE016B5F7F4FCE010196ADD533
S1135BD02196CCAEDDAEEEAEFFAE219765968CADD0
S1135BE09DADAEADBFAD6597F10125913591459160
S1135BF05491A5962CAF3DAF4EAF5FAFA5974C0126
S1135C005D0180949094A094B0946D964CAD5DAD7C
S1135C106EAD7FAD6D9784229522A622B722699638
S1135C204CAD5DAD6EAD7FAD69978C019D010423D4
S1135C30152326233723B501A401402751276227C2
S1135C4073274C015D01072E7BE0B694A7949794CB
S1135C5087947A95D1F7702D8C019D010F2EF5E173
S1135C60000F111F221F331FFA95D1F7F02D802A40
S1135C70912AA22AB32A2C013D01689415F876943E
S1135C806794579447941694D1F78C019D010F2E75
S1135C90FAE1000F111F221F331FFA95D1F7F02DDF
S1135CA00429152926293729082519252A253B25BC
S1135CB04C015D01880C991CAA1CBB1C880C991C06
S1135CC0AA1CBB1C880C991CAA1CBB1C880C991C04
S1135CD0AA1CBB1C880C991CAA1CBB1C880C991CF4
S1135CE0AA1CBB1C880C991CAA1CBB1C072E79E19E
