S01100007273615F74657374322E737265637C
S1130000C9C00000D7C00000D5C00000D3C00000A4
S1130010D1C00000CFC00000CDC00000CBC00000A4
S1130020C9C00000C7C00000C5C00000C3C00000B4
S1130030C1C00000BFC00000BDC00000BBC00000C4
S1130040B9C00000B7C00000B5C00000B3C00000D4
S1130050B1C00000AFC00000ADC00000ABC00000E4
S1130060A9C00000A7C00000A5C00000A3C00000F4
S1130070A1C000009FC000009DC000009BC0000004
S113008099C0000097C0000095C0000093C0000014
S113009091C00000793F5D9CD2D65782AEBB1E9AB8
S11300A01253CC4FDD12F140EBD2F347B33013F8C7
S11300B001FF128F5318EE7AD7FEB2EA04FA8CD3FA
S11300C0D8EFAB497BC56CCE035DC84484E3014CD7
S11300D0A0BD0787010203040506070809101112D1
S11300E0131415165A59E9711ACB0111DF928EF4C3
S11300F07BADD869D58F8CADC2EBADCC01B9B2362E
S113010042F4A03A112233445566778899AABBCCAD
S1130110DDEE00FFE5B78C88CB1C6FFDBE58ABDA73
S113012016FD0852C45C56CC839131FA75E92FEB65
S1130130770D5F0403235507F45976E77B1CD648F3
S113014090FBC090121BF414FDFA7C22C54658F5AE
S11301502C97F10F26494216CC84BD54F50EC74F97
S113016003D4D6B8760F63CCC09832FF13A6DD5102
S1130170E92CE52B04F3B2A4CEF5D87FFF52134942
S1130180AF4EC37D76EC6B44D0C2658CE1934F7C5B
S1130190309E012311241FBECFEFD0E1DEBFCDBFBF
S11301A022E0A0E0B1E001C01D92A138B207E1F75E
S11301B0EED11EC325CF2F923F924F925F926F9242
S11301C07F928F929F92AF92BF92CF92DF92EF92E3
S11301D0FF920F931F93CF93DF93682E792EB72F3F
S11301E0A62F242E352E122F4E2C802E9924392DF5
S11301F0282D2A953109220F331F220F331F220F76
S1130200331F512CC12DD12DC217D30730F48D913A
S1130210882319F453942896F7CF53942896C52C21
S1130220DD24A42CBB24FB2CEA2CEC18FD085F2D48
S11302304E2D772D662D9D2D8C2D820D931DCFD2A5
S1130240012F11270A191B090C0D1D1DE60CF71CA3
S1130250512F402F7F2D6E2D972D862DC0D24518FE
S1130260642D972D862D800F911FC3D0880C991C67
S1130270880C991C880C991C992D882D8C1B9D0B1E
S1130280DF91CF911F910F91FF90EF90DF90CF906E
S1130290BF90AF909F908F907F906F905F904F90A2
S11302A03F902F900895F92FE82FE60FF11D8291CA
S11302B08395808321F46A95D1F781E001C0882772
S11302C099270895F72FE62FB92FA82F9D91819193
S11302D0891738F0981718F04A95C1F702C081E0E1
S11302E001C0882799270895F92FE82FE60FF11DFB
S11302F0942F441F8291881F80836A95D9F7892F90
S1130300881F912D0895F92FE82F479580818795AF
S113031081936A95D9F708957F928F929F92AF92B5
S1130320BF92CF92DF92EF92FF920F931F93CF93DE
S1130330DF93882E992EA62EB72EC42ED52E122FDB
S11303407E2C6E2D952F842F54D0C12FDD27CC0FFA
S1130350DD1FCC0FDD1FCC0FDD1F212F5D2D4C2D9C
S11303607B2D6A2D992D882D26DFEE248C179D0771
S113037090F5C81BD90B0C2F1D2FEE2039F4F92D45
S1130380E82DF1908E2E9F2E88E0E82EEA944F2DD2
S1130390672D9D2D8C2DA8DFF82E80FF09C0472DD9
S11303A07B2D6A2D9D2D8C2DABD0F1E0FF2A10C042
S11303B0472D7B2D6A2D9D2D8C2D84DF882341F4C0
S11303C0472D7B2D6A2D9D2D8C2D9AD081E0F82A06
S11303D00150104091F6DF91CF911F910F91FF9042
S11303E0EF90DF90CF90BF90AF909F908F907F90D1
S11303F00895F92FE82F11926A95E9F708953F922D
S11304004F925F926F927F928F929F92AF92BF9220
S1130410CF92DF92EF92FF920F931F93CF93DF93CC
S1130420482E592E862E972EC42ED52E322E102FBE
S11304306E2C810E911CB92DA82D430C511CAC2C93
S1130440BD2C662D9B2D8A2DD4DF712E6718062DA9
S1130450070DDB2CCA2CC00ED11C8E91D52DC42DBA
S113046001500894C108D108132D8A916C91869F7C
S1130470802DE12C1124FD2DEC2D6081680F60830B
S113048020F4602F9B2D8A2D0EDF0A950894C10855
S1130490D108EE2051F0FD2DEC2D80818E0D80834E
S11304A020F4602F9B2D8A2DFEDE1A9509F0DDCFF6
S11304B07A9409F0CCCFDF91CF911F910F91FF90E7
S11304C0EF90DF90CF90BF90AF909F908F907F90F0
S11304D06F905F904F903F900895F92FE82FE40FAD
S11304E0F11DB72FA62FA40FB11D889482919E9160
S11304F0891F80834A95D1F78827881F99270895F3
S1130500F92FE82FE40FF11DB72FA62FA40FB11D6B
S1130510889482919E91890B80834A95D1F708959E
S1130520EF92FF920F931F93CF93DF93D92FC82F8E
S1130530E62EF72E042F122F101730F4802F811B74
S1130540682F8C2F9D2F55DFC00FD11DE10EF11C9C
S1130550FF2DEE2D04C00A951A9582918A931123DA
S113056011F00023C1F7DF91CF911F910F91FF90FC
S1130570EF900895E82FF92FE60FF11D812D912DAD
S11305806A9521F082918823D9F381E00895AF928E
S1130590BF92CF92DF92EF92FF920F931F93CF936C
S11305A0DF93E4EDF0E00F2EF1E4EF2EF1E0FF2E07
S11305B0F02D0F2EF1E8AF2EF1E0BF2EF02DD70174
S11305C084918D933196AA15BB05D1F7C4E1D1E08E
S11305D000E011E00F2EF0E4CF2EF1E0DF2EF02D3D
S11305E0D801FE0184918D933196AC15BD05D1F7E8
S11305F0E4E5F1E0A1E8B1E021EC31E084918D93F0
S113060031962A173B07D1F740E051E061E871E0E9
S113061081E491E081D0E4E9F0E08491D7018D9305
S11306207D013196AA15BB05C1F783E08093400193
S1130630FE018491D8018D938D012196AC15BD05E1
S1130640B9F740E051E063E081E491E00DD080E04F
S113065090E0DF91CF911F910F91FF90EF90DF9089
S1130660CF90BF90AF900895AF92BF92CF92DF9298
S1130670EF920F931F93CF93DF936C01C62F5A0110
S1130680662309F439C0D2E010E0C0FF1FC0DD23A7
S113069041F020E440E4B60181EC91E041DFD12F48
S11306A015C06894EE24E7F800E420E441E052E049
S11306B061EC71E0C601A3DE6894EE24E6F820E85C
S11306C041EC51E0B50181E092E026DEC695A1F04F
S11306D06894EE24E7F800E420E441E052E0B60137
S11306E0C6018DDE6894EE24E6F820E8A601B50183
S11306F081E092E011DEC9CF20E440E461EC71E0D6
S1130700C6010EDFDF91CF911F910F91EF90DF9023
S1130710CF90BF90AF900895AF92BF92CF92DF92E7
S1130720EF92FF920F931F93CF93DF936C01EB0132
S11307305A016894FF24F1F810E03BC08FAD80FFAC
S11307401FC0FF2041F020E440E4B60181EC91E0B9
S1130750E7DEF12E15C06894EE24E7F800E420E407
S113076041E052E061EC71E0C60149DE6894EE2498
S1130770E6F820E841EC51E0B50181E092E0CCDDFF
S1130780412F60E4CE01BFDD209799F06894EE24F8
S1130790E7F800E420E441E052E0B601C6012FDEB0
S11307A06894EE24E6F820E8A601B50181E092E021
S11307B0B3DD60E4CE01DEDE8111C0CF20E440E48D
S11307C061EC71E0C601ACDEDF91CF911F910F9116
S11307D0FF90EF90DF90CF90BF90AF900895FB0112
S11307E0DC0102C001900D9241505040D8F70895A9
S10707F0F894FFCFA7
S9030000FC
