S00E00005465737465722E737265639F
S113000049C0000066C0000064C0000062C0000077
S113001060C000000C94DE120C940A130C9440137C
S11300200C94761356C0000054C0000052C0000067
S113003050C000004EC000004CC000004AC0000088
S113004048C0000046C0000044C0000042C0000098
S113005040C000003EC000003CC000003AC00000A8
S113006038C0000036C0000034C0000032C00000B8
S113007030C000002EC000002CC000002AC00000C8
S113008028C0000026C0000024C0000022C00000D8
S113009020C0000011241FBECFEFD0E1DEBFCDBFD2
S11300A012E0A0E0B1E0E6E2F9E200E00BBF02C03A
S11300B007900D92A23DB107D9F722E0A2EDB2E07C
S11300C001C01D92A53DB207E1F70E944A140C94A9
S11300D0911496CFCF93DF93F89481E08093D80066
S11300E084E38093DB001092DA0080E0CDEED0E070
S11300F0AFEEB0E0EEEEF0E0982F9295907F98830B
S11301001C9210828F5F8F30B9F786E08093E200F3
S11301108CE08093E30087E38093E4001092E50091
S113012082E08093D8007894DF91CF910895FB0109
S11301308295807F8093ED009B01285F3F4FAAEF5B
S1130140B0E08C9181932E173F07D9F708950F9350
S11301501F93CF938C01C0E0B8018C2FE8DF085FB8
S11301601F4FCF5FC830C1F7CF911F910F910895F2
S1130170982F9295990F907E9093F300869586958B
S113018086958093F2001092F00008958FEF80938B
S1130190F7008093F6001092F4000895FC019C018E
S11301A0285F3F4FAAEFB0E081918C932E173F0751
S11301B0D9F70895CF93DF93EA018295807F8093E6
S11301C0ED00862FD5DFCE01E9DF88E48093EF00D0
S11301D080E090E0DF91CF910895EF92FF920F932A
S11301E01F93CF93DF93082F862F7901102F129539
S11301F0107FCDEED0E0188321E030E0002E02C065
S1130200220F331F0A94E2F72093DE00B1DFBEDF32
S113021088E88093EF0018831883EAEDF0E080818A
S11302208823ECF78091EE0085FF0EC01092EE005B
S11302301092DE00EAEDF0E080818083B701802F28
S113024076DF80E090E002C081E090E0DF91CF9122
S11302501F910F91FF90EF9008950F931F93CF93E9
S11302608C01C0E0A8016C2F8C2FA4DF085F1F4F06
S1130270CF5FC830B9F780E090E0CF911F910F9124
S11302800895CF92DF92EF92FF920F931F93CF9333
S1130290DF937C01EBEDF0E0808184608083C0E03B
S11302A00F2EFDEECF2ED12CF02D0FEE10E0D8EC5A
S11302B08C2F8295807FF60180838C2F59DF66DF37
S11302C0F801D083CF5FC83099F7EAEDF0E0808180
S11302D08823ECF78091DA0084FF19C080E0CDEE2A
S11302E0D0E0AFEEB0E0EEEEF0E0982F9295907F84
S11302F098831C9210828F5F8830B9F7EAEDF0E0A2
S113030080818083C70123DF80E090E002C081E028
S113031090E0DF91CF911F910F91FF90EF90DF90CC
S1130320CF900895DC01E8EBF1E0E61BF1090994B4
S11303301D921D921D921D921D921D921D921D9241
S11303401D921D921D921D921D921D921D921D9231
S11303501D921D921D921D921D921D921D921D9221
S11303601D921D921D921D921D921D921D921D9211
S11303700895CF93DF93440FEB01DC01E3E0F2E057
S1130380E41BF109099409900D9209900D920990CA
S11303900D9209900D9209900D9209900D92099079
S11303A00D9209900D9209900D9209900D92099069
S11303B00D9209900D9209900D9209900D92099059
S11303C00D9209900D9209900D9209900D92099049
S11303D00D9209900D9209900D9209900D92099039
S11303E00D9209900D9209900D9209900D92099029
S11303F00D9209900D9209900D9209900D92099019
S11304000D9209900D92DF91CF910895262F062E1B
S1130410000C330B21503109322F330F230FDC0131
S1130420E7E7F2E0E21BF109A60FB11D0E90069476
S11304300C9209940E9007940C920E9007940C92CF
S11304400E9007940C920E9007940C920E900794C1
S11304500C920E9007940C920E9007940C920E90AE
S113046007940C920E9007940C920E9007940C92A1
S11304700E9007940C920E9007940C920E90079491
S11304800C920E9007940C920E9007940C920E907E
S113049007940C920E9007940C920E9007940C9271
S11304A00E9007940C920E9007940C920E90079461
S11304B00C920E9007940C920E9007940C920E904E
S11304C007940C920E9007940C920E9007940C9241
S11304D00E9007940C920E9007940C920E90079431
S11304E00C920E9007940C920E9007940C9208951F
S11304F0CF93DF93220FDB01EA01AC01E4ECF2E0DD
S1130500E21BF10988940994FA013EC0FA0140C043
S1130510FA0142C0FA0144C0FA0146C0FA0148C0D7
S1130520FA014AC0FA014CC0FA014EC0FA0150C0A7
S1130530FA0152C0FA0154C0FA0156C0FA0158C077
S1130540FA015AC0FA015CC0FA015EC0FA0160C047
S1130550FA0162C0FA0164C0FA0166C0FA0168C017
S1130560FA016AC0FA016CC0FA016EC0FA0170C0E7
S1130570FA0172C0FA0174C0FA0176C0FA0178C0B7
S1130580FA017AC0FA017CC08D919991891F8193F7
S11305908D919991891F81938D919991891F81934F
S11305A08D919991891F81938D919991891F81933F
S11305B08D919991891F81938D919991891F81932F
S11305C08D919991891F81938D919991891F81931F
S11305D08D919991891F81938D919991891F81930F
S11305E08D919991891F81938D919991891F8193FF
S11305F08D919991891F81938D919991891F8193EF
S11306008D919991891F81938D919991891F8193DE
S11306108D919991891F81938D919991891F8193CE
S11306208D919991891F81938D919991891F8193BE
S11306308D919991891F81938D919991891F8193AE
S11306408D919991891F81938D919991891F81939E
S11306508D919991891F81938D919991891F81938E
S11306608D919991891F81938D919991891F81937E
S11306708D919991891F81938D919991891F81936E
S11306808D919991891F8193812D881FDF91CF913D
S11306900895CF93DF93220FDB01EA01AC01E5E972
S11306A0F3E0E21BF10988940994FA013EC0FA01CF
S11306B040C0FA0142C0FA0144C0FA0146C0FA013E
S11306C048C0FA014AC0FA014CC0FA014EC0FA010E
S11306D050C0FA0152C0FA0154C0FA0156C0FA01DE
S11306E058C0FA015AC0FA015CC0FA015EC0FA01AE
S11306F060C0FA0162C0FA0164C0FA0166C0FA017E
S113070068C0FA016AC0FA016CC0FA016EC0FA014D
S113071070C0FA0172C0FA0174C0FA0176C0FA011D
S113072078C0FA017AC0FA017CC08D919991890B45
S113073081938D919991890B81938D919991890BD5
S113074081938D919991890B81938D919991890BC5
S113075081938D919991890B81938D919991890BB5
S113076081938D919991890B81938D919991890BA5
S113077081938D919991890B81938D919991890B95
S113078081938D919991890B81938D919991890B85
S113079081938D919991890B81938D919991890B75
S11307A081938D919991890B81938D919991890B65
S11307B081938D919991890B81938D919991890B55
S11307C081938D919991890B81938D919991890B45
S11307D081938D919991890B81938D919991890B35
S11307E081938D919991890B81938D919991890B25
S11307F081938D919991890B81938D919991890B15
S113080081938D919991890B81938D919991890B04
S113081081938D919991890B81938D919991890BF4
S113082081938D919991890B8193812D881FDF91FB
S1130830CF910895CF93DF93FC01DB01EA0190E0AF
S1130840892F392F492F51E060E0C50FD41F0D9037
S11308501A90019C900D811D341F63956517B8F3A0
S1130860A51BB40B9193982F832F342F53955217B4
S113087058F3522FC20FD41F60E00D901A90019CC0
S1130880900D811D341F63956517B8F3C50FD41FF0
S11308909193982F832F342F5A95A51BB40B54177B
S11308A059F791931124DF91CF91089516167CF492
S11308B0FC016150462F50E04F5F5F4F480F591FB6
S11308C090E02191922BE417F507D9F701C090E04D
S11308D081E0911180E008959B0135952795359528
S11308E0279535952795820F931F6770772721E009
S11308F030E002C0220F331F6A95E2F7FC018081C9
S1130900822308959C01615092F0FC01E60FF11DD1
S113091067FDFA95808181110AC0615042F0F901A6
S1130920E60FF11D67FDFA9590819923B1F36F5F8E
S1130930E9F0260F311D67FD3A95F9013197808161
S1130940882331F020E086952F5F8111FCCF01C010
S113095020E0862F660F990B0197880F991F880F47
S1130960991F880F991F820F911D089580E090E0D0
S11309700895DC0141502AF1842F042E000C990BB8
S1130980FD01E80FF91F2081FB01E80FF91F8081A9
S11309908217C8F0281788F418C0242F042E000CDE
S11309A0330BFD01E20FF31F5081FB01E20FF31F34
S11309B09081951760F0591760F0415072F780E00C
S11309C0089580E0089581E008958FEF089581E00F
S11309D008958FEF08951F93CF93DF93EC01DB010C
S11309E010E0EDB7FEB7B5970FB6F894FEBF0FBE93
S11309F0EDBF3196909693E081ED2D913D914D910F
S1130A005D91829F0192612D70E0839F600D711D45
S1130A10929F600D711D619360E0849F700D611D54
S1130A20939F700D611D719370E0859F600D711D22
S1130A30949F600D711D619360E0720F661F2D918C
S1130A40829F700D611D959F700D611D719370E003
S1130A50630F771F3D91839F600D711D929F600D01
S1130A60711D619360E0740F661F4D91849F700D3A
S1130A70611D939F700D611D719370E0650F771F69
S1130A805D91859F600D711D949F600D711D619333
S1130A9060E0720F661F2D91829F700D611D959FFE
S1130AA0700D611D719370E0630F771F3D91839FFB
S1130AB0600D711D929F600D711D619360E0740F54
S1130AC0661F4D91849F700D611D939F700D611D74
S1130AD0719370E0650F771F5D91859F600D711DA7
S1130AE0949F600D711D619360E0720F661F2D91DC
S1130AF0829F700D611D959F700D611D719370E053
S1130B00630F771F3D91839F600D711D929F600D50
S1130B10711D619360E0740F661F4D91849F700D89
S1130B20611D939F700D611D719370E0650F771FB8
S1130B305D91859F600D711D949F600D711D619382
S1130B4060E0720F661F2D91829F700D611D959F4D
S1130B50700D611D719370E0630F771F3D91839F4A
S1130B60600D711D929F600D711D619360E0740FA3
S1130B70661F4D91849F700D611D939F700D611DC3
S1130B80719370E0650F771F5D91859F600D711DF6
S1130B90949F600D711D619360E0720F661F2D912B
S1130BA0829F700D611D959F700D611D719370E0A2
S1130BB0630F771F3D91839F600D711D929F600DA0
S1130BC0711D619360E0740F661F4D91849F700DD9
S1130BD0611D939F700D611D719370E0650F771F08
S1130BE05D91859F600D711D949F600D711D6193D2
S1130BF060E0720F661F2D91829F700D611D959F9D
S1130C00700D611D719370E0630F771F3D91839F99
S1130C10600D711D929F600D711D619360E0740FF2
S1130C20661F4D91849F700D611D939F700D611D12
S1130C30719370E0650F771F5D91859F600D711D45
S1130C40949F600D711D619360E0720F661F2D917A
S1130C50829F700D611D959F700D611D719370E0F1
S1130C60630F771F3D91839F600D711D929F600DEF
S1130C70711D619360E0740F661F4D91849F700D28
S1130C80611D939F700D611D719370E0650F771F57
S1130C905D91859F600D711D949F600D711D619321
S1130CA060E0720F661F959F700D611D719370E077
S1130CB0630F771F619360E0740F661F719370E098
S1130CC0650F771F619371931124B597A054B109EF
S1130CD021913D91230F299321913D91231F299324
S1130CE021913D91231F299321913D91231F299304
S1130CF021913D91231F299321913D91231F2993F4
S1130D0021913D91231F299321913D91231F2993E3
S1130D1021913D91231F299321913D91231F2993D3
S1130D2021913D91231F299321913D91231F2993C3
S1130D3021913D91231F299321913D91231F2993B3
S1130D4021913D91231F299321913D91231F2993A3
S1130D5021913D91231F299321913D91231F299393
S1130D6021913D91231F299321913D91231F299383
S1130D7021913D91231F299321913D91231F299373
S1130D8021913D91231F299321913D91231F299363
S1130D9021913D91231F299321913D91231F299353
S1130DA021913D91231F299321913D91231F299343
S1130DB021913D91231F299321913D91231F299333
S1130DC021913D91231F299321913D91231F299323
S1130DD0111DA09790972191319141915191829F3A
S1130DE00D92612D70E0839F600D711D929F600DC7
S1130DF0711D6D9360E0849F700D611D939F700D54
S1130E00611D7D9370E0859F600D711D949F600D41
S1130E10711D6D9360E0720F661F2191829F700DAA
S1130E20611D959F700D611D7D9370E0630F771FA9
S1130E30929F600D711D6D9360E0740F661F7D932A
S1130E4070E0650F771F6D9360E0720F661F7D93EE
S1130E506D9311241A972D913881230F29932D9185
S1130E603881231F29932D913881231F29932D9194
S1130E703881231F29932D913881231F29932D9184
S1130E803881231F29932D913881231F29932D9174
S1130E903881231F29932D913881231F29932D9164
S1130EA03881231F29932881211D29932881211DFD
S1130EB029932881211D29932881211D2993288183
S1130EC0211D29932881211D29932881211D2993DE
S1130ED02881211D29932881211D29932881211DE1
S1130EE029932881211D29932881211D2993288153
S1130EF0211D29932881211D29932881211D2993AE
S1130F002881211D29932881211D29932881211DB0
S1130F1029932881211D29932881211D2993288122
S1130F20211D29932881211D2993111DA0973197F3
S1130F300FB6F894FEBF0FBEEDBF112371F020E28F
S1130F4044EC51E0BE01CE01A4DB113031F020E2CB
S1130F5044EC51E0BE01CE019CDB40E264EC71E064
S1130F60CE0107DD181634F420E244EC51E0BE0152
S1130F70CE018FDBDF91CF911F9108950F931F93C3
S1130F80CF93DF93CDB7DEB7A0970FB6F894DEBF4B
S1130F900FBECDBF142F242FAB01BC01CE0101968F
S1130FA078DB082F612FCE01019680DC91E081115E
S1130FB090E081E0011101C080E0880F981B892F27
S1130FC0A0960FB6F894DEBF0FBECDBFDF91CF91D0
S1130FD01F910F910895EF92FF920F93CF93DF9398
S1130FE0EC017901202F84DA811106C0402FBE0163
S1130FF0C701BFDC813029F0202FA701BE01CE013B
S113100048DBDF91CF910F91FF90EF900895EF921D
S1131010FF920F93CF93DF93EC017901202F39DBFB
S1131020882329F0202FA701BE01CE0161DADF91C8
S1131030CF910F91FF90EF9008952F923F924F928E
S11310405F926F927F928F929F92AF92BF92CF9254
S1131050DF92EF92FF920F931F93CF93DF93CDB75D
S1131060DEB7CC5CD1090FB6F894DEBF0FBECDBF9E
S1131070C753DF4F99838883C95CD040C22ED32ED7
S1131080A02E202F8E010F5F1F4FC801D3DBCE018E
S11310908F5B9F4FCF53DF4F99838883C15CD040D0
S11310A0CD53DF4F19830883C35CD0408A2C0A2CAC
S11310B0000C99086A2D8C2D9D2D24DC3401660CBE
S11310C0771C660C771C660C771C660C771C681AF8
S11310D0790A73011AF427E0E20EF11CF594E794FF
S11310E0F594E794F594E794C30187709078992375
S11310F024F40197886F9F6F0196182F6E2DCE01EF
S11311008F579F4F0FD91116C4F5AA2009F441C077
S1131110AC2DBD2D0E2C000CFF08E1E8F0E0EC0F27
S1131120FD1FEE0DFF1D8FEF8A0D90E00196E80E76
S1131130F91E41E850E04C0F5D1F4E0D5F1D00E0AD
S113114068E070E0611B710917FD73959D91892F0B
S113115090E09C01012E02C0220F331F0A94E2F793
S1131160202B2193062E02C0959587950A94E2F7C9
S1131170082FE417F50751F70CC04A2D6C2D7D2D6F
S113118081E890E08C0F9D1F8E0D911DE7FC9A95D0
S1131190F0D877200CF4A6C08401000F111FBB24E3
S11311A0B39444244394512C7E0131E8E30EF11CA2
S11311B0C953DF4FE882C75CD040C853DF4FF88281
S11311C0C85CD040DD24D394C12CC401019717011D
S11311D0280E391E8E0C9F1CC7018A0D911DA7FC79
S11311E09A95CB53DF4F99838883C55CD04057C011
S11311F0E62F062E000CFF0BDA01AE0FBF1FBC90CA
S1131200C553DF4FB882CB5CD0408E0D9F1DDC01EF
S11312108C91B81A8B2D871BC553DF4FB881CB5CDB
S1131220D040B81721F07D2DB81708F07C2DE20FBF
S1131230F31F80836F5F862F062E000C990B801797
S11312409107B4F2C453DF4FB880CC5CD04001C0E6
S113125070E081E0B71280E0B82E6A2DC953DF4FE9
S11312608881C75CD040C853DF4F9881C85CD040A8
S1131270CDD8F4018081F0E88F9FC0011124D10101
S11312809C91892B8C936A2DCB53DF4F8881998154
S1131290C55CD040BBD8B1E06B1A710828F11016B8
S11312A01106B4F68B2D90E0FC01EE0FFF1F21EC2C
S11312B030E02C0F3D1FE20FF31F40815181F201FA
S11312C0E81BF90BEE0FFF1FE20FF31F20813181A2
S11312D070E080E090E060E0C453DF4FB882CC5C03
S11312E0D04086CFBB24B394EB2DF0E0EE0FFF1F6C
S11312F081EC90E08C0F9D1FE80FF91F60817181D4
S11313004A2DC753DF4F88819981C95CD04031D8B9
S1131310C453DF4F0FB6F894DEBF0FBECDBFDF91CD
S1131320CF911F910F91FF90EF90DF90CF90BF90DE
S1131330AF909F908F907F906F905F904F903F9071
S11313402F900895EF92FF920F931F93CF93DF9303
S1131350CDB7DEB7C054D1090FB6F894DEBF0FBEC7
S1131360CDBF7C018901F9012081CE01019662DAA9
S1131370F801E655FF4F0190F081E02DBE016F5F4B
S11313807F4FC7010995C05CDF4F0FB6F894DEBFED
S11313900FBECDBFDF91CF911F910F91FF90EF90C2
S11313A008959A01AB01CECF08950F931F93CF9365
S11313B0DF938C01C42FFC01808180FF15C0242F92
S11313C0AB01B801C80194D8D82F6C2FC8011ED81E
S11313D0DD2369F0EC2FCC0FFF0B3197E00FF11FE9
S11313E080818068808303C0642FC8010FD8DF9197
S11313F0CF911F910F910895AF92BF92CF92DF9238
S1131400EF92FF921F93CF93DF93CDB7DEB7C0580F
S1131410D1090FB6F894DEBF0FBECDBF5C016B01DE
S11314207A01122F622FC60141DA882329F0612F35
S1131430C5010E949201ABC0412FB601CE010196B5
S11314400E94B901412FB701CE0181960E94B901D2
S1131450612FCE018F5B9F4F0E94920181E0229603
S11314608FAF2297612FCE018F599F4F0E94920117
S11314707EC0998190FD0CC0612FCE0101960E941F
S11314800602412FB701CE018F5B9F4F8EDF6FC0E5
S113149099A190FD0CC0612FCE0181960E94060295
S11314A0412FB701CE018F599F4F7FDF60C01816BF
S11314B07CF5212FAE014F5D5F4FBE016F5F7F4F03
S11314C0CB01E7D8612FCE0101960E940602412F7D
S11314D0BE016F597F4FCE018F5B9F4F4ADA88233D
S11314E03CF4212FA701BE016F5B7F4FCB0100D8D5
S11314F0212FAE014F595F4FBE016F5B7F4FCB0170
S1131500C8D8412FB701CE018F5B9F4F4EDF2FC04C
S1131510212FAE014F5F5F4FBE016F5D7F4FCB0147
S1131520B8D8612FCE0181960E940602412FBE01D8
S11315306F5B7F4FCE018F599F4F1BDA882344F492
S1131540212FA701BE016F597F4FCB010E94780262
S1131550212FAE014F5B5F4FBE016F597F4FCB010F
S113156098D8412FB701CE018F599F4F1EDF412FCD
S1131570BE016F5D7F4FCE010196FBD9811179CFFA
S1131580412FBE016F5B7F4FC5010E94B901C05856
S1131590DF4F0FB6F894DEBF0FBECDBFDF91CF9102
S11315A01F91FF90EF90DF90CF90BF90AF90089580
S11315B0BF92CF92DF92EF92FF920F931F93CF933C
S11315C0DF93CDB7DEB7C054D1090FB6F894DEBFB0
S11315D00FBECDBF6C017B0190E28E010F5F1F4FE8
S11315E0D801E92F1D92EA95E9F781E08983FE018C
S11315F0B196DF011D929A95E9F789A3FB01B080AA
S11316006C5F7F4F2B2DA801C8010E9478026B2DBF
S1131610C80178D98C010150110902301105C4F0B8
S1131620A701BE016F5D7F4FCB01BBDEB801CE01C8
S1131630019652D9882339F09701A601BE016F5D46
S11316407F4FCB017FDE015011090130110541F7B5
S11316504B2DBE016F5D7F4FC6010E94B901C05C76
S1131660DF4F0FB6F894DEBF0FBECDBFDF91CF9131
S11316701F910F91FF90EF90DF90CF90BF9008954E
S11316808F929F92AF92BF92CF92DF92EF92FF928E
S11316900F931F93CF93DF93CDB7DEB7C054D10917
S11316A00FB6F894DEBF0FBECDBF6C017B018A017B
S11316B0590160E2CA01FAD8811171C0A501B701CC
S11316C0CE0181966EDE9501AE014F5D5F4FB6018E
S11316D0CE01019637DEA501B601C60162DEA50181
S11316E0BE016F5D7F4FCB015CDE9501A801B701A0
S11316F0C80128DE450124E0820E911C00E2940119
S1131700A601B601C70167DC9401A601B701C701B0
S113171062DC60E070E0C701DFD88823A1F020E23A
S1131720A401B701C7010E947802182F60E2C70123
S11317300E940602E0E81E9FC0011124F701978D64
S1131740892B878F04C060E2C7010E940602A501AD
S1131750B701C60126DE00E29401AE014F5F5F4F80
S1131760B601C60154DC9401AE014F5F5F4FB60170
S1131770C6014DDC9401A601BE016F5F7F4FCB0112
S113178046DC9501AE014F5F5F4FB701C701DADD5B
S11317909401AE014F5D5F4FB701C70138DCC05CF7
S11317A0DF4F0FB6F894DEBF0FBECDBFDF91CF91F0
S11317B01F910F91FF90EF90DF90CF90BF90AF906B
S11317C09F908F900895EF92FF920F931F93CF9362
S11317D0DF937C018B01EA01E4DD9E01A801B701DE
S11317E0C701B0DD9E012C5F3F4FAE014C575F4FE8
S11317F000E2B701C701EFDBDF91CF911F910F9199
S1131800FF90EF900895AF92BF92CF92DF92EF9244
S1131810FF920F931F93CF93DF93CDB7DEB7A097BB
S11318200FB6F894DEBF0FBECDBF5C017B016A0129
S11318308901A901B601CE010196B3DD9801AE017B
S11318404F5F5F4FB501C5017DDD9801A601BE0163
S11318506F5F7F4FCB0176DD9801AE014F5F5F4F25
S1131860B701C7016FDDA0960FB6F894DEBF0FBEB7
S1131870CDBFDF91CF911F910F91FF90EF90DF903B
S1131880CF90BF90AF9008954F925F926F927F92E6
S11318908F929F92AF92BF92CF92DF92EF92FF927C
S11318A00F931F93CF93DF93CDB7DEB7A0970FB6F7
S11318B0F894DEBF0FBECDBF3C012B017A01590164
S11318C06801F80110814601F4E08F0E911C012F8C
S11318D09401AC01B701CE01019699DBA601BE01CA
S11318E06F5F7F4FCB015DDD9601AE014F5F5F4FB0
S11318F0B301C30127DD9601AE014F5F5F4FB7010E
S1131900C70120DD9401A201B501C50180DBA60158
S1131910B501CE01019645DD9401A301BE016F5FBF
S11319207F4FCB0174DB9401A701BE016F5F7F4F32
S1131930CB016DDB9401A301B701C70168DB9601FC
S1131940A701B201C201FEDC9401AE014F5F5F4FFB
S1131950B301C7015CDB9601A701B501C501F2DC47
S11319609401A201B501C50152DB412FBE016F5F95
S11319707F4FC7010E94B901A0960FB6F894DEBF4D
S11319800FBECDBFDF91CF911F910F91FF90EF90CC
S1131990DF90CF90BF90AF909F908F907F906F908B
S11319A05F904F9008954F925F926F927F928F92C3
S11319B09F92AF92BF92CF92DF92EF92FF920F93DA
S11319C01F93CF93DF93CDB7DEB7C056D1090FB6BF
S11319D0F894DEBF0FBECDBF4C012B015A01390173
S11319E06801F80110817601F4E0EF0EF11C012F7B
S11319F09701AC01B501CE01019609DBA601BE0138
S1131A006F5F7F4FCB01CDDC9601AE014F5F5F4F1F
S1131A10B401C40197DC9601AE014F5F5F4FB5017D
S1131A20C50190DC9701A201B301CE010196D3DA7E
S1131A309701A201B301C301EADA9701A401B50138
S1131A40CE018196E4DA9601AE014F5D5F4FB2019B
S1131A50C20178DC9701A501B401CE018196BBDAFD
S1131A60A601B301C5019DDC9701AE014F5D5F4F37
S1131A70B501C501CCDA9701A501B401CE018F5B94
S1131A809F4FC5DA9601AE014F5B5F4FB301C301AF
S1131A9059DC9701A201B301C301B9DAA601BE0161
S1131AA06F5F7F4FCE018F5B9F4F7BDC9701AE0151
S1131AB04F5D5F4FBE016F5B7F4FCB01A8DA97018B
S1131AC0A401BE016F5B7F4FCE018196A0DA96011F
S1131AD0AE014F5F5F4FBE016F5D7F4FCB0132DCC4
S1131AE09701A201BE016F5D7F4FC20190DA412FC1
S1131AF0BE016F5B7F4FC4010E94B901C05ADF4F22
S1131B000FB6F894DEBF0FBECDBFDF91CF911F910A
S1131B100F91FF90EF90DF90CF90BF90AF909F9088
S1131B208F907F906F905F904F9008952F923F9287
S1131B304F925F926F927F928F929F92AF92BF92D9
S1131B40CF92DF92EF92FF920F931F93CF93DF9385
S1131B50CDB7DEB7CB5CD1090FB6F894DEBF0FBEAC
S1131B60CDBFC653DF4F99838883CA5CD040CC5322
S1131B70DF4F79836883C45CD040CF53DF4F5983F0
S1131B804883C15CD04069011701F701F081CD534E
S1131B90DF4FF883C35CD0404F2FCE0181960E9463
S1131BA0B901CD53DF4F2881C35CD040022E000C15
S1131BB0330BCA53DF4F39832883C65CD040CC53E0
S1131BC0DF4F88819981C45CD040820F931FC85332
S1131BD0DF4F99838883C85CD040CD53DF4F488161
S1131BE0C35CD040BC01CE018F599F4F0E94B90104
S1131BF0F701B080C114D10441F04B2DB601CE01E0
S1131C008F559F4F0E94B9010CC06B2DCE018F558B
S1131C109F4F0E94920181E0CF55DF4F8883C15AC4
S1131C20D0404B2DBE016F5D7F4FCE0101960E94C7
S1131C30B9010F2EF1E4EF2EF12CF02DEC0EFD1E68
S1131C40F0E2EF0EF11C4B2DB701CE018F5B9F4FDD
S1131C500E94B9019101AE014F555F4FB701CE010A
S1131C608196D1DDF101EC55FF4F0190F081E02D1B
S1131C709101AE014F555F4FB701CE018196099591
S1131C809101AE014F555F4FBE016F5B7F4FCE0197
S1131C900196B9DD580122E0A21AB1081A141B04F6
S1131CA00CF053C044244394512CB501CF53DF4F5F
S1131CB088819981C15CD0400E946C049201882380
S1131CC011F020E030E03901660C771C660C771CBB
S1131CD0660C771C660C771C660C771C0F2EF1E4DF
S1131CE0CF2ED12CF02DCC0EDD1EC60CD71C81E0DE
S1131CF090E08C0F9D1F680E791E7201E21AF30AA0
S1131D00EE0CFF1CEE0CFF1CEE0CFF1CEE0CFF1C7B
S1131D10EE0CFF1C0F2EF1E48F2E912CF02D8C0E67
S1131D209D1E8E0C9F1CE80EF91E81019601A301D5
S1131D30B401C70138DE9401A701B601C301A4DDD3
S1131D4091E0A91AB10809F0B0CF60E070E0CF5378
S1131D50DF4F88819981C15CD0400E946C0421E0EE
S1131D6030E0882311F020E030E06901CC0CDD1C68
S1131D70CC0CDD1CCC0CDD1CCC0CDD1CCC0CDD1C1B
S1131D800F2EF1E48F2E912CF02D8C0E9D1E8C0CB9
S1131D909D1CE1E0F0E0EC0FFD1FCE0EDF1E81E0A4
S1131DA090E07C01E21AF30AEE0CFF1CEE0CFF1C1F
S1131DB0EE0CFF1CEE0CFF1CEE0CFF1C0F2EF1E4CE
S1131DC0AF2EB12CF02DAC0EBD1EAE0CBF1CEE0E12
S1131DD0FF1E81019401A601B501C701E4DD3101B3
S1131DE0F4E06F0E711CCD53DF4F0881C35CD0400B
S1131DF09301AE014F5F5F4FBE016F5D7F4FCE0118
S1131E008F579F4F04D99101A501BE016F577F4F92
S1131E10CB0198DA9101CC53DF4F48815981C45CDE
S1131E20D040BE016F577F4FCB018CDACD53DF4FCB
S1131E302881C35CD040A301BE016F577F4FCB0103
S1131E40DBDA9101C853DF4F48815981C85CD04027
S1131E50BE016F577F4FCB0175DA9101A701BE0117
S1131E606F577F4FCB016EDA81019501A701B40151
S1131E70C6010ADD9101AE014F575F4FBE016F5B92
S1131E807F4FCE010196BFDCCD53DF4F4881C35C49
S1131E90D040BE016F5F7F4FC653DF4F8881998169
S1131EA0CA5CD0400E94B901CD53DF4F4881C35C66
S1131EB0D040BE016F5B7F4FC653DF4F888199814D
S1131EC0CA5CD040CA53DF4F28813981C65CD040F8
S1131ED0820F931F0E94B901C553DF4F0FB6F894C8
S1131EE0DEBF0FBECDBFDF91CF911F910F91FF9049
S1131EF0EF90DF90CF90BF90AF909F908F907F90A6
S1131F006F905F904F903F902F900895AF92BF9243
S1131F10CF92DF92EF92FF920F931F93CF93DF93B1
S1131F207B015A01F901C280D380A601495F5F4F4A
S1131F30EA01DD230CF42796D595C795D595C79569
S1131F40D595C79589010C5D1F4F2C2FA801BC01A5
S1131F50C7010E947802811111C028E0C202C001A9
S1131F601124C816D9066CF4B601C7010E946C048A
S1131F7091E0811101C090E0D92E04C0DD24D394F6
S1131F8001C0D12C2C2FA801B701C5010E947802F1
S1131F908D2DDF91CF911F910F91FF90EF90DF90E6
S1131FA0CF90BF90AF900895CF93DF93DC011616C6
S1131FB01706CCF420E030E090E0EB012197FE011D
S1131FC0E21BF30BE40FF51F2081FD01E90FF11D66
S1131FD097FDFA9520839F5F292F092E000C330B60
S1131FE02617370764F3DF91CF9108959F92AF923C
S1131FF0BF92CF92DF92EF92FF920F931F93CF93F2
S1132000DF938C015B01D42F642FC5010E948204ED
S11320102091D2023091D302232BC1F148E0D402A3
S113202090011124281B390B8FEF90E002C0959585
S113203087952A95E2F7982EC0E4CD2E0D2E000C3C
S1132040DD08760181E0E81AF108E00EF11EE09166
S1132050D202F091D302B601C80109950097D9F0D4
S1132060F7018081892180836D2FC8010E94560465
S1132070811107C04D2FB801C5010E94BE078130F0
S113208041F0C15021F780E090E005C080E090E08D
S113209002C081E090E0DF91CF911F910F91FF90FA
S11320A0EF90DF90CF90BF90AF909F9008958F9264
S11320B09F92AF92BF92CF92DF92EF92FF920F93D3
S11320C01F93CF93DF938C014B017901F901828136
S11320D093810796EC010AF42796D595C795D59573
S11320E0C795D595C795CC2EDD2E56014C155D05AB
S11320F008F45A016C2FC8010E949201A401B50191
S1132100C80152DFAA0CBB1CAA0CBB1CAA0CBB1C2A
S1132110F701828193818A159B05A0F5B501681B9F
S1132120790BF801EC0DFD1D0E171F07D8F4D8012B
S1132130D12C48E050E0461B570B9291292F30E0F8
S1132140C901062E02C0959587950A94E2F78D2958
S11321508083042E01C0220F0A94EAF7D22EAE1710
S1132160BF0759F7F4E2EF0EF11C4C2FB801C70179
S11321700E94B904813031F02C2FA701B801C801A5
S11321800E944903DF91CF911F910F91FF90EF902F
S1132190DF90CF90BF90AF909F908F9008953F9223
S11321A04F925F926F927F928F929F92AF92BF9263
S11321B0CF92DF92EF92FF920F931F93CF93DF930F
S11321C0CDB7DEB7CA58D1090FB6F894DEBF0FBE3B
S11321D0CDBFCB57DF4F99838883C558D040C957AB
S11321E0DF4F79836883C758D040C757DF4F59837F
S11321F04883C958D040590128016701CE0101968E
S113220023969FAF8EAF2397809625969FAF8EAF70
S11322102597F7013080632DC9010E94560481116E
S1132220F3C0F701028113819801295F3F4FC9016F
S113223099230CF407964C0195948794959487946C
S1132240959487943601F4E26F0E711C482DB50104
S1132250C3010E94BE07813009F0D9C09601AE01C6
S11322604F5D5F4FBE016F5F7F4FC5014FDE0F5F54
S11322701F4F21E030E0882311F020E030E0220FEE
S1132280331FE1E4F0E0EC0FFD1FE20FF31F408188
S11322905181760120E030E0B6016C5B7F4FCE01C6
S11322A08B5B9F4F43DC632DCE018B5B9F4F0E9462
S11322B056048111AFC08091D2029091D302892B30
S11322C041F4682DCE0101960E94920181E0898338
S11322D008C0482DB301CE01019688DE009709F4A9
S11322E09EC0082D9301AE014F5F5F4FB501C5013C
S11322F00E941D08282DA301B501C5017DD89301B5
S1132300AE014F5F5F4FB501C5010E941D08F60184
S11323106181062E000C770BAE014B5B5F4FC2014F
S113232043DEF601828193810796BC0112F4695F52
S11323307F4F759567957595679575956795CB5797
S1132340DF4F48815981C558D040CE0101962CDE1B
S1132350FE01E80DF11D87FCFA9510A2432DBE0184
S11323606B5B7F4FCE0181960E94B901082D9301CA
S1132370AE014F5D5F4FBE016F5F7F4FCA010E9488
S11323801D089601C757DF4F48815981C958D0406D
S1132390C957DF4F68817981C758D040CE01019673
S11323A086DE9301AE014F5D5F4FBE016F5F7F4FCD
S11323B0CA010E94EB079301A501BE016F5D7F4F27
S11323C0CB010E941D08682DCE0181960E948204D3
S11323D0F6012181622F022E000C770BAB01440F12
S11323E0551F440F551F440F551F48175907ACF08C
S11323F0AE014F5D5F4FC201820F911D27FD9A957B
S1132400D3DD81E090E00BC080E090E008C080E084
S113241090E005C080E090E002C080E090E0C65704
S1132420DF4F0FB6F894DEBF0FBECDBFDF91CF9163
S11324301F910F91FF90EF90DF90CF90BF90AF90DE
S11324409F908F907F906F905F904F903F900895F2
S113245080EC91E008953F924F925F926F927F9249
S11324608F929F92AF92BF92CF92DF92EF92FF92A0
S11324700F931F93CF93DF93CDB7DEB7A2970FB619
S1132480F894DEBF0FBECDBF3C014B015A013AA305
S113249029A368016894332436F8280184E2480E9D
S11324A0511CF601828193810796AC0112F4495FB5
S11324B05F4F559547955595479555954795B20165
S11324C0CE01019693DD009791F0760109A11AA13E
S11324D09E012F5F3F4FA501B401C30160DE009749
S11324E021F43A943110DDCF02C081E090E0A2964D
S11324F00FB6F894DEBF0FBECDBFDF91CF911F9111
S11325000F91FF90EF90DF90CF90BF90AF909F908E
S11325108F907F906F905F904F903F9008951F939E
S1132520CF93DF936623F1F1A82FB92FE0E0F0E019
S113253010E070E02E2F8D91319690ED980F9A3027
S113254018F490E0C09711C09FEB980F963018F4E0
S113255090E0C7970AC09FE9980F963020F490E066
S11325608755910902C0812F972F2695EA01C20F42
S1132570D11D9F0121703078332334F42150310967
S11325802E6F3F6F2F5F3F4F220F331F220F331FDA
S113259002C0880F991F2A95E2F79881890F8883D2
S11325A0E61740F2DF91CF911F9108951DB880EF97
S11325B08EB99FEF90936A008DBB08951F920F927E
S11325C00FB60F9211240BB60F922F933F934F9394
S11325D05F936F937F938F939F93AF93BF93EF9387
S11325E0FF938CE692E06ED181E08093D402FF9158
S11325F0EF91BF91AF919F918F917F916F915F9177
S11326004F913F912F910F900BBE0F900FBE0F90E3
S11326101F9018951F920F920FB60F9211240BB6AC
S11326200F922F933F934F935F936F937F938F9367
S11326309F93AF93BF93EF93FF93CF93DF9300D018
S1132640CDB7DEB785E390E09A838983CE01019606
S113265039D10F900F90DF91CF91FF91EF91BF91FE
S1132660AF919F918F917F916F915F914F913F9126
S11326702F910F900BBE0F900FBE0F901F901895C7
S11326801F920F920FB60F9211240BB60F922F9335
S11326903F934F935F936F937F938F939F93AF93E6
S11326A0BF93EF93FF93CF93DF9300D0CDB7DEB703
S11326B086E390E09A838983CE01019603D10F903B
S11326C00F90DF91CF91FF91EF91BF91AF919F91C7
S11326D08F917F916F915F914F913F912F910F90C7
S11326E00BBE0F900FBE0F901F9018951F920F9264
S11326F00FB60F9211240BB60F922F933F934F9363
S11327005F936F937F938F939F93AF93BF93EF9355
S1132710FF93CF93DF9300D0CDB7DEB787E390E08C
S11327209A838983CE010196CDD00F900F90DF91CB
S1132730CF91FF91EF91BF91AF919F918F917F9135
S11327406F915F914F913F912F910F900BBE0F901E
S11327500FBE0F901F901895AF92BF92CF92DF9249
S1132760EF92FF920F931F93CF93DF93CDB7DEB712
S1132770C05AD1090FB6F894DEBF0FBECDBF5B01BE
S113278067DE8C017E0181E4E80EF11C80E2F70132
S113279011928A95E9F76E01F1E6CF0ED11C80E41F
S11327A0F60111928A95E9F7A70160E480E891E0C7
S11327B0B6DEA60160E880E091E0B1DE80E4F601D7
S11327C0DE01119601900D928A95E1F7950140E49E
S11327D050E0BE016F5F7F4FC7013DDE892B31F4AE
S11327E08DE792E06FD081E090E002C080E090E05D
S11327F0C056DF4F0FB6F894DEBF0FBECDBFDF91DA
S1132800CF911F910F91FF90EF90DF90CF90BF90E9
S1132810AF900895CF93DF93CDB7DEB7C05CD109F5
S11328200FB6F894DEBF0FBECDBF89E892E04AD060
S113283040E050E060E080E00E94DA00CE010196C2
S11328400E94410181EA92E03DD0BE016F5B7F4F5F
S1132850CE01019681DFCE018F5B9F4F0E942D0137
S113286084EB92E02FD09E012F573F4F40E060E071
S113287080E00E94ED0083EC92E024D080E090E0C0
S1132880C054DF4F0FB6F894DEBF0FBECDBFDF914B
S1132890CF9108950BD08ADE0E946A008091D40201
S11328A08130E1F71092D402B5DFF8CF1092C50061
S11328B083E38093C4008EE08093C20088E1809318
S11328C0C1000895CF93DF93FC0101900020E9F744
S11328D03197E81BF90B1E161F0684F4DC019C01DA
S11328E02E0F3F1FE0ECF0E0C6ECD0E0908195FFA6
S11328F0FDCF9D919883A217B307C1F7E0ECF0E0F8
S1132900808185FFFDCF8DE08093C600E0ECF0E090
S1132910808185FFFDCF8AE08093C600DF91CF914F
S10929200895F894FFCFB6
S113292635343631396134393830613833653931C3
S113293639396363343264383131656630376463F8
S11329466438363038633433393239653161336546
S113295634343361613034646561653866663839A8
S11329666534363135346131613037346165393334
S113297632623664313339356535363566636662B7
S113298631396464333932323731643465626564AB
S1132996643166656164616532646639313538640B
S11329A6393239393037383864363662663535382F
S11329B63035326431313266353439383131313774
S11329C634376233653238633535393834643433F1
S11329D66665643863383832326164396631613722
S11329E6202000012FFCFFFFFEFFFFFFFFFFFFFF7C
S11329F6FFFFFFFFFFFFFFFFFFFFFFFFFFFFFFFFDD
S1132A06FFFFFFFF414136D08C5ED2BF3BA048AFEB
S1132A16E6DCAEBAFEFFFFFFFFFFFFFFFFFFFFFF8F
S1132A26FFFFFFFF9817F8165B81F259D928CE2DC0
S1132A36DBFC9B02070B87CE9562A055ACBBDCF989
S1132A467E66BE79B8D410FB8FD0479C195485A6F0
S1132A5648B417FDA808110EFCFBA45D65C4A326A3
S1132A6677DA3A4807000000000000000000000082
S1132A76000000000000000000000000000000004C
S1132A8600000000400BD80AE30BEB0472756E6E6F
S1132A96696E67207363656E6172696F0073696737
S1132AA66E206661696C6564007374617274696E24
S1132AB6672061757468656E7469636174696F6EA5
S1132AC6006368616C6C656E676520726563656931
S1132AD6766564007369676E6174757265207365E3
S1132AE66E740061757468656E7469636174656497
S1052AF62100B9
S9030000FC
