S00E00005465737465722E737265639F
S113000051C000006CC000006AC0000068C000005D
S113001066C00000E8C000001FC1000053C100001A
S113002087C100005CC000005AC0000058C0000036
S113003056C0000054C0000052C0000050C0000070
S11300404EC000004CC000004AC0000048C0000080
S113005046C0000044C0000042C0000040C0000090
S11300603EC000003CC000003AC0000038C00000A0
S113007036C0000034C0000032C0000030C00000B0
S11300802EC000002CC000002AC0000028C00000C0
S113009026C0000078007B007E0081008400870079
S11300A08A008D0011241FBECFEFD0E1DEBFCDBF8B
S11300B011E0A0E0B1E0EAE1F4E000E00BBF02C02F
S11300C007900D92A030B107D9F721E0A0E0B1E08C
S11300D001C01D92A130B207E1F760D19CC190CF5D
S11300E090E088309105D8F4FC01E65BFF4F8AC1AB
S11300F0109A089A0895119A099A0895129A0A9AD8
S11301000895139A0B9A0895149A0C9A0895159ABF
S11301100D9A0895169A0E9A0895179A0F9A0895AB
S11301201DB880EF8EB99FEF90936A008DBB089540
S1130130CF93DF93F89481E08093D80080EA809392
S1130140DB0082E08093DE001092DF001092DA0080
S113015080E0CDEED0E0AFEEB0E0EEEEF0E0982F30
S11301609295907F98831C9210828F5F8F30B9F79D
S113017086E08093E2008CE08093E30087E3809341
S1130180E4001092E50082E08093D8001092ED0024
S11301901092F3001092F2001092F1001092F0000D
S11301A01092F7001092F6001092F5001092F400ED
S11301B088E88093EF007894DF91CF91089580E2EE
S11301C08093ED0088E090E0EAEFF0E02FEF2083E9
S11301D00197E9F784E08093F00080E48093EF00D6
S11301E081E07ECF08951F920F920FB60F921124D3
S11301F00BB60F922F933F934F935F936F937F931D
S11302008F939F93AF93BF93EF93FF93CF93DF931A
S113021000D0CDB7DEB781E08093000184E390E0A5
S11302209A838983CE010196CED00F900F90DF91EF
S1130230CF91FF91EF91BF91AF919F918F917F915A
S11302406F915F914F913F912F910F900BBE0F9043
S11302500FBE0F901F9018951F920F920FB60F921A
S113026011240BB60F922F933F934F935F936F9389
S11302707F938F939F93AF93BF93EF93FF93CF930A
S1130280DF9300D0CDB7DEB785E390E09A8389830E
S1130290CE01019698D00F900F90DF91CF91FF91EE
S11302A0EF91BF91AF919F918F917F916F915F91EA
S11302B04F913F912F910F900BBE0F900FBE0F9057
S11302C01F9018951F920F920FB60F9211240BB620
S11302D00F922F933F934F935F936F937F938F93DB
S11302E09F93AF93BF93EF93FF93CF93DF9300D08C
S11302F0CDB7DEB786E390E09A838983CE01019679
S113030062D00F900F90DF91CF91FF91EF91BF9149
S1130310AF919F918F917F916F915F914F913F9199
S11303202F910F900BBE0F900FBE0F901F9018953A
S11303301F920F920FB60F9211240BB60F922F93A8
S11303403F934F935F936F937F938F939F93AF9359
S1130350BF93EF93FF93CF93DF9300D0CDB7DEB776
S113036087E390E09A838983CE0101962CD00F9085
S11303700F90DF91CF91FF91EF91BF91AF919F913A
S11303808F917F916F915F914F913F912F910F903A
S11303900BBE0F900FBE0F901F90189508D0C0DEB3
S11303A0C7DE809100018130E1F709DFFACF1092B6
S11303B0C50083E38093C4008EE08093C20088E18B
S11303C08093C1000895CF93DF93FC010190002036
S11303D0E9F73197E81BF90B1E161F0684F4DC01BC
S11303E09C012E0F3F1FE0ECF0E0C6ECD0E09081C2
S11303F095FFFDCF9D919883A217B307C1F7DF91B5
S1130400CF910895EE0FFF1F0024001C0BBE079030
S10D0410F691E02D0994F894FFCF53
S9030000FC
