S00E00005465737465722E737265639F
S113000049C0000064C0000062C0000060C000007D
S11300105EC0000031C100007DC10000B1C100001C
S1130020E5C1000054C0000052C0000050C00000F0
S11300304EC000004CC000004AC0000048C0000090
S113004046C0000044C0000042C0000040C00000A0
S11300503EC000003CC000003AC0000038C00000B0
S113006036C0000034C0000032C0000030C00000C0
S11300702EC000002CC000002AC0000028C00000D0
S113008026C0000024C0000022C0000020C00000E0
S11300901EC0000011241FBECFEFD0E1DEBFCDBFD4
S11300A011E0A0E0B1E0EAEDF4E000E00BBF02C033
S11300B007900D92A632B107D9F721E0A6E2B1E08C
S11300C001C01D92A732B207E1F7C6D104C298CF8E
S11300D0CF93DF93F89481E08093D80080EA8093F3
S11300E0DB001092DA0080E0CDEED0E0AFEEB0E0BD
S11300F0EEEEF0E0982F9295907F98831C921082F8
S11301008F5F8F30B9F786E08093E2008CE08093B4
S1130110E30087E38093E4001092E50082E080939B
S1130120D8007894DF91CF910895FB0121E030E06D
S113013002C0220F331F8A95E2F72093ED009B0142
S1130140285F3F4FAAEFB0E08C9181932E173F07B1
S1130150D9F70895FF920F931F93CF93DF93CDB7F1
S1130160DEB769970FB6F894DEBF0FBECDBFF82E89
S113017088E091E081D18E010F5F1F4F88E0D801A4
S11301801D928A95E9F7B8018F2DCFDF1A8619865B
S1130190FE013B968FE0DF011D928A95E9F7AE01DF
S11301A0475F5F4F68E070E0C8013ED081E191E0B5
S11301B08A8FCE01099660D169960FB6F894DEBF96
S11301C00FBECDBFDF91CF911F910F91FF90089586
S11301D0DB01FA0121E030E0082E02C0220F331FB8
S11301E00A94E2F72093ED009C919093F30011960A
S11301F09C9111979093F20012969C911297909370
S1130200F10013969C919093F0009A01285F3F4F60
S1130210AAEFB0E091919C932E173F07D9F79ADF8C
S113022088E48093EF000895CF93DF936623C9F0A9
S1130230C42FD52F282F392FD901ED919D01AE2F31
S1130240A295AF70B0E0AC5EBE4F8C918883EF7026
S1130250F0E0EC5EFE4F808189836150229661114B
S1130260EBCFDF91CF9108951DB880EF8EB99FEF4A
S113027090936A008DBB08951F920F920FB60F9250
S113028011240BB60F922F933F934F935F936F9369
S11302907F938F939F93AF93BF93EF93FF93CF93EA
S11302A0DF93CDB7DEB72C97DEBFCDBF81E080935F
S11302B0260188E0E0E0F1E0DE01119601900D9264
S11302C08A95E1F7198685E08A871B868C87AE01BB
S11302D04F5F5F4FBE01675F7F4F80E079DF2C96F1
S11302E00FB6F894DEBF0FBECDBFDF91CF91FF9163
S11302F0EF91BF91AF919F918F917F916F915F919A
S11303004F913F912F910F900BBE0F900FBE0F9006
S11303101F9018951F920F920FB60F9211240BB6CF
S11303200F922F933F934F935F936F937F938F938A
S11303309F93AF93BF93EF93FF93CF93DF9300D03B
S1130340CDB7DEB785E390E09A838983CE01019629
S113035093D00F900F90DF91CF91FF91EF91BF91C8
S1130360AF919F918F917F916F915F914F913F9149
S11303702F910F900BBE0F900FBE0F901F901895EA
S11303801F920F920FB60F9211240BB60F922F9358
S11303903F934F935F936F937F938F939F93AF9309
S11303A0BF93EF93FF93CF93DF9300D0CDB7DEB726
S11303B086E390E09A838983CE0101965DD00F9005
S11303C00F90DF91CF91FF91EF91BF91AF919F91EA
S11303D08F917F916F915F914F913F912F910F90EA
S11303E00BBE0F900FBE0F901F9018951F920F9287
S11303F00FB60F9211240BB60F922F933F934F9386
S11304005F936F937F938F939F93AF93BF93EF9378
S1130410FF93CF93DF9300D0CDB7DEB787E390E0AF
S11304209A838983CE01019627D00F900F90DF9194
S1130430CF91FF91EF91BF91AF919F918F917F9158
S11304406F915F914F913F912F910F900BBE0F9041
S11304500FBE0F901F90189503D006DF39DEFFCF33
S11304601092C50083E38093C4008EE08093C200A1
S113047088E18093C1000895CF93DF93FC0101903C
S11304800020E9F73197E81BF90B1E161F0684F4C8
S1130490DC019C012E0F3F1FE0ECF0E0C6ECD0E045
S11304A0908195FFFDCF9D919883A217B307C1F763
S11304B0E0ECF0E0808185FFFDCF8DE08093C60005
S11304C0E0ECF0E0808185FFFDCF8AE08093C600F8
S10D04D0DF91CF910895F894FFCF57
S11304DA00010203040506076D6573736167653AD3
S11304EA002F6E0030313233343536373839616291
S10904FA63646566000066
S9030000FC
