S00F0000476174657761792E7372656343
S113000049C0000064C0000062C0000060C000007D
S11300105EC000005CC000005AC0000058C0000070
S113002056C0000054C0000052C0000050C0000080
S11300304EC000004CC000004AC0000048C0000090
S113004046C0000044C0000021C1000040C00000C0
S11300503EC000003CC000003AC0000038C00000B0
S113006036C0000034C0000032C0000030C00000C0
S11300702EC000002CC000002AC0000028C00000D0
S113008026C0000024C0000022C0000020C00000E0
S11300901EC0000011241FBECFEFD0E1DEBFCDBFD4
S11300A011E0A0E0B1E0E8E7F3E000E00BBF02C03C
S11300B007900D92A231B107D9F721E0A2E1B1E096
S11300C001C01D92A231B207E1F712D153C198CFFA
S11300D0CF93DF93F89481E08093D80080EB8093F2
S11300E0DB001092DA0080E0CDEED0E0AFEEB0E0BD
S11300F0EEEEF0E0982F9295907F98831C921082F8
S11301008F5F8F30B9F786E08093E2008CE08093B4
S1130110E30087E38093E4001092E50082E080939B
S1130120D8007894DF91CF910895FB018295807F68
S11301308093ED009B01285F3F4FAAEFB0E08C91C4
S113014081932E173F07D9F708950F931F93CF93E9
S1130150DF938C01C0E0D0E0B801CE01E6DF085F98
S11301601F4F2196C830D105B9F7DF91CF911F9168
S11301700F910895982F9295990F907E9093F30084
S11301808695869586958093F2001092F0000895E6
S11301908FEF8093F7008093F6001092F400089597
S11301A0CF92DF92EF92FF920F931F93CF93DF933F
S11301B07C01EBEDF0E0808184608083C0E00F2E51
S11301C0FDEECF2ED12CF02D0FEE10E0D8EC8C2FBD
S11301D08295807FF60180838C2FCCDFD9DFF801F4
S11301E0D083CF5FC83099F7AAEDB0E08C918078C6
S11301F0EDEEF0E080838C91807880838C91807820
S11302008083EAEDF0E080818823ECF78091DA00C6
S113021084FF13C080E0ADEEB0E0EEEEF0E0982F86
S11302209295907F9C9310828F5F8830C1F7EAED9E
S1130230F0E080818083C70188DFDF91CF911F9137
S11302400F91FF90EF90DF90CF900895CF93DF93BD
S11302506623C9F0C42FD52F282F392FD901ED914A
S11302609D01AE2FA295AF70B0E0A050BF4F8C910E
S11302708883EF70F0E0E050FF4F80818983615004
S113028022966111EBCFDF91CF9108951F920F92C7
S11302900FB60F9211240F900FBE0F901F90189558
S11302A0CF93DF93CDB7DEB7C15CD1090FB6F89415
S11302B0DEBF0FBECDBFCE01019672DFAE014F5B34
S11302C05F4F60E4CE010196C1DFCF53DF4F188248
S11302D0C15CD040CE018F5B9F4F1DD0CF53DF4F09
S11302E00FB6F894DEBF0FBECDBFDF91CF91089556
S11302F006D0EEDED5DFECDE80E090E008951092CB
S1130300C50083E38093C4008EE08093C20088E13B
S11303108093C1000895CF93DF93FC0101900020E6
S1130320E9F73197E81BF90B1E161F0684F4DC016C
S11303309C012E0F3F1FE0ECF0E0C6ECD0E0908172
S113034095FFFDCF9D919883A217B307C1F7E0EC09
S1130350F0E0808185FFFDCF8DE08093C600E0EC66
S1130360F0E0808185FFFDCF8AE08093C600DF91B5
S10B0370CF910895F894FFCF2A
S1130378303132333435363738396162636465660F
S105038800006F
S9030000FC
