S00F0000476174657761792E7372656343
S1130000D9C00000F6C00000F4C00000F2C0000037
S1130010F0C00000EEC00000ECC00000EAC0000028
S1130020E8C00000E6C00000E4C00000E2C0000038
S1130030E0C00000DEC00000DCC00000DAC0000048
S1130040D8C00000D6C00000D4C00000D2C0000058
S1130050D0C00000CEC00000CCC00000CAC0000068
S1130060C8C00000C6C00000C4C00000C2C0000078
S1130070C0C00000BEC00000BCC00000BAC0000088
S1130080B8C00000B6C00000B4C00000B2C0000098
S1130090B0C0000067E6096A85AE67BB72F36E3CC8
S11300A03AF54FA57F520E518C68059BABD9831F3F
S11300B019CDE05B982F8A4291443771CFFBC0B5CC
S11300C0A5DBB5E95BC25639F111F159A4823F921F
S11300D0D55E1CAB98AA07D8015B8312BE85312478
S11300E0C37D0C55745DBE72FEB1DE80A706DC9B39
S11300F074F19BC1C1699BE48647BEEFC69DC10FE5
S1130100CCA10C246F2CE92DAA84744ADCA9B05C20
S1130110DA88F97652513E986DC631A8C82703B0E3
S1130120C77F59BFF30BE0C64791A7D55163CA06F1
S113013067292914850AB72738211B2EFC6D2C4DFD
S1130140130D385354730A65BB0A6A762EC9C281EB
S1130150852C7292A1E8BFA24B661AA8708B4BC281
S1130160A3516CC719E892D1240699D685350EF4AB
S113017070A06A1016C1A419086C371E4C77482762
S1130180B5BCB034B30C1C394AAAD84E4FCA9C5BD8
S1130190F36F2E68EE828F746F63A5781478C88429
S11301A00802C78CFAFFBE90EB6C50A4F7A3F9BE0B
S11301B0F27871C611241FBECFEFD0E1DEBFCDBFF0
S11301C012E0A0E0B1E0E8E4F5E300E00BBF02C018
S11301D007900D92AE3AB107D9F722E0AEEAB2E049
S11301E001C01D92A63BB207E1F70E9407120C94CE
S11301F0A21A06CFCF93DF93F89481E08093D800BE
S113020084E38093DB001092DA0080E0CDEED0E04E
S1130210AFEEB0E0EEEEF0E0982F9295907F9883E9
S11302201C9210828F5F8F30B9F786E08093E200D2
S11302308CE08093E30087E38093E4001092E50070
S113024082E08093D8007894DF91CF910895FB01E8
S11302508295807F8093ED009B01285F3F4FAAEF3A
S1130260B0E08C9181932E173F07D9F708950F932F
S11302701F93CF938C01C0E0B8018C2FE8DF085F97
S11302801F4FCF5FC830C1F7CF911F910F910895D1
S11302908295807F8093ED009091F200E3EFF0E08F
S11302A08081929596959770880F880F880F892B77
S11302B0DB018C93808182958695877011968C934F
S11302C00895FC0180818295880F807E8093F200DE
S11302D02081269526952695918130E2939FC00131
S11302E01124822B8093F3001092F00008958FEF75
S11302F08093F7008093F6001092F4000895FC01B7
S11303009C01285F3F4FAAEFB0E081918C932E1798
S11303103F07D9F70895CF93DF93EA018295807F51
S11303208093ED00CB01CDDFCE01E9DF88E480933B
S1130330EF00EEEEF0E080818034E9F71092EE00F9
S11303401092EF0080E090E0DF91CF9108950F9339
S11303501F93CF93C82FCB0189012C2F2295207F87
S11303602093ED0021E030E00C2E02C0220F331F59
S11303700A94E2F72093DE00A4DFB9DF88E88093D3
S1130380EF00EAEDF0E080818823ECF78091EE0045
S113039085FF10C01092EE001092EF001092DE0064
S11303A0EAEDF0E080818083B8018C2F50DF80E09B
S11303B090E002C081E090E0CF911F910F910895E9
S11303C00F931F93CF93DF938C01C0E0D0E0A8017B
S11303D0BE018C2FA0DF085F1F4F2196C830D105C6
S11303E0B1F780E090E0DF91CF911F910F910895D4
S11303F08F929F92AF92BF92CF92DF92EF921F9310
S1130400CF93DF934C01E62EEBEDF0E08081846026
S11304108083C0E0D0E00F2EFDEEAF2EB12CF02D86
S11304200F2EFFEECF2ED12CF02D18EC8C2F8295B1
S1130430807FF5018083CE0144DF59DFF60110830C
S11304402196C830D10591F7EAEDF0E08081882348
S1130450ECF78091DA0084FF1AC080E0CDEED0E0A2
S1130460AFEEB0E0EEEEF0E0982F9295907F988397
S11304701C9210828F5F8830B9F7EAEDF0E080813A
S113048080836E2DC401F3DE80E090E002C081E041
S113049090E0DF91CF911F91EF90DF90CF90BF90CC
S11304A0AF909F908F900895DC01EAE7F2E0E61B9D
S11304B0F10909941D921D921D921D921D921D9287
S11304C01D921D921D921D921D921D921D921D92B0
S11304D01D921D921D921D921D921D921D921D92A0
S11304E01D921D921D921D921D921D921D921D9290
S11304F01D921D920895CF93DF93440FEB01DC010D
S1130500E5ECF2E0E41BF109099409900D920990DD
S11305100D9209900D9209900D9209900D920990F7
S11305200D9209900D9209900D9209900D920990E7
S11305300D9209900D9209900D9209900D920990D7
S11305400D9209900D9209900D9209900D920990C7
S11305500D9209900D9209900D9209900D920990B7
S11305600D9209900D9209900D9209900D920990A7
S11305700D9209900D9209900D9209900D92099097
S11305800D9209900D9209900D92DF91CF910895EB
S1130590262F062E000C330B21503109322F330F36
S11305A0230FDC01E9E3F3E0E21BF109A60FB11D1F
S11305B00E9006940C9209940E9007940C920E904F
S11305C007940C920E9007940C920E9007940C9240
S11305D00E9007940C920E9007940C920E90079430
S11305E00C920E9007940C920E9007940C920E901D
S11305F007940C920E9007940C920E9007940C9210
S11306000E9007940C920E9007940C920E900794FF
S11306100C920E9007940C920E9007940C920E90EC
S113062007940C920E9007940C920E9007940C92DF
S11306300E9007940C920E9007940C920E900794CF
S11306400C920E9007940C920E9007940C920E90BC
S113065007940C920E9007940C920E9007940C92AF
S11306600E9007940C920E9007940C920E9007949F
S11306700C920895CF93DF93220FDB01EA01AC01C2
S1130680E6E8F3E0E21BF10988940994FA013EC01C
S1130690FA0140C0FA0142C0FA0144C0FA0146C05E
S11306A0FA0148C0FA014AC0FA014CC0FA014EC02E
S11306B0FA0150C0FA0152C0FA0154C0FA0156C0FE
S11306C0FA0158C0FA015AC0FA015CC0FA015EC0CE
S11306D0FA0160C0FA0162C0FA0164C0FA0166C09E
S11306E0FA0168C0FA016AC0FA016CC0FA016EC06E
S11306F0FA0170C0FA0172C0FA0174C0FA0176C03E
S1130700FA0178C0FA017AC0FA017CC08D919991FE
S1130710891F81938D919991891F81938D919991CD
S1130720891F81938D919991891F81938D919991BD
S1130730891F81938D919991891F81938D919991AD
S1130740891F81938D919991891F81938D9199919D
S1130750891F81938D919991891F81938D9199918D
S1130760891F81938D919991891F81938D9199917D
S1130770891F81938D919991891F81938D9199916D
S1130780891F81938D919991891F81938D9199915D
S1130790891F81938D919991891F81938D9199914D
S11307A0891F81938D919991891F81938D9199913D
S11307B0891F81938D919991891F81938D9199912D
S11307C0891F81938D919991891F81938D9199911D
S11307D0891F81938D919991891F81938D9199910D
S11307E0891F81938D919991891F81938D919991FD
S11307F0891F81938D919991891F81938D919991ED
S1130800891F81938D919991891F8193812D881FCF
S1130810DF91CF910895CF93DF93220FDB01EA019B
S1130820AC01E7E5F4E0E21BF10988940994FA01CC
S11308303EC0FA0140C0FA0142C0FA0144C0FA01C4
S113084046C0FA0148C0FA014AC0FA014CC0FA0194
S11308504EC0FA0150C0FA0152C0FA0154C0FA0164
S113086056C0FA0158C0FA015AC0FA015CC0FA0134
S11308705EC0FA0160C0FA0162C0FA0164C0FA0104
S113088066C0FA0168C0FA016AC0FA016CC0FA01D4
S11308906EC0FA0170C0FA0172C0FA0174C0FA01A4
S11308A076C0FA0178C0FA017AC0FA017CC08D9151
S11308B09991890B81938D919991890B81938D9154
S11308C09991890B81938D919991890B81938D9144
S11308D09991890B81938D919991890B81938D9134
S11308E09991890B81938D919991890B81938D9124
S11308F09991890B81938D919991890B81938D9114
S11309009991890B81938D919991890B81938D9103
S11309109991890B81938D919991890B81938D91F3
S11309209991890B81938D919991890B81938D91E3
S11309309991890B81938D919991890B81938D91D3
S11309409991890B81938D919991890B81938D91C3
S11309509991890B81938D919991890B81938D91B3
S11309609991890B81938D919991890B81938D91A3
S11309709991890B81938D919991890B81938D9193
S11309809991890B81938D919991890B81938D9183
S11309909991890B81938D919991890B81938D9173
S11309A09991890B81938D919991890B8193812DD3
S11309B0881FDF91CF910895CF93DF93FC01DB0172
S11309C0EA0190E0892F392F492F51E060E0C50FEB
S11309D0D41F0D901A90019C900D811D341F6395B6
S11309E06517B8F3A51BB40B9193982F832F342F5D
S11309F05395521758F3522FC20FD41F60E00D9035
S1130A001A90019C900D811D341F63956517B8F3EE
S1130A10C50FD41F9193982F832F342F5A95A51B5C
S1130A20B40B541759F791931124DF91CF91089582
S1130A3016167CF4FC016150462F50E04F5F5F4F67
S1130A40480F591F90E02191922BE417F507D9F72D
S1130A5001C090E081E0911180E008959B013595FB
S1130A6027953595279535952795820F931F6770A0
S1130A70772721E030E002C0220F331F6A95E2F7A6
S1130A80FC018081822308959C01615092F0FC0155
S1130A90E60FF11D67FDFA95808181110AC061504E
S1130AA042F0F901E60FF11D67FDFA959081992353
S1130AB0B1F36F5FE9F0260F311D67FD3A95F90137
S1130AC031978081882331F020E086952F5F811152
S1130AD0FCCF01C020E0862F660F990B0197880F89
S1130AE0991F880F991F880F991F820F911D0895D0
S1130AF080E090E00895DC0141502AF1842F042E17
S1130B00000C990BFD01E80FF91F2081FB01E80F90
S1130B10F91F80818217C8F0281788F418C0242F81
S1130B20042E000C330BFD01E20FF31F5081FB0177
S1130B30E20FF31F9081951760F0591760F0415050
S1130B4072F780E0089580E0089581E008958FEFC2
S1130B50089581E008958FEF08950F931F93CF9325
S1130B60DF93CDB7DEB7A0970FB6F894DEBF0FBE04
S1130B70CDBF142F242FAB01BC01CE0101964BDE57
S1130B80082F612FCE01019653DF91E0811190E08F
S1130B9081E0011101C080E0880F981B892FA09685
S1130BA00FB6F894DEBF0FBECDBFDF91CF911F917A
S1130BB00F910895EF92FF920F93CF93DF93EC017F
S1130BC07901202F57DD811106C0402FBE01C701D6
S1130BD092DF813029F0202FA701BE01CE011BDE58
S1130BE0DF91CF910F91FF90EF900895EF92FF92D4
S1130BF00F93CF93DF93EC017901202F0CDE882330
S1130C0029F0202FA701BE01CE0134DDDF91CF9161
S1130C100F91FF90EF900895EF92FF920F931F931F
S1130C20CF93DF93CDB7DEB7C054D1090FB6F89494
S1130C30DEBF0FBECDBF7C018901F9012081CE0149
S1130C400196BADEF801E655FF4F0190F081E02DE0
S1130C50BE016F5F7F4FC7010995C05CDF4F0FB6C0
S1130C60F894DEBF0FBECDBFDF91CF911F910F91DE
S1130C70FF90EF9008959A01AB01CECF08950F93A2
S1130C801F93CF93DF938C01C42FFC01808180FFDD
S1130C9015C0242FAB01B801C801ECDCD82F6C2F90
S1130CA0C80176DCDD2369F0EC2FCC0FFF0B319704
S1130CB0E00FF11F80818068808303C0642FC80126
S1130CC067DCDF91CF911F910F910895AF92BF928E
S1130CD0CF92DF92EF92FF921F93CF93DF93CDB722
S1130CE0DEB7C058D1090FB6F894DEBF0FBECDBF32
S1130CF05C016B017A01122F622FC60199DE8823F1
S1130D0021F0612FC501D0DBA1C0412FB601CE0176
S1130D100196F1DB412FB701CE018196ECDB612F07
S1130D20CE018F5B9F4FC0DB81E022968FAF22976D
S1130D30612FCE018F599F4FB7DB79C0998190FD08
S1130D400BC0612FCE01019623DC412FB701CE01E8
S1130D508F5B9F4F94DF6BC099A190FD0BC0612FF7
S1130D60CE01819615DC412FB701CE018F599F4FDB
S1130D7086DF5DC0181674F5212FAE014F5D5F4FFD
S1130D80BE016F5F7F4FCB0146DD612FCE0101961F
S1130D90FFDB412FBE016F597F4FCE018F5B9F4F09
S1130DA0AADE88233CF4212FA701BE016F5B7F4F8D
S1130DB0CB0160DC212FAE014F595F4FBE016F5B49
S1130DC07F4FCB0128DD412FB701CE018F5B9F4FB1
S1130DD056DF2DC0212FAE014F5F5F4FBE016F5D07
S1130DE07F4FCB0118DD612FCE018196D1DB412FDE
S1130DF0BE016F5B7F4FCE018F599F4F7CDE8823EE
S1130E003CF4212FA701BE016F597F4FCB0132DC87
S1130E10212FAE014F5B5F4FBE016F597F4FCB0156
S1130E20FADC412FB701CE018F599F4F28DF412FA4
S1130E30BE016F5D7F4FCE0101965DDE81117ECFD5
S1130E40412FBE016F5B7F4FC50155DBC058DF4F9B
S1130E500FB6F894DEBF0FBECDBFDF91CF911F91C7
S1130E60FF90EF90DF90CF90BF90AF9008956F9276
S1130E707F928F929F92AF92BF92CF92DF92EF9226
S1130E80FF920F931F93CF93DF93CDB7DEB7C05478
S1130E90D1090FB6F894DEBF0FBECDBF6C013B0184
S1130EA07A015901F9011081612FCA01C1DD811153
S1130EB096C0A501B301CE010196DDDE9501AE0118
S1130EC04F5F5F4FB601CE018196A6DEA501BE013C
S1130ED06F5F7F4FCB01CFDE9501A701B301C30143
S1130EE09BDEA501B701C701C6DE4501F4E08F0E04
S1130EF0911C012F9401A701B601C6015BDE940188
S1130F00A701B701C70156DE9401A701B601C701C5
S1130F106DDE9501A701B601C6017EDE9401A6012E
S1130F20B601C70147DE9401A701B601C60142DE3E
S1130F3060E070E0C60192DD8823C1F0212FA40196
S1130F40B601C60197DB082F612FC60121DBE12F13
S1130F50012E000CFF0B3197EC0DFD1D20E8029FC4
S1130F60C00111240081082B008303C0612FC60136
S1130F700FDBA501B601C7017EDE012F9401AE018E
S1130F804F5D5F4FB701C70131DE9401AE014F5D84
S1130F905F4FB701C7012ADE9401A701BE016F5D4F
S1130FA07F4FCB0123DE9501AE014F5D5F4FB6014C
S1130FB0C60132DE9401AE014F5F5F4FB601CA0134
S1130FC015DE412FB701C60196DA412FB301C701DF
S1130FD092DA412FBE016F5F7F4FC3018CDAC05C90
S1130FE0DF4F0FB6F894DEBF0FBECDBFDF91CF91B8
S1130FF01F910F91FF90EF90DF90CF90BF90AF9033
S11310009F908F907F906F9008956F927F928F92B0
S11310109F92AF92BF92CF92DF92EF92FF920F9383
S11310201F93CF93DF93CDB7DEB7A0970FB6F89495
S1131030DEBF0FBECDBF7C014B016A01CE0101961C
S11310403C0180E2F30111928A95E9F783E08983F8
S1131050FA011081C7010FDE5601F4E0AF0EB11C96
S1131060012F9501A301B701C701C0DD9601A401B9
S1131070B701C701D1DDA6014C575F4F9501B701F8
S1131080C70198DDA0960FB6F894DEBF0FBECDBFA2
S1131090DF91CF911F910F91FF90EF90DF90CF9050
S11310A0BF90AF909F908F907F906F900895BF9264
S11310B0CF92DF92EF92FF920F931F93CF93DF9320
S11310C0CDB7DEB7C054D1090FB6F894DEBF0FBE5A
S11310D0CDBF6C017B0190E28E010F5F1F4FD801E1
S11310E0E92F1D92EA95E9F781E08983FE01B19623
S11310F0DF011D929A95E9F789A3FB01B0806C5F2B
S11311007F4F2B2DA801C801B5DA6B2DC801BCDCBB
S11311108C010150110902301105C4F0A701BE0170
S11311206F5D7F4FCB01A7DDB801CE01019696DC40
S1131130882339F09701A601BE016F5D7F4FCB0173
S11311406BDD015011090130110541F74B2DBE0132
S11311506F5D7F4FC601CFD9C05CDF4F0FB6F894E7
S1131160DEBF0FBECDBFDF91CF911F910F91FF90D6
S1131170EF90DF90CF90BF900895CF92DF92FF92CF
S11311800F931F93CF93DF93CDB7DEB7A0970FB61E
S1131190F894DEBF0FBECDBF6C018B0140E2ABD92A
S11311A01C821B821A82198218861F821E821D824B
S11311B01C861B861A861986F80184A58D8785A549
S11311C08E8786A58F8787A5888B80A9898B81A91F
S11311D08A8B82A98B8B83A98C8B84A98D8B85A9FF
S11311E08E8B86A98F8B87A9888F80AD898F81ADDF
S11311F08A8F82AD8B8F83AD8C8F84AD8D8F85ADBF
S11312008E8F86AD8F8F87AD88A320E2AE014F5FAE
S11312105F4FBA01CA012EDAF82E20E2AE014F5F09
S11312205F4FB601C60126DAF80EF80180A98D8752
S113123081A98E8782A98F8783A9888B84A9898BAA
S113124085A98A8B86A98B8B87A98C8B80AD8D8B86
S113125081AD8E8B82AD8F8B83AD888F84AD898F6A
S113126085AD8A8F86AD8B8F87AD8C8F18A21F8E2C
S11312701E8E1D8E20E2AE014F5F5F4FBA01CA0180
S1131280F9D9F80E20E2AE014F5F5F4FB601C601F7
S1131290F1D9F80EF80180A1898381A18A8382A102
S11312A08B8383A18C8384A18D8385A18E8386A166
S11312B08F8387A1888780A5898781A58A8782A54E
S11312C08B8783A58C87188A1F861E861D861C8A99
S11312D01B8A1A8A198A188E1F8A1E8A1D8A80AD53
S11312E0898F81AD8A8F82AD8B8F83AD8C8F84ADD6
S11312F08D8F85AD8E8F86AD8F8F87AD88A320E2CD
S1131300AE014F5F5F4FB601C601B4D9F80EF801C4
S113131084A1898385A18A8386A18B8387A18C83F9
S113132080A58D8381A58E8382A58F8383A58887DD
S113133084A5898785A58A8786A58B8787A58C87B9
S113134034A93D8725A92E8796A99F8787A9888BCD
S113135040AD498B41AD4A8B42AD4B8B43AD4C8B79
S113136044AD4D8B45AD4E8B46AD4F8B47AD488F4D
S1131370398F2A8F9B8F8C8F80A18D8F81A18E8F27
S113138082A18F8F83A188A320E2AE014F5F5F4FBC
S1131390B601C6016FD9F80EF80184A5898385A525
S11313A08A8386A58B8387A58C8380A98D8381A955
S11313B08E8382A98F8383A9888784A9898785A935
S11313C08A8786A98B8787A98C87188A1F861E8699
S11313D01D861C8A1B8A1A8A198A188E1F8A1E8ADD
S11313E01D8A80A1898F81A18A8F82A18B8F83A17D
S11313F08C8F80A58D8F81A58E8F82A58F8F83A5DD
S113140088A320E2AE014F5F5F4FB601C60103DA45
S1131410F81AF80180A9898381A98A8382A98B8318
S113142083A98C8384A98D8385A98E8386A98F83C0
S113143087A9888780AD898781AD8A8782AD8B87AC
S113144083AD8C8784AD8D8785AD8E8786AD8F8780
S113145087AD888B1C8A1B8A1A8A198A188E1F8A60
S11314601E8A1D8A84A1898F85A18A8F86A18B8F6C
S113147087A18C8F84A58D8F85A58E8F86A58F8F50
S113148087A588A320E2AE014F5F5F4FB601C60176
S1131490C2D9F81AF80184A9898385A98A8386A9FF
S11314A08B8387A98C8380AD8D8381AD8E8382AD40
S11314B08F8383AD888784AD898785AD8A8786AD20
S11314C08B8787AD8C8780A18D8781A18E8782A130
S11314D08F8783A1888B84A1898B85A18A8B86A120
S11314E08B8B87A18C8B80A58D8B81A58E8B82A500
S11314F08F8B83A5888F1C8E1B8E1A8E198E80A9C4
S11315008D8F81A98E8F82A98F8F83A988A320E2D2
S1131510AE014F5F5F4FB601C6017DD9F81AF801DD
S113152080AD898381AD8A8382AD8B8383AD8C83C7
S113153084AD8D8385AD8E8386AD8F8387AD88879B
S11315401C861B861A86198684A18D8785A18E87A1
S113155086A18F8787A1888B80A5898B81A58A8B9B
S113156082A58B8B83A58C8B84A58D8B85A58E8B77
S113157086A58F8B87A5888F1C8E1B8E1A8E198E3D
S113158084A98D8F85A98E8F86A98F8F87A988A31B
S113159020E2AE014F5F5F4FB601C6013CD91F2D5B
S11315A0181B82F420E24EE051E0B601C60162D875
S11315B0180FC2F310C020E24EE051E0B601C6019C
S11315C02AD9181B1111F7CF40E2B6018EE091E041
S11315D092DA813081F7A0960FB6F894DEBF0FBE81
S11315E0CDBFDF91CF911F910F91FF90DF90CF90EE
S11315F00895AF92BF92CF92DF92EF92FF920F9332
S11316001F93CF93DF93CDB7DEB7A0970FB6F894AF
S1131610DEBF0FBECDBF5C017B016A018901A90158
S1131620B601CE01019627DB9801AE014F5F5F4FF3
S1131630B501C501F1DA9801A601BE016F5F7F4FC4
S1131640CB01EADA9801AE014F5F5F4FB701C701E2
S1131650E3DAA0960FB6F894DEBF0FBECDBFDF91DC
S1131660CF911F910F91FF90EF90DF90CF90BF909B
S1131670AF9008954F925F926F927F928F929F9254
S1131680AF92BF92CF92DF92EF92FF920F931F938C
S1131690CF93DF93CDB7DEB7A0970FB6F894DEBF34
S11316A00FBECDBF3C012B017A0159016801F8013D
S11316B010814601F4E08F0E911C012F9401AC01BE
S11316C0B701CE01019692DAA601BE016F5F7F4F8A
S11316D0CB01D1DA9601AE014F5F5F4FB301C30175
S11316E09BDA9601AE014F5F5F4FB701C70194DAF1
S11316F09401A201B501C50179DAA601B501CE01B3
S11317000196B9DA9401A301BE016F5F7F4FCB014B
S11317106DDA9401A701BE016F5F7F4FCB0166DADA
S11317209401A301B701C70161DA9601A701B201CF
S1131730C20172DA9401AE014F5F5F4FB301C7017A
S113174055DA9601A701B501C50166DA9401A20133
S1131750B501C5014BDA412FBE016F5F7F4FC70151
S11317600E947B02A0960FB6F894DEBF0FBECDBFD9
S1131770DF91CF911F910F91FF90EF90DF90CF9069
S1131780BF90AF909F908F907F906F905F904F909D
S113179008954F925F926F927F928F929F92AF9231
S11317A0BF92CF92DF92EF92FF920F931F93CF934A
S11317B0DF93CDB7DEB7C056D1090FB6F894DEBFBC
S11317C00FBECDBF4C012B015A0139016801F8014C
S11317D010817601F4E0EF0EF11C012F9701AC01AA
S11317E0B501CE01019602DAA601BE016F5F7F4FFB
S11317F0CB0141DA9601AE014F5F5F4FB401C401E2
S11318000BDA9601AE014F5F5F4FB501C50104DAF3
S11318109701A201B301CE010196CCD99701A2018F
S1131820B301C301E3D99701A401B501CE018196A7
S1131830DDD99601AE014F5D5F4FB201C201ECD913
S11318409701A501B401CE018196B4D9A601B301D3
S1131850C50111DA9701AE014F5D5F4FB501C501B6
S1131860C5D99701A501B401CE018F5B9F4FBED9A5
S11318709601AE014F5B5F4FB301C301CDD9970110
S1131880A201B301C301B2D9A601BE016F5F7F4FAC
S1131890CE018F5B9F4FEFD99701AE014F5D5F4F34
S11318A0BE016F5B7F4FCB01A1D99701A401BE019B
S11318B06F5B7F4FCE01819699D99601AE014F5F40
S11318C05F4FBE016F5D7F4FCB01A6D99701A20187
S11318D0BE016F5D7F4FC20189D9412FBE016F5B8D
S11318E07F4FC4010E947B02C05ADF4F0FB6F894A9
S11318F0DEBF0FBECDBFDF91CF911F910F91FF903F
S1131900EF90DF90CF90BF90AF909F908F907F909B
S11319106F905F904F9008952F923F924F925F92F5
S11319206F927F928F929F92AF92BF92CF92DF92EB
S1131930EF92FF920F931F93CF93DF93CDB7DEB750
S1131940CB5CD1090FB6F894DEBF0FBECDBFC65332
S1131950DF4F99838883CA5CD040CC53DF4F7983AF
S11319606883C45CD040CF53DF4F59834883C15C44
S1131970D04069011701F701F081CD53DF4FF8839F
S1131980C35CD0404F2FCE0181960E947B02CD5381
S1131990DF4F2881C35CD040022E000C330BCA53A6
S11319A0DF4F39832883C65CD040CC53DF4F888116
S11319B09981C45CD040820F931FC853DF4F998331
S11319C08883C85CD040CD53DF4F4881C35CD0408E
S11319D0BC01CE018F599F4F0E947B02F701B0805A
S11319E0C114D10441F04B2DB601CE018F559F4F48
S11319F00E947B020CC06B2DCE018F559F4F0E941D
S1131A00540281E0CF55DF4F8883C15AD0404B2D1B
S1131A10BE016F5D7F4FCE0101960E947B020F2EA7
S1131A20F1E4EF2EF12CF02DEC0EFD1EF0E2EF0EA2
S1131A30F11C4B2DB701CE018F5B9F4F0E947B029F
S1131A409101AE014F555F4FB701CE018196D1DDB3
S1131A50F101EC55FF4F0190F081E02D9101AE01B1
S1131A604F555F4FB701CE01819609959101AE01A3
S1131A704F555F4FBE016F5B7F4FCE010196B9DDBD
S1131A80580122E0A21AB1081A141B040CF053C026
S1131A9044244394512CB501CF53DF4F888199815D
S1131AA0C15CD0400E942E059201882311F020E0F1
S1131AB030E03901660C771C660C771C660C771CC9
S1131AC0660C771C660C771C0F2EF1E4CF2ED12CFC
S1131AD0F02DCC0EDD1EC60CD71C81E090E08C0FDF
S1131AE09D1F680E791E7201E21AF30AEE0CFF1CA8
S1131AF0EE0CFF1CEE0CFF1CEE0CFF1CEE0CFF1C8E
S1131B000F2EF1E48F2E912CF02D8C0E9D1E8E0C39
S1131B109F1CE80EF91E81019601A301B401C701BF
S1131B2038DE9401A701B601C301A4DD91E0A91A2E
S1131B30B10809F0B0CF60E070E0CF53DF4F888187
S1131B409981C15CD0400E942E0521E030E08823B9
S1131B5011F020E030E06901CC0CDD1CCC0CDD1C64
S1131B60CC0CDD1CCC0CDD1CCC0CDD1C0F2EF1E4EC
S1131B708F2E912CF02D8C0E9D1E8C0C9D1CE1E063
S1131B80F0E0EC0FFD1FCE0EDF1E81E090E07C0143
S1131B90E21AF30AEE0CFF1CEE0CFF1CEE0CFF1C09
S1131BA0EE0CFF1CEE0CFF1C0F2EF1E4AF2EB12C3B
S1131BB0F02DAC0EBD1EAE0CBF1CEE0EFF1E81013F
S1131BC09401A601B501C701E4DD3101F4E06F0E13
S1131BD0711CCD53DF4F0881C35CD0409301AE012B
S1131BE04F5F5F4FBE016F5D7F4FCE018F579F4F99
S1131BF00E94F6059101A501BE016F577F4FCB01ED
S1131C000BD89101CC53DF4F48815981C45CD0403B
S1131C10BE016F577F4FCB010E940C06CD53DF4F9F
S1131C202881C35CD040A301BE016F577F4FCB0115
S1131C304DD89101C853DF4F48815981C85CD040C9
S1131C40BE016F577F4FCB010E940C069101A70183
S1131C50BE016F577F4FCB010E940C068101950195
S1131C60A701B401C60106DD9101AE014F575F4FD4
S1131C70BE016F5B7F4FCE010196BBDCCD53DF4FBE
S1131C804881C35CD040BE016F5F7F4FC653DF4FB6
S1131C9088819981CA5CD0400E947B02CD53DF4F7A
S1131CA04881C35CD040BE016F5B7F4FC653DF4F9A
S1131CB088819981CA5CD040CA53DF4F2881398119
S1131CC0C65CD040820F931F0E947B02C553DF4F36
S1131CD00FB6F894DEBF0FBECDBFDF91CF911F9139
S1131CE00F91FF90EF90DF90CF90BF90AF909F90B7
S1131CF08F907F906F905F904F903F902F900895BA
S1131D00AF92BF92CF92DF92EF92FF920F931F9305
S1131D10CF93DF937B015A01F901C280D380A601DE
S1131D20495F5F4FEA01DD230CF42796D595C795EB
S1131D30D595C795D595C79589010C5D1F4F2C2F57
S1131D40A801BC01C7010E943A03811111C028E017
S1131D50C202C0011124C816D9066CF4B601C70129
S1131D600E942E0591E0811101C090E0D92E04C09B
S1131D70DD24D39401C0D12C2C2FA801B701C501B7
S1131D800E943A038D2DDF91CF911F910F91FF9007
S1131D90EF90DF90CF90BF90AF900895AF92BF9235
S1131DA0CF92DF92EF92FF920F931F93CF93DF9323
S1131DB0CDB7DEB7C454D1090FB6F894DEBF0FBE59
S1131DC0CDBF5C01CB016A017E0121E4E20EF11C6E
S1131DD0BE016F5F7F4FF70171836083AE014F5D7A
S1131DE05F4F5383428396018BDFF6010281138197
S1131DF00F5F1F4FF70121E030E0882311F020E04E
S1131E0030E0220F331FE20FF31F40815181B601EE
S1131E106C5B7F4F760120E030E0C5017DDDF6018B
S1131E206081660FC5010E94180591E0811190E060
S1131E30892FCC5BDF4F0FB6F894DEBF0FBECDBF4A
S1131E40DF91CF911F910F91FF90EF90DF90CF9092
S1131E50BF90AF900895CF93DF93DC011616170659
S1131E60CCF420E030E090E0EB012197FE01E21B8E
S1131E70F30BE40FF51F2081FD01E90FF11D97FD20
S1131E80FA9520839F5F292F092E000C330B261708
S1131E90370764F3DF91CF9108959F92AF92BF9279
S1131EA0CF92DF92EF92FF920F931F93CF93DF9322
S1131EB08C015B01D42F642FC5010E94440520913D
S1131EC0AE023091AF02232BC1F148E0D40290015D
S1131ED01124281B390B8FEF90E002C0959587954C
S1131EE02A95E2F7982EC0E4CD2E0D2E000CDD08C5
S1131EF0760181E0E81AF108E00EF11EE091AE02ED
S1131F00F091AF02B601C80109950097D9F0F70125
S1131F108081892180836D2FC8010E941805811159
S1131F2007C04D2FB801C5010E94AD05813041F0B5
S1131F30C15021F780E090E005C080E090E002C04D
S1131F4081E090E0DF91CF911F910F91FF90EF908E
S1131F50DF90CF90BF90AF909F9008959093AF0281
S1131F608093AE0208958AE091E008959F92AF9223
S1131F70BF92CF92DF92EF92FF920F931F93CF9372
S1131F80DF93CDB7DEB7C056D1090FB6F894DEBFE4
S1131F900FBECDBF6C015B018A016894992496F849
S1131FA07A0184E2E80EF11CF8018281938107969C
S1131FB0AC0112F4495F5F4F559547955595479588
S1131FC055954795B701CE01019667DF009709F44F
S1131FD040C0A801BE016F5F7F4FCE018196DEDE57
S1131FE0882391F1F801828193810796BC0112F450
S1131FF0695F7F4F75956795759567957595679535
S1132000AE014F5F5F4FC50126DFF8016181062EE7
S1132010000C770BAE014F5D5F4FC6011CDFF8016A
S11320208181908141E250E04C0F5D1F490F511DA9
S113203097FD5A95082E000C990BBC018C0D9D1D23
S11320400ADF81E090E005C09A949110ADCF80E062
S113205090E0C05ADF4F0FB6F894DEBF0FBECDBF7D
S1132060DF91CF911F910F91FF90EF90DF90CF9070
S1132070BF90AF909F9008956F927F928F929F929E
S1132080AF92BF92CF92DF92EF92FF920F931F9382
S1132090CF93DF93CDB7DEB7C458D1090FB6F89408
S11320A0DEBF0FBECDBF8C014A016901CE018F5B3B
S11320B09F4FCF57DF4F99838883C158D040809674
S11320C0CD57DF4F99838883C358D040F901F080FE
S11320D0A18022813381295F3F4FC90199230CF4E8
S11320E00796959587959595879595958795AB01D1
S11320F0BC01CE018F5B9F4FAEDE0A2C000CBB08E7
S1132100A801B501CE010196A6DEA8014A0D5B1D0A
S1132110B50181E090E08C0F9D1F8F0D911DF7FCA0
S11321209A9599DE9601AE014F595F4FBE016F5BE0
S11321307F4FCB01E5DD182F8091AE029091AF0265
S1132140892BA9F0E12FF0E0EE0FFF1F81E890E06A
S11321508C0F9D1FE80FF91F608071804F2DB60111
S11321606C5F7F4FC30199DE009719F432C0612C74
S1132170712CF601228133812F5F3F4F81E090E083
S1132180112311F080E090E0880F991FE1E8F0E05E
S1132190EC0FFD1FE80FF91F408151817601890181
S11321A09301BE016F5F7F4FCB01B6DBAE014F5F82
S11321B05F4FB501C4014FDEF6016081660FCE01A9
S11321C001960E94180531E020E0811130E0832F50
S11321D0922FCC57DF4F0FB6F894DEBF0FBECDBFA2
S11321E0DF91CF911F910F91FF90EF90DF90CF90EF
S11321F0BF90AF909F908F907F906F900895FF92C3
S11322000F931F93CF93DF93F82E092F162FEA0114
S1132210462F469550E060E070E0CE010E943E1AE1
S1132220112309F43FC0EF2DF02F20E030E070E0DF
S113223060E0422F81912F5F3F4F90ED980F9A30CD
S113224018F490E0C09711C09FEB980F963018F4E3
S113225090E0C7970AC09FE9980F963020F490E069
S11322608755910902C0872F962F4695DE01A40F4A
S1132270B11DA90141705078552334F441505109DE
S11322804E6F5F6F4F5F5F4F440F551F440F551FD5
S113229002C0880F991F4A95E2F79C91890F8C938D
S11322A0211738F2DF91CF911F910F91FF9008957C
S11322B0FF920F931F93CF93DF93EC018B01672B56
S11322C051F00E94001AF82E0E94001A8F0D899373
S11322D001501109B1F781E090E0DF91CF911F9196
S11322E00F91FF9008951DB880EF8EB99FEF9093E2
S11322F06A008DBB0895CF93DF93CDB7DEB7C95D78
S1132300D1090FB6F894DEBF0FBECDBFB82E86EB51
S113231091E0DFD688E591E121DE25DE6C01AC0198
S1132320BE016E5F7F4FCE01829620DE89839601C7
S1132330AE014E595F4FBE016E5F7F4F84E692E05F
S11323409BDE898320E031E040E050E0BE016E591D
S11323507F4FCE018E579F4F52D268E0CE018296B6
S11323600E94E00184E092E0B4D60E94FA0082E088
S113237090E0DED66C019E012E523F4F40E060E0BB
S113238070E080E00E94A701B60180E00E9448014D
S1132390AE014E525F4F60E070E080E00E948B011E
S11323A062E0CE018E539F4F0E94F80110E4E12EAB
S11323B0F12C00E010E09E012E523F4F49E051E025
S11323C0BE016E577F4FCE018E559F4F04D140E121
S11323D050E0BE016E557F4FCE018E539F4F0E9439
S11323E0171A892B21F487E192E073D603C089E29E
S11323F092E06FD66B2DC601C5D0892B21F48FE3F3
S113240092E067D6B4CF8DE492E063D6B0CFCF9399
S1132410DF93CDB7DEB728970FB6F894DEBF0FBEB3
S1132420CDBF4BD660DF0E94FA006CD08FE592E0FE
S113243050D69E012F5F3F4F40E060E070E080E0A7
S11324400E94A7018981823059F018F4813031F05B
S11324500DC0843039F0883039F008C081E04BDF9A
S113246082E049DF84E047DF88E045DF80E090E0F8
S113247028960FB6F894DEBF0FBECDBFDF91CF9183
S113248008951F93CF93DF93EC01162F85E090E01E
S11324904FD6FC0112832881398131832083A09196
S11324A0B002B091B102ED91FC911197309711F403
S11324B009C0F9012381348121153105D1F79483B1
S11324C0838302C08D939C9380E090E0DF91CF9151
S11324D01F9108951F93CF93DF9300D0CDB7DEB73C
S11324E0162FAE014F5F5F4F64E089DE612FCE018E
S11324F00196C7DF80E090E00F900F90DF91CF91BD
S11325001F91089582E090E013D69093B1028093D6
S1132510B0026FE084EA92E0DDDF6FE089EA92E0E6
S1132520D9CF089542E050E082C70895EF92FF9218
S11325300F931F93CF93DF938C017B01E091B00243
S1132540F091B102C081D181CE01C3D5209789F029
S1132550B801CE01E7DF009721F4F701D183C083EE
S11325600AC00B80DC81C02D209791F781E090E0B8
S113257002C081E090E0DF91CF911F910F91FF9015
S1132580EF9008951F93CF93DF931F92CDB7DEB7DB
S1132590162F60E070E0CADF0097B1F4E09100000C
S11325A0F091010022812983222329F0112371F063
S11325B021E030E001C09C01612F70E0261737074D
S11325C029F082E090E002C081E090E00F90DF917A
S11325D0CF911F9108952F923F924F925F926F92E5
S11325E07F928F929F92AF92BF92CF92DF92EF929F
S11325F0FF920F931F93CF93DF93CDB7DEB7C856E7
S1132600D1090FB6F894DEBF0FBECDBF1C0149013E
S1132610A996ECAEFDAE0EAF1FAFA997FE01B5961D
S113262080E4DF011D928A95E9F74130B2E05B074F
S113263030F09A0140E050E0CF01E1D095C0495F0D
S11326405F4F569547955695479556954795CE01B4
S11326508596FAD689C0808189278193EC15FD057A
S1132660D1F7CE010196A4D0BE016B5D7F4FCE01A0
S11326700196A9D0A9968CAD9DADAEADBFADA9977D
S11326808115E2E09E07A105B10508F441C02C01C3
S11326903D015401B501CE01019695D0F0E4AF0E91
S11326A0B11C22E0521A61087108411482E05806F4
S11326B06104710478F7A9968CAD9DADAEADBFAD44
S11326C0A9979250A109B109072E79E0B695A7956B
S11326D0979587957A95D1F7702D01960024969554
S11326E087950794969587950794982F802D880E43
S11326F0991EA9968CAD9DADAEADBFADA997917055
S1132700AA27BB27A9968CAF9DAFAEAFBFAFA99741
S1132710A7964EAD5FADA797B401CE01019655D0F3
S11327209AE6D8018C918927F80181938F01EC15E1
S1132730FD05B9F7BE016F5F7F4FC10148D0CE01DF
S1132740019636D0BE016B5D7F4FCE0101963BD022
S113275040E051E0B101CE01019637D0BE016F5F78
S11327607F4FC10134D00AC08E010B5D1F4F6E0133
S1132770F5E6CF0ED11CF80196E36DCFC859DF4FB3
S11327800FB6F894DEBF0FBECDBFDF91CF911F917E
S11327900F91FF90EF90DF90CF90BF90AF909F90FC
S11327A08F907F906F905F904F903F902F900895FF
S11327B0FC0110A211A212A213A240E250E064E9AB
S11327C070E02CC6089592C00895A0C30895CF93D5
S11327D0DF93AC01EC01A096FA0193E0DB01A90FB1
S11327E0B11D2C9121939150C8F74C5F5F4F6C5FE2
S11327F07F4F4C175D0781F7DF91CF9108954F927A
S11328005F926F927F928F929F92AF92BF92CF927C
S1132810DF92EF92FF920F931F93CF93DF93CDB785
S1132820DEB7A4970FB6F894DEBF0FBECDBF4C0140
S11328305B0169017A01CE010196BADFC11482E01D
S1132840D806E104F10488F1260137018501B801B5
S1132850CE0101964BD0005C1F4F82E0581A6108EC
S11328607108411482E058066104710480F7D701AD
S1132870C6019250A109B109072E79E0B695A79532
S1132880979587957A95D1F7702D019600249695A2
S113289087950794969587950794982F802DA80E71
S11328A0B91E81E0D822EE24FF24A601B501CE0191
S11328B001962CD3BE016F5F7F4FC40188DFA496BD
S11328C00FB6F894DEBF0FBECDBFDF91CF911F913D
S11328D00F91FF90EF90DF90CF90BF90AF909F90BB
S11328E08F907F906F905F904F9008952F923F92BA
S11328F04F925F926F927F928F929F92AF92BF920C
S1132900CF92DF92EF92FF920F931F93CF93DF93B7
S1132910CDB7DEB7CB56D1090FB6F894DEBF0FBEE4
S1132920CDBFAC969FAF8EAFAC979E012F5F3F4F4C
S1132930A8963FAF2EAFA897205C3F4FA896EEAD68
S1132940FFADA897AF01FB0181919191A191B19144
S1132950BF01B82EAA2499248824CB2EDD24EE248A
S1132960FF24C828D928EA28FB284C015D018824C3
S1132970AA24BB24BA2CA92C982C8824C828D9288A
S1132980EA28FB2888279927BB27892F9A2FAB2F62
S1132990BB278C299D29AE29BF29FA0181939193E4
S11329A0A193B193AF01E217F30769F680E2AC9605
S11329B0EEADFFADAC97DE01AF5BBF4F01900D9262
S11329C08A95E1F70F2EF4EB2F2EF0E03F2EF02D39
S11329D0A6961FAEA69721E430E02C0F3D1F2C5F76
S11329E03F4FAA963FAF2EAFAA97A6963FADA697A4
S11329F0303148F4A896AEADBFADA897CD90DD9028
S1132A00ED90FC90B8C089AD9AADABADBCAD8D80F6
S1132A109E80AF80B8846C017D010B2EBDE0CC0C90
S1132A20DD1CEE1CFF1CBA95D1F7B02DAC01BD0125
S1132A30032E33E176956795579547953A95D1F7E7
S1132A40302D97018601042B152B262B372B6C0177
S1132A507D010B2EBFE0CC0CDD1CEE1CFF1CBA95D7
S1132A60D1F7B02DAC01BD01032E31E17695679508
S1132A70579547953A95D1F7302D4C295D296E2904
S1132A807F2968017901C426D526E626F726072E74
S1132A907AE0B695A795979587957A95D1F7702D95
S1132AA08C259D25AE25BF25CDA0DEA0EFA0F8A4E2
S1132AB049815A816B817C81C40ED51EE61EF71EA6
S1132AC08C0D9D1DAE1DBF1D750164010B2EBEE056
S1132AD0CC0CDD1CEE1CFF1CBA95D1F7B02DB50152
S1132AE0A401032E32E176956795579547953A955B
S1132AF0D1F7302DC42AD52AE62AF72AB501A40134
S1132B00689416F876956795579547951694D1F776
S1132B10950184010F2EF9E1000F111F221F331FAD
S1132B20FA95D1F7F02D402B512B622B732BC42631
S1132B30D526E626F726689412F8B694A7949794B7
S1132B4087941694D1F78C249D24AE24BF246C0161
S1132B507D01C80CD91CEA1CFB1C4CE350E0BE01EF
S1132B606B5F7F4FCE01019678D42196CCAEDDAE5B
S1132B70EEAEFFAE219765968CAD9DADAEADBFAD0B
S1132B806597F1012591359145915491A5962CAF06
S1132B903DAF4EAF5FAFA5974C015D01809490941B
S1132BA0A094B0946D964CAD5DAD6EAD7FAD6D9758
S1132BB084229522A622B72269964CAD5DAD6EADF6
S1132BC07FAD69978C019D010423152326233723A8
S1132BD0B501A40140275127622773274C015D01E9
S1132BE0072E7BE0B694A794979487947A95D1F7AF
S1132BF0702D8C019D010F2EF5E1000F111F221F76
S1132C00331FFA95D1F7F02D802A912AA22AB32AEC
S1132C102C013D01689415F8769467945794479471
S1132C201694D1F78C019D010F2EFAE1000F111FAC
S1132C30221F331FFA95D1F7F02D042915292629CF
S1132C403729082519252A253B254C015D01880CC7
S1132C50991CAA1CBB1C880C991CAA1CBB1C880CA4
S1132C60991CAA1CBB1C880C991CAA1CBB1C880C94
S1132C70991CAA1CBB1C880C991CAA1CBB1C880C84
S1132C80991CAA1CBB1C072E79E1B695A7959795AC
S1132C9087957A95D1F7702D88299929AA29BB2976
S1132CA0082719272A273B27400F511F621F731F2C
S1132CB0A1960CAD1DAD2EAD3FADA197400F511F98
S1132CC0621F731FC40ED51EE61EF71EA5968CAD9B
S1132CD09DADAEADBFADA5978C0D9D1DAE1DBF1DA9
S1132CE0A5968CAF9DAFAEAFBFAFA59725968CAC24
S1132CF09DACAEACBFAC259729964CAC5DAC6EAC2C
S1132D007FAC29972D96CCACDDACEEACFFAC2D9707
S1132D104CE150E0BE016F5B7F4FAA968EAD9FAD34
S1132D20AA979BD365968CAD9DADAEADBFAD6597AF
S1132D30A5962CAD3DAD4EAD5FADA597820F931F0B
S1132D40A41FB51F65968CAF9DAFAEAFBFAF65979F
S1132D50B501A401032E3DE07695679557954795F7
S1132D603A95D1F7302DD501C401072E73E1880FB0
S1132D70991FAA1FBB1F7A95D1F7702D842B952B11
S1132D80A62BB72BB501A401769567955795479562
S1132D907695679557954795950184010F2EFEE129
S1132DA0000F111F221F331FFA95D1F7F02D402B6E
S1132DB0512B622B732B482759276A277B279501B0
S1132DC084010F2EFAE0000F111F221F331FFA9502
S1132DD0D1F7F02DD501C401072E76E1B695A7955C
S1132DE0979587957A95D1F7702D802B912BA22BEF
S1132DF0B32B482759276A277B2797018601042587
S1132E0015252625372580229122A222B322C4200B
S1132E10D520E620F720950184010C251D252E25BB
S1132E203F25400F511F621F731FA5968CAD9DADAA
S1132E30AEADBFADA597480F591F6A1F7B1F2596DE
S1132E404CAF5DAF6EAF7FAF2597A6969FADA697AB
S1132E509F5FA6969FAFA697A4E02A0E311CA89662
S1132E60EEADFFADA8973496A896FFAFEEAFA89746
S1132E70903409F0BACDFE01EF5BFF4FAC962EAD56
S1132E803FADAC97AF01405E5F4FBF01FB01819145
S1132E909191A191B191BF01F901C080D180E280EB
S1132EA0F3808C0D9D1DAE1DBF1D81939193A19345
S1132EB0B1939F016417750749F7AC96EEADFFAD6A
S1132EC0AC9780A191A1A2A1B3A10196A11DB11DAE
S1132ED080A391A3A2A3B3A3C559DF4F0FB6F8945F
S1132EE0DEBF0FBECDBFDF91CF911F910F91FF9039
S1132EF0EF90DF90CF90BF90AF909F908F907F9096
S1132F006F905F904F903F902F9008958F929F9273
S1132F10AF92BF92CF92DF92EF92FF920F931F93E3
S1132F20CF93DF93CDB7DEB7C854D1090FB6F89469
S1132F30DEBF0FBECDBF8C014B015A01411562E0CB
S1132F40560728F16A017401B701C801CFDC72E0A9
S1132F50D71A80E4E80EF11CC11492E0D906A0F758
S1132F607501E1E0FE22F2E0BF1AAB2CBB24A6946B
S1132F706FEFA61AB60A0024B694A7940794B694E1
S1132F80A7940794BA2CA02C8A0C9B1C01C07A012C
S1132F90F80180A191A1A2A1B3A1072E79E0880F25
S1132FA0991FAA1FBB1F7A95D1F7702D8E0D9F1DF7
S1132FB0A11DB11D9C01AD0122962FAF229723962E
S1132FC03FAF239724964FAF249725965FAF25975D
S1132FD026961FAE269727961FAE279728961FAED4
S1132FE0289729961FAE2997BE016F5F7F4F6B010B
S1132FF080E4FB0111928A95E9F7A701495F5F4FCD
S1133000569547955695479556954795B401C601EB
S11330101BD2F701F695E795F695E795F695E795B2
S1133020EC0DFD1DC7018770992720E830E002C030
S1133030359527958A95E2F78081282B2083F0EC3B
S1133040EF16F1E0FF0640F0B601C8014FDC80E462
S1133050F60111928A95E9F727E04FE350E0822FB9
S113306090E0FA01E81BF90B61E070E06C0F7D1F42
S1133070E60FF71FA1E4B0E0AC0FBD1FA80FB91F06
S11330808C918083215058F7BE016F5F7F4FC80138
S11330902DDCC85BDF4F0FB6F894DEBF0FBECDBF8B
S11330A0DF91CF911F910F91FF90EF90DF90CF9020
S11330B0BF90AF909F908F9008951092C50083E3C6
S11330C08093C4008EE08093C20088E18093C100A5
S11330D00895CF93DF93FC0101900020E9F7319725
S11330E0E81BF90B1E161F0684F4DC019C012E0F4D
S11330F03F1FE0ECF0E0C6ECD0E0908195FFFDCFFF
S11331009D919883A217B307C1F7E0ECF0E08081AA
S113311085FFFDCF8DE08093C600E0ECF0E0808178
S113312085FFFDCF8AE08093C600DF91CF9108959B
S11331300F931F93CF93DF938230910510F482E0B5
S113314090E0E091B402F091B50220E030E0A0E01C
S1133150B0E0309719F14081518102811381481701
S11331605907C8F08417950769F4109731F012963F
S11331700C93129713961C9327C00093B4021093D8
S1133180B50222C02115310519F04217530718F46E
S11331909A01BD01EF01DF01F801DBCF21153105F3
S11331A0F9F0281B390B2430310580F48A819B8186
S11331B06115710521F0FB019383828304C0909310
S11331C0B5028093B402FE01329644C0FE01E20FC0
S11331D0F31F8193919322503109398328833AC094
S11331E02091B2023091B302232B41F420910201C9
S11331F0309103013093B3022093B2022091000175
S1133200309101012115310541F42DB73EB74091AC
S1133210040150910501241B350BE091B202F09199
S1133220B302E217F307A0F42E1B3F0B281739074C
S113323078F0AC014E5F5F4F2417350748F04E0F0E
S11332405F1F5093B3024093B2028193919302C0E3
S1133250E0E0F0E0CF01DF91CF911F910F9108954D
S1133260CF93DF93009709F481C0FC013297138256
S11332701282A091B402B091B502109781F420811A
S11332803181820F931F2091B2023091B30228172B
S1133290390751F5F093B302E093B20267C0ED0130
S11332A020E030E0CE17DF0740F44A815B819E01C5
S11332B041155105F1F0EA01F5CFD383C283408172
S11332C05181840F951FC817D90759F488819981B2
S11332D0840F951F0296918380838A819B819383B7
S11332E082832115310529F4F093B502E093B402E9
S11332F03DC0E901FB83EA8349915991C40FD51F6D
S1133300EC17FD0761F480819181840F951F02966B
S1133310E90199838883828193819B838A83E0E096
S1133320F0E012968D919C911397009719F0FD018E
S1133330DC01F7CF8D919C9111979D012E5F3F4F3A
S1133340820F931F2091B2023091B30228173907DC
S113335069F4309729F41092B5021092B40202C0B5
S113336013821282B093B302A093B202DF91CF9181
S113337008958F929F92AF92BF92CF92DF92EF9275
S1133380FF92CF93DF93EC01688179818A819B81DD
S1133390611571058105910521F464E279ED8BE5F0
S11333A097E02DE133EF41E050E06FD049015A013D
S11333B09B01AC01A7EAB1E484D06B017C01ACEEC3
S11333C0B4EFA501940189D0DC01CB018C0D9D1DC6
S11333D0AE1DBF1DB7FF03C00197A109B048888384
S11333E09983AA83BB839F77DF91CF91FF90EF905E
S11333F0DF90CF90BF90AF909F908F900895B9CFFA
S113340086E091E0B6CFA0E0B0E08093060190930F
S11334100701A0930801B09309010895FB01DC01A1
S113342002C005900D9241505040D8F70895FB0119
S1133430DC0104C08D910190801921F44150504069
S1133440C8F7881B990B0895FB01DC0102C00190A9
S11334500D9241505040D8F708956817790768F4E1
S1133460FB01DC01E40FF51FA40FB51F02C002909D
S11334700E9241505040D8F70895E6CFDC0101C0C8
S11334806D9341505040E0F70895052E97FB16F4D4
S113349000940FD057FD05D024D007FC02D046F489
S11334A008C050954095309521953F4F4F4F5F4F41
S11334B0089590958095709561957F4F8F4F9F4F9C
S11334C0089531D0A59F900DB49F900DA49F800DB9
S11334D0911D11240895B7FFF4CFF3DF821B930BE2
S11334E00895A1E21A2EAA1BBB1BFD010DC0AA1F41
S11334F0BB1FEE1FFF1FA217B307E407F50720F059
S1133500A21BB30BE40BF50B661F771F881F991FD3
S11335101A9469F760957095809590959B01AC011C
S1133520BD01CF010895A29FB001B39FC001A39F25
S1133530700D811D1124911DB29F700D811D1124E8
S10B3540911D0895F894FFCFDA
S11335480000B60220000100000020200001FFFF57
S1133558FFFFFFFFFFFFFFFFFFFF00000000000069
S113356800000000000001000000FFFFFFFF5125DC
S113357863FCC2CAB9F3849E17A7ADFAE6BCFFFF81
S1133588FFFFFFFFFFFF00000000FFFFFFFF96C2E1
S113359898D84539A1F4A033EB2D817D0377F24007
S11335A8A463E5E6BCF847422CE1F2D1176BF55168
S11335B8BF376840B6CBCE5E316B5733CE2B169EE1
S11335C80F7C4AEBE78E9B7F1AFEE242E34F4B6087
S11335D8D2273E3CCE3BF6B053CCB0061D65BC8624
S11335E8987655BDEBB3E7933AAAD835C65A370748
S11335F857080508BD0861757468656E7469636168
S113360874696F6E207374617274656400636861B1
S11336186C6C656E67652073656E74007369676E9C
S113362861747572652069732076616C6964210020
S11336387369676E61747572652069732066616C5D
S113364873652100736563726574206573746162C0
S11336586C69736865640041757468656E74696340
S11336686174696F6E204F6B0041757468656E7480
S113367869636174696F6E204661696C65640050A2
S113368865726D697373696F6E204F6B0050657254
S11336986D697373696F6E204661696C656400694E
S11336A8646C6500F0C863F8E555114BF4882CC7C1
S11336B887B95C272A7FE4DCDDF1922F4F18A494A4
S11336C8E1C357A1A6C32D07BEB576AB6010680643
S11336D88F0A9E0160C3A14119F5D426A7955DA35D
S11136E8E6ED3E813037323600303745300093
S9030000FC
