S00F0000476174657761792E7372656343
S113000049C0000064C0000062C0000060C000007D
S11300105EC000005CC000005AC0000058C0000070
S113002056C0000054C0000052C0000050C0000080
S11300304EC000004CC000004AC0000048C0000090
S113004046C0000044C0000042C0000040C00000A0
S11300503EC000003CC000003AC0000038C00000B0
S113006036C0000034C0000032C0000030C00000C0
S11300702EC000002CC000002AC0000028C00000D0
S113008026C0000024C0000022C0000020C00000E0
S11300901EC0000011241FBECFEFD0E1DEBFCDBFD4
S11300A011E0A0E0B1E0ECEFF6E000E00BBF02C02D
S11300B007900D92A03DB107D9F721E0A0EDB1E082
S11300C001C01D92A63DB207E1F7AFD015C398CF8A
S11300D0CF93DF93F89481E08093D80084E38093F6
S11300E0DB001092DA0080E0CDEED0E0AFEEB0E0BD
S11300F0EEEEF0E0982F9295907F98831C921082F8
S11301008F5F8F30B9F786E08093E2008CE08093B4
S1130110E30087E38093E4001092E50082E080939B
S1130120D8007894DF91CF910895CF93DF9366231D
S1130130C9F0C42FD52F282F392FD901ED919D0156
S1130140AE2FA295AF70B0E0AA5FBE4F8C918883AA
S1130150EF70F0E0EA5FFE4F808189836150229660
S11301606111EBCFDF91CF910895FF920F931F930D
S1130170CF93DF93F82E092F162FEA01462F4695C9
S113018050E060E070E0CE01B0D2112309F43FC02A
S1130190EF2DF02F20E030E070E060E0422F8191FD
S11301A02F5F3F4F90ED980F9A3018F490E0C0976E
S11301B011C09FEB980F963018F490E0C7970AC0CF
S11301C09FE9980F963020F490E08755910902C07A
S11301D0872F962F4695DE01A40FB11DA90141700A
S11301E05078552334F4415051094E6F5F6F4F5F7F
S11301F05F4F440F551F440F551F02C0880F991FAE
S11302004A95E2F79C91890F8C93211738F2DF917C
S1130210CF911F910F91FF9008951DB880EF8EB973
S11302209FEF90936A008DBB0895CF93DF93CDB772
S1130230DEB729970FB6F894DEBF0FBECDBFECD062
S113024080EC91E0F5D0E9DF43DF71D019821A82A6
S113025085E0E5ECF1E0DE01139601900D928A95BC
S1130260E1F7CE010396E4D0AE014F5F5F4F64E047
S113027085EC91E07ADFAE014D5F5F4F62E0CE0125
S1130280019653DFCE010396D3D061E0CE010196EF
S113029099D0998788878885998529960FB6F89487
S11302A0DEBF0FBECDBFDF91CF9108951F93CF93D3
S11302B0DF93EC01162F85E090E0E9D0FC01128376
S11302C02881398131832083A091D001B091D1015B
S11302D0ED91FC911197309711F409C0F901238134
S11302E0348121153105D1F79483838302C08D9322
S11302F09C9380E090E0DF91CF911F9108951F932C
S1130300CF93DF9300D0CDB7DEB7162FAE014F5F8A
S11303105F4F64E02ADF612FCE010196C7DF80E0E2
S113032090E00F900F90DF91CF911F91089582E09C
S113033090E0ADD09093D1018093D0016FE085EC33
S113034091E0DDDF6FE08AEC91E0D9CF0895CF939F
S1130350DF931F92CDB7DEB742E050E0B9D1898375
S1130360898190E00F90DF91CF910895EF92FF92F1
S11303700F931F93CF93DF938C017B01E091D00106
S1130380F091D101C081D181CE0152D0209789F062
S1130390B801CE01DCDF009721F4F701D183C083DB
S11303A00AC00B80DC81C02D209791F781E090E09A
S11303B002C081E090E0DF91CF911F910F91FF90F7
S11303C0EF9008951F93CF93DF931F92CDB7DEB7BD
S11303D0162F60E070E0CADF0097B9F4E0910000E6
S11303E0F0910100228129832281222329F0112303
S11303F071F021E030E001C09C01612F70E026170C
S1130400370729F082E090E002C081E090E00F908D
S1130410DF91CF911F9108951092C50083E38093DB
S1130420C4008EE08093C20088E18093C1000895E7
S1130430CF93DF93FC0101900020E9F73197E81B8B
S1130440F90B1E161F0684F4DC019C012E0F3F1FBE
S1130450E0ECF0E0C6ECD0E0908195FFFDCF9D91FB
S11304609883A217B307C1F7E0ECF0E0808185FF21
S1130470FDCF8DE08093C600E0ECF0E0808185FF45
S1130480FDCF8AE08093C600DF91CF9108950F934A
S11304901F93CF93DF938230910510F482E090E0B4
S11304A0E091D401F091D50120E030E0A0E0B0E08B
S11304B0309719F1408151810281138148175907FE
S11304C0C8F08417950769F4109731F012960C93CD
S11304D0129713961C9327C00093D4011093D5014F
S11304E022C02115310519F04217530718F49A0157
S11304F0BD01EF01DF01F801DBCF21153105F9F072
S1130500281B390B2430310580F48A819B816115C5
S1130510710521F0FB019383828304C09093D5017C
S11305208093D401FE01329644C0FE01E20FF31F12
S11305308193919322503109398328833AC02091C1
S1130540D2013091D301232B41F420910201309147
S113055003013093D3012093D20120910001309103
S113056001012115310541F42DB73EB74091040135
S113057050910501241B350BE091D201F091D30178
S1130580E217F307A0F42E1B3F0B2817390778F066
S1130590AC014E5F5F4F2417350748F04E0F5F1FC5
S11305A05093D3014093D2018193919302C0E0E030
S11305B0F0E0CF01DF91CF911F910F910895CF9378
S11305C0DF93009709F481C0FC01329713821282F1
S11305D0A091D401B091D501109781F4208131818B
S11305E0820F931F2091D2013091D301281739072C
S11305F051F5F093D301E093D20167C0ED0120E0FF
S113060030E0CE17DF0740F44A815B819E0141153B
S11306105105F1F0EA01F5CFD383C28340815181C2
S1130620840F951FC817D90759F488819981840FBD
S1130630951F0296918380838A819B819383828311
S11306402115310529F4F093D501E093D4013DC07F
S1130650E901FB83EA8349915991C40FD51FEC1733
S1130660FD0761F480819181840F951F0296E90151
S113067099838883828193819B838A83E0E0F0E07D
S113068012968D919C911397009719F0FD01DC014E
S1130690F7CF8D919C9111979D012E5F3F4F820F53
S11306A0931F2091D2013091D3012817390769F49F
S11306B0309729F41092D5011092D40102C013820C
S11306C01282B093D301A093D201DF91CF91089508
S11306D0FB01DC0104C08D910190801921F441508B
S11306E05040C8F7881B990B0895DC0101C06D9335
S10F06F041505040E0F70895F894FFCF0B
S11306FC0000D601200030313233343536373839E6
S113070C6162636465660061757468656E746963BF
S113071C6174696F6E2073746172746564006368CC
S113072C616C6C656E67652073656E7400736967C4
S113073C6E61747572652069732076616C696421CD
S113074C007369676E6174757265206973206661E4
S113075C6C736521007365637265742065737461D1
S113076C626C69736865640041757468656E74695C
S113077C636174696F6E204F6B0041757468656EAC
S113078C7469636174696F6E204661696C65640099
S113079C5065726D697373696F6E204F6B00506591
S11307AC726D697373696F6E204661696C65640060
S11307BC74657374003037323600303745300000BE
S9030000FC
