S00F0000476174657761792E7372656343
S1130000A9C10000C6C10000C4C10000C2C10000F3
S1130010C0C10000BEC10000BCC10000BAC10000E4
S11300200C943C12B6C10000B4C10000B2C100007F
S1130030B0C10000AEC10000ACC10000AAC1000004
S1130040A8C10000A6C10000A4C10000A2C1000014
S1130050A0C100009EC100009CC100009AC1000024
S113006098C1000096C1000094C1000092C1000034
S113007090C100008EC100008CC100008AC1000044
S113008088C1000086C1000084C1000082C1000054
S113009080C1000022AE28D7982F8A42CD65EF2375
S11300A0914437712F3B4DECCFFBC0B5BCDB89814C
S11300B0A5DBB5E938B548F35BC2563919D005B6A6
S11300C0F111F1599B4F19AFA4823F9218816DDA57
S11300D0D55E1CAB420203A398AA07D8BE6F704535
S11300E0015B83128CB2E44EBE853124E2B4FFD5A9
S11300F0C37D0C556F897BF2745DBE72B196163B5D
S1130100FEB1DE803512C725A706DC9B942669CF95
S113011074F19BC1D24AF19EC1699BE4E3254F3837
S11301208647BEEFB5D58C8BC69DC10F659CAC7759
S1130130CCA10C2475022B596F2CE92D83E4A66EF7
S1130140AA84744AD4FB41BDDCA9B05CB5531183C5
S1130150DA88F976ABDF66EE52513E981032B42D50
S11301606DC631A83F21FB98C82703B0E40EEFBE4B
S1130170C77F59BFC28FA83DF30BE0C625A70A93DA
S11301804791A7D56F8203E05163CA06706E0E0AC9
S113019067292914FC2FD246850AB72726C9265C6D
S11301A038211B2EED2AC45AFC6D2C4DDFB3959DCE
S11301B0130D3853DE63AF8B54730A65A8B2773CD2
S11301C0BB0A6A76E6AEED472EC9C2813B3582147E
S11301D0852C72926403F14CA1E8BFA2013042BCA9
S11301E04B661AA89197F8D0708B4BC230BE540658
S11301F0A3516CC71852EFD619E892D110A96555CE
S1130200240699D62A20715785350EF4B8D1BB320D
S113021070A06A10C8D0D2B816C1A41953AB41510A
S1130220086C371E99EB8EDF4C774827A8489BE172
S1130230B5BCB034635AC9C5B30C1C39CB8A41E38D
S11302404AAAD84E73E363774FCA9C5BA3B8B2D66D
S1130250F36F2E68FCB2EF5DEE828F74602F17434C
S11302606F63A57872ABF0A11478C884EC39641A72
S11302700802C78C281E6323FAFFBE90E9BD82DE04
S1130280EB6C50A41579C6B2F7A3F9BE2B5372E3F5
S1130290F27871C69C6126EACE3E27CA07C2C02105
S11302A0C7B886D11EEBE0CDD67DDAEA78D16EEE02
S11302B07F4F7DF5BA6F1772AA67F006A698C8A299
S11302C0C57D630AAE0DF9BE04983F111B471C138C
S11302D0350B711B847D0423F577DB289324C740F9
S11302E07BABCA32BCBEC9150ABE9E3C4C0D109CE9
S11302F0C4671D43B6423ECBBED4C54C2A7E65FCC2
S11303009C297F59ECFAD63AAB6FCB5F1758474A12
S11303108C19446C08C9BCF367E6096A3BA7CA8414
S113032085AE67BB2BF894FE72F36E3CF1361D5F0D
S11303303AF54FA5D182E6AD7F520E511F6C3E2B8C
S11303408C68059B6BBD41FBABD9831F79217E1360
S113035019CDE05B11241FBECFEFD0E1DEBFCDBFCE
S113036015E0A0E0B1E0E6E3F1E400E00BBF02C079
S113037007900D92A631B107D9F725E0A6E1B5E0C3
S113038001C01D92AD31B207E1F70E9459130C94DC
S1130390992036CE20E1829FC00111248860809389
S11303A0ED000895CF93DF93F89481E08093D80013
S11303B084E38093DB001092DA0020E04DEE50E0FD
S11303C0CFEED0E06EEE70E0EAEFF0E0822F82959F
S11303D0807FDA018C931882DB011C9288E090E024
S11303E010820197E9F72F5F2F3081F788E080931F
S11303F0ED0086E08093E2008CE08093E30087E3E5
S11304008093E4001092E50082E08093D800789411
S1130410DF91CF9108951F93CF93DF93182FEB01B2
S1130420B9DF20E1129FC0011124886090E0ADEE95
S1130430B0E0EAEFF0E0292F282B2C9320812993B8
S11304409F5F9830C1F78093ED00DF91CF911F91AA
S113045008950F931F93CF938C01C0E0B8018C2FA4
S1130460DADF085F1F4FCF5FC830C1F7CF911F910C
S11304700F910895CF93DF93EB018CDF9091F200FD
S1130480E3EFF0E08081929596959770880F880F3E
S1130490880F892B888380818295869587708983CC
S11304A0DF91CF910895FC0180818295880F807E31
S11304B08093F2002081269526952695918130E23D
S11304C0939FC0011124822B8093F3001092F000BB
S11304D00895FC0180818295880F807E8093F600C8
S11304E02081269526952695918130E2939FC0011F
S11304F01124822B8093F7001092F40008951F9327
S1130500CF93DF93EC01162F862F44DF80E1189FF1
S1130510B0011124686080E0ADEEB0E0EAEFF0E0F5
S1130520982F962B9C93999190838F5F8830C1F775
S11305306093ED00DF91CF911F910895EF92FF92A8
S11305400F931F93CF93C82F7B018A0123DFC70129
S1130550AADF6C2FC801D3DF88E48093EF00EEEEAE
S1130560F0E080818034E9F71092EE001092EF0001
S113057080E090E0CF911F910F91FF90EF9008954C
S1130580CF92DF92EF92FF920F931F93CF93C82FD6
S11305906B017A018901FEDE81E090E00C2E02C03D
S11305A0880F991F0A94E2F78093DE00C6017BDF6F
S11305B0C7018FDF88E88093EF00EAEDF0E08081E7
S11305C08823ECF78091EE0085FF10C01092EE00B6
S11305D01092EF001092DE00EAEDF0E0808180835B
S11305E0B8018C2F18DF80E090E002C081E090E039
S11305F0CF911F910F91FF90EF90DF90CF900895CE
S1130600EF92FF920F931F93CF93DF9300D0CDB758
S1130610DEB77C01062F662379F010E019831A8275
S1130620A701BE016F5F7F4F812F88DF88E0E80E4E
S1130630F11C1F5F0113F2CF80E090E00F900F9048
S1130640DF91CF911F910F91FF90EF9008958F92BA
S11306509F92AF92BF92CF92DF92EF92FF920F934D
S11306601F93CF93DF9300D000D0CDB7DEB76C01DA
S1130670F62EEBEDF0E08081846080836623E1F068
S113068010E00FEF0F2EFFEEAF2EB12CF02D0F2E3A
S1130690F8ECEF2EF02D812F7DDE1B831C82CE0122
S11306A0039601DF09830A83CE01019612DFF50167
S11306B0E0821F5FF112EFCFEAEDF0E08081882342
S11306C0ECF78091DA0084FF20C0FF20A1F010E055
S11306D00F2EFFEE8F2E912CF02D0F2EFEEEAF2E4F
S11306E0B12CF02D812F56DEF4011082F501108219
S11306F01F5FF112F7CFEAEDF0E0808180836F2D68
S1130700C601A7DE80E090E002C081E090E00F9097
S11307100F900F900F90DF91CF911F910F91FF9049
S1130720EF90DF90CF90BF90AF909F908F900895FF
S1130730DC01EEEBF3E0E61BF10909941D921D9236
S11307401D921D921D921D921D921D921D921D922D
S11307501D921D921D921D921D921D921D921D921D
S11307601D921D921D921D921D921D921D921D920D
S11307701D921D921D921D921D921D920895CF935C
S1130780DF93440FEB01DC01E9E0F4E0E41BF10941
S1130790099409900D9209900D9209900D92099077
S11307A00D9209900D9209900D9209900D92099065
S11307B00D9209900D9209900D9209900D92099055
S11307C00D9209900D9209900D9209900D92099045
S11307D00D9209900D9209900D9209900D92099035
S11307E00D9209900D9209900D9209900D92099025
S11307F00D9209900D9209900D9209900D92099015
S11308000D9209900D9209900D9209900D92099004
S11308100D92DF91CF910895262F062E000C330BF5
S113082021503109322F330F230FDC01EDE7F4E0BF
S1130830E21BF109A60FB11D0E9006940C920994C7
S11308400E9007940C920E9007940C920E900794BD
S11308500C920E9007940C920E9007940C920E90AA
S113086007940C920E9007940C920E9007940C929D
S11308700E9007940C920E9007940C920E9007948D
S11308800C920E9007940C920E9007940C920E907A
S113089007940C920E9007940C920E9007940C926D
S11308A00E9007940C920E9007940C920E9007945D
S11308B00C920E9007940C920E9007940C920E904A
S11308C007940C920E9007940C920E9007940C923D
S11308D00E9007940C920E9007940C920E9007942D
S11308E00C920E9007940C920E9007940C920E901A
S11308F007940C920E9007940C920895CF93DF9373
S1130900220FDB01EA01AC01EAECF4E0E21BF1099D
S113091088940994FA013EC0FA0140C0FA0142C029
S1130920FA0144C0FA0146C0FA0148C0FA014AC0BB
S1130930FA014CC0FA014EC0FA0150C0FA0152C08B
S1130940FA0154C0FA0156C0FA0158C0FA015AC05B
S1130950FA015CC0FA015EC0FA0160C0FA0162C02B
S1130960FA0164C0FA0166C0FA0168C0FA016AC0FB
S1130970FA016CC0FA016EC0FA0170C0FA0172C0CB
S1130980FA0174C0FA0176C0FA0178C0FA017AC09B
S1130990FA017CC08D919991891F81938D919991D0
S11309A0891F81938D919991891F81938D9199913B
S11309B0891F81938D919991891F81938D9199912B
S11309C0891F81938D919991891F81938D9199911B
S11309D0891F81938D919991891F81938D9199910B
S11309E0891F81938D919991891F81938D919991FB
S11309F0891F81938D919991891F81938D919991EB
S1130A00891F81938D919991891F81938D919991DA
S1130A10891F81938D919991891F81938D919991CA
S1130A20891F81938D919991891F81938D919991BA
S1130A30891F81938D919991891F81938D919991AA
S1130A40891F81938D919991891F81938D9199919A
S1130A50891F81938D919991891F81938D9199918A
S1130A60891F81938D919991891F81938D9199917A
S1130A70891F81938D919991891F81938D9199916A
S1130A80891F81938D919991891F81938D9199915A
S1130A90891F8193812D881FDF91CF910895CF9372
S1130AA0DF93220FDB01EA01AC01EBE9F5E0E21B85
S1130AB0F10988940994FA013EC0FA0140C0FA0190
S1130AC042C0FA0144C0FA0146C0FA0148C0FA0122
S1130AD04AC0FA014CC0FA014EC0FA0150C0FA01F2
S1130AE052C0FA0154C0FA0156C0FA0158C0FA01C2
S1130AF05AC0FA015CC0FA015EC0FA0160C0FA0192
S1130B0062C0FA0164C0FA0166C0FA0168C0FA0161
S1130B106AC0FA016CC0FA016EC0FA0170C0FA0131
S1130B2072C0FA0174C0FA0176C0FA0178C0FA0101
S1130B307AC0FA017CC08D919991890B81938D9132
S1130B409991890B81938D919991890B81938D91C1
S1130B509991890B81938D919991890B81938D91B1
S1130B609991890B81938D919991890B81938D91A1
S1130B709991890B81938D919991890B81938D9191
S1130B809991890B81938D919991890B81938D9181
S1130B909991890B81938D919991890B81938D9171
S1130BA09991890B81938D919991890B81938D9161
S1130BB09991890B81938D919991890B81938D9151
S1130BC09991890B81938D919991890B81938D9141
S1130BD09991890B81938D919991890B81938D9131
S1130BE09991890B81938D919991890B81938D9121
S1130BF09991890B81938D919991890B81938D9111
S1130C009991890B81938D919991890B81938D9100
S1130C109991890B81938D919991890B81938D91F0
S1130C209991890B81938D919991890B81938D91E0
S1130C309991890B8193812D881FDF91CF9108951C
S1130C40CF93DF93FC01DB01EA0190E0892F392F78
S1130C50492F51E060E0C50FD41F0D901A90019CFC
S1130C60900D811D341F63956517B8F3A51BB40B54
S1130C709193982F832F342F5395521758F3522F53
S1130C80C20FD41F60E00D901A90019C900D811D3D
S1130C90341F63956517B8F3C50FD41F9193982F2C
S1130CA0832F342F5A95A51BB40B541759F79193DE
S1130CB01124DF91CF91089516167CF4FC01615044
S1130CC0462F50E04F5F5F4F480F591F90E021912E
S1130CD0922BE417F507D9F701C090E081E0911158
S1130CE080E008959B013595279535952795359591
S1130CF02795820F931F6770772721E030E002C0A9
S1130D00220F331F6A95E2F7FC0180818223089544
S1130D109C01615092F0FC01E60FF11D67FDFA950C
S1130D20808181110AC0615042F0F901E60FF11D82
S1130D3067FDFA9590819923B1F36F5FE9F0260F6F
S1130D40311D67FD3A95F90131978081882331F08F
S1130D5020E086952F5F8111FCCF01C020E0862F13
S1130D60660F990B0197880F991F880F991F880F99
S1130D70991F820F911D089580E090E00895DC0191
S1130D8041502AF1842F042E000C990BFD01E80F29
S1130D90F91F2081FB01E80FF91F80818217C8F039
S1130DA0281788F418C0242F042E000C330BFD01DF
S1130DB0E20FF31F5081FB01E20FF31F908195179F
S1130DC060F0591760F0415072F780E0089580E0B8
S1130DD0089581E008958FEF089581E008958FEFDD
S1130DE00895EF92FF920F93CF93DF93EC01790173
S1130DF0202F84DD811106C0402FBE01C701BFDF53
S1130E00813029F0202FA701BE01CE0148DEDF91F9
S1130E10CF910F91FF90EF900895EF92FF920F936F
S1130E20CF93DF93EC017901202F39DE882329F059
S1130E30202FA701BE01CE0161DDDF91CF910F917B
S1130E40FF90EF9008952F923F924F925F926F928E
S1130E507F928F929F92AF92BF92CF92DF92EF9246
S1130E60FF920F931F93CF93DF93CDB7DEB7CC5C84
S1130E70D1090FB6F894DEBF0FBECDBFC753DF4F05
S1130E8099838883C95CD040C22ED32EA02E202FF4
S1130E908E010F5F1F4FC801D3DECE018F5B9F4FC2
S1130EA0CF53DF4F99838883C15CD040CD53DF4F4C
S1130EB019830883C35CD0408A2C0A2C000C99083F
S1130EC06A2D8C2D9D2D24DF3401660C771C660C55
S1130ED0771C660C771C660C771C681A790A7301F8
S1130EE01AF427E0E20EF11CF594E794F594E794E4
S1130EF0F594E794C30187709078992324F40197BB
S1130F00886F9F6F0196182F6E2DCE018F579F4FBC
S1130F100FDC1116C4F5AA2009F441C0AC2DBD2D77
S1130F200E2C000CFF08E1E8F0E0EC0FFD1FEE0DC5
S1130F30FF1D8FEF8A0D90E00196E80EF91E41E83F
S1130F4050E04C0F5D1F4E0D5F1D00E068E070E047
S1130F50611B710917FD73959D91892F90E09C0188
S1130F60012E02C0220F331F0A94E2F7202B219393
S1130F70062E02C0959587950A94E2F7082FE41788
S1130F80F50751F70CC04A2D6C2D7D2D81E890E0BA
S1130F908C0F9D1F8E0D911DE7FC9A95F0DB772039
S1130FA00CF4A6C08401000F111FBB24B394442485
S1130FB04394512C7E0131E8E30EF11CC953DF4FF9
S1130FC0E882C75CD040C853DF4FF882C85CD04089
S1130FD0DD24D394C12CC40101971701280E391EB6
S1130FE08E0C9F1CC7018A0D911DA7FC9A95CB53AB
S1130FF0DF4F99838883C55CD04057C0E62F062E07
S1131000000CFF0BDA01AE0FBF1FBC90C553DF4FBE
S1131010B882CB5CD0408E0D9F1DDC018C91B81A38
S11310208B2D871BC553DF4FB881CB5CD040B817DD
S113103021F07D2DB81708F07C2DE20FF31F80837B
S11310406F5F862F062E000C990B80179107B4F260
S1131050C453DF4FB880CC5CD04001C070E081E065
S1131060B71280E0B82E6A2DC953DF4F8881C75C60
S1131070D040C853DF4F9881C85CD040CDDBF40129
S11310808081F0E88F9FC0011124D1019C91892BAC
S11310908C936A2DCB53DF4F88819981C55CD040F6
S11310A0BBDBB1E06B1A710828F110161106B4F617
S11310B08B2D90E0FC01EE0FFF1F21EC30E02C0F94
S11310C03D1FE20FF31F40815181F201E81BF90B30
S11310D0EE0FFF1FE20FF31F2081318170E080E0EB
S11310E090E060E0C453DF4FB882CC5CD04086CF40
S11310F0BB24B394EB2DF0E0EE0FFF1F81EC90E0E6
S11311008C0F9D1FE80FF91F608171814A2DC75311
S1131110DF4F88819981C95CD04031DBC453DF4FF4
S11311200FB6F894DEBF0FBECDBFDF91CF911F91F4
S11311300F91FF90EF90DF90CF90BF90AF909F9072
S11311408F907F906F905F904F903F902F90089575
S1131150EF92FF920F931F93CF93DF93CDB7DEB738
S1131160C054D1090FB6F894DEBF0FBECDBF7C01C9
S11311708901F9012081CE01019662DDF801E6556D
S1131180FF4F0190F081E02DBE016F5F7F4FC701DB
S11311900995C05CDF4F0FB6F894DEBF0FBECDBF1C
S11311A0DF91CF911F910F91FF90EF9008959A01D5
S11311B0AB01CECF08950F931F93CF93DF938C0190
S11311C0C42FFC01808180FF15C0242FAB01B8011E
S11311D0C80194DBD82F6C2FC8011EDBDD2369F016
S11311E0EC2FCC0FFF0B3197E00FF11F808180684B
S11311F0808303C0642FC8010FDBDF91CF911F915F
S11312000F910895AF92BF92CF92DF92EF92FF9227
S11312101F93CF93DF93CDB7DEB7C058D1090FB674
S1131220F894DEBF0FBECDBF5C016B017A01122FB3
S1131230622FC60141DD882321F0612FC50178DAD0
S1131240A1C0412FB601CE01019699DA412FB70111
S1131250CE01819694DA612FCE018F5B9F4F68DABD
S113126081E022968FAF2297612FCE018F599F4F35
S11312705FDA79C0998190FD0BC0612FCE01019690
S1131280CBDA412FB701CE018F5B9F4F94DF6BC048
S113129099A190FD0BC0612FCE018196BDDA412F3B
S11312A0B701CE018F599F4F86DF5DC0181674F5C4
S11312B0212FAE014F5D5F4FBE016F5F7F4FCB01AA
S11312C0EEDB612FCE010196A7DA412FBE016F59E3
S11312D07F4FCE018F5B9F4F52DD88233CF4212F3B
S11312E0A701BE016F5B7F4FCB0108DB212FAE014D
S11312F04F595F4FBE016F5B7F4FCB01D0DB412F56
S1131300B701CE018F5B9F4F56DF2DC0212FAE0159
S11313104F5F5F4FBE016F5D7F4FCB01C0DB612F1D
S1131320CE01819679DA412FBE016F5B7F4FCE01EA
S11313308F599F4F24DD88233CF4212FA701BE0140
S11313406F597F4FCB01DADA212FAE014F5B5F4F2C
S1131350BE016F597F4FCB01A2DB412FB701CE01F4
S11313608F599F4F28DF412FBE016F5D7F4FCE0104
S1131370019605DD81117ECF412FBE016F5B7F4F4A
S1131380C501FDD9C058DF4F0FB6F894DEBF0FBEBC
S1131390CDBFDF91CF911F91FF90EF90DF90CF9061
S11313A0BF90AF9008956F927F928F929F92AF9269
S11313B0BF92CF92DF92EF92FF920F931F93CF933E
S11313C0DF93CDB7DEB7C054D1090FB6F894DEBFB2
S11313D00FBECDBF6C013B017A015901F9011081A7
S11313E0612FCA0169DC811196C0A501B301CE0148
S11313F00196DDDE9501AE014F5F5F4FB601CE0170
S11314008196A6DEA501BE016F5F7F4FCB01CFDEC3
S11314109501A701B301C3019BDEA501B701C70173
S1131420C6DE4501F4E08F0E911C012F9401A70143
S1131430B601C601D6DC9401A701B701C701D1DC0E
S11314409401A701B601C701E8DC9501A701B60123
S1131450C6017EDE9401A601B601C701C2DC940177
S1131460A701B601C601BDDC60E070E0C6013ADC4C
S11314708823C1F0212FA401B601C6013FDA082F49
S1131480612FC601C9D9E12F012E000CFF0B319742
S1131490EC0DFD1D20E8029FC00111240081082BE2
S11314A0008303C0612FC601B7D9A501B601C701E6
S11314B07EDE012F9401AE014F5D5F4FB701C7017E
S11314C0ACDC9401AE014F5D5F4FB701C701A5DCF1
S11314D09401A701BE016F5D7F4FCB019EDC950196
S11314E0AE014F5D5F4FB601C60132DE9401AE011D
S11314F04F5F5F4FB601CA0190DC412FB701C601AF
S11315003ED9412FB301C7013AD9412FBE016F5FC4
S11315107F4FC30134D9C05CDF4F0FB6F894DEBFF0
S11315200FBECDBFDF91CF911F910F91FF90EF9030
S1131530DF90CF90BF90AF909F908F907F906F90EF
S113154008956F927F928F929F92AF92BF92CF92A3
S1131550DF92EF92FF920F931F93CF93DF93CDB758
S1131560DEB7A0970FB6F894DEBF0FBECDBF7C01E7
S11315704B016A01CE0101963C0180E2F301119214
S11315808A95E9F783E08983FA011081C7010FDEA8
S11315905601F4E0AF0EB11C012F9501A301B70170
S11315A0C7013BDC9601A401B701C701D1DDA60147
S11315B04C575F4F9501B701C70113DCA0960FB6D6
S11315C0F894DEBF0FBECDBFDF91CF911F910F9175
S11315D0FF90EF90DF90CF90BF90AF909F908F904F
S11315E07F906F900895BF92CF92DF92EF92FF9217
S11315F00F931F93CF93DF93CDB7DEB7C054D109B8
S11316000FB6F894DEBF0FBECDBF6C017B0190E234
S11316108E010F5F1F4FD801E92F1D92EA95E9F75C
S113162081E08983FE01B196DF011D929A95E9F765
S113163089A3FB01B0806C5F7F4F2B2DA801C801EB
S11316405DD96B2DC80164DB8C0101501109023096
S11316501105C4F0A701BE016F5D7F4FCB01A7DD6B
S1131660B801CE0101963EDB882339F09701A6012B
S1131670BE016F5D7F4FCB016BDD0150110901305D
S1131680110541F74B2DBE016F5D7F4FC60177D821
S1131690C05CDF4F0FB6F894DEBF0FBECDBFDF9145
S11316A0CF911F910F91FF90EF90DF90CF90BF905B
S11316B00895CF92DF92FF920F931F93CF93DF93FE
S11316C0CDB7DEB7A0970FB6F894DEBF0FBECDBF7F
S11316D06C018B0140E253D81C821B821A8219824E
S11316E018861F821E821D821C861B861A861986F6
S11316F0F80184A58D8785A58E8786A58F8787A504
S1131700888B80A9898B81A98A8B82A98B8B83A9D9
S11317108C8B84A98D8B85A98E8B86A98F8B87A9A9
S1131720888F80AD898F81AD8A8F82AD8B8F83AD99
S11317308C8F84AD8D8F85AD8E8F86AD8F8F87AD69
S113174088A320E2AE014F5F5F4FBA01CA01D6D829
S1131750F82E20E2AE014F5F5F4FB601C601CED82E
S1131760F80EF80180A98D8781A98E8782A98F87B9
S113177083A9888B84A9898B85A98A8B86A98B8B5D
S113178087A98C8B80AD8D8B81AD8E8B82AD8F8B39
S113179083AD888F84AD898F85AD8A8F86AD8B8F1D
S11317A087AD8C8F18A21F8E1E8E1D8E20E2AE0177
S11317B04F5F5F4FBA01CA01A1D8F80E20E2AE0113
S11317C04F5F5F4FB601C60199D8F80EF80180A1AA
S11317D0898381A18A8382A18B8383A18C8384A141
S11317E08D8385A18E8386A18F8387A1888780A519
S11317F0898781A58A8782A58B8783A58C87188A88
S11318001F861E861D861C8A1B8A1A8A198A188EB0
S11318101F8A1E8A1D8A80AD898F81AD8A8F82AD11
S11318208B8F83AD8C8F84AD8D8F85AD8E8F86AD80
S11318308F8F87AD88A320E2AE014F5F5F4FB60163
S1131840C6015CD8F80EF80184A1898385A18A8336
S113185086A18B8387A18C8380A58D8381A58E83AC
S113186082A58F8383A5888784A5898785A58A8790
S113187086A58B8787A58C8734A93D8725A92E87C4
S113188096A99F8787A9888B40AD498B41AD4A8B28
S113189042AD4B8B43AD4C8B44AD4D8B45AD4E8B24
S11318A046AD4F8B47AD488F398F2A8F9B8F8C8FD6
S11318B080A18D8F81A18E8F82A18F8F83A188A318
S11318C020E2AE014F5F5F4FB601C60117D8F80E94
S11318D0F80184A5898385A58A8386A58B8387A53A
S11318E08C8380A98D8381A98E8382A98F8383A908
S11318F0888784A9898785A98A8786A98B8787A9E8
S11319008C87188A1F861E861D861C8A1B8A1A8A43
S1131910198A188E1F8A1E8A1D8A80A1898F81A127
S11319208A8F82A18B8F83A18C8F80A58D8F81A5B7
S11319308E8F82A58F8F83A588A320E2AE014F5F8F
S11319405F4FB601C601ABD8F81AF80180A98983A4
S113195081A98A8382A98B8383A98C8384A98D839B
S113196085A98E8386A98F8387A9888780AD898777
S113197081AD8A8782AD8B8783AD8C8784AD8D875B
S113198085AD8E8786AD8F8787AD888B1C8A1B8A31
S11319901A8A198A188E1F8A1E8A1D8A84A1898F21
S11319A085A18A8F86A18B8F87A18C8F84A58D8F2B
S11319B085A58E8F86A58F8F87A588A320E2AE018B
S11319C04F5F5F4FB601C6016AD8F81AF80184A9BF
S11319D0898385A98A8386A98B8387A98C8380AD13
S11319E08D8381AD8E8382AD8F8383AD888784ADF3
S11319F0898785AD8A8786AD8B8787AD8C8780A1E3
S1131A008D8781A18E8782A18F8783A1888B84A1F2
S1131A10898B85A18A8B86A18B8B87A18C8B80A5D2
S1131A208D8B81A58E8B82A58F8B83A5888F1C8E31
S1131A301B8E1A8E198E80A98D8F81A98E8F82A9F3
S1131A408F8F83A988A320E2AE014F5F5F4FB60159
S1131A50C60125D8F81AF80180AD898381AD8A833F
S1131A6082AD8B8383AD8C8384AD8D8385AD8E8372
S1131A7086AD8F8387AD88871C861B861A86198658
S1131A8084A18D8785A18E8786A18F8787A1888B66
S1131A9080A5898B81A58A8B82A58B8B83A58C8B52
S1131AA084A58D8B85A58E8B86A58F8B87A5888F26
S1131AB01C8E1B8E1A8E198E84A98D8F85A98E8FEC
S1131AC086A98F8F87A988A320E2AE014F5F5F4F5D
S1131AD0B601C6010E944F051F2D181B92F420E287
S1131AE04AE451E0B601C6010E947E04180FBAF31D
S1131AF011C020E24AE451E0B601C6010E944F053C
S1131B00181B1111F6CF40E2B6018AE491E037D9EF
S1131B10813079F7A0960FB6F894DEBF0FBECDBF23
S1131B20DF91CF911F910F91FF90DF90CF90089597
S1131B30AF92BF92CF92DF92EF92FF920F931F93D7
S1131B40CF93DF93CDB7DEB7A0970FB6F894DEBF7F
S1131B500FBECDBF5C017B016A018901A901B601F9
S1131B60CE01019624DB9801AE014F5F5F4FB501B2
S1131B70C501EEDA9801A601BE016F5F7F4FCB016C
S1131B80E7DA9801AE014F5F5F4FB701C701E0DAB2
S1131B90A0960FB6F894DEBF0FBECDBFDF91CF91F4
S1131BA01F910F91FF90EF90DF90CF90BF90AF9077
S1131BB008954F925F926F927F928F929F92AF920D
S1131BC0BF92CF92DF92EF92FF920F931F93CF9326
S1131BD0DF93CDB7DEB7A0970FB6F894DEBF0FBE84
S1131BE0CDBF3C012B017A0159016801F801108134
S1131BF04601F4E08F0E911C012F9401AC01B70152
S1131C00CE0101960AD9A601BE016F5F7F4FCB01B9
S1131C10CEDA9601AE014F5F5F4FB301C30198DA8C
S1131C209601AE014F5F5F4FB701C70191DA94018E
S1131C30A201B501C501F1D8A601B501CE010196F5
S1131C40B6DA9401A301BE016F5F7F4FCB01E5D8E3
S1131C509401A701BE016F5F7F4FCB01DED89401D1
S1131C60A301B701C701D9D89601A701B201C201E6
S1131C706FDA9401AE014F5F5F4FB301C701CDD856
S1131C809601A701B501C50163DA9401A201B5016A
S1131C90C501C3D8412FBE016F5F7F4FC7010E94AA
S1131CA0BF03A0960FB6F894DEBF0FBECDBFDF9181
S1131CB0CF911F910F91FF90EF90DF90CF90BF9045
S1131CC0AF909F908F907F906F905F904F9008950A
S1131CD0CF93DF93DC0116161706CCF420E030E036
S1131CE090E0EB012197FE01E21BF30BE40FF51FDB
S1131CF02081FD01E90FF11D97FDFA9520839F5F77
S1131D00292F092E000C330B2617370764F3DF91B4
S1131D10CF9108958F929F92AF92BF92CF92DF920C
S1131D20EF92FF920F931F93CF93DF938C014B019C
S1131D307901F901828193810796EC010AF42796CF
S1131D40D595C795D595C795D595C795CC2EDD2E38
S1131D5056014C155D0508F45A016C2FC8010E9408
S1131D609803A401B501C801B3DFAA0CBB1CAA0CDB
S1131D70BB1CAA0CBB1CF701828193818A159B05AD
S1131D80A0F5B501681B790BF801EC0DFD1D0E17CC
S1131D901F07D8F4D801D12C48E050E0461B570B5C
S1131DA09291292F30E0C901062E02C0959587959E
S1131DB00A94E2F78D298083042E01C0220F0A942D
S1131DC0EAF7D22EAE17BF0759F7F4E2EF0EF11C73
S1131DD04C2FB801C7010E94BF06813031F02C2F6F
S1131DE0A701B801C8010E944F05DF91CF911F914F
S1131DF00F91FF90EF90DF90CF90BF90AF909F90A6
S1131E008F90089586E491E008952F923F924F9227
S1131E105F926F927F928F929F92AF92BF92CF9276
S1131E20DF92EF92FF920F931F93CF93DF93CDB77F
S1131E30DEB7CC5CD1400FB6F894DEBF0FBECDBF89
S1131E404C01C753DE4F79836883C95CD140C553C5
S1131E50DE4F59834883CB5CD14059017801D801C6
S1131E603C9012968D919C91139707966C011AF4ED
S1131E70B7E0CB0ED11CD594C794D594C794D59410
S1131E80C7940C2D0C2C000C110B01501109E1EA24
S1131E90F0E0EC0FFD1FE00FF11F1082E9E8F1E024
S1131EA0EC0FFD1FE00FF11F1082E9EAF1E0EC0FE7
S1131EB0FD1FE00FF11F1082F7016181062E000C57
S1131EC0770BA401CE01875B9E4F02DFD7011196E9
S1131ED06C91632C032C000C77080F2EF9E44F2E21
S1131EE055245394F02D4C0E5D1E460C571C062EA3
S1131EF0000C770BA401460F571FC201E9DEF7015E
S1131F006181062E000C770BA501CE0187579E4FE9
S1131F10DFDED70111966C91062E000C770BA5011C
S1131F20460F571FCE0187559E4FD2DE632DCE013B
S1131F3087579E4F0E945C068111FDC1632DCE011F
S1131F4087559E4F0E945C068111F8C14701B4E297
S1131F508B0E911C4C2DBE0167577E4FC4010E940D
S1131F60BF06813009F0EDC14C2DBE0167557E4F8F
S1131F70C4010E94BF06813009F0E6C12C2DA401E2
S1131F80BE0167557E4FCE018F5B9F4F3BD9E1E089
S1131F90F0E0EC0FFD1FE00FF11F10829701C55315
S1131FA0DE4F48815981CB5CD140C753DE4F6881F5
S1131FB07981C95CD140CE010196ACDE0C2D94012F
S1131FC0AE014F5B5F4FBE016F5F7F4FCB010E943D
S1131FD023079401AE014F5B5F4FBE0167577E4FED
S1131FE0CE0181960E9423075E01E1E6AE0EB11C8C
S1131FF0432DBE01675B7E4FC5010E94BF03C5012F
S1132000860D971DC553DE4F99838883CB5CD140E1
S1132010432DB2010E94BF03432D270194E4490ECE
S1132020511CB201CE018F519F4F0E94BF03B201D8
S1132030660D771D432DCE018F5F9E4F0E94BF0317
S1132040D7011496C753DE4FB983A883C95CD14026
S1132050032D9D01AE014F515F4FB501CE018F5B42
S11320609F4F0E940D078701C553DE4F2881398198
S1132070CB5CD140A501BE016F5F7E4FCE018F5175
S11320809F4F97DD232DC753DE4F48815981C95C8B
S1132090D140BE016F5B7F4FCB01B4D89701AE0135
S11320A04F5B5F4FC553DE4F68817981CB5CD14074
S11320B0C5013EDDCF5BDE4F19821882C154D14089
S11320C0CD5BDE4F59824882C354D140E9E4F1E04C
S11320D0EC0FFD1FCB5BDE4FF983E883C554D14081
S11320E0C95BDE4FB982A882C754D1406C2DCE01A2
S11320F081960E948806082F192F6C2DCE01019617
S11321000E948806A02EB12EA816B9060CF45C0114
S1132110850101501109B801CE0101960E94720691
S113212021E090E0811101C020E0422E592EB80137
S1132130CE0181960E947206811103C0E0E0F0E0B6
S113214002C0E2E0F0E0E429F529EE0FFF1F81E48C
S113215091E08C0F9D1FE80FF91F00811181432D21
S1132160B801CE018F559F4F0E94BF03B801660D81
S1132170771D432DCE018F539F4F0E94BF03632DC4
S1132180CE018F5B9F4F0E94980381E022968FAF10
S1132190229792E0A91AB1080AF481C02701A4EA9F
S11321A04A0E511C212CD201ED91FC919701AE01F4
S11321B04F5B5F4FBE016F537F4FCE018F559F4FD3
S11321C00995B501CE0101960E94720611E08111B4
S11321D001C0122DB501CE0181960E9472068111B3
S11321E002C0E22D01C0E2E01E2BE12FF0E0EE0F71
S11321F0FF1F81E491E08C0F9D1FE80FF91F008100
S113220011810115110509F445C0432DB801CE0112
S11322108F519F4F0E94BF03B801660D771D432D58
S1132220CE018F5F9E4F0E94BF039701AE014F5BAB
S11322305F4FBE016F5F7E4FCE018F519F4F78DCA1
S1132240032DC753DE4F28813981C95CD140AE01CB
S11322504F515F4FBE016F557F4FCE018F5D9E4F33
S11322600E940D0787019E012F533F4FAE014F552A
S11322705F4FBE016F5F7E4FCE018F519F4F99DC40
S11322809701AE014F5D5E4FBE016F5B7F4FCB0187
S11322900E94A80891E0A91AB10808F084CF232D60
S11322A0C753DE4F48815981C95CD140BE016F5B81
S11322B07F4FCB010E9402099701AE014F5B5F4F34
S11322C0BE016F537F4FCE018F559F4F31DC4C2D94
S11322D0BE016F557F4FC4010E94BF06813041F09B
S11322E02C2DA401BE016F557F4FCB010E944F05D9
S11322F03A943320CCF020E0832D032C000C990B6E
S1132300E1EAF0E0EC0FFD1FE80FF91FA9E8B1E0E6
S1132310AC0FBD1FA80FB91F30818C918327282BC8
S11323203A9433204CF701C020E081E090E022236E
S113233069F080E00BC080E090E008C080E090E0AD
S113234005C080E090E002C080E090E0C453DE4F1E
S11323500FB6F894DEBF0FBECDBFDF91CF911F91B2
S11323600F91FF90EF90DF90CF90BF90AF909F9030
S11323708F907F906F905F904F903F902F90089533
S1132380FF920F931F93CF93DF93F82E092F162FED
S1132390EA01462F469550E060E070E0CE010E94CD
S11323A09220112309F43FC0EF2DF02F20E030E0FC
S11323B070E060E0422F81912F5F3F4F90ED980FC6
S11323C09A3018F490E0C09711C09FEB980F9630A4
S11323D018F490E0C7970AC09FE9980F963020F44C
S11323E090E08755910902C0872F962F4695DE010C
S11323F0A40FB11DA90141705078552334F4415004
S113240051094E6F5F6F4F5F5F4F440F551F440F6D
S1132410551F02C0880F991F4A95E2F79C91890FB6
S11324208C93211738F2DF91CF911F910F91FF9078
S11324300895823079F018F4813031F008958430B1
S113244079F0883099F00895AB0160E882E894E06F
S113245097CF0895AB0160E882E094E091CF0895AE
S1132460AB0160E882E893E08BCF0895AB0160E8AC
S113247082E093E085CF08951F920F920FB60F92DA
S113248011240BB60F922F933F934F935F936F9347
S11324907F938F939F93AF93BF93EF93FF93EF98A3
S11324A02FEF84E39CE0215080409040E1F700C08E
S11324B0000080911605882319F0813049F00EC080
S11324C081E08093160582EF91E00E94B71E06C05A
S11324D0109216058FE192E00E94B71EEF9AFF91C9
S11324E0EF91BF91AF919F918F917F916F915F9188
S11324F04F913F912F910F900BBE0F900FBE0F90F5
S11325001F9018951DB880EF8EB910926A008DBB8C
S11325100895AF92BF92DF92EF92FF920F931F93B1
S1132520CF93DF93CDB7DEB7C058D1090FB6F89477
S1132530DEBF0FBECDBF5C017B01D42E63DC8C01FA
S113254020E032E040E050E0B501CE0101960E9467
S1132550351EBE016F5B7F4F8D2D6BDF970140E40D
S113256050E0BE016F5F7F4FCE018F5B9F4F4DDC0C
S1132570C058DF4F0FB6F894DEBF0FBECDBFDF915A
S1132580CF911F910F91FF90EF90DF90BF90AF908C
S113259008951F93CF93DF93CDB7DEB7C359D10905
S11325A00FB6F894DEBF0FBECDBF182F8BE492E0B8
S11325B00E94B71E80E4E6E0F1E0DE01129601908D
S11325C00D928A95E1F768E0CE0102960E9400031D
S11325D082E692E00E94B71E68E0CE018E5B9F4FB8
S11325E00E942703412FBE016E5B7F4FCE010296EE
S11325F090DF89838981813051F481E792E00E94E0
S1132600B71ECE57DF4F1882C258D0400AC085E8A3
S113261092E00E94B71E81E0CE57DF4F8883C258F4
S1132620D040AE014E575F4F60E070E080E00E9402
S11326309E029E0126573F4F40E050E060E073E069
S113264080E00E94C002BE016E567F4F80E00E946F
S11326503A02612FCE018E569F4FFBD0892B51F445
S113266089E992E00E94B71ECE57DF4F1882C25804
S1132670D0400AC087EA92E00E94B71E81E0CE579C
S1132680DF4F8883C258D040AE014E575F4F60E0A1
S113269070E080E00E949E0280E090E0CD56DF4F23
S11326A00FB6F894DEBF0FBECDBFDF91CF911F915F
S11326B00895CF93DF93CDB7DEB728970FB6F8947C
S11326C0DEBF0FBECDBF0E94AB1E1CDF0E94D20135
S11326D072D084EF92E00E94B71E9E012F5F3F4F9D
S11326E04EEF52E060E073E080E00E94C00289EFA8
S11326F092E00E94B71E8981823061F018F4813023
S113270031F0EBCF843049F0883051F0E6CF81E0EE
S113271040DFE3CF82E03DDFE0CF84E03ADFDDCF8E
S113272088E037DFDACF1F93CF93DF93EC01162FC6
S113273085E090E00E94411FDC0112961C931297E1
S113274014961C921E9213978881998111969C93DA
S11327508E93C0911705D0911805E881F9813097BF
S113276011F409C0F9012381348121153105D1F710
S1132770B483A38302C0B983A88380E090E0DF918F
S1132780CF911F9108951F93CF93DF9300D0CDB7BE
S1132790DEB7162FAE014F5F5F4F64E0F1DD612FAE
S11327A0CE010196C0DF80E090E00F900F90DF91A2
S11327B0CF911F91089582E090E00E94411F909371
S11327C0180580931705FC01118210826FE082E0E6
S11327D095E0D9DF6FE087E095E0D5DF6FE08CE02E
S11327E095E0D1DF6FE081E195E0CDCF089542E03F
S11327F050E00C946B200895EF92FF920F931F9377
S1132800CF93DF938C017B01E0911705F0911805BC
S1132810C081D181CE010E94B71E209789F0B801F2
S1132820CE01E5DF009721F4F701D183C0830AC00C
S11328300B80DC81C02D209791F781E090E002C0ED
S113284081E090E0DF91CF911F910F91FF90EF9085
S113285008951F93CF93DF931F92CDB7DEB7162F42
S113286060E070E0C9DF0097B1F4E0910000F091FE
S1132870010022812983222329F0112371F021E010
S113288030E001C09C01612F70E02617370729F062
S113289082E090E002C081E090E00F90DF91CF9160
S11328A01F9108952F923F924F925F926F927F9261
S11328B08F929F92AF92BF92CF92DF92EF92FF924C
S11328C00F931F93CF93DF93CDB7DEB7CA5ED109C1
S11328D00FB6F894DEBF0FBECDBFC751DF4F99834B
S11328E08883C95ED040CE010196C552DF4F9983DB
S11328F08883CB5DD040FE01EF57FF4FC753DF4FB6
S1132900F983E883C95CD0402C01C951DF4F798336
S11329106883C75ED040C951DF4FA881B981C75EC3
S1132920D040BC91C553DF4FB883CB5CD040C95174
S1132930DF4FE881F981C75ED04071808280938047
S1132940A480B580A681B7813896C951DF4FF98339
S1132950E883C75ED0406894662463F8C12CD12C08
S1132960E12CF12C10E0F0E0212C312C2C2D3D2D0C
S11329704E2D5F2D612F7F2F822D932D08E00E9415
S1132980E61EC553DF4FC880CB5CD040C22AD32E8D
S1132990E42EF52E162FF72F282E392EC553DF4F90
S11329A02881CB5CD040372D482D592D6A2D7B2DA5
S11329B08A2F9B2F0E94011FC553DF4F2883CB5CB6
S11329C0D040732E842E952EA62EB72EA82FB92F65
S11329D06A946110CBCFD201CC921196DC921197FC
S11329E01296EC9212971396FC92139714961C93DA
S11329F014971596FC93159716962C92169717967E
S1132A003C92B8E04B0E511CC753DF4FE881F9816B
S1132A10C95CD040E415F50509F07DCF80E4C751C9
S1132A20DF4FE881F981C95ED040DE01AF57BF4F67
S1132A3001900D928A95E1F784E990E0CF52DF4F3F
S1132A4099838883C15DD040C053DF4F1882C05D35
S1132A50D040A1E8B0E0AC0FBD1F1896C951DF4FBC
S1132A60B983A883C75ED040C053DF4FB881C05D2F
S1132A70D040B03108F060C0C552DF4FE881F98121
S1132A80CB5DD040F081C553DF4FF883CB5CD040A1
S1132A90C552DF4FA881B981CB5DD0401196BC915E
S1132AA0C453DF4FB883CC5CD040C552DF4FE881BC
S1132AB0F981CB5DD040F281C353DF4FF883CD5C05
S1132AC0D040C552DF4FA881B981CB5DD040139669
S1132AD0BC91C253DF4FB883CE5CD040C552DF4FA8
S1132AE0E881F981CB5DD040F481C153DF4FF88395
S1132AF0CF5CD040C552DF4FA881B981CB5DD040B7
S1132B001596BC91CD52DF4FB883C35DD040C552FA
S1132B10DF4FE881F981CB5DD040F681CC52DF4FA5
S1132B20F883C45DD040C552DF4FA881B981CB5D25
S1132B30D04017964C90DBC1E2965FACE297E396E7
S1132B406FACE397E4967FACE497E5968FACE5979A
S1132B50E6969FACE697E796BFADE797E896AFADEC
S1132B60E897E996FFADE997E985C553DF4FE88318
S1132B70CB5CD040EA85C453DF4FE883CC5CD040C3
S1132B80EB85C353DF4FE883CD5CD040EC85C25363
S1132B90DF4FE883CE5CD040ED85C153DF4FE8833F
S1132BA0CF5CD0402E843F8448882A962FAD2A9744
S1132BB02B963FAD2B972C964FAD2C972D965FAD52
S1132BC02D972E966FAD2E972F967FAD2F976096EB
S1132BD08FAD609761969FAD6197A980BA80CB80D5
S1132BE0DC80ED80FE800F8118850E94381FCD5255
S1132BF0DF4F2883C35DD040CC52DF4F3883C45DA0
S1132C00D040CB52DF4F4883C55DD040CA52DF4F1E
S1132C105883C65DD040C952DF4F6883C75DD0403A
S1132C20C852DF4F7883C85DD040C752DF4F8883D6
S1132C30C95DD040C652DF4F9883CA5DD040252D70
S1132C40362D472D582D692D7B2F8A2F9F2F03E07A
S1132C500E941D1FA22EB32EC42ED52EE62EF72EB3
S1132C60E82F192F252D362D472D582D692D7B2F13
S1132C708A2F9F2F0DE20E941D1FA226B326C42671
S1132C80D526E626F726E8271927252D362D472DA4
S1132C90582D692D7B2F8A2F9F2F06E00E94011F3C
S1132CA0A226B326C426D526E626F7260E2F082705
S1132CB01927CD52DF4F2881C35DD040CC52DF4F5E
S1132CC03881C45DD040CB52DF4F4881C55DD040D0
S1132CD0CA52DF4F5881C65DD040C952DF4F688168
S1132CE0C75DD040C852DF4F7881C85DD040C7521D
S1132CF0DF4F8881C95DD040C652DF4F9881CA5DDD
S1132D00D0400E94381F622E732E842E952EB62F2B
S1132D10A72FF82FE92FC553DF4F2881CB5CD04074
S1132D20C453DF4F3881CC5CD040C353DF4F48815C
S1132D30CD5CD040C253DF4F5881CE5CD040C153EC
S1132D40DF4F6881CF5CD040722D832D942D08E332
S1132D500E941D1FA22EB32EC42ED52EE62EF72EB2
S1132D60582E192FC553DF4F2881CB5CD040C45354
S1132D70DF4F3881CC5CD040C353DF4F4881CD5CFA
S1132D80D040C253DF4F5881CE5CD040C153DF4F97
S1132D906881CF5CD040722D832D942D0FE30E9467
S1132DA01D1FA226B326C426D526E626F7265826B6
S1132DB01927C553DF4F2881CB5CD040C453DF4F64
S1132DC03881CC5CD040C353DF4F4881CD5CD040C8
S1132DD0C253DF4F5881CE5CD040C153DF4F68816E
S1132DE0CF5CD040722D832D942D07E00E94011FEB
S1132DF0A226B326C426D526E626F726052D0827BF
S1132E001927262D372D482D592D6B2F7A2F8F2FCB
S1132E109E2F0E94381FC553DF4F2883CB5CD040C0
S1132E20C453DF4F3883CC5CD040C353DF4F488357
S1132E30CD5CD040C253DF4F5883CE5CD040C153E9
S1132E40DF4F6883CF5CD040CD52DF4F7883C35DC2
S1132E50D040CC52DF4F8883C45DD040492E48E730
S1132E6050E0BE01675F7F4FCE0101960E94812032
S1132E70C553DF4FF881CB5CD040EA96FFAFEA97A9
S1132E80C453DF4F1881CC5CD040EB961FAFEB9757
S1132E90C353DF4F8881CD5CD040EC968FAFEC9765
S1132EA0C253DF4F9881CE5CD040ED969FAFED9733
S1132EB0C153DF4FA881CF5CD040EE96AFAFEE9701
S1132EC0CD52DF4FB881C35DD040EF96BFAFEF97CF
S1132ED0CC52DF4FE881C45DD040C158DF4FE88356
S1132EE0CF57D040C058DF4F4882C058D040C75455
S1132EF0DF4F1881C95BD040CB52DF4F1883C55DCB
S1132F00D040C654DF4FA881CA5BD040CA52DF4FBD
S1132F10A883C65DD040C554DF4FB881CB5BD04099
S1132F20C952DF4FB883C75DD040C454DF4F188106
S1132F30CC5BD040C852DF4F1883C85DD040C35427
S1132F40DF4FA881CD5BD040C752DF4FA883C95D56
S1132F50D040C254DF4FB881CE5BD040C652DF4F61
S1132F60B883CA5DD040C154DF4F1881CF5BD040D5
S1132F70C352DF4F1883CD5DD040C054DF4FA881CA
S1132F80C05CD040C252DF4FA883CE5DD040CF5545
S1132F90DF4F9880C15AD040CE55DF4FB880C25A17
S1132FA0D040CD55DF4FC880C35AD040CC55DF4FF9
S1132FB0D880C45AD040CB55DF4FF880C55AD04092
S1132FC0CA55DF4F1881C65AD040C955DF4FB88162
S1132FD0C75AD040C855DF4FA881C85AD040792D70
S1132FE070956B2D60955C2D50954D2D40953F2D22
S1132FF03095212F20959B2F90958A2F8095CF5423
S1133000DF4F6880C15BD0406722CE54DF4F888099
S1133010C25BD0408622CD54DF4FE880C35BD040F2
S1133020E522CC54DF4FF881C45BD040F423CB5469
S1133030DF4F7881C55BD0407323CA54DF4F58817A
S1133040C65BD0405223C954DF4F3881C75BD040A0
S11330503923C854DF4F9881C85BD0409823C755A3
S1133060DF4F7880C95AD0407920C655DF4FA880F9
S1133070CA5AD040AB20C555DF4F0881CB5AD04047
S11330800C21C455DF4FE881CC5AD040ED21C35503
S1133090DF4F6881CD5AD0406F21C255DF4F488140
S11330A0CE5AD0404123C155DF4F2881CF5AD0405A
S11330B02B23C055DF4F8881C05BD0408A2367240F
S11330C0C152DF4F6882CF5DD0408A24C052DF4FA7
S11330D08882C05ED040E026CF51DF4FE882C15ED7
S11330E0D040FE27CE51DF4FF883C25ED040762712
S11330F0CD51DF4F7883C35ED0405427CC51DF4F8E
S11331005883C45ED0403227CB51DF4F3883C55E2D
S1133110D0409827CA51DF4F9883C65ED040CF5223
S1133120DF4FE881F981C15DD040459155916591AA
S11331307491A42ECF53DF4F488359836A837B83D2
S1133140C15CD040CF52DF4FE881F981C15DD040EE
S113315034964591559165917491E42ECB53DF4F8C
S1133160488359836A837B83C55CD040292D3B2DDA
S11331704C2D5D2D6F2D712F8B2F9A2F0EE25DD666
S1133180222E332E542E652E762E872EF82FE92FDD
S1133190292D3B2D4C2D5D2D6F2D712F8B2F9A2FAB
S11331A002E34BD622263326542665267626872626
S11331B0F827E927292D3B2D4C2D5D2D6F2D712FDF
S11331C08B2F9A2F07E139D62226332654266526DB
S11331D076268726F827E927CB52DF4F2881C55D5D
S11331E0D040CA52DF4F3881C65DD040C952DF4F4C
S11331F04881C75DD040C852DF4F5881C85DD04078
S1133200C752DF4F6881C95DD040C652DF4F788115
S1133210CA5DD040C352DF4F8881CD5DD040C252D9
S1133220DF4F9881CE5DD040CE53DF4FB880C25C73
S1133230D040CD53DF4FC880C35CD040CC53DF4F68
S1133240D880C45CD040CA53DF4FF880C65CD040FD
S1133250C953DF4F0881C75CD040C853DF4F188182
S1133260C85CD04005D6A22EB32EC42ED52EE62E91
S1133270F72E082F192F222D332D452D562D672D6E
S1133280782D8F2F9E2FF4D5C152DF4FA880CF5DAC
S1133290D040C052DF4FB880C05ED040CF51DF4F26
S11332A0C880C15ED040CE51DF4FD880C25ED040CE
S11332B0CD51DF4FE880C35ED040CC51DF4FF88062
S11332C0C45ED040CB51DF4F0881C55ED040CA51A7
S11332D0DF4F1881C65ED040CBD5C553DF4FA880E1
S11332E0CB5CD040C453DF4FB880CC5CD040C353D8
S11332F0DF4FC880CD5CD040C253DF4FD880CE5C56
S1133300D040C153DF4FE880CF5CD040CD52DF4F77
S1133310F880C35DD040CC52DF4F0881C45DD040FB
S1133320142DA6D5C553DF4F2883CB5CD040C4539E
S1133330DF4F3883CC5CD040C353DF4F4883CD5C30
S1133340D040C253DF4F5883CE5CD040C153DF4FCF
S11333506883CF5CD040CD52DF4F7883C35DD040CB
S1133360CC52DF4F8883C45DD040CB52DF4F98836B
S1133370C55DD040CF57DF4FA880C158D040CE574D
S1133380DF4FB880C258D040CD57DF4F7880C35844
S1133390D040CC57DF4F6880C458D040CB57DF4F64
S11333A05880C558D040CA57DF4F4880C658D040CF
S11333B0C957DF4F3880C758D040C857DF4F2880DF
S11333C0C858D040C757DF4F1881C958D040CA5297
S11333D0DF4F1883C65DD040C657DF4F1881CA58E7
S11333E0D040C952DF4F1883C75DD040C557DF4F67
S11333F01881CB58D040C852DF4F1883C85DD040E5
S1133400C457DF4F1881CC58D040C752DF4F1883C0
S1133410C95DD040C357DF4F1881CD58D040C65244
S1133420DF4F1883CA5DD040C257DF4F1881CE5892
S1133430D040C352DF4F1883CD5DD040C157DF4F1A
S11334401881CF58D040C252DF4F1883CE5DD04090
S1133450C057DF4F8880C059D040CF56DF4F188106
S1133460C159D040C152DF4F1883CF5DD040CE56F2
S1133470DF4F1881C259D040C052DF4F1883C05E5D
S1133480D040CD56DF4F1881C359D040CF51DF4FC4
S11334901883C15ED040CC56DF4F1881C459D04048
S11334A0CE51DF4F1883C25ED040CB56DF4F188118
S11334B0C559D040CD51DF4F1883C35ED040CA56A2
S11334C0DF4F1881C659D040CC51DF4F1883C45EFA
S11334D0D040C956DF4F1881C759D040CB51DF4F78
S11334E01883C55ED040C856DF4F9880C859D04075
S11334F048E350E0BE016F577F4FC951DF4F8881C9
S11335009981C75ED040FDD52A2D3B2D472D562DE0
S1133510652D742D832D922D0EE18FD4D22EE32EA2
S1133520F42E152FB62FE72FA82FF92F2A2D3B2D78
S1133530472D562D652D742D832D922D04E27DD4B7
S1133540D226E326F4261527B627E727A827F92746
S11335502A2D3B2D472D562D652D742D832D922D0F
S113356009E16BD42D253E254F2551276B277E2756
S1133570C152DF4FB881CF5DD040CA52DF4F1881AE
S1133580C65DD040B127C052DF4FE881C05ED04055
S1133590C952DF4F1881C75DD040E127CF51DF4FBB
S11335A0C880C15ED040C852DF4F1881C85DD0408A
S11335B0C126CE51DF4FD880C25ED040C752DF4F04
S11335C01881C95DD040D126CD51DF4FE880C35E5C
S11335D0D040C652DF4F1881CA5DD040E126CC519D
S11335E0DF4FF880C45ED040C352DF4F1881CD5DF9
S11335F0D040F126CB51DF4F0881C55ED040C25286
S1133600DF4F1881CE5DD0400127192D1825AB223C
S1133610BE22C720D620E520F42003211221CA525D
S1133620DF4FE881C65DD040C152DF4FB881CF5D26
S1133630D040EB23C952DF4F2880C75DD040C05231
S1133640DF4FB881C05ED0402B22C852DF4F388094
S1133650C85DD040CF51DF4FB881C15ED0403B221E
S1133660C752DF4F4880C95DD040CE51DF4FB8818B
S1133670C25ED0404B22C652DF4F5880CA5DD04054
S1133680CD51DF4FB881C35ED0405B22C352DF4FC0
S11336906880CD5DD040CC51DF4FB881C45ED0404E
S11336A06B22C252DF4F7880CE5DD040CB51DF4FCA
S11336B0B881C55ED0407B22B82DB921AE26B22494
S11336C0C324D424E524F62407251B278A279F270F
S11336D0CFD3C553DF4FA880CB5CD040C453DF4F5A
S11336E0B880CC5CD040C353DF4FC880CD5CD040A1
S11336F0C253DF4FD880CE5CD040C153DF4FE88047
S1133700CF5CD040CD52DF4FF880C35DD040CC5267
S1133710DF4F0881C45DD040CB52DF4F1881C55DB7
S1133720D040A6D3CF57DF4F2883C158D040CE57BF
S1133730DF4F3883C258D040CD57DF4F4883C3583A
S1133740D040CC57DF4F5883C458D040CB57DF4FBD
S11337506883C558D040CA57DF4F7883C658D040D5
S1133760C957DF4F8883C758D040C857DF4F988365
S1133770C858D0402A2D3B2D4C2D5D2D6E2D7F2D0C
S1133780802F912FCF55DF4FA880C15AD040CE55FE
S1133790DF4FB880C25AD040CD55DF4FC880C35ADE
S11337A0D040CC55DF4FD880C45AD040CB55DF4FE2
S11337B0E880C55AD040CA55DF4FF880C65AD04079
S11337C0C955DF4F0881C75AD040C855DF4F18810B
S11337D0C85AD0404DD3CF55DF4F2883C15AD0406B
S11337E0CE55DF4F3883C25AD040CD55DF4F488382
S11337F0C35AD040CC55DF4F5883C45AD040CB5520
S1133800DF4F6883C55AD040CA55DF4F7883C65A04
S1133810D040C955DF4F8883C75AD040C855DF4FC1
S11338209883C85AD040C053DF4FE881C05DD04070
S1133830EF5FC053DF4FE883C05DD040C552DF4F18
S113384088819981CB5DD0400896C552DF4F99831A
S11338508883CB5DD040CF52DF4FA881B981C15D51
S1133860D0401896CF52DF4FB983A883C15DD040B2
S1133870E03509F0F9C80F2EF7E09F2EF02D792CD2
S1133880C751DF4F88809980C95ED040A72DB0E032
S1133890AA0FBB1FAA0FBB1FAA0FBB1FF401EA0F7D
S11338A0FB1F81E890E08C0F9D1FA80FB91F20819A
S11338B03181428153816481758186819781AC9085
S11338C01196BC9011971296CC9012971396DC9097
S11338D013971496EC9014971596FC9015971696DA
S11338E00C91169717961C91C3D22083318342837F
S11338F0538364837583868397837A949FEF7912C5
S1133900C5CFC751DF4FE881F981C95ED040E05C83
S1133910FF4F80819181A281B3810196A11DB11DC8
S113392080839183A283B383C651DF4F0FB6F8948B
S1133930DEBF0FBECDBFDF91CF911F910F91FF90DE
S1133940EF90DF90CF90BF90AF909F908F907F903B
S11339506F905F904F903F902F9008952F923F92D9
S11339604F925F926F927F928F929F92AF92BF928B
S1133970CF92DF92EF92FF920F931F93CF93DF9337
S1133980CDB7DEB7CC58D1090FB6F894DEBF0FBE61
S1133990CDBFCF57DF4F99838883C158D040C557D7
S11339A0DF4F79836883CB58D0404A01411524E026
S11339B0520778F17A018B01B801CF57DF4F888124
S11339C09981C158D0400E94521400581F4F34E0CE
S11339D0F31AE11484E0F80678F7C4019450892FAF
S11339E099278695869501969695982F8827979579
S11339F08795C557DF4FE881F981CB58D040E80F50
S1133A00F91FC557DF4FF983E883CB58D040F3E063
S1133A109F22CF57DF4FE881F981C158D040E05C45
S1133A20FF4F80819181A281B3815C016D01282FB8
S1133A303B2D4C2D5D2D60E070E080E090E00AE0CD
S1133A40C5D15401C12CD12CE12CF12C8701CD57C7
S1133A50DF4F8882C358D040CC57DF4FB882C45858
S1133A60D040CB57DF4FC882C558D040CA57DF4F2C
S1133A70D882C658D040C957DF4FE882C758D040D3
S1133A80C857DF4FF882C858D040C757DF4F088364
S1133A90C958D040C657DF4F1883CA58D040C12CEC
S1133AA0D12CE12CF12C00E010E0E2D1E22FA32E86
S1133AB0B42EB52FA62FF72F282E392E6894442420
S1133AC043F8712C512C612C272D3C2D4D2D5E2D4E
S1133AD06F2D712F852D962D08E078D17E2E722AB8
S1133AE0C32ED42EE52EF62E172F582E692E2E2FE8
S1133AF03A2D4B2D5B2F6A2F7F2F822D932D81D151
S1133B00E22FA32EB42EB52FA62FF72F282E392E51
S1133B104A944110D9CF9E012F5F3F4F590180E84D
S1133B20F90111928A95E9F7A401495F5F4F56950F
S1133B3047955695479556954795C557DF4F6881E4
S1133B407981CB58D040C901D3D2F401F695E795D9
S1133B50F695E795F695E795EA0DFB1D9401277018
S1133B60332780E890E002C0959587952A95E2F77F
S1133B709081892B8083F0E88F16F3E09F0670F024
S1133B80B501CF57DF4F88819981C158D0400E9439
S1133B90521488E7F50111928A95E9F7EA967FAE07
S1133BA0EA97EB96CFAEEB97EC96DFAEEC97ED96FB
S1133BB0EFAEED97EE96FFAEEE97EF961FAFEF9751
S1133BC0C158DF4F5882CF57D040C058DF4F68826A
S1133BD0C058D040BE016F5F7F4FCF57DF4F888101
S1133BE09981C158D0400E945214C457DF4F0FB678
S1133BF0F894DEBF0FBECDBFDF91CF911F910F911F
S1133C00FF90EF90DF90CF90BF90AF909F908F90F8
S1133C107F906F905F904F903F902F900895FC019C
S1133C20E05CFF4F108211821282138240E450E064
S1133C3064E173E047C20895CF93DF93AC01EC01D4
S1133C40C05CDF4FFA0197E0DB01A90FB11D2C9195
S1133C5021939150C8F7485F5F4F685F7F4F4C17BF
S1133C605D0781F7DF91CF9108954F925F926F9234
S1133C707F928F929F92AF92BF92CF92DF92EF92F8
S1133C80FF920F931F93CF93DF93CDB7DEB7C45446
S1133C90D1090FB6F894DEBF0FBECDBF4C015B0156
S1133CA069017A01CE010196BADFC11484E0D80615
S1133CB0E104F10470F1260137018501B801CE0158
S1133CC001960E94521400581F4F84E0581A61084C
S1133CD07108411484E058066104710478F7D7012F
S1133CE0C6019450A109B109072E7AE0B695A795AB
S1133CF0979587957A95D1F7702D01969695982F7B
S1133D00882797958795A80EB91E83E0D822EE24BC
S1133D10FF24A601B501CE01019620DEBE016F5F2E
S1133D207F4FC40189DFCC5BDF4F0FB6F894DEBF51
S1133D300FBECDBFDF91CF911F910F91FF90EF90F8
S1133D40DF90CF90BF90AF909F908F907F906F90B7
S1133D505F904F9008951092C50083E38093C40050
S1133D608EE08093C20088E18093C1000895CF93D0
S1133D70DF93FC0101900020E9F73197E81BF90B70
S1133D801E161F0684F4DC019C012E0F3F1FE0EC7D
S1133D90F0E0C6ECD0E0908195FFFDCF9D91988333
S1133DA0A217B307C1F7E0ECF0E0808185FFFDCFF7
S1133DB08DE08093C600E0ECF0E0808185FFFDCFCC
S1133DC08AE08093C600DF91CF9108950F93083065
S1133DD090F0982F872F762F652F542F432F322F53
S1133DE022270850F4CF220F331F441F551F661F8C
S1133DF0771F881F991F0A95B2F70F91089597FBB3
S1133E0010F8169400080F93083098F00850232FE8
S1133E10342F452F562F672F782F892F902DF4CFCD
S1133E200594979587957795679557954795379511
S1133E3027950A95AAF70F9108950F930830A0F0DB
S1133E400850092E982F872F762F652F542F432F34
S1133E50322F202DF3CF220F331F441F551F661F0F
S1133E60771F881F991F211D0A95AAF70F9108959E
S1133E702A0D3B1D4C1D5D1D6E1D7F1D801F911F56
S1133E8008950F931F93CF93DF938230910510F41D
S1133E9082E090E0E0911B05F0911C0520E030E009
S1133EA0A0E0B0E0309719F1408151810281138183
S1133EB048175907C8F08417950769F4109731F02B
S1133EC012960C93129713961C9327C000931B050C
S1133ED010931C0522C02115310519F04217530710
S1133EE018F49A01BD01EF01DF01F801DBCF2115C0
S1133EF03105F9F0281B390B2430310580F48A810F
S1133F009B816115710521F0FB019383828304C0B9
S1133F1090931C0580931B05FE01329644C0FE015C
S1133F20E20FF31F8193919322503109398328833F
S1133F303AC02091190530911A05232B41F42091A0
S1133F4002013091030130931A0520931905209141
S1133F500001309101012115310541F42DB73EB71F
S1133F604091040150910501241B350BE091190582
S1133F70F0911A05E217F307A0F42E1B3F0B281744
S1133F80390778F0AC014E5F5F4F2417350748F0CE
S1133F904E0F5F1F50931A05409319058193919317
S1133FA002C0E0E0F0E0CF01DF91CF911F910F91CB
S1133FB00895CF93DF93009709F481C0FC013297F1
S1133FC013821282A0911B05B0911C05109781F4F5
S1133FD020813181820F931F2091190530911A0598
S1133FE02817390751F5F0931A05E093190567C0AE
S1133FF0ED0120E030E0CE17DF0740F44A815B8119
S11340009E0141155105F1F0EA01F5CFD383C28336
S113401040815181840F951FC817D90759F48881AD
S11340209981840F951F0296918380838A819B8155
S1134030938382832115310529F4F0931C05E093C1
S11340401B053DC0E901FB83EA8349915991C40FE3
S1134050D51FEC17FD0761F480819181840F951FB2
S11340600296E90199838883828193819B838A8361
S1134070E0E0F0E012968D919C911397009719F06F
S1134080FD01DC01F7CF8D919C9111979D012E5F6D
S11340903F4F820F931F2091190530911A0528175D
S11340A0390769F4309729F410921C0510921B0506
S11340B002C013821282B0931A05A0931905DF91EE
S11340C0CF910895FB01DC0102C005900D9241508F
S11340D05040D8F70895FB01DC0104C08D91019094
S11340E0801921F441505040C8F7881B990B08955A
S11340F0FB01DC0102C001900D9241505040D8F701
S113410008956817790768F4FB01DC01E40FF51FD3
S1134110A40FB51F02C002900E9241505040D8F730
S11341200895E6CFDC0101C06D9341505040E0F7A3
S10941300895F894FFCF8E
S113413600001D0520000001020304050607010115
S11341460203040506070201020304050607030128
S11341560203040506070401020304050607050114
S11341660203040506070601020304050607070100
S113417602030405060720200001FFFFFFFFFFFFDF
S1134186FFFFFFFFFFFF000000000000000000002B
S1134196000001000000FFFFFFFF512563FCC2CAB7
S11341A6B9F3849E17A7ADFAE6BCFFFFFFFFFFFF36
S11341B6FFFF00000000FFFFFFFF96C298D84539B5
S11341C6A1F4A033EB2D817D0377F240A463E5E6E9
S11341D6BCF847422CE1F2D1176BF551BF37684062
S11341E6B6CBCE5E316B5733CE2B169E0F7C4AEB85
S11341F6E78E9B7F1AFEE242E34F4B60D2273E3C9A
S1134206CE3BF6B053CCB0061D65BC86987655BD3C
S1134216EBB3E7933AAAD835C65AD309F30AA10AE7
S1134226590B537769746368656420746F207365EA
S11342367373696F6E2041757468656E7469636122
S113424674696F6E2070726F746F636F6C2E005397
S11342567769746368656420746F2073696E676C2C
S1134266652041757468656E7469636174696F6EFF
S11342762070726F746F636F6C2E0061757468655D
S11342866E7469636174696F6E20737461727465A8
S113429664006368616C6C656E67652073656E7433
S11342A6007369676E61747572652069732076613F
S11342B66C696421007369676E617475726520693F
S11342C6732066616C736521005065726D69737342
S11342D6696F6E204F6B005065726D697373696FF9
S11342E66E204661696C656400736563726574204B
S11342F665737461626C697368656400417574689A
S1134306656E7469636174696F6E204F6B004175E5
S11343167468656E7469636174696F6E2046616959
S11343266C65640069646C65006B616B6100000018
S11343360000626434323337316161633638306188
S113434636363033656261316366306635653439D5
S113435635616365353932393961346532663432EB
S11343666161393433623834303663343262363616
S11343766338313832633039333633376562313135
S1134386393965633431646565386261376132662B
S113439661616530376230343835376235363930E5
S11343A633336337623733653331386131663633D5
S11343B632316363666439643130313836323134CC
S11343C633663833623364653563616363646634C4
S11343D661336161353563306364643863643834EA
S11343E638623834313664326237313039343838E9
S11343F662396461363066336265313764646230CB
S11344063034313265623463363464343232623382
S11344166466336265393738633431383434313954
S113442635613839306563356533323439656665E7
S113443635653762636335646561343065353332B7
S113444635636336326331623634326264643235DC
S1134456386463343839376232326232303636651C
S1134466393932383632313563346435363033309F
S11344763237323436613766623331663131383138
S11344866462393631636136333635376334656190
S11344966265656462653637626230323432396425
S11344A636393432393632343532636663366563C7
S11344B634666630633836336638653535353131BA
S11344C63462663438383263633738376239356371
S11344D6323732613766653464636464663139320F
S11344E6326634663138613439346531633335378D
S11344F6613161366333326430376265623537362B
S11345066162363031303638303638663061396576
S113451630313630633361313431313966356434A0
S113452632366137393535646133653665643365EA
S11345363831623130370065303037003236303743
S1094546003330303700A1
S9030000FC
