S00F0000476174657761792E7372656343
S113000049C0000064C0000062C0000060C000007D
S11300105EC000005CC000005AC0000058C0000070
S113002056C0000054C0000052C0000050C0000080
S11300304EC000004CC000004AC0000048C0000090
S113004046C0000044C00000F3C0000040C00000EF
S11300503EC000003CC000003AC0000038C00000B0
S113006036C0000034C0000032C0000030C00000C0
S11300702EC000002CC000002AC0000028C00000D0
S113008026C0000024C0000022C0000020C00000E0
S11300901EC0000011241FBECFEFD0E1DEBFCDBFD4
S11300A011E0A0E0B1E0EAE4F3E000E00BBF02C03D
S11300B007900D92A232B107D9F721E0A2E2B1E094
S11300C001C01D92A232B207E1F70ED13CC198CF14
S11300D0CF93DF93F89481E08093D80080EB8093F2
S11300E0DB001092DA0080E0CDEED0E0AFEEB0E0BD
S11300F0EEEEF0E0982F9295907F98831C921082F8
S11301008F5F8F30B9F786E08093E2008CE08093B4
S1130110E30087E38093E4001092E50082E080939B
S1130120D8007894DF91CF910895FB018295807F68
S11301308093ED009B01285F3F4FAAEFB0E08C91C4
S113014081932E173F07D9F708950F931F93CF93E9
S1130150DF938C01C0E0D0E0B801CE01E6DF085F98
S11301601F4F2196C830D105B9F7DF91CF911F9168
S11301700F910895982F9295990F907E9093F30084
S11301808695869586958093F2001092F0000895E6
S11301908FEF8093F7008093F6001092F400089597
S11301A0EF92FF920F931F93CF93DF93EBEDF0E069
S11301B0808184608083C0E00F2EFDEEEF2EF12C51
S11301C0F02D0FEE10E0D8EC8C2F8295807FF70194
S11301D080838C2FCFDFDCDFF801D083CF5FC83082
S11301E099F7DF91CF911F910F91FF90EF900895B0
S11301F0CF93DF936623C9F0C42FD52F282F392F2F
S1130200D901ED919D01AE2FA295AF70B0E0A05041
S1130210BF4F8C918883EF70F0E0E050FF4F8081F6
S11302208983615022966111EBCFDF91CF910895BC
S11302301F920F920FB60F9211240BB60F922F93A9
S11302403F934F935F936F937F938F939F93AF935A
S1130250BF93EF93FF93CF93DF93CDB7DEB7C15D29
S1130260D109DEBFCDBF80E1E1E1F1E0DE0111960D
S113027001900D928A95E1F7CE01019645D0CE0109
S1130280419663DFAE014F5A5F4F60E4CE01419661
S1130290AFDFCF52DF4F1882C15DD040CE018F5AFD
S11302A09F4F32D01092EE00EAEDF0E0808180831F
S11302B0CF52DF4F0FB6F894DEBF0FBECDBFDF9134
S11302C0CF91FF91EF91BF91AF919F918F917F91CA
S11302D06F915F914F913F912F910F900BBE0F90B3
S11302E00FBE0F901F90189503D0F2DE59DFFFCF99
S11302F01092C50083E38093C4008EE08093C20013
S113030088E18093C1000895CF93DF93FC010190AD
S11303100020E9F73197E81BF90B1E161F0684F439
S1130320DC019C012E0F3F1FE0ECF0E0C6ECD0E0B6
S1130330908195FFFDCF9D919883A217B307C1F7D4
S10D0340DF91CF910895F894FFCFE8
S113034A303132333435363738396162636465663D
S113035A00627566666572207265636569766564AE
S105036A00008D
S9030000FC
