S00F0000476174657761792E7372656343
S1130000A9C10000C6C10000C4C10000C2C10000F3
S1130010C0C10000BEC10000BCC10000BAC10000E4
S1130020B8C10000B6C10000B4C10000B2C10000F4
S1130030B0C10000AEC10000ACC10000AAC1000004
S1130040A8C10000A6C10000A4C10000A2C1000014
S1130050A0C100009EC100009CC100009AC1000024
S113006098C1000096C1000094C1000092C1000034
S113007090C100008EC100008CC100008AC1000044
S113008088C1000086C1000084C1000082C1000054
S113009080C1000022AE28D7982F8A42CD65EF2375
S11300A0914437712F3B4DECCFFBC0B5BCDB89814C
S11300B0A5DBB5E938B548F35BC2563919D005B6A6
S11300C0F111F1599B4F19AFA4823F9218816DDA57
S11300D0D55E1CAB420203A398AA07D8BE6F704535
S11300E0015B83128CB2E44EBE853124E2B4FFD5A9
S11300F0C37D0C556F897BF2745DBE72B196163B5D
S1130100FEB1DE803512C725A706DC9B942669CF95
S113011074F19BC1D24AF19EC1699BE4E3254F3837
S11301208647BEEFB5D58C8BC69DC10F659CAC7759
S1130130CCA10C2475022B596F2CE92D83E4A66EF7
S1130140AA84744AD4FB41BDDCA9B05CB5531183C5
S1130150DA88F976ABDF66EE52513E981032B42D50
S11301606DC631A83F21FB98C82703B0E40EEFBE4B
S1130170C77F59BFC28FA83DF30BE0C625A70A93DA
S11301804791A7D56F8203E05163CA06706E0E0AC9
S113019067292914FC2FD246850AB72726C9265C6D
S11301A038211B2EED2AC45AFC6D2C4DDFB3959DCE
S11301B0130D3853DE63AF8B54730A65A8B2773CD2
S11301C0BB0A6A76E6AEED472EC9C2813B3582147E
S11301D0852C72926403F14CA1E8BFA2013042BCA9
S11301E04B661AA89197F8D0708B4BC230BE540658
S11301F0A3516CC71852EFD619E892D110A96555CE
S1130200240699D62A20715785350EF4B8D1BB320D
S113021070A06A10C8D0D2B816C1A41953AB41510A
S1130220086C371E99EB8EDF4C774827A8489BE172
S1130230B5BCB034635AC9C5B30C1C39CB8A41E38D
S11302404AAAD84E73E363774FCA9C5BA3B8B2D66D
S1130250F36F2E68FCB2EF5DEE828F74602F17434C
S11302606F63A57872ABF0A11478C884EC39641A72
S11302700802C78C281E6323FAFFBE90E9BD82DE04
S1130280EB6C50A41579C6B2F7A3F9BE2B5372E3F5
S1130290F27871C69C6126EACE3E27CA07C2C02105
S11302A0C7B886D11EEBE0CDD67DDAEA78D16EEE02
S11302B07F4F7DF5BA6F1772AA67F006A698C8A299
S11302C0C57D630AAE0DF9BE04983F111B471C138C
S11302D0350B711B847D0423F577DB289324C740F9
S11302E07BABCA32BCBEC9150ABE9E3C4C0D109CE9
S11302F0C4671D43B6423ECBBED4C54C2A7E65FCC2
S11303009C297F59ECFAD63AAB6FCB5F1758474A12
S11303108C19446C08C9BCF367E6096A3BA7CA8414
S113032085AE67BB2BF894FE72F36E3CF1361D5F0D
S11303303AF54FA5D182E6AD7F520E511F6C3E2B8C
S11303408C68059B6BBD41FBABD9831F79217E1360
S113035019CDE05B11241FBECFEFD0E1DEBFCDBFCE
S113036013E0A0E0B1E0E4E1F7E400E00BBF02C079
S113037007900D92A833B107D9F723E0A8E3B3E0BF
S113038001C01D92AA33B207E1F70E94AE170C9484
S1130390882336CECF93DF93F89481E08093D800FE
S11303A084E38093DB001092DA0080E0CDEED0E0AD
S11303B0AFEEB0E0EEEEF0E0982F9295907F988348
S11303C01C9210828F5F8F30B9F786E08093E20031
S11303D08CE08093E30087E38093E4001092E500CF
S11303E082E08093D8007894DF91CF910895FB0147
S11303F08295807F8093ED009B01285F3F4FAAEF99
S1130400B0E08C9181932E173F07D9F708950F938D
S11304101F93CF938C01C0E0B8018C2FE8DF085FF5
S11304201F4FCF5FC830C1F7CF911F910F9108952F
S1130430982F9295990F907E9093F20086958695C9
S113044086958093F3001092F00008958FEF8093C7
S1130450F7008093F6001092F4000895FC019C01CB
S1130460285F3F4FAAEFB0E081918C932E173F078E
S1130470D9F70895CF93DF93EA018295807F809323
S1130480ED00862FD5DFCE01E9DF88E48093EF000D
S113049080E090E0DF91CF910895EF92FF920F9367
S11304A01F93CF93DF93082F862F7901102F129576
S11304B0107FCDEED0E0188321E030E0002E02C0A2
S11304C0220F331F0A94E2F72093DE00B1DFBEDF70
S11304D088E88093EF0018831883EAEDF0E08081C8
S11304E08823ECF78091EE0085FF0EC01092EE0099
S11304F01092DE00EAEDF0E080818083B701802F66
S113050076DF80E090E002C081E090E0DF91CF915F
S11305101F910F91FF90EF9008950F931F93CF9326
S11305208C01C0E0A8016C2F8C2FA4DF085F1F4F43
S1130530CF5FC830B9F780E090E0CF911F910F9161
S11305400895CF92DF92EF92FF920F931F93CF9370
S1130550DF937C01EBEDF0E0808184608083C0E078
S11305600F2EFDEECF2ED12CF02D0FEE10E0D8EC97
S11305708C2F8295807FF60180838C2F59DF66DF74
S1130580F801D083CF5FC83099F7EAEDF0E08081BD
S11305908823ECF78091DA0084FF19C080E0CDEE67
S11305A0D0E0AFEEB0E0EEEEF0E0982F9295907FC1
S11305B098831C9210828F5F8830B9F7EAEDF0E0DF
S11305C080818083C70123DF80E090E002C081E066
S11305D090E0DF91CF911F910F91FF90EF90DF900A
S11305E0CF900895DC01E8E1F3E0E61BF1090994FA
S11305F01D921D921D921D921D921D921D921D927F
S11306001D921D921D921D921D921D921D921D926E
S11306101D921D921D921D921D921D921D921D925E
S11306201D921D921D921D921D921D921D921D924E
S11306300895CF93DF93440FEB01DC01E3E6F3E08D
S1130640E41BF109099409900D9209900D92099007
S11306500D9209900D9209900D9209900D920990B6
S11306600D9209900D9209900D9209900D920990A6
S11306700D9209900D9209900D9209900D92099096
S11306800D9209900D9209900D9209900D92099086
S11306900D9209900D9209900D9209900D92099076
S11306A00D9209900D9209900D9209900D92099066
S11306B00D9209900D9209900D9209900D92099056
S11306C00D9209900D92DF91CF910895262F062E59
S11306D0000C330B21503109322F330F230FDC016F
S11306E0E7EDF3E0E21BF109A60FB11D0E900694AD
S11306F00C9209940E9007940C920E9007940C920D
S11307000E9007940C920E9007940C920E900794FE
S11307100C920E9007940C920E9007940C920E90EB
S113072007940C920E9007940C920E9007940C92DE
S11307300E9007940C920E9007940C920E900794CE
S11307400C920E9007940C920E9007940C920E90BB
S113075007940C920E9007940C920E9007940C92AE
S11307600E9007940C920E9007940C920E9007949E
S11307700C920E9007940C920E9007940C920E908B
S113078007940C920E9007940C920E9007940C927E
S11307900E9007940C920E9007940C920E9007946E
S11307A00C920E9007940C920E9007940C9208955C
S11307B0CF93DF93220FDB01EA01AC01E4E2F4E022
S11307C0E21BF10988940994FA013EC0FA0140C081
S11307D0FA0142C0FA0144C0FA0146C0FA0148C015
S11307E0FA014AC0FA014CC0FA014EC0FA0150C0E5
S11307F0FA0152C0FA0154C0FA0156C0FA0158C0B5
S1130800FA015AC0FA015CC0FA015EC0FA0160C084
S1130810FA0162C0FA0164C0FA0166C0FA0168C054
S1130820FA016AC0FA016CC0FA016EC0FA0170C024
S1130830FA0172C0FA0174C0FA0176C0FA0178C0F4
S1130840FA017AC0FA017CC08D919991891F819334
S11308508D919991891F81938D919991891F81938C
S11308608D919991891F81938D919991891F81937C
S11308708D919991891F81938D919991891F81936C
S11308808D919991891F81938D919991891F81935C
S11308908D919991891F81938D919991891F81934C
S11308A08D919991891F81938D919991891F81933C
S11308B08D919991891F81938D919991891F81932C
S11308C08D919991891F81938D919991891F81931C
S11308D08D919991891F81938D919991891F81930C
S11308E08D919991891F81938D919991891F8193FC
S11308F08D919991891F81938D919991891F8193EC
S11309008D919991891F81938D919991891F8193DB
S11309108D919991891F81938D919991891F8193CB
S11309208D919991891F81938D919991891F8193BB
S11309308D919991891F81938D919991891F8193AB
S11309408D919991891F8193812D881FDF91CF917A
S11309500895CF93DF93220FDB01EA01AC01E5EFA9
S1130960F4E0E21BF10988940994FA013EC0FA010B
S113097040C0FA0142C0FA0144C0FA0146C0FA017B
S113098048C0FA014AC0FA014CC0FA014EC0FA014B
S113099050C0FA0152C0FA0154C0FA0156C0FA011B
S11309A058C0FA015AC0FA015CC0FA015EC0FA01EB
S11309B060C0FA0162C0FA0164C0FA0166C0FA01BB
S11309C068C0FA016AC0FA016CC0FA016EC0FA018B
S11309D070C0FA0172C0FA0174C0FA0176C0FA015B
S11309E078C0FA017AC0FA017CC08D919991890B83
S11309F081938D919991890B81938D919991890B13
S1130A0081938D919991890B81938D919991890B02
S1130A1081938D919991890B81938D919991890BF2
S1130A2081938D919991890B81938D919991890BE2
S1130A3081938D919991890B81938D919991890BD2
S1130A4081938D919991890B81938D919991890BC2
S1130A5081938D919991890B81938D919991890BB2
S1130A6081938D919991890B81938D919991890BA2
S1130A7081938D919991890B81938D919991890B92
S1130A8081938D919991890B81938D919991890B82
S1130A9081938D919991890B81938D919991890B72
S1130AA081938D919991890B81938D919991890B62
S1130AB081938D919991890B81938D919991890B52
S1130AC081938D919991890B81938D919991890B42
S1130AD081938D919991890B81938D919991890B32
S1130AE081938D919991890B8193812D881FDF9139
S1130AF0CF910895CF93DF93FC01DB01EA0190E0ED
S1130B00892F392F492F51E060E0C50FD41F0D9074
S1130B101A90019C900D811D341F63956517B8F3DD
S1130B20A51BB40B9193982F832F342F53955217F1
S1130B3058F3522FC20FD41F60E00D901A90019CFD
S1130B40900D811D341F63956517B8F3C50FD41F2D
S1130B509193982F832F342F5A95A51BB40B5417B8
S1130B6059F791931124DF91CF91089516167CF4CF
S1130B70FC016150462F50E04F5F5F4F480F591FF3
S1130B8090E02191922BE417F507D9F701C090E08A
S1130B9081E0911180E008959B0135952795359565
S1130BA0279535952795820F931F6770772721E046
S1130BB030E002C0220F331F6A95E2F7FC01808106
S1130BC0822308959C01615092F0FC01E60FF11D0F
S1130BD067FDFA95808181110AC0615042F0F901E4
S1130BE0E60FF11D67FDFA9590819923B1F36F5FCC
S1130BF0E9F0260F311D67FD3A95F901319780819F
S1130C00882331F020E086952F5F8111FCCF01C04D
S1130C1020E0862F660F990B0197880F991F880F84
S1130C20991F880F991F820F911D089580E090E00D
S1130C300895DC0141502AF1842F042E000C990BF5
S1130C40FD01E80FF91F2081FB01E80FF91F8081E6
S1130C508217C8F0281788F418C0242F042E000C1B
S1130C60330BFD01E20FF31F5081FB01E20FF31F71
S1130C709081951760F0591760F0415072F780E049
S1130C80089580E0089581E008958FEF089581E04C
S1130C9008958FEF08950F931F93CF93DF93CDB7EC
S1130CA0DEB7A0970FB6F894DEBF0FBECDBF142FEA
S1130CB0242FAB01BC01CE0101964BDE082F612F1E
S1130CC0CE01019653DF91E0811190E081E00111A2
S1130CD001C080E0880F981B892FA0960FB6F89466
S1130CE0DEBF0FBECDBFDF91CF911F910F9108954D
S1130CF0EF92FF920F93CF93DF93EC017901202FB2
S1130D0057DD811106C0402FBE01C70192DF81303B
S1130D1029F0202FA701BE01CE011BDEDF91CF9168
S1130D200F91FF90EF900895EF92FF920F93CF935E
S1130D30DF93EC017901202F0CDE882329F0202F8A
S1130D40A701BE01CE0134DDDF91CF910F91FF9059
S1130D50EF9008952F923F924F925F926F927F92FD
S1130D608F929F92AF92BF92CF92DF92EF92FF92B7
S1130D700F931F93CF93DF93CDB7DEB7CC5CD1092C
S1130D800FB6F894DEBF0FBECDBFC753DF4F9983B4
S1130D908883C95CD040C22ED32EA02E202F8E0172
S1130DA00F5F1F4FC801A6DECE018F5B9F4FCF534D
S1130DB0DF4F99838883C15CD040CD53DF4F1983C3
S1130DC00883C35CD0408A2C0A2C000C99086A2D35
S1130DD08C2D9D2DF7DE3401660C771C660C771C78
S1130DE0660C771C660C771C681A790A73011AF46E
S1130DF027E0E20EF11CF594E794F594E794F5945A
S1130E00E794C30187709078992324F40197886F3D
S1130E109F6F0196182F6E2DCE018F579F4FE2DBE7
S1130E201116C4F5AA2009F441C0AC2DBD2D0E2C19
S1130E30000CFF08E1E8F0E0EC0FFD1FEE0DFF1DD4
S1130E408FEF8A0D90E00196E80EF91E41E850E01C
S1130E504C0F5D1F4E0D5F1D00E068E070E0611BEC
S1130E60710917FD73959D91892F90E09C01012EC6
S1130E7002C0220F331F0A94E2F7202B2193062E7F
S1130E8002C0959587950A94E2F7082FE417F507B1
S1130E9051F70CC04A2D6C2D7D2D81E890E08C0F0C
S1130EA09D1F8E0D911DE7FC9A95C3DB77200CF4F2
S1130EB0A6C08401000F111FBB24B394442443949F
S1130EC0512C7E0131E8E30EF11CC953DF4FE88257
S1130ED0C75CD040C853DF4FF882C85CD040DD24E3
S1130EE0D394C12CC40101971701280E391E8E0C0E
S1130EF09F1CC7018A0D911DA7FC9A95CB53DF4F08
S1130F0099838883C55CD04057C0E62F062E000C19
S1130F10FF0BDA01AE0FBF1FBC90C553DF4FB88281
S1130F20CB5CD0408E0D9F1DDC018C91B81A8B2DAB
S1130F30871BC553DF4FB881CB5CD040B81721F075
S1130F407D2DB81708F07C2DE20FF31F80836F5FAF
S1130F50862F062E000C990B80179107B4F2C45308
S1130F60DF4FB880CC5CD04001C070E081E0B712A4
S1130F7080E0B82E6A2DC953DF4F8881C75CD0400A
S1130F80C853DF4F9881C85CD040A0DBF401808156
S1130F90F0E88F9FC0011124D1019C91892B8C937F
S1130FA06A2DCB53DF4F88819981C55CD0408EDB9D
S1130FB0B1E06B1A710828F110161106B4F68B2DE6
S1130FC090E0FC01EE0FFF1F21EC30E02C0F3D1FE1
S1130FD0E20FF31F40815181F201E81BF90BEE0F80
S1130FE0FF1FE20FF31F2081318170E080E090E069
S1130FF060E0C453DF4FB882CC5CD04086CFBB24C2
S1131000B394EB2DF0E0EE0FFF1F81EC90E08C0F1A
S11310109D1FE80FF91F608171814A2DC753DF4F6F
S113102088819981C95CD04004DBC453DF4F0FB67B
S1131030F894DEBF0FBECDBFDF91CF911F910F910A
S1131040FF90EF90DF90CF90BF90AF909F908F90E4
S11310507F906F905F904F903F902F900895EF9204
S1131060FF920F931F93CF93DF93CDB7DEB7C05496
S1131070D1090FB6F894DEBF0FBECDBF7C01890144
S1131080F9012081CE01019635DDF801E655FF4FC7
S11310900190F081E02DBE016F5F7F4FC70109957C
S11310A0C05CDF4F0FB6F894DEBF0FBECDBFDF913B
S11310B0CF911F910F91FF90EF9008959A01AB018A
S11310C0CECF08950F931F93CF93DF938C01C42F3A
S11310D0FC01808180FF15C0242FAB01B801C80139
S11310E067DBD82F6C2FC801F1DADD2369F0EC2F10
S11310F0CC0FFF0B3197E00FF11F80818068808354
S113110003C0642FC801E2DADF91CF911F910F91E0
S11311100895AF92BF92CF92DF92EF92FF921F9306
S1131120CF93DF93CDB7DEB7C058D1090FB6F8948B
S1131130DEBF0FBECDBF5C016B017A01122F622F9F
S1131140C60114DD882321F0612FC5014BDAA1C04B
S1131150412FB601CE0101966CDA412FB701CE01C1
S1131160819667DA612FCE018F5B9F4F3BDA81E076
S113117022968FAF2297612FCE018F599F4F32DA7B
S113118079C0998190FD0BC0612FCE0101969EDA42
S1131190412FB701CE018F5B9F4F94DF6BC099A1A4
S11311A090FD0BC0612FCE01819690DA412FB701DB
S11311B0CE018F599F4F86DF5DC0181674F5212F1D
S11311C0AE014F5D5F4FBE016F5F7F4FCB01C1DB4F
S11311D0612FCE0101967ADA412FBE016F597F4FFC
S11311E0CE018F5B9F4F25DD88233CF4212FA7017F
S11311F0BE016F5B7F4FCB01DBDA212FAE014F596C
S11312005F4FBE016F5B7F4FCB01A3DB412FB70163
S1131210CE018F5B9F4F56DF2DC0212FAE014F5F54
S11312205F4FBE016F5D7F4FCB0193DB612FCE011A
S113123081964CDA412FBE016F5B7F4FCE018F59EF
S11312409F4FF7DC88233CF4212FA701BE016F597F
S11312507F4FCB01ADDA212FAE014F5B5F4FBE0153
S11312606F597F4FCB0175DB412FB701CE018F59E9
S11312709F4F28DF412FBE016F5D7F4FCE01019646
S1131280D8DC81117ECF412FBE016F5B7F4FC5013A
S1131290D0D9C058DF4F0FB6F894DEBF0FBECDBF14
S11312A0DF91CF911F91FF90EF90DF90CF90BF908F
S11312B0AF9008956F927F928F929F92AF92BF9258
S11312C0CF92DF92EF92FF920F931F93CF93DF930E
S11312D0CDB7DEB7C054D1090FB6F894DEBF0FBE48
S11312E0CDBF6C013B017A015901F9011081612FD5
S11312F0CA013CDC811196C0A501B301CE0101965F
S1131300DDDE9501AE014F5F5F4FB601CE018196E0
S1131310A6DEA501BE016F5F7F4FCB01CFDE950135
S1131320A701B301C3019BDEA501B701C701C6DE56
S11313304501F4E08F0E911C012F9401A701B60121
S1131340C601D6DC9401A701B701C701D1DC940121
S1131350A701B601C701E8DC9501A701B601C601E2
S11313607EDE9401A601B601C701C2DC9401A70187
S1131370B601C601BDDC60E070E0C6010DDC882367
S1131380C1F0212FA401B601C60112DA082F612F82
S1131390C6019CD9E12F012E000CFF0B3197EC0DF7
S11313A0FD1D20E8029FC00111240081082B008349
S11313B003C0612FC6018AD9A501B601C7017EDE2B
S11313C0012F9401AE014F5D5F4FB701C701ACDC43
S11313D09401AE014F5D5F4FB701C701A5DC9401D5
S11313E0A701BE016F5D7F4FCB019EDC9501AE016D
S11313F04F5D5F4FB601C60132DE9401AE014F5F0F
S11314005F4FB601CA0190DC412FB701C60111D963
S1131410412FB301C7010DD9412FBE016F5F7F4F2B
S1131420C30107D9C05CDF4F0FB6F894DEBF0FBE0F
S1131430CDBFDF91CF911F910F91FF90EF90DF907F
S1131440CF90BF90AF909F908F907F906F900895B2
S11314506F927F928F929F92AF92BF92CF92DF92C0
S1131460EF92FF920F931F93CF93DF93CDB7DEB725
S1131470A0970FB6F894DEBF0FBECDBF7C014B0121
S11314806A01CE0101963C0180E2F30111928A9532
S1131490E9F783E08983FA011081C7010FDE560161
S11314A0F4E0AF0EB11C012F9501A301B701C701F0
S11314B03BDC9601A401B701C701D1DDA6014C575D
S11314C05F4F9501B701C70113DCA0960FB6F894DE
S11314D0DEBF0FBECDBFDF91CF911F910F91FF9063
S11314E0EF90DF90CF90BF90AF909F908F907F90C0
S11314F06F900895BF92CF92DF92EF92FF920F9375
S11315001F93CF93DF93CDB7DEB7C054D1090FB685
S1131510F894DEBF0FBECDBF6C017B0190E28E015B
S11315200F5F1F4FD801E92F1D92EA95E9F781E07B
S11315308983FE01B196DF011D929A95E9F789A38B
S1131540FB01B0806C5F7F4F2B2DA801C80130D9FF
S11315506B2DC80137DB8C010150110902301105D4
S1131560C4F0A701BE016F5D7F4FCB01A7DDB801B9
S1131570CE01019611DB882339F09701A601BE0143
S11315806F5D7F4FCB016BDD0150110901301105F7
S113159041F74B2DBE016F5D7F4FC6014AD8C05C39
S11315A0DF4F0FB6F894DEBF0FBECDBFDF91CF91F2
S11315B01F910F91FF90EF90DF90CF90BF9008950F
S11315C0CF92DF92FF920F931F93CF93DF93CDB708
S11315D0DEB7A0970FB6F894DEBF0FBECDBF6C0187
S11315E08B0140E226D81C821B821A82198218863B
S11315F01F821E821D821C861B861A861986F8018C
S113160084A58D8785A58E8786A58F8787A5888BDA
S113161080A9898B81A98A8B82A98B8B83A98C8BC6
S113162084A98D8B85A98E8B86A98F8B87A9888F9A
S113163080AD898F81AD8A8F82AD8B8F83AD8C8F86
S113164084AD8D8F85AD8E8F86AD8F8F87AD88A34A
S113165020E2AE014F5F5F4FBA01CA01A9D8F82E4C
S113166020E2AE014F5F5F4FB601C601A1D8F80E6C
S1131670F80180A98D8781A98E8782A98F8783A984
S1131680888B84A9898B85A98A8B86A98B8B87A94A
S11316908C8B80AD8D8B81AD8E8B82AD8F8B83AD2A
S11316A0888F84AD898F85AD8A8F86AD8B8F87AD0A
S11316B08C8F18A21F8E1E8E1D8E20E2AE014F5FEE
S11316C05F4FBA01CA0174D8F80E20E2AE014F5F31
S11316D05F4FB601C6016CD8F80EF80180A189836A
S11316E081A18A8382A18B8383A18C8384A18D832E
S11316F085A18E8386A18F8387A1888780A589870A
S113170081A58A8782A58B8783A58C87188A1F86E3
S11317101E861D861C8A1B8A1A8A198A188E1F8A9D
S11317201E8A1D8A80AD898F81AD8A8F82AD8B8F91
S113173083AD8C8F84AD8D8F85AD8E8F86AD8F8F6D
S113174087AD88A320E2AE014F5F5F4FB601C601AB
S11317502FD8F80EF80184A1898385A18A8386A1F4
S11317608B8387A18C8380A58D8381A58E8382A59D
S11317708F8383A5888784A5898785A58A8786A57D
S11317808B8787A58C8734A93D8725A92E8796A9A1
S11317909F8787A9888B40AD498B41AD4A8B42AD69
S11317A04B8B43AD4C8B44AD4D8B45AD4E8B46AD11
S11317B04F8B47AD488F398F2A8F9B8F8C8F80A199
S11317C08D8F81A18E8F82A18F8F83A188A320E228
S11317D0AE014F5F5F4FB601C6010E94D803F80EF9
S11317E0F80184A5898385A58A8386A58B8387A52B
S11317F08C8380A98D8381A98E8382A98F8383A9F9
S1131800888784A9898785A98A8786A98B8787A9D8
S11318108C87188A1F861E861D861C8A1B8A1A8A34
S1131820198A188E1F8A1E8A1D8A80A1898F81A118
S11318308A8F82A18B8F83A18C8F80A58D8F81A5A8
S11318408E8F82A58F8F83A588A320E2AE014F5F80
S11318505F4FB601C6017DD8F81AF80180A98983C3
S113186081A98A8382A98B8383A98C8384A98D838C
S113187085A98E8386A98F8387A9888780AD898768
S113188081AD8A8782AD8B8783AD8C8784AD8D874C
S113189085AD8E8786AD8F8787AD888B1C8A1B8A22
S11318A01A8A198A188E1F8A1E8A1D8A84A1898F12
S11318B085A18A8F86A18B8F87A18C8F84A58D8F1C
S11318C085A58E8F86A58F8F87A588A320E2AE017C
S11318D04F5F5F4FB601C6013CD8F81AF80184A9DE
S11318E0898385A98A8386A98B8387A98C8380AD04
S11318F08D8381AD8E8382AD8F8383AD888784ADE4
S1131900898785AD8A8786AD8B8787AD8C8780A1D3
S11319108D8781A18E8782A18F8783A1888B84A1E3
S1131920898B85A18A8B86A18B8B87A18C8B80A5C3
S11319308D8B81A58E8B82A58F8B83A5888F1C8E22
S11319401B8E1A8E198E80A98D8F81A98E8F82A9E4
S11319508F8F83A988A320E2AE014F5F5F4FB6014A
S1131960C6010E94A904F81AF80180AD898381ADEB
S11319708A8382AD8B8383AD8C8384AD8D8385AD67
S11319808E8386AD8F8387AD88871C861B861A86D7
S1131990198684A18D8785A18E8786A18F8787A1CB
S11319A0888B80A5898B81A58A8B82A58B8B83A547
S11319B08C8B84A58D8B85A58E8B86A58F8B87A517
S11319C0888F1C8E1B8E1A8E198E84A98D8F85A9E3
S11319D08E8F86A98F8F87A988A320E2AE014F5FDF
S11319E05F4FB601C6010E94A9041F2D181B92F473
S11319F020E248E052E0B601C6010E94D803180F65
S1131A00BAF311C020E248E052E0B601C6010E94D8
S1131A10A904181B1111F6CF40E2B60188E092E048
S1131A2008D9813079F7A0960FB6F894DEBF0FBEBF
S1131A30CDBFDF91CF911F910F91FF90DF90CF9099
S1131A400895AF92BF92CF92DF92EF92FF920F93DD
S1131A501F93CF93DF93CDB7DEB7A0970FB6F8945B
S1131A60DEBF0FBECDBF5C017B016A018901A90104
S1131A70B601CE01019622DB9801AE014F5F5F4FA4
S1131A80B501C501ECDA9801A601BE016F5F7F4F75
S1131A90CB01E5DA9801AE014F5F5F4FB701C70193
S1131AA0DEDAA0960FB6F894DEBF0FBECDBFDF918D
S1131AB0CF911F910F91FF90EF90DF90CF90BF9047
S1131AC0AF9008954F925F926F927F928F929F9200
S1131AD0AF92BF92CF92DF92EF92FF920F931F9338
S1131AE0CF93DF93CDB7DEB7A0970FB6F894DEBFE0
S1131AF00FBECDBF3C012B017A0159016801F801E9
S1131B0010814601F4E08F0E911C012F9401AC0169
S1131B10B701CE01019608D9A601BE016F5F7F4FC0
S1131B20CB01CCDA9601AE014F5F5F4FB301C30125
S1131B3096DA9601AE014F5F5F4FB701C7018FDAA6
S1131B409401A201B501C501EFD8A601B501CE01EA
S1131B500196B4DA9401A301BE016F5F7F4FCB01FC
S1131B60E3D89401A701BE016F5F7F4FCB01DCD89E
S1131B709401A301B701C701D7D89601A701B20107
S1131B80C2016DDA9401AE014F5F5F4FB301C7012B
S1131B90CBD89601A701B501C50161DA9401A20170
S1131BA0B501C501C1D8412FBE016F5F7F4FC70189
S1131BB00E941903A0960FB6F894DEBF0FBECDBFE6
S1131BC0DF91CF911F910F91FF90EF90DF90CF9015
S1131BD0BF90AF909F908F907F906F905F904F9049
S1131BE008954F925F926F927F928F929F92AF92DD
S1131BF0BF92CF92DF92EF92FF920F931F93CF93F6
S1131C00DF93CDB7DEB7C056D1090FB6F894DEBF67
S1131C100FBECDBF4C012B015A0139016801F801F7
S1131C2010817601F4E0EF0EF11C012F9701AC0155
S1131C30B501CE01019678D8A601BE016F5F7F4F32
S1131C40CB013CDA9601AE014F5F5F4FB401C40192
S1131C5006DA9601AE014F5F5F4FB501C501FFD9AA
S1131C609701A201B301CE01019642D89701A201C6
S1131C70B301C30159D89701A401B501CE018196DE
S1131C8053D89601AE014F5D5F4FB201C201E7D94F
S1131C909701A501B401CE0181962AD8A601B3010A
S1131CA0C5010CDA9701AE014F5D5F4FB501C50167
S1131CB03BD89701A501B401CE018F5B9F4F34D867
S1131CC09601AE014F5B5F4FB301C301C8D99701C1
S1131CD0A201B301C30128D8A601BE016F5F7F4FE3
S1131CE0CE018F5B9F4FEAD99701AE014F5D5F4FE5
S1131CF0BE016F5B7F4FCB0117D89701A401BE01D2
S1131D006F5B7F4FCE0181960FD89601AE014F5F76
S1131D105F4FBE016F5D7F4FCB01A1D99701A20137
S1131D20BE016F5D7F4FC2010E949406412FBE0128
S1131D306F5B7F4FC4010E941903C05ADF4F0FB677
S1131D40F894DEBF0FBECDBFDF91CF911F910F91ED
S1131D50FF90EF90DF90CF90BF90AF909F908F90C7
S1131D607F906F905F904F9008952F923F924F9283
S1131D705F926F927F928F929F92AF92BF92CF9217
S1131D80DF92EF92FF920F931F93CF93DF93CDB720
S1131D90DEB7CB5CD1090FB6F894DEBF0FBECDBF62
S1131DA0C653DF4F99838883CA5CD040CC53DF4F3E
S1131DB079836883C45CD040CF53DF4F5983488311
S1131DC0C15CD04069011701F701F081CD53DF4FA9
S1131DD0F883C35CD0404F2FCE0181960E94190333
S1131DE0CD53DF4F2881C35CD040022E000C330B4F
S1131DF0CA53DF4F39832883C65CD040CC53DF4FAE
S1131E0088819981C45CD040820F931FC853DF4FEF
S1131E1099838883C85CD040CD53DF4F4881C35C2D
S1131E20D040BC01CE018F599F4F0E941903F70186
S1131E30B080C114D10441F04B2DB601CE018F55B1
S1131E409F4F0E9419030CC06B2DCE018F559F4FDD
S1131E500E94F20281E0CF55DF4F8883C15AD040FF
S1131E604B2DBE016F5D7F4FCE0101960E94190379
S1131E700F2EF1E4EF2EF12CF02DEC0EFD1EF0E20E
S1131E80EF0EF11C4B2DB701CE018F5B9F4F0E94CB
S1131E9019039101AE014F555F4FB701CE018196F1
S1131EA0D0DDF101EC55FF4F0190F081E02D91015F
S1131EB0AE014F555F4FB701CE018196099591014F
S1131EC0AE014F555F4FBE016F5B7F4FCE01019650
S1131ED0B8DD580122E0A21AB1081A141B040CF050
S1131EE053C044244394512CB501CF53DF4F888110
S1131EF09981C15CD0400E94CC059201882311F0E5
S1131F0020E030E03901660C771C660C771C660C07
S1131F10771C660C771C660C771C0F2EF1E4CF2E11
S1131F20D12CF02DCC0EDD1EC60CD71C81E090E028
S1131F308C0F9D1F680E791E7201E21AF30AEE0CD3
S1131F40FF1CEE0CFF1CEE0CFF1CEE0CFF1CEE0C39
S1131F50FF1C0F2EF1E48F2E912CF02D8C0E9D1E64
S1131F608E0C9F1CE80EF91E81019601A301B40199
S1131F70C70137DE9401A701B601C301A3DD91E0D7
S1131F80A91AB10809F0B0CF60E070E0CF53DF4F79
S1131F9088819981C15CD0400E94CC0521E030E069
S1131FA0882311F020E030E06901CC0CDD1CCC0C5E
S1131FB0DD1CCC0CDD1CCC0CDD1CCC0CDD1C0F2E74
S1131FC0F1E48F2E912CF02D8C0E9D1E8C0C9D1CFB
S1131FD0E1E0F0E0EC0FFD1FCE0EDF1E81E090E0AB
S1131FE07C01E21AF30AEE0CFF1CEE0CFF1CEE0C53
S1131FF0FF1CEE0CFF1CEE0CFF1C0F2EF1E4AF2EA9
S1132000B12CF02DAC0EBD1EAE0CBF1CEE0EFF1E8F
S113201081019401A601B501C701E3DD3101F4E0BA
S11320206F0E711CCD53DF4F0881C35CD040930108
S1132030AE014F5F5F4FBE016F5D7F4FCE018F5783
S11320409F4F0E9494069101A501BE016F577F4FD7
S1132050CB0105D89101CC53DF4F48815981C45C31
S1132060D040BE016F577F4FCB010E942F08CD5344
S1132070DF4F2881C35CD040A301BE016F577F4F5F
S1132080CB0147D89101C853DF4F48815981C85CBF
S1132090D040BE016F577F4FCB010E942F089101A2
S11320A0A701BE016F577F4FCB010E942F0881010A
S11320B09501A701B401C60105DD9101AE014F5799
S11320C05F4FBE016F5B7F4FCE010196BADCCD53EB
S11320D0DF4F4881C35CD040BE016F5F7F4FC65362
S11320E0DF4F88819981CA5CD0400E941903CD5387
S11320F0DF4F4881C35CD040BE016F5B7F4FC65346
S1132100DF4F88819981CA5CD040CA53DF4F288150
S11321103981C65CD040820F931F0E941903C553B6
S1132120DF4F0FB6F894DEBF0FBECDBFDF91CF9166
S11321301F910F91FF90EF90DF90CF90BF90AF90E1
S11321409F908F907F906F905F904F903F902F90D3
S11321500895AF92BF92CF92DF92EF92FF920F93C6
S11321601F93CF93DF937B015A01F901C280D3807F
S1132170A601495F5F4FEA01DD230CF42796D5954C
S1132180C795D595C795D595C79589010C5D1F4F02
S11321902C2FA801BC01C7010E94D803811111C0D2
S11321A028E0C202C0011124C816D9066CF4B60195
S11321B0C7010E94CC0591E0811101C090E0D92EA5
S11321C004C0DD24D39401C0D12C2C2FA801B70165
S11321D0C5010E94D8038D2DDF91CF911F910F91DE
S11321E0FF90EF90DF90CF90BF90AF900895CF9382
S11321F0DF93DC0116161706CCF420E030E090E003
S1132200EB012197FE01E21BF30BE40FF51F208184
S1132210FD01E90FF11D97FDFA9520839F5F292F9A
S1132220092E000C330B2617370764F3DF91CF9187
S113223008959F92AF92BF92CF92DF92EF92FF9256
S11322400F931F93CF93DF938C015B01D42F642FE3
S1132250C5010E94E2052091380330913903232BF4
S1132260C1F148E0D40290011124281B390B8FEFEF
S113227090E002C0959587952A95E2F7982EC0E4E0
S1132280CD2E0D2E000CDD08760181E0E81AF10850
S1132290E00EF11EE0913803F0913903B601C80154
S11322A009950097D9F0F7018081892180836D2FEA
S11322B0C8010E94B605811107C04D2FB801C501A0
S11322C00E944B06813041F0C15021F780E090E03C
S11322D005C080E090E002C081E090E0DF91CF9102
S11322E01F910F91FF90EF90DF90CF90BF90AF9030
S11322F09F9008958F929F92AF92BF92CF92DF9258
S1132300EF92FF920F931F93CF93DF938C014B01B6
S11323107901F901828193810796EC010AF42796E9
S1132320D595C795D595C795D595C795CC2EDD2E52
S113233056014C155D0508F45A016C2FC8010E9422
S1132340F202A401B501C80152DFAA0CBB1CAA0CFD
S1132350BB1CAA0CBB1CF701828193818A159B05C7
S1132360A0F5B501681B790BF801EC0DFD1D0E17E6
S11323701F07D8F4D801D12C48E050E0461B570B76
S11323809291292F30E0C901062E02C095958795B8
S11323900A94E2F78D298083042E01C0220F0A9447
S11323A0EAF7D22EAE17BF0759F7F4E2EF0EF11C8D
S11323B04C2FB801C7010E941906813031F02C2F2F
S11323C0A701B801C8010E94A904DF91CF911F9110
S11323D00F91FF90EF90DF90CF90BF90AF909F90C0
S11323E08F9008953F924F925F926F927F928F9257
S11323F09F92AF92BF92CF92DF92EF92FF920F9390
S11324001F93CF93DF93CDB7DEB7CA58D1090FB668
S1132410F894DEBF0FBECDBFCB57DF4F99838883BF
S1132420C558D040C957DF4F79836883C758D04017
S1132430C757DF4F59834883C958D04059012801F1
S11324406701CE01019623969FAF8EAF23978096A6
S113245025969FAF8EAF2597F7013080632DC90174
S11324600E94B6058111F4C0F7010281138198011D
S1132470295F3F4FC90199230CF407964C019594A9
S1132480879495948794959487943601F4E26F0E1B
S1132490711C482DB501C3010E944B06813009F01F
S11324A0DAC09601AE014F5D5F4FBE016F5F7F4F93
S11324B0C5014FDE0F5F1F4F21E030E0882311F08C
S11324C020E030E0220F331FE1E4F0E0EC0FFD1FC9
S11324D0E20FF31F40815181760120E030E0B60124
S11324E06C5B7F4FCE018B5B9F4F3FDC632DCE0136
S11324F08B5B9F4F0E94B6058111B0C08091380359
S113250090913903892B41F4682DCE0101960E94E4
S1132510F20281E0898308C0482DB301CE010196FF
S113252088DE009709F49FC0082D9301AE014F5F28
S11325305F4FB501C5010E94AA06282DA301B5016C
S1132540C5010E9489089301AE014F5F5F4FB50139
S1132550C5010E94AA06F6016181062E000C770BC4
S1132560AE014B5B5F4FC20142DEF6018281938173
S11325700796BC0112F4695F7F4F75956795759551
S1132580679575956795CB57DF4F48815981C55835
S1132590D040CE0101962BDEFE01E80DF11D87FC33
S11325A0FA9510A2432DBE016B5B7F4FCE0181963D
S11325B00E941903082D9301AE014F5D5F4FBE01C8
S11325C06F5F7F4FCA010E94AA069601C757DF4F6B
S11325D048815981C958D040C957DF4F68817981F2
S11325E0C758D040CE01019685DE9301AE014F5D00
S11325F05F4FBE016F5F7F4FCA010E94780693014F
S1132600A501BE016F5D7F4FCB010E94AA06682D14
S1132610CE0181960E94E205F6012181622F022EED
S1132620000C770BAB01440F551F440F551F440F8B
S1132630551F48175907ACF0AE014F5D5F4FC201FB
S1132640820F911D27FD9A95D2DD81E090E00BC0A9
S113265080E090E008C080E090E005C080E090E079
S113266002C080E090E0C657DF4F0FB6F894DEBF9B
S11326700FBECDBFDF91CF911F910F91FF90EF90CF
S1132680DF90CF90BF90AF909F908F907F906F908E
S11326905F904F903F90089590933903809338034F
S11326A0089584E092E008953F924F925F926F9272
S11326B07F928F929F92AF92BF92CF92DF92EF92CE
S11326C0FF920F931F93CF93DF93CDB7DEB7A297FB
S11326D00FB6F894DEBF0FBECDBF3C014B015A01CB
S11326E03AA329A368016894332436F8280184E2C4
S11326F0480E511CF601828193810796AC0112F4B5
S1132700495F5F4F5595479555954795559547951D
S1132710B201CE0101968DDD009791F0760109A1F9
S11327201AA19E012F5F3F4FA501B401C3015ADED8
S1132730009721F43A943110DDCF02C081E090E09B
S1132740A2960FB6F894DEBF0FBECDBFDF91CF9136
S11327501F910F91FF90EF90DF90CF90BF90AF90BB
S11327609F908F907F906F905F904F903F900895CF
S11327702F923F924F925F926F927F928F929F928D
S1132780AF92BF92CF92DF92EF92FF920F931F937B
S1132790CF93DF93CDB7DEB7CC5CD1400FB6F894BE
S11327A0DEBF0FBECDBF4C01C753DE4F79836883B4
S11327B0C95CD140C553DE4F59834883CB5CD140BB
S11327C059017801D8013C9012968D919C911397F0
S11327D007966C011AF4B7E0CB0ED11CD594C794BC
S11327E0D594C794D594C7940C2D0C2C000C110BC4
S11327F001501109E1EAF0E0EC0FFD1FE00FF11FB9
S11328001082E9E8F1E0EC0FFD1FE00FF11F1082E8
S1132810E9EAF1E0EC0FFD1FE00FF11F1082F70170
S11328206181062E000C770BA401CE01875B9E4FBD
S1132830DEDCD70111966C91632C032C000C770815
S11328400F2EF9E44F2E55245394F02D4C0E5D1E9B
S1132850460C571C062E000C770BA401460F571F7D
S1132860C201C5DCF7016181062E000C770BA501BE
S1132870CE0187579E4FBBDCD70111966C91062E73
S1132880000C770BA501460F571FCE0187559E4FAD
S1132890AEDC632DCE0187579E4F0E94B605811191
S11328A002C2632DCE0187559E4F0E94B605811149
S11328B0FDC14701B4E28B0E911C4C2DBE0167573C
S11328C07E4FC4010E941906813009F0F2C14C2DDB
S11328D0BE0167557E4FC4010E941906813009F07C
S11328E0EBC12C2DA401BE0167557E4FCE018F5B39
S11328F09F4F0E948908E1E0F0E0EC0FFD1FE00F1C
S1132900F11F10829701C553DE4F48815981CB5C7A
S1132910D140C753DE4F68817981C95CD140CE0173
S11329200196E8DC0C2D9401AE014F5B5F4FBE01B4
S11329306F5F7F4FCB010E94AA069401AE014F5BEB
S11329405F4FBE0167577E4FCE0181960E94AA0653
S11329505E01E1E6AE0EB11C432DBE01675B7E4F06
S1132960C5010E941903C501860D971DC553DE4F8D
S113297099838883CB5CD140432DB2010E94190313
S1132980432D270194E4490E511CB201CE018F510D
S11329909F4F0E941903B201660D771D432DCE018E
S11329A08F5F9E4F0E941903D7011496C753DE4FC1
S11329B0B983A883C95CD140032D9D01AE014F5159
S11329C05F4FB501CE018F5B9F4F0E949406870134
S11329D0C553DE4F28813981CB5CD140A501BE01AE
S11329E06F5F7E4FCE018F519F4F6CD8232DC753FD
S11329F0DE4F48815981C95CD140BE016F5B7F4F76
S1132A00CB010E9489089701AE014F5B5F4FC5530C
S1132A10DE4F68817981CB5CD140C50112D8CF5B90
S1132A20DE4F19821882C154D140CD5BDE4F5982EA
S1132A304882C354D140E9E4F1E0EC0FFD1FCB5BC5
S1132A40DE4FF983E883C554D140C95BDE4FB982B8
S1132A50A882C754D1406C2DCE0181960E94E20514
S1132A60082F192F6C2DCE0101960E94E205A02E8D
S1132A70B12EA816B9060CF45C01850101501109A8
S1132A80B801CE0101960E94CC0521E090E08111AD
S1132A9001C020E0422E592EB801CE0181960E9439
S1132AA0CC05811103C0E0E0F0E002C0E2E0F0E018
S1132AB0E429F529EE0FFF1F81E491E08C0F9D1F9F
S1132AC0E80FF91F00811181432DB801CE018F5504
S1132AD09F4F0E941903B801660D771D432DCE0147
S1132AE08F539F4F0E941903632DCE018F5B9F4F1D
S1132AF00E94F20281E022968FAF229792E0A91AF7
S1132B00B1080AF483C02701A4EA4A0E511C212CFF
S1132B10D201ED91FC919701AE014F5B5F4FBE0175
S1132B206F537F4FCE018F559F4F0995B501CE014D
S1132B3001960E94CC0511E0811101C0122DB5014E
S1132B40CE0181960E94CC05811102C0E22D01C004
S1132B50E2E01E2BE12FF0E0EE0FFF1F81E491E095
S1132B608C0F9D1FE80FF91F0081118101151105BC
S1132B7009F447C0432DB801CE018F519F4F0E94E5
S1132B801903B801660D771D432DCE018F5F9E4F4B
S1132B900E9419039701AE014F5B5F4FBE016F5F47
S1132BA07E4FCE018F519F4F0E94210D032DC7539D
S1132BB0DE4F28813981C95CD140AE014F515F4F4E
S1132BC0BE016F557F4FCE018F5D9E4F0E949406CC
S1132BD087019E012F533F4FAE014F555F4FBE01FA
S1132BE06F5F7E4FCE018F519F4F0E94620D970100
S1132BF0AE014F5D5E4FBE016F5B7F4FCB010E9404
S1132C002F0891E0A91AB10808F082CF232DC753E9
S1132C10DE4F48815981C95CD140BE016F5B7F4F53
S1132C20CB010E9489089701AE014F5B5F4FBE0143
S1132C306F537F4FCE018F559F4F0E94210D4C2D16
S1132C40BE016F557F4FC4010E941906813041F0C7
S1132C502C2DA401BE016F557F4FCB010E94A90406
S1132C603A943320CCF020E0832D032C000C990BF4
S1132C70E1EAF0E0EC0FFD1FE80FF91FA9E8B1E06D
S1132C80AC0FBD1FA80FB91F30818C918327282B4F
S1132C903A9433204CF701C020E081E090E02223F5
S1132CA069F080E00BC080E090E008C080E090E034
S1132CB005C080E090E002C080E090E0C453DE4FA5
S1132CC00FB6F894DEBF0FBECDBFDF91CF911F9139
S1132CD00F91FF90EF90DF90CF90BF90AF909F90B7
S1132CE08F907F906F905F904F903F902F900895BA
S1132CF01F93CF93DF936623F1F1A82FB92FE0E060
S1132D00F0E010E070E02E2F8D91319690ED980F49
S1132D109A3018F490E0C09711C09FEB980F96304A
S1132D2018F490E0C7970AC09FE9980F963020F4F2
S1132D3090E08755910902C0812F972F2695EA01CB
S1132D40C20FD11D9F0121703078332334F42150F8
S1132D5031092E6F3F6F2F5F3F4F220F331F220F1A
S1132D60331F02C0880F991F2A95E2F79881890FB3
S1132D708883E61740F2DF91CF911F9108950F9356
S1132D801F93CF93DF938C01EB01209739F00E94BE
S1132D90ED22F80181938F012197C9F781E090E03A
S1132DA0DF91CF911F910F9108951DB880EF8EB9D7
S1132DB09FEF90936A008DBB0895CF92DF92EF92BC
S1132DC0FF920F931F93CF93DF93CDB7DEB7C25E0D
S1132DD0D1090FB6F894DEBF0FBECDBF8C017B01C5
S1132DE08FEB96E159DC5DDC6C01AE014F5F5F4F08
S1132DF060E884E091E07CDFAE014F5B5F4F60E40C
S1132E0084E891E075DF20E032E040E050E0B80172
S1132E10CE018D559F4F0E949A2186019E012D5906
S1132E203F4F40E450E0BE016D557F4FCE018F5BB4
S1132E309F4F3ADC40E450E0BE016D597F4FC7011B
S1132E400E940423A3969FAF8EAFA397A3968EAD43
S1132E509FADA397892B21F082EF92E00E941C2260
S1132E608601970140E450E0BE016D557F4FCE01CD
S1132E7001967EDCA3969FAF8EAFA397A3968EADEB
S1132E809FADA397892B21F082EF92E00E941C2230
S1132E90A3968EAD9FADA397CE51DF4F0FB6F89496
S1132EA0DEBF0FBECDBFDF91CF911F910F91FF9079
S1132EB0EF90DF90CF900895CF93DF93CDB7DEB737
S1132EC0C958D1090FB6F894DEBF0FBECDBF88EF45
S1132ED092E00E941C229E012E5F3F4F40E060E082
S1132EE080E00E944D028DEF92E00E941C2280E45B
S1132EF0E4ECF1E0DE011A9601900D928A95E1F777
S1132F00CE010A960E948D0284E193E00E941C2265
S1132F10CE01865B9F4F0E94A102BE01665B7F4F7C
S1132F20CE010A964ADF89838981882321F083E2CE
S1132F3093E00E941C22AE014E5F5F4F60E080E090
S1132F400E943A0280E090E0C757DF4F0FB6F89432
S1132F50DEBF0FBECDBFDF91CF9108950E94102236
S1132F6024DF0E94CA01A8DF80E090E008952F9238
S1132F703F924F925F926F927F928F929F92AF9205
S1132F80BF92CF92DF92EF92FF920F931F93CF9352
S1132F90DF93CDB7DEB7CA5ED1090FB6F894DEBFB2
S1132FA00FBECDBFC751DF4F99838883C95ED04020
S1132FB0CE010196C552DF4F99838883CB5DD04003
S1132FC0FE01EF57FF4FC753DF4FF983E883C95C16
S1132FD0D0402C01C951DF4F79836883C75ED0404C
S1132FE0C951DF4FA881B981C75ED040BC91C55398
S1132FF0DF4FB883CB5CD040C951DF4FE881F98102
S1133000C75ED040718082809380A480B580A68101
S1133010B7813896C951DF4FF983E883C75ED04042
S11330206894662463F8C12CD12CE12CF12C10E0B7
S1133030F0E0212C312C2C2D3D2D4E2D5F2D612FB8
S11330407F2F822D932D08E00E944B22C553DF4F22
S1133050C880CB5CD040C22AD32EE42EF52E162F86
S1133060F72F282E392EC553DF4F2881CB5CD04053
S1133070372D482D592D6A2D7B2D8A2F9B2F0E9489
S11330806622C553DF4F2883CB5CD040732E842E39
S1133090952EA62EB72EA82FB92F6A946110CBCFE8
S11330A0D201CC921196DC9211971296EC9212975F
S11330B01396FC92139714961C9314971596FC93ED
S11330C0159716962C92169717963C92B8E04B0ECD
S11330D0511CC753DF4FE881F981C95CD040E41526
S11330E0F50509F07DCF80E4C751DF4FE881F98110
S11330F0C95ED040DE01AF57BF4F01900D928A9553
S1133100E1F784E990E0CF52DF4F99838883C15D72
S1133110D040C053DF4F1882C05DD040A1E8B0E07A
S1133120AC0FBD1F1896C951DF4FB983A883C75E82
S1133130D040C053DF4FB881C05DD040B03108F0FB
S113314060C0C552DF4FE881F981CB5DD040F0818A
S1133150C553DF4FF883CB5CD040C552DF4FA88105
S1133160B981CB5DD0401196BC91C453DF4FB88375
S1133170CC5CD040C552DF4FE881F981CB5DD040B3
S1133180F281C353DF4FF883CD5CD040C552DF4F8B
S1133190A881B981CB5DD0401396BC91C253DF4F57
S11331A0B883CE5CD040C552DF4FE881F981CB5D56
S11331B0D040F481C153DF4FF883CF5CD040C55277
S11331C0DF4FA881B981CB5DD0401596BC91CD521B
S11331D0DF4FB883C35DD040C552DF4FE881F9812A
S11331E0CB5DD040F681CC52DF4FF883C45DD04034
S11331F0C552DF4FA881B981CB5DD04017964C9062
S1133200DBC1E2965FACE297E3966FACE397E4969A
S11332107FACE497E5968FACE597E6969FACE6978E
S1133220E796BFADE797E896AFADE897E996FFADAF
S1133230E997E985C553DF4FE883CB5CD040EA8545
S1133240C453DF4FE883CC5CD040EB85C353DF4FDE
S1133250E883CD5CD040EC85C253DF4FE883CE5C7D
S1133260D040ED85C153DF4FE883CF5CD0402E843E
S11332703F8448882A962FAD2A972B963FAD2B97EB
S11332802C964FAD2C972D965FAD2D972E966FAD46
S11332902E972F967FAD2F9760968FAD609761968E
S11332A09FAD6197A980BA80CB80DC80ED80FE80E1
S11332B00F8118850E949D22CD52DF4F2883C35D64
S11332C0D040CC52DF4F3883C45DD040CB52DF4F67
S11332D04883C55DD040CA52DF4F5883C65DD04095
S11332E0C952DF4F6883C75DD040C852DF4F78832F
S11332F0C85DD040C752DF4F8883C95DD040C652F5
S1133300DF4F9883CA5DD040252D362D472D582D8B
S1133310692D7B2F8A2F9F2F03E00E948222A22EE9
S1133320B32EC42ED52EE62EF72EE82F192F252DD9
S1133330362D472D582D692D7B2F8A2F9F2F0DE277
S11333400E948222A226B326C426D526E626F72684
S1133350E8271927252D362D472D582D692D7B2F2C
S11333608A2F9F2F06E00E946622A226B326C42637
S1133370D526E626F7260E2F08271927CD52DF4F2C
S11333802881C35DD040CC52DF4F3881C45DD0402A
S1133390CB52DF4F4881C55DD040CA52DF4F5881C0
S11333A0C65DD040C952DF4F6881C75DD040C85266
S11333B0DF4F7881C85DD040C752DF4F8881C95D37
S11333C0D040C652DF4F9881CA5DD0400E949D22F2
S11333D0622E732E842E952EB62FA72FF82FE92F49
S11333E0C553DF4F2881CB5CD040C453DF4F3881B5
S11333F0CC5CD040C353DF4F4881CD5CD040C25336
S1133400DF4F5881CE5CD040C153DF4F6881CF5C21
S1133410D040722D832D942D08E30E948222A22E87
S1133420B32EC42ED52EE62EF72E582E192FC553A3
S1133430DF4F2881CB5CD040C453DF4F3881CC5C54
S1133440D040C353DF4F4881CD5CD040C253DF4FDF
S11334505881CE5CD040C153DF4F6881CF5CD040EF
S1133460722D832D942D0FE30E948222A226B3266F
S1133470C426D526E626F72658261927C553DF4F36
S11334802881CB5CD040C453DF4F3881CC5CD04022
S1133490C353DF4F4881CD5CD040C253DF4F5881C6
S11334A0CE5CD040C153DF4F6881CF5CD040722DD9
S11334B0832D942D07E00E946622A226B326C426FB
S11334C0D526E626F726052D08271927262D372D7C
S11334D0482D592D6B2F7A2F8F2F9E2F0E949D22BE
S11334E0C553DF4F2883CB5CD040C453DF4F3883B0
S11334F0CC5CD040C353DF4F4883CD5CD040C25333
S1133500DF4F5883CE5CD040C153DF4F6883CF5C1C
S1133510D040CD52DF4F7883C35DD040CC52DF4FD3
S11335208883C45DD040492E48E750E0BE01675F00
S11335307F4FCE0101960E941A23C553DF4FF881B5
S1133540CB5CD040EA96FFAFEA97C453DF4F1881B3
S1133550CC5CD040EB961FAFEB97C353DF4F888111
S1133560CD5CD040EC968FAFEC97C253DF4F98817F
S1133570CE5CD040ED969FAFED97C153DF4FA8814D
S1133580CF5CD040EE96AFAFEE97CD52DF4FB8810F
S1133590C35DD040EF96BFAFEF97CC52DF4FE881C9
S11335A0C45DD040C158DF4FE883CF57D040C058E6
S11335B0DF4F4882C058D040C754DF4F1881C95BE1
S11335C0D040CB52DF4F1883C55DD040C654DF4F87
S11335D0A881CA5BD040CA52DF4FA883C65DD040E1
S11335E0C554DF4FB881CB5BD040C952DF4FB8839D
S11335F0C75DD040C454DF4F1881CC5BD040C85263
S1133600DF4F1883C85DD040C354DF4FA881CD5B22
S1133610D040C752DF4FA883C95DD040C254DF4FAA
S1133620B881CE5BD040C652DF4FB883CA5DD0406C
S1133630C154DF4F1881CF5BD040C352DF4F188392
S1133640CD5DD040C054DF4FA881C05CD040C25291
S1133650DF4FA883CE5DD040CF55DF4F9880C15A4D
S1133660D040CE55DF4FB880C25AD040CD55DF4F41
S1133670C880C35AD040CC55DF4FD880C45AD040FC
S1133680CB55DF4FF880C55AD040CA55DF4F18815B
S1133690C65AD040C955DF4FB881C75AD040C85523
S11336A0DF4FA881C85AD040792D70956B2D609555
S11336B05C2D50954D2D40953F2D3095212F209513
S11336C09B2F90958A2F8095CF54DF4F6880C15BE4
S11336D0D0406722CE54DF4F8880C25BD040862220
S11336E0CD54DF4FE880C35BD040E522CC54DF4F9C
S11336F0F881C45BD040F423CB54DF4F7881C55BA1
S1133700D0407323CA54DF4F5881C65BD040522344
S1133710C954DF4F3881C75BD0403923C854DF4FC9
S11337209881C85BD0409823C755DF4F7880C95A29
S1133730D0407920C655DF4FA880CA5AD040AB206C
S1133740C555DF4F0881CB5AD0400C21C455DF4FFB
S1133750E881CC5AD040ED21C355DF4F6881CD5A62
S1133760D0406F21C255DF4F4881CE5AD04041230B
S1133770C155DF4F2881CF5AD0402B23C055DF4F8E
S11337808881C05BD0408A236724C152DF4F68829E
S1133790CF5DD0408A24C052DF4F8882C05ED040C3
S11337A0E026CF51DF4FE882C15ED040FE27CE51E4
S11337B0DF4FF883C25ED0407627CD51DF4F788348
S11337C0C35ED0405427CC51DF4F5883C45ED040F1
S11337D03227CB51DF4F3883C55ED0409827CA517A
S11337E0DF4F9883C65ED040CF52DF4FE881F98126
S11337F0C15DD0404591559165917491A42ECF53EC
S1133800DF4F488359836A837B83C15CD040CF52A6
S1133810DF4FE881F981C15DD040349645915591DF
S113382065917491E42ECB53DF4F488359836A83A7
S11338307B83C55CD040292D3B2D4C2D5D2D6F2DF8
S1133840712F8B2F9A2F0EE25DD6222E332E542EFB
S1133850652E762E872EF82FE92F292D3B2D4C2D02
S11338605D2D6F2D712F8B2F9A2F02E34BD62226BD
S113387033265426652676268726F827E927292D18
S11338803B2D4C2D5D2D6F2D712F8B2F9A2F07E122
S113389039D6222633265426652676268726F82707
S11338A0E927CB52DF4F2881C55DD040CA52DF4F94
S11338B03881C65DD040C952DF4F4881C75DD040D2
S11338C0C852DF4F5881C85DD040C752DF4F68816E
S11338D0C95DD040C652DF4F7881CA5DD040C35223
S11338E0DF4F8881CD5DD040C252DF4F9881CE5DDD
S11338F0D040CE53DF4FB880C25CD040CD53DF4FB1
S1133900C880C35CD040CC53DF4FD880C45CD04067
S1133910CA53DF4FF880C65CD040C953DF4F0881DB
S1133920C75CD040C853DF4F1881C85CD04005D66F
S1133930A22EB32EC42ED52EE62EF72E082F192F25
S1133940222D332D452D562D672D782D8F2F9E2F0B
S1133950F4D5C152DF4FA880CF5DD040C052DF4FB5
S1133960B880C05ED040CF51DF4FC880C15ED04028
S1133970CE51DF4FD880C25ED040CD51DF4FE880BA
S1133980C35ED040CC51DF4FF880C45ED040CB51F1
S1133990DF4F0881C55ED040CA51DF4F1881C65E33
S11339A0D040CBD5C553DF4FA880CB5CD040C453A7
S11339B0DF4FB880CC5CD040C353DF4FC880CD5CB0
S11339C0D040C253DF4FD880CE5CD040C153DF4FCC
S11339D0E880CF5CD040CD52DF4FF880C35DD0404B
S11339E0CC52DF4F0881C45DD040142DA6D5C553F9
S11339F0DF4F2883CB5CD040C453DF4F3883CC5C8B
S1133A00D040C353DF4F4883CD5CD040C253DF4F17
S1133A105883CE5CD040C153DF4F6883CF5CD04025
S1133A20CD52DF4F7883C35DD040CC52DF4F8883C3
S1133A30C45DD040CB52DF4F9883C55DD040CF5793
S1133A40DF4FA880C158D040CE57DF4FB880C2584E
S1133A50D040CD57DF4F7880C358D040CC57DF4F8C
S1133A606880C458D040CB57DF4F5880C558D040E9
S1133A70CA57DF4F4880C658D040C957DF4F3880F7
S1133A80C758D040C857DF4F2880C858D040C757C0
S1133A90DF4F1881C958D040CA52DF4F1883C65D22
S1133AA0D040C657DF4F1881CA58D040C952DF4FA3
S1133AB01883C75DD040C557DF4F1881CB58D0401D
S1133AC0C852DF4F1883C85DD040C457DF4F1881F8
S1133AD0CC58D040C752DF4F1883C95DD040C3577C
S1133AE0DF4F1881CD58D040C652DF4F1883CA5DCE
S1133AF0D040C257DF4F1881CE58D040C352DF4F59
S1133B001883CD5DD040C157DF4F1881CF58D040C6
S1133B10C252DF4F1883CE5DD040C057DF4F88803C
S1133B20C059D040CF56DF4F1881C159D040C1523F
S1133B30DF4F1883CF5DD040CE56DF4F1881C25976
S1133B40D040C052DF4F1883C05ED040CD56DF4F07
S1133B501881C359D040CF51DF4F1883C15ED04084
S1133B60CC56DF4F1881C459D040CE51DF4F188353
S1133B70C25ED040CB56DF4F1881C559D040CD51DD
S1133B80DF4F1883C35ED040CA56DF4F1881C65931
S1133B90D040CC51DF4F1883C45ED040C956DF4FAC
S1133BA01881C759D040CB51DF4F1883C55ED04030
S1133BB0C856DF4F9880C859D04048E350E0BE0152
S1133BC06F577F4FC951DF4F88819981C75ED040BD
S1133BD031D52A2D3B2D472D562D652D742D832D42
S1133BE0922D0EE18FD4D22EE32EF42E152FB62F64
S1133BF0E72FA82FF92F2A2D3B2D472D562D652D64
S1133C00742D832D922D04E27DD4D226E326F4264E
S1133C101527B627E727A827F9272A2D3B2D472D57
S1133C20562D652D742D832D922D09E16BD42D25F0
S1133C303E254F2551276B277E27C152DF4FB88180
S1133C40CF5DD040CA52DF4F1881C65DD040B12746
S1133C50C052DF4FE881C05ED040C952DF4F1881A7
S1133C60C75DD040E127CF51DF4FC880C15ED0404F
S1133C70C852DF4F1881C85DD040C126CE51DF4FF6
S1133C80D880C25ED040C752DF4F1881C95DD04092
S1133C90D126CD51DF4FE880C35ED040C652DF4FFE
S1133CA01881CA5DD040E126CC51DF4FF880C45E54
S1133CB0D040C352DF4F1881CD5DD040F126CB51A7
S1133CC0DF4F0881C55ED040C252DF4F1881CE5D00
S1133CD0D0400127192D1825AB22BE22C720D6209B
S1133CE0E520F42003211221CA52DF4FE881C65D8A
S1133CF0D040C152DF4FB881CF5DD040EB23C952D1
S1133D00DF4F2880C75DD040C052DF4FB881C05E0E
S1133D10D0402B22C852DF4F3880C85DD040CF51ED
S1133D20DF4FB881C15ED0403B22C752DF4F48808D
S1133D30C95DD040CE51DF4FB881C25ED0404B2226
S1133D40C652DF4F5880CA5DD040CD51DF4FB88195
S1133D50C35ED0405B22C352DF4F6880CD5DD0404C
S1133D60CC51DF4FB881C45ED0406B22C252DF4FCA
S1133D707880CE5DD040CB51DF4FB881C55ED04056
S1133D807B22B82DB921AE26B224C324D424E52441
S1133D90F62407251B278A279F27CFD3C553DF4F38
S1133DA0A880CB5CD040C453DF4FB880CC5CD040FB
S1133DB0C353DF4FC880CD5CD040C253DF4FD8809F
S1133DC0CE5CD040C153DF4FE880CF5CD040CD52B1
S1133DD0DF4FF880C35DD040CC52DF4F0881C45D13
S1133DE0D040CB52DF4F1881C55DD040A6D3CF570A
S1133DF0DF4F2883C158D040CE57DF4F3883C25895
S1133E00D040CD57DF4F4883C358D040CC57DF4F05
S1133E105883C458D040CB57DF4F6883C558D0402F
S1133E20CA57DF4F7883C658D040C957DF4F8883BD
S1133E30C758D040C857DF4F9883C858D0402A2D60
S1133E403B2D4C2D5D2D6E2D7F2D802F912FCF5529
S1133E50DF4FA880C15AD040CE55DF4FB880C25A38
S1133E60D040CD55DF4FC880C35AD040CC55DF4F2A
S1133E70D880C45AD040CB55DF4FE880C55AD040D3
S1133E80CA55DF4FF880C65AD040C955DF4F088164
S1133E90C75AD040C855DF4F1881C85AD0404DD3B7
S1133EA0CF55DF4F2883C15AD040CE55DF4F3883DA
S1133EB0C25AD040CD55DF4F4883C35AD040CC5569
S1133EC0DF4F5883C45AD040CB55DF4F6883C55A5F
S1133ED0D040CA55DF4F7883C65AD040C955DF4F0A
S1133EE08883C75AD040C855DF4F9883C85AD040FA
S1133EF0C053DF4FE881C05DD040EF5FC053DF4F58
S1133F00E883C05DD040C552DF4F88819981CB5D85
S1133F10D0400896C552DF4F99838883CB5DD0404B
S1133F20CF52DF4FA881B981C15DD0401896CF52DE
S1133F30DF4FB983A883C15DD040E03509F0F9C8EB
S1133F400F2EF7E09F2EF02D792CC751DF4F88807C
S1133F509980C95ED040A72DB0E0AA0FBB1FAA0F5D
S1133F60BB1FAA0FBB1FF401EA0FFB1F81E890E0FF
S1133F708C0F9D1FA80FB91F20813181428153816D
S1133F806481758186819781AC901196BC9011975C
S1133F901296CC9012971396DC9013971496EC908B
S1133FA014971596FC90159716960C9116971796DC
S1133FB01C91C3D2208331834283538364837583EA
S1133FC0868397837A949FEF7912C5CFC751DF4FC9
S1133FD0E881F981C95ED040E05CFF4F8081918126
S1133FE0A281B3810196A11DB11D80839183A28317
S1133FF0B383C651DF4F0FB6F894DEBF0FBECDBFFB
S1134000DF91CF911F910F91FF90EF90DF90CF90B0
S1134010BF90AF909F908F907F906F905F904F90E4
S11340203F902F9008952F923F924F925F926F92FC
S11340307F928F929F92AF92BF92CF92DF92EF9234
S1134040FF920F931F93CF93DF93CDB7DEB7CC5876
S1134050D1090FB6F894DEBF0FBECDBFCF57DF4FE7
S113406099838883C158D040C557DF4F79836883CB
S1134070CB58D0404A01411524E0520778F17A0127
S11340808B01B801CF57DF4F88819981C158D04047
S11340900E94B71700581F4F34E0F31AE11484E06C
S11340A0F80678F7C4019450892F99278695869548
S11340B001969695982F882797958795C557DF4F32
S11340C0E881F981CB58D040E80FF91FC557DF4F7D
S11340D0F983E883CB58D040F3E09F22CF57DF4FDA
S11340E0E881F981C158D040E05CFF4F8081918123
S11340F0A281B3815C016D01282F3B2D4C2D5D2DD8
S113410060E070E080E090E00AE0C5D15401C12C89
S1134110D12CE12CF12C8701CD57DF4F8882C35875
S1134120D040CC57DF4FB882C458D040CB57DF4F74
S1134130C882C558D040CA57DF4FD882C658D0402D
S1134140C957DF4FE882C758D040C857DF4FF882BD
S1134150C858D040C757DF4F0883C958D040C65706
S1134160DF4F1883CA58D040C12CD12CE12CF12C3C
S113417000E010E0E2D1E22FA32EB42EB52FA62F3B
S1134180F72F282E392E6894442443F8712C512C8F
S1134190612C272D3C2D4D2D5E2D6F2D712F852DDE
S11341A0962D08E078D17E2E722AC32ED42EE52EC9
S11341B0F62E172F582E692E2E2F3A2D4B2D5B2FAE
S11341C06A2F7F2F822D932D81D1E22FA32EB42E1F
S11341D0B52FA62FF72F282E392E4A944110D9CF68
S11341E09E012F5F3F4F590180E8F90111928A9592
S11341F0E9F7A401495F5F4F569547955695479552
S113420056954795C557DF4F68817981CB58D04083
S1134210C90107D2F401F695E795F695E795F69569
S1134220E795EA0DFB1D94012770332780E890E0A1
S113423002C0959587952A95E2F79081892B808312
S1134240F0E88F16F3E09F0670F0B501CF57DF4F0B
S113425088819981C158D0400E94B71788E7F50139
S113426011928A95E9F7EA967FAEEA97EB96CFAE7C
S1134270EB97EC96DFAEEC97ED96EFAEED97EE96FE
S1134280FFAEEE97EF961FAFEF97C158DF4F5882FE
S1134290CF57D040C058DF4F6882C058D040BE01CD
S11342A06F5F7F4FCF57DF4F88819981C158D040CE
S11342B00E94B717C457DF4F0FB6F894DEBF0FBE86
S11342C0CDBFDF91CF911F910F91FF90EF90DF90C1
S11342D0CF90BF90AF909F908F907F906F905F90A2
S11342E04F903F902F900895FC01E05CFF4F1082A7
S11342F011821282138240E450E064E173E07BC1D6
S11343000895CF93DF93AC01EC01C05CDF4FFA0159
S113431097E0DB01A90FB11D2C9121939150C8F7AF
S1134320485F5F4F685F7F4F4C175D0781F7DF91F0
S1134330CF9108954F925F926F927F928F929F9246
S1134340AF92BF92CF92DF92EF92FF920F931F939F
S1134350CF93DF93CDB7DEB7C454D1090FB6F89429
S1134360DEBF0FBECDBF4C015B0169017A01CE01F6
S11343700196BADFC11484E0D806E104F10470F1B7
S1134380260137018501B801CE0101960E94B717B5
S113439000581F4F84E0581A61087108411484E0E2
S11343A058066104710478F7D701C6019450A10935
S11343B0B109072E7AE0B695A795979587957A95D2
S11343C0D1F7702D01969695982F88279795879504
S11343D0A80EB91E83E0D822EE24FF24A601B5015D
S11343E0CE01019620DEBE016F5F7F4FC40189DFDD
S11343F0CC5BDF4F0FB6F894DEBF0FBECDBFDF91AD
S1134400CF911F910F91FF90EF90DF90CF90BF90CD
S1134410AF909F908F907F906F905F904F90089592
S11344201092C50083E38093C4008EE08093C200A1
S113443088E18093C1000895CF93DF93FC0101903C
S11344400020E9F73197E81BF90B1E161F0684F4C8
S1134450DC019C012E0F3F1FE0ECF0E0C6ECD0E045
S1134460908195FFFDCF9D919883A217B307C1F763
S1134470E0ECF0E0808185FFFDCF8DE08093C60005
S1134480E0ECF0E0808185FFFDCF8AE08093C600F8
S1134490DF91CF9108950F93083090F0982F872FD4
S11344A0762F652F542F432F322F22270850F4CF15
S11344B0220F331F441F551F661F771F881F991F24
S11344C00A95B2F70F91089597FB10F81694000817
S11344D00F93083098F00850232F342F452F562F70
S11344E0672F782F892F902DF4CF05949795879572
S11344F07795679557954795379527950A95AAF720
S11345000F9108950F930830A0F00850092E982FAA
S1134510872F762F652F542F432F322F202DF3CF43
S1134520220F331F441F551F661F771F881F991FB3
S1134530211D0A95AAF70F9108952A0D3B1D4C1DC4
S11345405D1D6E1D7F1D801F911F08958F929F9288
S1134550AF92BF92CF92DF92EF92FF92CF93DF930D
S1134560EC01688179818A819B81611571058105DE
S1134570910521F464E279ED8BE597E02DE133EFC9
S113458041E050E068D049015A019B01AC01A7EA1F
S1134590B1E47DD06B017C01ACEEB4EFA5019401D4
S11345A082D0DC01CB018C0D9D1DAE1DBF1DB7FF5C
S11345B003C00197A109B04888839983AA83BB8368
S11345C09F77DF91CF91FF90EF90DF90CF90BF90D6
S11345D0AF909F908F900895B9CF80E091E0B6CFCF
S11345E0A0E0B0E08093000190930101A093020148
S11345F0B09303010895FB01DC0102C005900D9204
S113460041505040D8F70895FB01DC0104C08D915E
S11346100190801921F441505040C8F7881B990B30
S11346200895FB01DC0102C001900D9241505040FD
S1134630D8F708956817790768F4FB01DC01E40FE3
S1134640F51FA40FB51F02C002900E9241505040B6
S1134650D8F70895E6CF052E97FB16F400940FD0F3
S113466057FD05D024D007FC02D046F408C050956D
S11346704095309521953F4F4F4F5F4F089590954A
S11346808095709561957F4F8F4F9F4F089531D0DE
S1134690A59F900DB49F900DA49F800D911D112492
S11346A00895B7FFF4CFF3DF821B930B0895A1E2C3
S11346B01A2EAA1BBB1BFD010DC0AA1FBB1FEE1F98
S11346C0FF1FA217B307E407F50720F0A21BB30BE3
S11346D0E40BF50B661F771F881F991F1A9469F75F
S11346E060957095809590959B01AC01BD01CF01BB
S11346F00895A29FB001B39FC001A39F700D811DB7
S11347001124911DB29F700D811D1124911D0895D6
S1074710F894FFCF47
S11347140100000066306338363366386535353554
S11347243131346266343838326363373837623946
S11347343563323732613766653464636464663181
S1134744393232663466313861343934653163332D
S113475435376131613663333264303762656235CB
S11347643736616236303130363830363866306147
S1134774396530313630633361313431313966353A
S1134784643432366137393535646133653665648A
S1134794336538313932393930373838643636622A
S11347A4663535383035326431313266353439382A
S11347B4313131373437623365323863353539381A
S11347C43464343366656438633838323261643946
S11347D4663161370001020304050607010102037F
S11347E40405060702010203040506070301020384
S11347F40405060704010203040506070501020370
S1134804040506070601020304050607070102035B
S11348140405060720200001FFFFFFFFFFFFFFFF41
S1134824FFFFFFFF00000000000000000000000084
S113483401000000FFFFFFFF512563FCC2CAB9F366
S1134844849E17A7ADFAE6BCFFFFFFFFFFFFFFFF3F
S113485400000000FFFFFFFF96C298D84539A1F479
S1134864A033EB2D817D0377F240A463E5E6BCF825
S113487447422CE1F2D1176BF551BF376840B6CBF0
S1134884CE5E316B5733CE2B169E0F7C4AEBE78EEC
S11348949B7F1AFEE242E34F4B60D2273E3CCE3B61
S11348A4F6B053CCB0061D65BC86987655BDEBB303
S11348B4E7933AAAD835C65A5A097A0A280AE00A62
S11348C44B5A4E5544565A494C00754543435F6D03
S11348D4616B655F6B65792829206661696C656421
S11348E4007072206F6B21007075206F6B2100754E
S11348F44543435F7369676E2829206661696C6563
S1134904640068656C6C6F0069646C65006175743F
S113491468656E7469636174696F6E20737461721F
S1134924746564006368616C6C656E6765207365A7
S11349346E74007369676E6174757265206973209F
S10B494476616C696421000036
S9030000FC
